
lite_qsg.elf:     file format elf32-littlearm

Sections:
Idx Name          Size      VMA       LMA       File off  Algn
  0 .isr_vector   000000bc  08000000  08000000  00001000  2**0
                  CONTENTS, ALLOC, LOAD, READONLY, DATA
  1 .text         0000f230  080000bc  080000bc  000010bc  2**2
                  CONTENTS, ALLOC, LOAD, READONLY, CODE
  2 .rodata       00000860  0800f2ec  0800f2ec  000102ec  2**2
                  CONTENTS, ALLOC, LOAD, READONLY, DATA
  3 .ARM.extab    00000000  0800fb4c  0800fb4c  00011258  2**0
                  CONTENTS
  4 .ARM          00000008  0800fb4c  0800fb4c  00010b4c  2**2
                  CONTENTS, ALLOC, LOAD, READONLY, DATA
  5 .preinit_array 00000000  0800fb54  0800fb54  00011258  2**0
                  CONTENTS, ALLOC, LOAD, DATA
  6 .init_array   00000004  0800fb54  0800fb54  00010b54  2**2
                  CONTENTS, ALLOC, LOAD, READONLY, DATA
  7 .fini_array   00000004  0800fb58  0800fb58  00010b58  2**2
                  CONTENTS, ALLOC, LOAD, READONLY, DATA
  8 .data         00000258  20000000  0800fb5c  00011000  2**2
                  CONTENTS, ALLOC, LOAD, DATA
  9 .bss          000004a8  20000258  0800fdb4  00011258  2**2
                  ALLOC
 10 ._user_heap_stack 00001200  20000700  0800fdb4  00011700  2**0
                  ALLOC
 11 .ARM.attributes 00000028  00000000  00000000  00011258  2**0
                  CONTENTS, READONLY
 12 .debug_info   000351ae  00000000  00000000  00011280  2**0
                  CONTENTS, READONLY, DEBUGGING, OCTETS
 13 .debug_abbrev 00004eda  00000000  00000000  0004642e  2**0
                  CONTENTS, READONLY, DEBUGGING, OCTETS
 14 .debug_aranges 00002e40  00000000  00000000  0004b308  2**3
                  CONTENTS, READONLY, DEBUGGING, OCTETS
 15 .debug_rnglists 000023f2  00000000  00000000  0004e148  2**0
                  CONTENTS, READONLY, DEBUGGING, OCTETS
 16 .debug_macro  00021d96  00000000  00000000  0005053a  2**0
                  CONTENTS, READONLY, DEBUGGING, OCTETS
 17 .debug_line   00029ee8  00000000  00000000  000722d0  2**0
                  CONTENTS, READONLY, DEBUGGING, OCTETS
 18 .debug_str    000cf1b0  00000000  00000000  0009c1b8  2**0
                  CONTENTS, READONLY, DEBUGGING, OCTETS
 19 .comment      00000043  00000000  00000000  0016b368  2**0
                  CONTENTS, READONLY
 20 .debug_frame  0000b6b8  00000000  00000000  0016b3ac  2**2
                  CONTENTS, READONLY, DEBUGGING, OCTETS
 21 .debug_line_str 0000005d  00000000  00000000  00176a64  2**0
                  CONTENTS, READONLY, DEBUGGING, OCTETS

Disassembly of section .text:

080000bc <__do_global_dtors_aux>:
 80000bc:	b510      	push	{r4, lr}
 80000be:	4c06      	ldr	r4, [pc, #24]	@ (80000d8 <__do_global_dtors_aux+0x1c>)
 80000c0:	7823      	ldrb	r3, [r4, #0]
 80000c2:	2b00      	cmp	r3, #0
 80000c4:	d107      	bne.n	80000d6 <__do_global_dtors_aux+0x1a>
 80000c6:	4b05      	ldr	r3, [pc, #20]	@ (80000dc <__do_global_dtors_aux+0x20>)
 80000c8:	2b00      	cmp	r3, #0
 80000ca:	d002      	beq.n	80000d2 <__do_global_dtors_aux+0x16>
 80000cc:	4804      	ldr	r0, [pc, #16]	@ (80000e0 <__do_global_dtors_aux+0x24>)
 80000ce:	e000      	b.n	80000d2 <__do_global_dtors_aux+0x16>
 80000d0:	bf00      	nop
 80000d2:	2301      	movs	r3, #1
 80000d4:	7023      	strb	r3, [r4, #0]
 80000d6:	bd10      	pop	{r4, pc}
 80000d8:	20000258 	.word	0x20000258
 80000dc:	00000000 	.word	0x00000000
 80000e0:	0800f2d4 	.word	0x0800f2d4

080000e4 <frame_dummy>:
 80000e4:	4b04      	ldr	r3, [pc, #16]	@ (80000f8 <frame_dummy+0x14>)
 80000e6:	b510      	push	{r4, lr}
 80000e8:	2b00      	cmp	r3, #0
 80000ea:	d003      	beq.n	80000f4 <frame_dummy+0x10>
 80000ec:	4903      	ldr	r1, [pc, #12]	@ (80000fc <frame_dummy+0x18>)
 80000ee:	4804      	ldr	r0, [pc, #16]	@ (8000100 <frame_dummy+0x1c>)
 80000f0:	e000      	b.n	80000f4 <frame_dummy+0x10>
 80000f2:	bf00      	nop
 80000f4:	bd10      	pop	{r4, pc}
 80000f6:	46c0      	nop			@ (mov r8, r8)
 80000f8:	00000000 	.word	0x00000000
 80000fc:	2000025c 	.word	0x2000025c
 8000100:	0800f2d4 	.word	0x0800f2d4

08000104 <__gnu_thumb1_case_shi>:
 8000104:	b403      	push	{r0, r1}
 8000106:	4671      	mov	r1, lr
 8000108:	0849      	lsrs	r1, r1, #1
 800010a:	0040      	lsls	r0, r0, #1
 800010c:	0049      	lsls	r1, r1, #1
 800010e:	5e09      	ldrsh	r1, [r1, r0]
 8000110:	0049      	lsls	r1, r1, #1
 8000112:	448e      	add	lr, r1
 8000114:	bc03      	pop	{r0, r1}
 8000116:	4770      	bx	lr

08000118 <__udivsi3>:
 8000118:	2200      	movs	r2, #0
 800011a:	0843      	lsrs	r3, r0, #1
 800011c:	428b      	cmp	r3, r1
 800011e:	d374      	bcc.n	800020a <__udivsi3+0xf2>
 8000120:	0903      	lsrs	r3, r0, #4
 8000122:	428b      	cmp	r3, r1
 8000124:	d35f      	bcc.n	80001e6 <__udivsi3+0xce>
 8000126:	0a03      	lsrs	r3, r0, #8
 8000128:	428b      	cmp	r3, r1
 800012a:	d344      	bcc.n	80001b6 <__udivsi3+0x9e>
 800012c:	0b03      	lsrs	r3, r0, #12
 800012e:	428b      	cmp	r3, r1
 8000130:	d328      	bcc.n	8000184 <__udivsi3+0x6c>
 8000132:	0c03      	lsrs	r3, r0, #16
 8000134:	428b      	cmp	r3, r1
 8000136:	d30d      	bcc.n	8000154 <__udivsi3+0x3c>
 8000138:	22ff      	movs	r2, #255	@ 0xff
 800013a:	0209      	lsls	r1, r1, #8
 800013c:	ba12      	rev	r2, r2
 800013e:	0c03      	lsrs	r3, r0, #16
 8000140:	428b      	cmp	r3, r1
 8000142:	d302      	bcc.n	800014a <__udivsi3+0x32>
 8000144:	1212      	asrs	r2, r2, #8
 8000146:	0209      	lsls	r1, r1, #8
 8000148:	d065      	beq.n	8000216 <__udivsi3+0xfe>
 800014a:	0b03      	lsrs	r3, r0, #12
 800014c:	428b      	cmp	r3, r1
 800014e:	d319      	bcc.n	8000184 <__udivsi3+0x6c>
 8000150:	e000      	b.n	8000154 <__udivsi3+0x3c>
 8000152:	0a09      	lsrs	r1, r1, #8
 8000154:	0bc3      	lsrs	r3, r0, #15
 8000156:	428b      	cmp	r3, r1
 8000158:	d301      	bcc.n	800015e <__udivsi3+0x46>
 800015a:	03cb      	lsls	r3, r1, #15
 800015c:	1ac0      	subs	r0, r0, r3
 800015e:	4152      	adcs	r2, r2
 8000160:	0b83      	lsrs	r3, r0, #14
 8000162:	428b      	cmp	r3, r1
 8000164:	d301      	bcc.n	800016a <__udivsi3+0x52>
 8000166:	038b      	lsls	r3, r1, #14
 8000168:	1ac0      	subs	r0, r0, r3
 800016a:	4152      	adcs	r2, r2
 800016c:	0b43      	lsrs	r3, r0, #13
 800016e:	428b      	cmp	r3, r1
 8000170:	d301      	bcc.n	8000176 <__udivsi3+0x5e>
 8000172:	034b      	lsls	r3, r1, #13
 8000174:	1ac0      	subs	r0, r0, r3
 8000176:	4152      	adcs	r2, r2
 8000178:	0b03      	lsrs	r3, r0, #12
 800017a:	428b      	cmp	r3, r1
 800017c:	d301      	bcc.n	8000182 <__udivsi3+0x6a>
 800017e:	030b      	lsls	r3, r1, #12
 8000180:	1ac0      	subs	r0, r0, r3
 8000182:	4152      	adcs	r2, r2
 8000184:	0ac3      	lsrs	r3, r0, #11
 8000186:	428b      	cmp	r3, r1
 8000188:	d301      	bcc.n	800018e <__udivsi3+0x76>
 800018a:	02cb      	lsls	r3, r1, #11
 800018c:	1ac0      	subs	r0, r0, r3
 800018e:	4152      	adcs	r2, r2
 8000190:	0a83      	lsrs	r3, r0, #10
 8000192:	428b      	cmp	r3, r1
 8000194:	d301      	bcc.n	800019a <__udivsi3+0x82>
 8000196:	028b      	lsls	r3, r1, #10
 8000198:	1ac0      	subs	r0, r0, r3
 800019a:	4152      	adcs	r2, r2
 800019c:	0a43      	lsrs	r3, r0, #9
 800019e:	428b      	cmp	r3, r1
 80001a0:	d301      	bcc.n	80001a6 <__udivsi3+0x8e>
 80001a2:	024b      	lsls	r3, r1, #9
 80001a4:	1ac0      	subs	r0, r0, r3
 80001a6:	4152      	adcs	r2, r2
 80001a8:	0a03      	lsrs	r3, r0, #8
 80001aa:	428b      	cmp	r3, r1
 80001ac:	d301      	bcc.n	80001b2 <__udivsi3+0x9a>
 80001ae:	020b      	lsls	r3, r1, #8
 80001b0:	1ac0      	subs	r0, r0, r3
 80001b2:	4152      	adcs	r2, r2
 80001b4:	d2cd      	bcs.n	8000152 <__udivsi3+0x3a>
 80001b6:	09c3      	lsrs	r3, r0, #7
 80001b8:	428b      	cmp	r3, r1
 80001ba:	d301      	bcc.n	80001c0 <__udivsi3+0xa8>
 80001bc:	01cb      	lsls	r3, r1, #7
 80001be:	1ac0      	subs	r0, r0, r3
 80001c0:	4152      	adcs	r2, r2
 80001c2:	0983      	lsrs	r3, r0, #6
 80001c4:	428b      	cmp	r3, r1
 80001c6:	d301      	bcc.n	80001cc <__udivsi3+0xb4>
 80001c8:	018b      	lsls	r3, r1, #6
 80001ca:	1ac0      	subs	r0, r0, r3
 80001cc:	4152      	adcs	r2, r2
 80001ce:	0943      	lsrs	r3, r0, #5
 80001d0:	428b      	cmp	r3, r1
 80001d2:	d301      	bcc.n	80001d8 <__udivsi3+0xc0>
 80001d4:	014b      	lsls	r3, r1, #5
 80001d6:	1ac0      	subs	r0, r0, r3
 80001d8:	4152      	adcs	r2, r2
 80001da:	0903      	lsrs	r3, r0, #4
 80001dc:	428b      	cmp	r3, r1
 80001de:	d301      	bcc.n	80001e4 <__udivsi3+0xcc>
 80001e0:	010b      	lsls	r3, r1, #4
 80001e2:	1ac0      	subs	r0, r0, r3
 80001e4:	4152      	adcs	r2, r2
 80001e6:	08c3      	lsrs	r3, r0, #3
 80001e8:	428b      	cmp	r3, r1
 80001ea:	d301      	bcc.n	80001f0 <__udivsi3+0xd8>
 80001ec:	00cb      	lsls	r3, r1, #3
 80001ee:	1ac0      	subs	r0, r0, r3
 80001f0:	4152      	adcs	r2, r2
 80001f2:	0883      	lsrs	r3, r0, #2
 80001f4:	428b      	cmp	r3, r1
 80001f6:	d301      	bcc.n	80001fc <__udivsi3+0xe4>
 80001f8:	008b      	lsls	r3, r1, #2
 80001fa:	1ac0      	subs	r0, r0, r3
 80001fc:	4152      	adcs	r2, r2
 80001fe:	0843      	lsrs	r3, r0, #1
 8000200:	428b      	cmp	r3, r1
 8000202:	d301      	bcc.n	8000208 <__udivsi3+0xf0>
 8000204:	004b      	lsls	r3, r1, #1
 8000206:	1ac0      	subs	r0, r0, r3
 8000208:	4152      	adcs	r2, r2
 800020a:	1a41      	subs	r1, r0, r1
 800020c:	d200      	bcs.n	8000210 <__udivsi3+0xf8>
 800020e:	4601      	mov	r1, r0
 8000210:	4152      	adcs	r2, r2
 8000212:	4610      	mov	r0, r2
 8000214:	4770      	bx	lr
 8000216:	e7ff      	b.n	8000218 <__udivsi3+0x100>
 8000218:	b501      	push	{r0, lr}
 800021a:	2000      	movs	r0, #0
 800021c:	f000 f8f0 	bl	8000400 <__aeabi_idiv0>
 8000220:	bd02      	pop	{r1, pc}
 8000222:	46c0      	nop			@ (mov r8, r8)

08000224 <__aeabi_uidivmod>:
 8000224:	2900      	cmp	r1, #0
 8000226:	d0f7      	beq.n	8000218 <__udivsi3+0x100>
 8000228:	e776      	b.n	8000118 <__udivsi3>
 800022a:	4770      	bx	lr

0800022c <__divsi3>:
 800022c:	4603      	mov	r3, r0
 800022e:	430b      	orrs	r3, r1
 8000230:	d47f      	bmi.n	8000332 <__divsi3+0x106>
 8000232:	2200      	movs	r2, #0
 8000234:	0843      	lsrs	r3, r0, #1
 8000236:	428b      	cmp	r3, r1
 8000238:	d374      	bcc.n	8000324 <__divsi3+0xf8>
 800023a:	0903      	lsrs	r3, r0, #4
 800023c:	428b      	cmp	r3, r1
 800023e:	d35f      	bcc.n	8000300 <__divsi3+0xd4>
 8000240:	0a03      	lsrs	r3, r0, #8
 8000242:	428b      	cmp	r3, r1
 8000244:	d344      	bcc.n	80002d0 <__divsi3+0xa4>
 8000246:	0b03      	lsrs	r3, r0, #12
 8000248:	428b      	cmp	r3, r1
 800024a:	d328      	bcc.n	800029e <__divsi3+0x72>
 800024c:	0c03      	lsrs	r3, r0, #16
 800024e:	428b      	cmp	r3, r1
 8000250:	d30d      	bcc.n	800026e <__divsi3+0x42>
 8000252:	22ff      	movs	r2, #255	@ 0xff
 8000254:	0209      	lsls	r1, r1, #8
 8000256:	ba12      	rev	r2, r2
 8000258:	0c03      	lsrs	r3, r0, #16
 800025a:	428b      	cmp	r3, r1
 800025c:	d302      	bcc.n	8000264 <__divsi3+0x38>
 800025e:	1212      	asrs	r2, r2, #8
 8000260:	0209      	lsls	r1, r1, #8
 8000262:	d065      	beq.n	8000330 <__divsi3+0x104>
 8000264:	0b03      	lsrs	r3, r0, #12
 8000266:	428b      	cmp	r3, r1
 8000268:	d319      	bcc.n	800029e <__divsi3+0x72>
 800026a:	e000      	b.n	800026e <__divsi3+0x42>
 800026c:	0a09      	lsrs	r1, r1, #8
 800026e:	0bc3      	lsrs	r3, r0, #15
 8000270:	428b      	cmp	r3, r1
 8000272:	d301      	bcc.n	8000278 <__divsi3+0x4c>
 8000274:	03cb      	lsls	r3, r1, #15
 8000276:	1ac0      	subs	r0, r0, r3
 8000278:	4152      	adcs	r2, r2
 800027a:	0b83      	lsrs	r3, r0, #14
 800027c:	428b      	cmp	r3, r1
 800027e:	d301      	bcc.n	8000284 <__divsi3+0x58>
 8000280:	038b      	lsls	r3, r1, #14
 8000282:	1ac0      	subs	r0, r0, r3
 8000284:	4152      	adcs	r2, r2
 8000286:	0b43      	lsrs	r3, r0, #13
 8000288:	428b      	cmp	r3, r1
 800028a:	d301      	bcc.n	8000290 <__divsi3+0x64>
 800028c:	034b      	lsls	r3, r1, #13
 800028e:	1ac0      	subs	r0, r0, r3
 8000290:	4152      	adcs	r2, r2
 8000292:	0b03      	lsrs	r3, r0, #12
 8000294:	428b      	cmp	r3, r1
 8000296:	d301      	bcc.n	800029c <__divsi3+0x70>
 8000298:	030b      	lsls	r3, r1, #12
 800029a:	1ac0      	subs	r0, r0, r3
 800029c:	4152      	adcs	r2, r2
 800029e:	0ac3      	lsrs	r3, r0, #11
 80002a0:	428b      	cmp	r3, r1
 80002a2:	d301      	bcc.n	80002a8 <__divsi3+0x7c>
 80002a4:	02cb      	lsls	r3, r1, #11
 80002a6:	1ac0      	subs	r0, r0, r3
 80002a8:	4152      	adcs	r2, r2
 80002aa:	0a83      	lsrs	r3, r0, #10
 80002ac:	428b      	cmp	r3, r1
 80002ae:	d301      	bcc.n	80002b4 <__divsi3+0x88>
 80002b0:	028b      	lsls	r3, r1, #10
 80002b2:	1ac0      	subs	r0, r0, r3
 80002b4:	4152      	adcs	r2, r2
 80002b6:	0a43      	lsrs	r3, r0, #9
 80002b8:	428b      	cmp	r3, r1
 80002ba:	d301      	bcc.n	80002c0 <__divsi3+0x94>
 80002bc:	024b      	lsls	r3, r1, #9
 80002be:	1ac0      	subs	r0, r0, r3
 80002c0:	4152      	adcs	r2, r2
 80002c2:	0a03      	lsrs	r3, r0, #8
 80002c4:	428b      	cmp	r3, r1
 80002c6:	d301      	bcc.n	80002cc <__divsi3+0xa0>
 80002c8:	020b      	lsls	r3, r1, #8
 80002ca:	1ac0      	subs	r0, r0, r3
 80002cc:	4152      	adcs	r2, r2
 80002ce:	d2cd      	bcs.n	800026c <__divsi3+0x40>
 80002d0:	09c3      	lsrs	r3, r0, #7
 80002d2:	428b      	cmp	r3, r1
 80002d4:	d301      	bcc.n	80002da <__divsi3+0xae>
 80002d6:	01cb      	lsls	r3, r1, #7
 80002d8:	1ac0      	subs	r0, r0, r3
 80002da:	4152      	adcs	r2, r2
 80002dc:	0983      	lsrs	r3, r0, #6
 80002de:	428b      	cmp	r3, r1
 80002e0:	d301      	bcc.n	80002e6 <__divsi3+0xba>
 80002e2:	018b      	lsls	r3, r1, #6
 80002e4:	1ac0      	subs	r0, r0, r3
 80002e6:	4152      	adcs	r2, r2
 80002e8:	0943      	lsrs	r3, r0, #5
 80002ea:	428b      	cmp	r3, r1
 80002ec:	d301      	bcc.n	80002f2 <__divsi3+0xc6>
 80002ee:	014b      	lsls	r3, r1, #5
 80002f0:	1ac0      	subs	r0, r0, r3
 80002f2:	4152      	adcs	r2, r2
 80002f4:	0903      	lsrs	r3, r0, #4
 80002f6:	428b      	cmp	r3, r1
 80002f8:	d301      	bcc.n	80002fe <__divsi3+0xd2>
 80002fa:	010b      	lsls	r3, r1, #4
 80002fc:	1ac0      	subs	r0, r0, r3
 80002fe:	4152      	adcs	r2, r2
 8000300:	08c3      	lsrs	r3, r0, #3
 8000302:	428b      	cmp	r3, r1
 8000304:	d301      	bcc.n	800030a <__divsi3+0xde>
 8000306:	00cb      	lsls	r3, r1, #3
 8000308:	1ac0      	subs	r0, r0, r3
 800030a:	4152      	adcs	r2, r2
 800030c:	0883      	lsrs	r3, r0, #2
 800030e:	428b      	cmp	r3, r1
 8000310:	d301      	bcc.n	8000316 <__divsi3+0xea>
 8000312:	008b      	lsls	r3, r1, #2
 8000314:	1ac0      	subs	r0, r0, r3
 8000316:	4152      	adcs	r2, r2
 8000318:	0843      	lsrs	r3, r0, #1
 800031a:	428b      	cmp	r3, r1
 800031c:	d301      	bcc.n	8000322 <__divsi3+0xf6>
 800031e:	004b      	lsls	r3, r1, #1
 8000320:	1ac0      	subs	r0, r0, r3
 8000322:	4152      	adcs	r2, r2
 8000324:	1a41      	subs	r1, r0, r1
 8000326:	d200      	bcs.n	800032a <__divsi3+0xfe>
 8000328:	4601      	mov	r1, r0
 800032a:	4152      	adcs	r2, r2
 800032c:	4610      	mov	r0, r2
 800032e:	4770      	bx	lr
 8000330:	e05d      	b.n	80003ee <__divsi3+0x1c2>
 8000332:	0fca      	lsrs	r2, r1, #31
 8000334:	d000      	beq.n	8000338 <__divsi3+0x10c>
 8000336:	4249      	negs	r1, r1
 8000338:	1003      	asrs	r3, r0, #32
 800033a:	d300      	bcc.n	800033e <__divsi3+0x112>
 800033c:	4240      	negs	r0, r0
 800033e:	4053      	eors	r3, r2
 8000340:	2200      	movs	r2, #0
 8000342:	469c      	mov	ip, r3
 8000344:	0903      	lsrs	r3, r0, #4
 8000346:	428b      	cmp	r3, r1
 8000348:	d32d      	bcc.n	80003a6 <__divsi3+0x17a>
 800034a:	0a03      	lsrs	r3, r0, #8
 800034c:	428b      	cmp	r3, r1
 800034e:	d312      	bcc.n	8000376 <__divsi3+0x14a>
 8000350:	22fc      	movs	r2, #252	@ 0xfc
 8000352:	0189      	lsls	r1, r1, #6
 8000354:	ba12      	rev	r2, r2
 8000356:	0a03      	lsrs	r3, r0, #8
 8000358:	428b      	cmp	r3, r1
 800035a:	d30c      	bcc.n	8000376 <__divsi3+0x14a>
 800035c:	0189      	lsls	r1, r1, #6
 800035e:	1192      	asrs	r2, r2, #6
 8000360:	428b      	cmp	r3, r1
 8000362:	d308      	bcc.n	8000376 <__divsi3+0x14a>
 8000364:	0189      	lsls	r1, r1, #6
 8000366:	1192      	asrs	r2, r2, #6
 8000368:	428b      	cmp	r3, r1
 800036a:	d304      	bcc.n	8000376 <__divsi3+0x14a>
 800036c:	0189      	lsls	r1, r1, #6
 800036e:	d03a      	beq.n	80003e6 <__divsi3+0x1ba>
 8000370:	1192      	asrs	r2, r2, #6
 8000372:	e000      	b.n	8000376 <__divsi3+0x14a>
 8000374:	0989      	lsrs	r1, r1, #6
 8000376:	09c3      	lsrs	r3, r0, #7
 8000378:	428b      	cmp	r3, r1
 800037a:	d301      	bcc.n	8000380 <__divsi3+0x154>
 800037c:	01cb      	lsls	r3, r1, #7
 800037e:	1ac0      	subs	r0, r0, r3
 8000380:	4152      	adcs	r2, r2
 8000382:	0983      	lsrs	r3, r0, #6
 8000384:	428b      	cmp	r3, r1
 8000386:	d301      	bcc.n	800038c <__divsi3+0x160>
 8000388:	018b      	lsls	r3, r1, #6
 800038a:	1ac0      	subs	r0, r0, r3
 800038c:	4152      	adcs	r2, r2
 800038e:	0943      	lsrs	r3, r0, #5
 8000390:	428b      	cmp	r3, r1
 8000392:	d301      	bcc.n	8000398 <__divsi3+0x16c>
 8000394:	014b      	lsls	r3, r1, #5
 8000396:	1ac0      	subs	r0, r0, r3
 8000398:	4152      	adcs	r2, r2
 800039a:	0903      	lsrs	r3, r0, #4
 800039c:	428b      	cmp	r3, r1
 800039e:	d301      	bcc.n	80003a4 <__divsi3+0x178>
 80003a0:	010b      	lsls	r3, r1, #4
 80003a2:	1ac0      	subs	r0, r0, r3
 80003a4:	4152      	adcs	r2, r2
 80003a6:	08c3      	lsrs	r3, r0, #3
 80003a8:	428b      	cmp	r3, r1
 80003aa:	d301      	bcc.n	80003b0 <__divsi3+0x184>
 80003ac:	00cb      	lsls	r3, r1, #3
 80003ae:	1ac0      	subs	r0, r0, r3
 80003b0:	4152      	adcs	r2, r2
 80003b2:	0883      	lsrs	r3, r0, #2
 80003b4:	428b      	cmp	r3, r1
 80003b6:	d301      	bcc.n	80003bc <__divsi3+0x190>
 80003b8:	008b      	lsls	r3, r1, #2
 80003ba:	1ac0      	subs	r0, r0, r3
 80003bc:	4152      	adcs	r2, r2
 80003be:	d2d9      	bcs.n	8000374 <__divsi3+0x148>
 80003c0:	0843      	lsrs	r3, r0, #1
 80003c2:	428b      	cmp	r3, r1
 80003c4:	d301      	bcc.n	80003ca <__divsi3+0x19e>
 80003c6:	004b      	lsls	r3, r1, #1
 80003c8:	1ac0      	subs	r0, r0, r3
 80003ca:	4152      	adcs	r2, r2
 80003cc:	1a41      	subs	r1, r0, r1
 80003ce:	d200      	bcs.n	80003d2 <__divsi3+0x1a6>
 80003d0:	4601      	mov	r1, r0
 80003d2:	4663      	mov	r3, ip
 80003d4:	4152      	adcs	r2, r2
 80003d6:	105b      	asrs	r3, r3, #1
 80003d8:	4610      	mov	r0, r2
 80003da:	d301      	bcc.n	80003e0 <__divsi3+0x1b4>
 80003dc:	4240      	negs	r0, r0
 80003de:	2b00      	cmp	r3, #0
 80003e0:	d500      	bpl.n	80003e4 <__divsi3+0x1b8>
 80003e2:	4249      	negs	r1, r1
 80003e4:	4770      	bx	lr
 80003e6:	4663      	mov	r3, ip
 80003e8:	105b      	asrs	r3, r3, #1
 80003ea:	d300      	bcc.n	80003ee <__divsi3+0x1c2>
 80003ec:	4240      	negs	r0, r0
 80003ee:	b501      	push	{r0, lr}
 80003f0:	2000      	movs	r0, #0
 80003f2:	f000 f805 	bl	8000400 <__aeabi_idiv0>
 80003f6:	bd02      	pop	{r1, pc}

080003f8 <__aeabi_idivmod>:
 80003f8:	2900      	cmp	r1, #0
 80003fa:	d0f8      	beq.n	80003ee <__divsi3+0x1c2>
 80003fc:	e716      	b.n	800022c <__divsi3>
 80003fe:	4770      	bx	lr

08000400 <__aeabi_idiv0>:
 8000400:	4770      	bx	lr
 8000402:	46c0      	nop			@ (mov r8, r8)

08000404 <__aeabi_cfrcmple>:
 8000404:	4684      	mov	ip, r0
 8000406:	0008      	movs	r0, r1
 8000408:	4661      	mov	r1, ip
 800040a:	e7ff      	b.n	800040c <__aeabi_cfcmpeq>

0800040c <__aeabi_cfcmpeq>:
 800040c:	b51f      	push	{r0, r1, r2, r3, r4, lr}
 800040e:	f000 fab7 	bl	8000980 <__lesf2>
 8000412:	2800      	cmp	r0, #0
 8000414:	d401      	bmi.n	800041a <__aeabi_cfcmpeq+0xe>
 8000416:	2100      	movs	r1, #0
 8000418:	42c8      	cmn	r0, r1
 800041a:	bd1f      	pop	{r0, r1, r2, r3, r4, pc}

0800041c <__aeabi_fcmpeq>:
 800041c:	b510      	push	{r4, lr}
 800041e:	f000 fa37 	bl	8000890 <__eqsf2>
 8000422:	4240      	negs	r0, r0
 8000424:	3001      	adds	r0, #1
 8000426:	bd10      	pop	{r4, pc}

08000428 <__aeabi_fcmplt>:
 8000428:	b510      	push	{r4, lr}
 800042a:	f000 faa9 	bl	8000980 <__lesf2>
 800042e:	2800      	cmp	r0, #0
 8000430:	db01      	blt.n	8000436 <__aeabi_fcmplt+0xe>
 8000432:	2000      	movs	r0, #0
 8000434:	bd10      	pop	{r4, pc}
 8000436:	2001      	movs	r0, #1
 8000438:	bd10      	pop	{r4, pc}
 800043a:	46c0      	nop			@ (mov r8, r8)

0800043c <__aeabi_fcmple>:
 800043c:	b510      	push	{r4, lr}
 800043e:	f000 fa9f 	bl	8000980 <__lesf2>
 8000442:	2800      	cmp	r0, #0
 8000444:	dd01      	ble.n	800044a <__aeabi_fcmple+0xe>
 8000446:	2000      	movs	r0, #0
 8000448:	bd10      	pop	{r4, pc}
 800044a:	2001      	movs	r0, #1
 800044c:	bd10      	pop	{r4, pc}
 800044e:	46c0      	nop			@ (mov r8, r8)

08000450 <__aeabi_fcmpgt>:
 8000450:	b510      	push	{r4, lr}
 8000452:	f000 fa45 	bl	80008e0 <__gesf2>
 8000456:	2800      	cmp	r0, #0
 8000458:	dc01      	bgt.n	800045e <__aeabi_fcmpgt+0xe>
 800045a:	2000      	movs	r0, #0
 800045c:	bd10      	pop	{r4, pc}
 800045e:	2001      	movs	r0, #1
 8000460:	bd10      	pop	{r4, pc}
 8000462:	46c0      	nop			@ (mov r8, r8)

08000464 <__aeabi_fcmpge>:
 8000464:	b510      	push	{r4, lr}
 8000466:	f000 fa3b 	bl	80008e0 <__gesf2>
 800046a:	2800      	cmp	r0, #0
 800046c:	da01      	bge.n	8000472 <__aeabi_fcmpge+0xe>
 800046e:	2000      	movs	r0, #0
 8000470:	bd10      	pop	{r4, pc}
 8000472:	2001      	movs	r0, #1
 8000474:	bd10      	pop	{r4, pc}
 8000476:	46c0      	nop			@ (mov r8, r8)

08000478 <__aeabi_uldivmod>:
 8000478:	2b00      	cmp	r3, #0
 800047a:	d111      	bne.n	80004a0 <__aeabi_uldivmod+0x28>
 800047c:	2a00      	cmp	r2, #0
 800047e:	d10f      	bne.n	80004a0 <__aeabi_uldivmod+0x28>
 8000480:	2900      	cmp	r1, #0
 8000482:	d100      	bne.n	8000486 <__aeabi_uldivmod+0xe>
 8000484:	2800      	cmp	r0, #0
 8000486:	d002      	beq.n	800048e <__aeabi_uldivmod+0x16>
 8000488:	2100      	movs	r1, #0
 800048a:	43c9      	mvns	r1, r1
 800048c:	0008      	movs	r0, r1
 800048e:	b407      	push	{r0, r1, r2}
 8000490:	4802      	ldr	r0, [pc, #8]	@ (800049c <__aeabi_uldivmod+0x24>)
 8000492:	a102      	add	r1, pc, #8	@ (adr r1, 800049c <__aeabi_uldivmod+0x24>)
 8000494:	1840      	adds	r0, r0, r1
 8000496:	9002      	str	r0, [sp, #8]
 8000498:	bd03      	pop	{r0, r1, pc}
 800049a:	46c0      	nop			@ (mov r8, r8)
 800049c:	ffffff65 	.word	0xffffff65
 80004a0:	b403      	push	{r0, r1}
 80004a2:	4668      	mov	r0, sp
 80004a4:	b501      	push	{r0, lr}
 80004a6:	9802      	ldr	r0, [sp, #8]
 80004a8:	f000 f806 	bl	80004b8 <__udivmoddi4>
 80004ac:	9b01      	ldr	r3, [sp, #4]
 80004ae:	469e      	mov	lr, r3
 80004b0:	b002      	add	sp, #8
 80004b2:	bc0c      	pop	{r2, r3}
 80004b4:	4770      	bx	lr
 80004b6:	46c0      	nop			@ (mov r8, r8)

080004b8 <__udivmoddi4>:
 80004b8:	b5f0      	push	{r4, r5, r6, r7, lr}
 80004ba:	4657      	mov	r7, sl
 80004bc:	464e      	mov	r6, r9
 80004be:	4645      	mov	r5, r8
 80004c0:	46de      	mov	lr, fp
 80004c2:	b5e0      	push	{r5, r6, r7, lr}
 80004c4:	0004      	movs	r4, r0
 80004c6:	000d      	movs	r5, r1
 80004c8:	4692      	mov	sl, r2
 80004ca:	4699      	mov	r9, r3
 80004cc:	b083      	sub	sp, #12
 80004ce:	428b      	cmp	r3, r1
 80004d0:	d830      	bhi.n	8000534 <__udivmoddi4+0x7c>
 80004d2:	d02d      	beq.n	8000530 <__udivmoddi4+0x78>
 80004d4:	4649      	mov	r1, r9
 80004d6:	4650      	mov	r0, sl
 80004d8:	f000 fe4e 	bl	8001178 <__clzdi2>
 80004dc:	0029      	movs	r1, r5
 80004de:	0006      	movs	r6, r0
 80004e0:	0020      	movs	r0, r4
 80004e2:	f000 fe49 	bl	8001178 <__clzdi2>
 80004e6:	1a33      	subs	r3, r6, r0
 80004e8:	4698      	mov	r8, r3
 80004ea:	3b20      	subs	r3, #32
 80004ec:	d434      	bmi.n	8000558 <__udivmoddi4+0xa0>
 80004ee:	469b      	mov	fp, r3
 80004f0:	4653      	mov	r3, sl
 80004f2:	465a      	mov	r2, fp
 80004f4:	4093      	lsls	r3, r2
 80004f6:	4642      	mov	r2, r8
 80004f8:	001f      	movs	r7, r3
 80004fa:	4653      	mov	r3, sl
 80004fc:	4093      	lsls	r3, r2
 80004fe:	001e      	movs	r6, r3
 8000500:	42af      	cmp	r7, r5
 8000502:	d83b      	bhi.n	800057c <__udivmoddi4+0xc4>
 8000504:	42af      	cmp	r7, r5
 8000506:	d100      	bne.n	800050a <__udivmoddi4+0x52>
 8000508:	e079      	b.n	80005fe <__udivmoddi4+0x146>
 800050a:	465b      	mov	r3, fp
 800050c:	1ba4      	subs	r4, r4, r6
 800050e:	41bd      	sbcs	r5, r7
 8000510:	2b00      	cmp	r3, #0
 8000512:	da00      	bge.n	8000516 <__udivmoddi4+0x5e>
 8000514:	e076      	b.n	8000604 <__udivmoddi4+0x14c>
 8000516:	2200      	movs	r2, #0
 8000518:	2300      	movs	r3, #0
 800051a:	9200      	str	r2, [sp, #0]
 800051c:	9301      	str	r3, [sp, #4]
 800051e:	2301      	movs	r3, #1
 8000520:	465a      	mov	r2, fp
 8000522:	4093      	lsls	r3, r2
 8000524:	9301      	str	r3, [sp, #4]
 8000526:	2301      	movs	r3, #1
 8000528:	4642      	mov	r2, r8
 800052a:	4093      	lsls	r3, r2
 800052c:	9300      	str	r3, [sp, #0]
 800052e:	e029      	b.n	8000584 <__udivmoddi4+0xcc>
 8000530:	4282      	cmp	r2, r0
 8000532:	d9cf      	bls.n	80004d4 <__udivmoddi4+0x1c>
 8000534:	2200      	movs	r2, #0
 8000536:	2300      	movs	r3, #0
 8000538:	9200      	str	r2, [sp, #0]
 800053a:	9301      	str	r3, [sp, #4]
 800053c:	9b0c      	ldr	r3, [sp, #48]	@ 0x30
 800053e:	2b00      	cmp	r3, #0
 8000540:	d001      	beq.n	8000546 <__udivmoddi4+0x8e>
 8000542:	601c      	str	r4, [r3, #0]
 8000544:	605d      	str	r5, [r3, #4]
 8000546:	9800      	ldr	r0, [sp, #0]
 8000548:	9901      	ldr	r1, [sp, #4]
 800054a:	b003      	add	sp, #12
 800054c:	bcf0      	pop	{r4, r5, r6, r7}
 800054e:	46bb      	mov	fp, r7
 8000550:	46b2      	mov	sl, r6
 8000552:	46a9      	mov	r9, r5
 8000554:	46a0      	mov	r8, r4
 8000556:	bdf0      	pop	{r4, r5, r6, r7, pc}
 8000558:	4642      	mov	r2, r8
 800055a:	469b      	mov	fp, r3
 800055c:	2320      	movs	r3, #32
 800055e:	1a9b      	subs	r3, r3, r2
 8000560:	4652      	mov	r2, sl
 8000562:	40da      	lsrs	r2, r3
 8000564:	4641      	mov	r1, r8
 8000566:	0013      	movs	r3, r2
 8000568:	464a      	mov	r2, r9
 800056a:	408a      	lsls	r2, r1
 800056c:	0017      	movs	r7, r2
 800056e:	4642      	mov	r2, r8
 8000570:	431f      	orrs	r7, r3
 8000572:	4653      	mov	r3, sl
 8000574:	4093      	lsls	r3, r2
 8000576:	001e      	movs	r6, r3
 8000578:	42af      	cmp	r7, r5
 800057a:	d9c3      	bls.n	8000504 <__udivmoddi4+0x4c>
 800057c:	2200      	movs	r2, #0
 800057e:	2300      	movs	r3, #0
 8000580:	9200      	str	r2, [sp, #0]
 8000582:	9301      	str	r3, [sp, #4]
 8000584:	4643      	mov	r3, r8
 8000586:	2b00      	cmp	r3, #0
 8000588:	d0d8      	beq.n	800053c <__udivmoddi4+0x84>
 800058a:	07fb      	lsls	r3, r7, #31
 800058c:	0872      	lsrs	r2, r6, #1
 800058e:	431a      	orrs	r2, r3
 8000590:	4646      	mov	r6, r8
 8000592:	087b      	lsrs	r3, r7, #1
 8000594:	e00e      	b.n	80005b4 <__udivmoddi4+0xfc>
 8000596:	42ab      	cmp	r3, r5
 8000598:	d101      	bne.n	800059e <__udivmoddi4+0xe6>
 800059a:	42a2      	cmp	r2, r4
 800059c:	d80c      	bhi.n	80005b8 <__udivmoddi4+0x100>
 800059e:	1aa4      	subs	r4, r4, r2
 80005a0:	419d      	sbcs	r5, r3
 80005a2:	2001      	movs	r0, #1
 80005a4:	1924      	adds	r4, r4, r4
 80005a6:	416d      	adcs	r5, r5
 80005a8:	2100      	movs	r1, #0
 80005aa:	3e01      	subs	r6, #1
 80005ac:	1824      	adds	r4, r4, r0
 80005ae:	414d      	adcs	r5, r1
 80005b0:	2e00      	cmp	r6, #0
 80005b2:	d006      	beq.n	80005c2 <__udivmoddi4+0x10a>
 80005b4:	42ab      	cmp	r3, r5
 80005b6:	d9ee      	bls.n	8000596 <__udivmoddi4+0xde>
 80005b8:	3e01      	subs	r6, #1
 80005ba:	1924      	adds	r4, r4, r4
 80005bc:	416d      	adcs	r5, r5
 80005be:	2e00      	cmp	r6, #0
 80005c0:	d1f8      	bne.n	80005b4 <__udivmoddi4+0xfc>
 80005c2:	9800      	ldr	r0, [sp, #0]
 80005c4:	9901      	ldr	r1, [sp, #4]
 80005c6:	465b      	mov	r3, fp
 80005c8:	1900      	adds	r0, r0, r4
 80005ca:	4169      	adcs	r1, r5
 80005cc:	2b00      	cmp	r3, #0
 80005ce:	db24      	blt.n	800061a <__udivmoddi4+0x162>
 80005d0:	002b      	movs	r3, r5
 80005d2:	465a      	mov	r2, fp
 80005d4:	4644      	mov	r4, r8
 80005d6:	40d3      	lsrs	r3, r2
 80005d8:	002a      	movs	r2, r5
 80005da:	40e2      	lsrs	r2, r4
 80005dc:	001c      	movs	r4, r3
 80005de:	465b      	mov	r3, fp
 80005e0:	0015      	movs	r5, r2
 80005e2:	2b00      	cmp	r3, #0
 80005e4:	db2a      	blt.n	800063c <__udivmoddi4+0x184>
 80005e6:	0026      	movs	r6, r4
 80005e8:	409e      	lsls	r6, r3
 80005ea:	0033      	movs	r3, r6
 80005ec:	0026      	movs	r6, r4
 80005ee:	4647      	mov	r7, r8
 80005f0:	40be      	lsls	r6, r7
 80005f2:	0032      	movs	r2, r6
 80005f4:	1a80      	subs	r0, r0, r2
 80005f6:	4199      	sbcs	r1, r3
 80005f8:	9000      	str	r0, [sp, #0]
 80005fa:	9101      	str	r1, [sp, #4]
 80005fc:	e79e      	b.n	800053c <__udivmoddi4+0x84>
 80005fe:	42a3      	cmp	r3, r4
 8000600:	d8bc      	bhi.n	800057c <__udivmoddi4+0xc4>
 8000602:	e782      	b.n	800050a <__udivmoddi4+0x52>
 8000604:	4642      	mov	r2, r8
 8000606:	2320      	movs	r3, #32
 8000608:	2100      	movs	r1, #0
 800060a:	1a9b      	subs	r3, r3, r2
 800060c:	2200      	movs	r2, #0
 800060e:	9100      	str	r1, [sp, #0]
 8000610:	9201      	str	r2, [sp, #4]
 8000612:	2201      	movs	r2, #1
 8000614:	40da      	lsrs	r2, r3
 8000616:	9201      	str	r2, [sp, #4]
 8000618:	e785      	b.n	8000526 <__udivmoddi4+0x6e>
 800061a:	4642      	mov	r2, r8
 800061c:	2320      	movs	r3, #32
 800061e:	1a9b      	subs	r3, r3, r2
 8000620:	002a      	movs	r2, r5
 8000622:	4646      	mov	r6, r8
 8000624:	409a      	lsls	r2, r3
 8000626:	0023      	movs	r3, r4
 8000628:	40f3      	lsrs	r3, r6
 800062a:	4644      	mov	r4, r8
 800062c:	4313      	orrs	r3, r2
 800062e:	002a      	movs	r2, r5
 8000630:	40e2      	lsrs	r2, r4
 8000632:	001c      	movs	r4, r3
 8000634:	465b      	mov	r3, fp
 8000636:	0015      	movs	r5, r2
 8000638:	2b00      	cmp	r3, #0
 800063a:	dad4      	bge.n	80005e6 <__udivmoddi4+0x12e>
 800063c:	4642      	mov	r2, r8
 800063e:	002f      	movs	r7, r5
 8000640:	2320      	movs	r3, #32
 8000642:	0026      	movs	r6, r4
 8000644:	4097      	lsls	r7, r2
 8000646:	1a9b      	subs	r3, r3, r2
 8000648:	40de      	lsrs	r6, r3
 800064a:	003b      	movs	r3, r7
 800064c:	4333      	orrs	r3, r6
 800064e:	e7cd      	b.n	80005ec <__udivmoddi4+0x134>

08000650 <__aeabi_fdiv>:
 8000650:	b5f0      	push	{r4, r5, r6, r7, lr}
 8000652:	464f      	mov	r7, r9
 8000654:	4646      	mov	r6, r8
 8000656:	46d6      	mov	lr, sl
 8000658:	0244      	lsls	r4, r0, #9
 800065a:	b5c0      	push	{r6, r7, lr}
 800065c:	0047      	lsls	r7, r0, #1
 800065e:	1c0e      	adds	r6, r1, #0
 8000660:	0a64      	lsrs	r4, r4, #9
 8000662:	0e3f      	lsrs	r7, r7, #24
 8000664:	0fc5      	lsrs	r5, r0, #31
 8000666:	2f00      	cmp	r7, #0
 8000668:	d03c      	beq.n	80006e4 <__aeabi_fdiv+0x94>
 800066a:	2fff      	cmp	r7, #255	@ 0xff
 800066c:	d042      	beq.n	80006f4 <__aeabi_fdiv+0xa4>
 800066e:	2300      	movs	r3, #0
 8000670:	2280      	movs	r2, #128	@ 0x80
 8000672:	4699      	mov	r9, r3
 8000674:	469a      	mov	sl, r3
 8000676:	00e4      	lsls	r4, r4, #3
 8000678:	04d2      	lsls	r2, r2, #19
 800067a:	4314      	orrs	r4, r2
 800067c:	3f7f      	subs	r7, #127	@ 0x7f
 800067e:	0273      	lsls	r3, r6, #9
 8000680:	0a5b      	lsrs	r3, r3, #9
 8000682:	4698      	mov	r8, r3
 8000684:	0073      	lsls	r3, r6, #1
 8000686:	0e1b      	lsrs	r3, r3, #24
 8000688:	0ff6      	lsrs	r6, r6, #31
 800068a:	2b00      	cmp	r3, #0
 800068c:	d01b      	beq.n	80006c6 <__aeabi_fdiv+0x76>
 800068e:	2bff      	cmp	r3, #255	@ 0xff
 8000690:	d013      	beq.n	80006ba <__aeabi_fdiv+0x6a>
 8000692:	4642      	mov	r2, r8
 8000694:	2180      	movs	r1, #128	@ 0x80
 8000696:	00d2      	lsls	r2, r2, #3
 8000698:	04c9      	lsls	r1, r1, #19
 800069a:	4311      	orrs	r1, r2
 800069c:	4688      	mov	r8, r1
 800069e:	2000      	movs	r0, #0
 80006a0:	3b7f      	subs	r3, #127	@ 0x7f
 80006a2:	0029      	movs	r1, r5
 80006a4:	1aff      	subs	r7, r7, r3
 80006a6:	464b      	mov	r3, r9
 80006a8:	4071      	eors	r1, r6
 80006aa:	b2c9      	uxtb	r1, r1
 80006ac:	2b0f      	cmp	r3, #15
 80006ae:	d900      	bls.n	80006b2 <__aeabi_fdiv+0x62>
 80006b0:	e0b5      	b.n	800081e <__aeabi_fdiv+0x1ce>
 80006b2:	4a74      	ldr	r2, [pc, #464]	@ (8000884 <__aeabi_fdiv+0x234>)
 80006b4:	009b      	lsls	r3, r3, #2
 80006b6:	58d3      	ldr	r3, [r2, r3]
 80006b8:	469f      	mov	pc, r3
 80006ba:	4643      	mov	r3, r8
 80006bc:	2b00      	cmp	r3, #0
 80006be:	d13f      	bne.n	8000740 <__aeabi_fdiv+0xf0>
 80006c0:	3fff      	subs	r7, #255	@ 0xff
 80006c2:	3302      	adds	r3, #2
 80006c4:	e003      	b.n	80006ce <__aeabi_fdiv+0x7e>
 80006c6:	4643      	mov	r3, r8
 80006c8:	2b00      	cmp	r3, #0
 80006ca:	d12d      	bne.n	8000728 <__aeabi_fdiv+0xd8>
 80006cc:	2301      	movs	r3, #1
 80006ce:	0029      	movs	r1, r5
 80006d0:	464a      	mov	r2, r9
 80006d2:	4071      	eors	r1, r6
 80006d4:	b2c9      	uxtb	r1, r1
 80006d6:	431a      	orrs	r2, r3
 80006d8:	2a0e      	cmp	r2, #14
 80006da:	d838      	bhi.n	800074e <__aeabi_fdiv+0xfe>
 80006dc:	486a      	ldr	r0, [pc, #424]	@ (8000888 <__aeabi_fdiv+0x238>)
 80006de:	0092      	lsls	r2, r2, #2
 80006e0:	5882      	ldr	r2, [r0, r2]
 80006e2:	4697      	mov	pc, r2
 80006e4:	2c00      	cmp	r4, #0
 80006e6:	d113      	bne.n	8000710 <__aeabi_fdiv+0xc0>
 80006e8:	2304      	movs	r3, #4
 80006ea:	4699      	mov	r9, r3
 80006ec:	3b03      	subs	r3, #3
 80006ee:	2700      	movs	r7, #0
 80006f0:	469a      	mov	sl, r3
 80006f2:	e7c4      	b.n	800067e <__aeabi_fdiv+0x2e>
 80006f4:	2c00      	cmp	r4, #0
 80006f6:	d105      	bne.n	8000704 <__aeabi_fdiv+0xb4>
 80006f8:	2308      	movs	r3, #8
 80006fa:	4699      	mov	r9, r3
 80006fc:	3b06      	subs	r3, #6
 80006fe:	27ff      	movs	r7, #255	@ 0xff
 8000700:	469a      	mov	sl, r3
 8000702:	e7bc      	b.n	800067e <__aeabi_fdiv+0x2e>
 8000704:	230c      	movs	r3, #12
 8000706:	4699      	mov	r9, r3
 8000708:	3b09      	subs	r3, #9
 800070a:	27ff      	movs	r7, #255	@ 0xff
 800070c:	469a      	mov	sl, r3
 800070e:	e7b6      	b.n	800067e <__aeabi_fdiv+0x2e>
 8000710:	0020      	movs	r0, r4
 8000712:	f000 fd13 	bl	800113c <__clzsi2>
 8000716:	2776      	movs	r7, #118	@ 0x76
 8000718:	1f43      	subs	r3, r0, #5
 800071a:	409c      	lsls	r4, r3
 800071c:	2300      	movs	r3, #0
 800071e:	427f      	negs	r7, r7
 8000720:	4699      	mov	r9, r3
 8000722:	469a      	mov	sl, r3
 8000724:	1a3f      	subs	r7, r7, r0
 8000726:	e7aa      	b.n	800067e <__aeabi_fdiv+0x2e>
 8000728:	4640      	mov	r0, r8
 800072a:	f000 fd07 	bl	800113c <__clzsi2>
 800072e:	4642      	mov	r2, r8
 8000730:	1f43      	subs	r3, r0, #5
 8000732:	409a      	lsls	r2, r3
 8000734:	2376      	movs	r3, #118	@ 0x76
 8000736:	425b      	negs	r3, r3
 8000738:	1a1b      	subs	r3, r3, r0
 800073a:	4690      	mov	r8, r2
 800073c:	2000      	movs	r0, #0
 800073e:	e7b0      	b.n	80006a2 <__aeabi_fdiv+0x52>
 8000740:	2303      	movs	r3, #3
 8000742:	464a      	mov	r2, r9
 8000744:	431a      	orrs	r2, r3
 8000746:	4691      	mov	r9, r2
 8000748:	2003      	movs	r0, #3
 800074a:	33fc      	adds	r3, #252	@ 0xfc
 800074c:	e7a9      	b.n	80006a2 <__aeabi_fdiv+0x52>
 800074e:	000d      	movs	r5, r1
 8000750:	20ff      	movs	r0, #255	@ 0xff
 8000752:	2200      	movs	r2, #0
 8000754:	05c0      	lsls	r0, r0, #23
 8000756:	07ed      	lsls	r5, r5, #31
 8000758:	4310      	orrs	r0, r2
 800075a:	4328      	orrs	r0, r5
 800075c:	bce0      	pop	{r5, r6, r7}
 800075e:	46ba      	mov	sl, r7
 8000760:	46b1      	mov	r9, r6
 8000762:	46a8      	mov	r8, r5
 8000764:	bdf0      	pop	{r4, r5, r6, r7, pc}
 8000766:	000d      	movs	r5, r1
 8000768:	2000      	movs	r0, #0
 800076a:	2200      	movs	r2, #0
 800076c:	e7f2      	b.n	8000754 <__aeabi_fdiv+0x104>
 800076e:	4653      	mov	r3, sl
 8000770:	2b02      	cmp	r3, #2
 8000772:	d0ed      	beq.n	8000750 <__aeabi_fdiv+0x100>
 8000774:	2b03      	cmp	r3, #3
 8000776:	d033      	beq.n	80007e0 <__aeabi_fdiv+0x190>
 8000778:	46a0      	mov	r8, r4
 800077a:	2b01      	cmp	r3, #1
 800077c:	d105      	bne.n	800078a <__aeabi_fdiv+0x13a>
 800077e:	2000      	movs	r0, #0
 8000780:	2200      	movs	r2, #0
 8000782:	e7e7      	b.n	8000754 <__aeabi_fdiv+0x104>
 8000784:	0035      	movs	r5, r6
 8000786:	2803      	cmp	r0, #3
 8000788:	d07a      	beq.n	8000880 <__aeabi_fdiv+0x230>
 800078a:	003b      	movs	r3, r7
 800078c:	337f      	adds	r3, #127	@ 0x7f
 800078e:	2b00      	cmp	r3, #0
 8000790:	dd2d      	ble.n	80007ee <__aeabi_fdiv+0x19e>
 8000792:	4642      	mov	r2, r8
 8000794:	0752      	lsls	r2, r2, #29
 8000796:	d007      	beq.n	80007a8 <__aeabi_fdiv+0x158>
 8000798:	220f      	movs	r2, #15
 800079a:	4641      	mov	r1, r8
 800079c:	400a      	ands	r2, r1
 800079e:	2a04      	cmp	r2, #4
 80007a0:	d002      	beq.n	80007a8 <__aeabi_fdiv+0x158>
 80007a2:	2204      	movs	r2, #4
 80007a4:	4694      	mov	ip, r2
 80007a6:	44e0      	add	r8, ip
 80007a8:	4642      	mov	r2, r8
 80007aa:	0112      	lsls	r2, r2, #4
 80007ac:	d505      	bpl.n	80007ba <__aeabi_fdiv+0x16a>
 80007ae:	4642      	mov	r2, r8
 80007b0:	4b36      	ldr	r3, [pc, #216]	@ (800088c <__aeabi_fdiv+0x23c>)
 80007b2:	401a      	ands	r2, r3
 80007b4:	003b      	movs	r3, r7
 80007b6:	4690      	mov	r8, r2
 80007b8:	3380      	adds	r3, #128	@ 0x80
 80007ba:	2bfe      	cmp	r3, #254	@ 0xfe
 80007bc:	dcc8      	bgt.n	8000750 <__aeabi_fdiv+0x100>
 80007be:	4642      	mov	r2, r8
 80007c0:	0192      	lsls	r2, r2, #6
 80007c2:	0a52      	lsrs	r2, r2, #9
 80007c4:	b2d8      	uxtb	r0, r3
 80007c6:	e7c5      	b.n	8000754 <__aeabi_fdiv+0x104>
 80007c8:	2280      	movs	r2, #128	@ 0x80
 80007ca:	2500      	movs	r5, #0
 80007cc:	20ff      	movs	r0, #255	@ 0xff
 80007ce:	03d2      	lsls	r2, r2, #15
 80007d0:	e7c0      	b.n	8000754 <__aeabi_fdiv+0x104>
 80007d2:	2280      	movs	r2, #128	@ 0x80
 80007d4:	03d2      	lsls	r2, r2, #15
 80007d6:	4214      	tst	r4, r2
 80007d8:	d002      	beq.n	80007e0 <__aeabi_fdiv+0x190>
 80007da:	4643      	mov	r3, r8
 80007dc:	4213      	tst	r3, r2
 80007de:	d049      	beq.n	8000874 <__aeabi_fdiv+0x224>
 80007e0:	2280      	movs	r2, #128	@ 0x80
 80007e2:	03d2      	lsls	r2, r2, #15
 80007e4:	4322      	orrs	r2, r4
 80007e6:	0252      	lsls	r2, r2, #9
 80007e8:	20ff      	movs	r0, #255	@ 0xff
 80007ea:	0a52      	lsrs	r2, r2, #9
 80007ec:	e7b2      	b.n	8000754 <__aeabi_fdiv+0x104>
 80007ee:	2201      	movs	r2, #1
 80007f0:	1ad3      	subs	r3, r2, r3
 80007f2:	2b1b      	cmp	r3, #27
 80007f4:	dcc3      	bgt.n	800077e <__aeabi_fdiv+0x12e>
 80007f6:	4642      	mov	r2, r8
 80007f8:	40da      	lsrs	r2, r3
 80007fa:	4643      	mov	r3, r8
 80007fc:	379e      	adds	r7, #158	@ 0x9e
 80007fe:	40bb      	lsls	r3, r7
 8000800:	1e59      	subs	r1, r3, #1
 8000802:	418b      	sbcs	r3, r1
 8000804:	431a      	orrs	r2, r3
 8000806:	0753      	lsls	r3, r2, #29
 8000808:	d004      	beq.n	8000814 <__aeabi_fdiv+0x1c4>
 800080a:	230f      	movs	r3, #15
 800080c:	4013      	ands	r3, r2
 800080e:	2b04      	cmp	r3, #4
 8000810:	d000      	beq.n	8000814 <__aeabi_fdiv+0x1c4>
 8000812:	3204      	adds	r2, #4
 8000814:	0153      	lsls	r3, r2, #5
 8000816:	d529      	bpl.n	800086c <__aeabi_fdiv+0x21c>
 8000818:	2001      	movs	r0, #1
 800081a:	2200      	movs	r2, #0
 800081c:	e79a      	b.n	8000754 <__aeabi_fdiv+0x104>
 800081e:	4642      	mov	r2, r8
 8000820:	0163      	lsls	r3, r4, #5
 8000822:	0155      	lsls	r5, r2, #5
 8000824:	42ab      	cmp	r3, r5
 8000826:	d215      	bcs.n	8000854 <__aeabi_fdiv+0x204>
 8000828:	201b      	movs	r0, #27
 800082a:	2200      	movs	r2, #0
 800082c:	3f01      	subs	r7, #1
 800082e:	2601      	movs	r6, #1
 8000830:	001c      	movs	r4, r3
 8000832:	0052      	lsls	r2, r2, #1
 8000834:	005b      	lsls	r3, r3, #1
 8000836:	2c00      	cmp	r4, #0
 8000838:	db01      	blt.n	800083e <__aeabi_fdiv+0x1ee>
 800083a:	429d      	cmp	r5, r3
 800083c:	d801      	bhi.n	8000842 <__aeabi_fdiv+0x1f2>
 800083e:	1b5b      	subs	r3, r3, r5
 8000840:	4332      	orrs	r2, r6
 8000842:	3801      	subs	r0, #1
 8000844:	2800      	cmp	r0, #0
 8000846:	d1f3      	bne.n	8000830 <__aeabi_fdiv+0x1e0>
 8000848:	1e58      	subs	r0, r3, #1
 800084a:	4183      	sbcs	r3, r0
 800084c:	4313      	orrs	r3, r2
 800084e:	4698      	mov	r8, r3
 8000850:	000d      	movs	r5, r1
 8000852:	e79a      	b.n	800078a <__aeabi_fdiv+0x13a>
 8000854:	201a      	movs	r0, #26
 8000856:	2201      	movs	r2, #1
 8000858:	1b5b      	subs	r3, r3, r5
 800085a:	e7e8      	b.n	800082e <__aeabi_fdiv+0x1de>
 800085c:	3b02      	subs	r3, #2
 800085e:	425a      	negs	r2, r3
 8000860:	4153      	adcs	r3, r2
 8000862:	425b      	negs	r3, r3
 8000864:	0035      	movs	r5, r6
 8000866:	2200      	movs	r2, #0
 8000868:	b2d8      	uxtb	r0, r3
 800086a:	e773      	b.n	8000754 <__aeabi_fdiv+0x104>
 800086c:	0192      	lsls	r2, r2, #6
 800086e:	2000      	movs	r0, #0
 8000870:	0a52      	lsrs	r2, r2, #9
 8000872:	e76f      	b.n	8000754 <__aeabi_fdiv+0x104>
 8000874:	431a      	orrs	r2, r3
 8000876:	0252      	lsls	r2, r2, #9
 8000878:	0035      	movs	r5, r6
 800087a:	20ff      	movs	r0, #255	@ 0xff
 800087c:	0a52      	lsrs	r2, r2, #9
 800087e:	e769      	b.n	8000754 <__aeabi_fdiv+0x104>
 8000880:	4644      	mov	r4, r8
 8000882:	e7ad      	b.n	80007e0 <__aeabi_fdiv+0x190>
 8000884:	0800f2f8 	.word	0x0800f2f8
 8000888:	0800f338 	.word	0x0800f338
 800088c:	f7ffffff 	.word	0xf7ffffff

08000890 <__eqsf2>:
 8000890:	b570      	push	{r4, r5, r6, lr}
 8000892:	0042      	lsls	r2, r0, #1
 8000894:	024e      	lsls	r6, r1, #9
 8000896:	004c      	lsls	r4, r1, #1
 8000898:	0245      	lsls	r5, r0, #9
 800089a:	0a6d      	lsrs	r5, r5, #9
 800089c:	0e12      	lsrs	r2, r2, #24
 800089e:	0fc3      	lsrs	r3, r0, #31
 80008a0:	0a76      	lsrs	r6, r6, #9
 80008a2:	0e24      	lsrs	r4, r4, #24
 80008a4:	0fc9      	lsrs	r1, r1, #31
 80008a6:	2aff      	cmp	r2, #255	@ 0xff
 80008a8:	d010      	beq.n	80008cc <__eqsf2+0x3c>
 80008aa:	2cff      	cmp	r4, #255	@ 0xff
 80008ac:	d00c      	beq.n	80008c8 <__eqsf2+0x38>
 80008ae:	2001      	movs	r0, #1
 80008b0:	42a2      	cmp	r2, r4
 80008b2:	d10a      	bne.n	80008ca <__eqsf2+0x3a>
 80008b4:	42b5      	cmp	r5, r6
 80008b6:	d108      	bne.n	80008ca <__eqsf2+0x3a>
 80008b8:	428b      	cmp	r3, r1
 80008ba:	d00f      	beq.n	80008dc <__eqsf2+0x4c>
 80008bc:	2a00      	cmp	r2, #0
 80008be:	d104      	bne.n	80008ca <__eqsf2+0x3a>
 80008c0:	0028      	movs	r0, r5
 80008c2:	1e43      	subs	r3, r0, #1
 80008c4:	4198      	sbcs	r0, r3
 80008c6:	e000      	b.n	80008ca <__eqsf2+0x3a>
 80008c8:	2001      	movs	r0, #1
 80008ca:	bd70      	pop	{r4, r5, r6, pc}
 80008cc:	2001      	movs	r0, #1
 80008ce:	2cff      	cmp	r4, #255	@ 0xff
 80008d0:	d1fb      	bne.n	80008ca <__eqsf2+0x3a>
 80008d2:	4335      	orrs	r5, r6
 80008d4:	d1f9      	bne.n	80008ca <__eqsf2+0x3a>
 80008d6:	404b      	eors	r3, r1
 80008d8:	0018      	movs	r0, r3
 80008da:	e7f6      	b.n	80008ca <__eqsf2+0x3a>
 80008dc:	2000      	movs	r0, #0
 80008de:	e7f4      	b.n	80008ca <__eqsf2+0x3a>

080008e0 <__gesf2>:
 80008e0:	b530      	push	{r4, r5, lr}
 80008e2:	0042      	lsls	r2, r0, #1
 80008e4:	0244      	lsls	r4, r0, #9
 80008e6:	024d      	lsls	r5, r1, #9
 80008e8:	0fc3      	lsrs	r3, r0, #31
 80008ea:	0048      	lsls	r0, r1, #1
 80008ec:	0a64      	lsrs	r4, r4, #9
 80008ee:	0e12      	lsrs	r2, r2, #24
 80008f0:	0a6d      	lsrs	r5, r5, #9
 80008f2:	0e00      	lsrs	r0, r0, #24
 80008f4:	0fc9      	lsrs	r1, r1, #31
 80008f6:	2aff      	cmp	r2, #255	@ 0xff
 80008f8:	d019      	beq.n	800092e <__gesf2+0x4e>
 80008fa:	28ff      	cmp	r0, #255	@ 0xff
 80008fc:	d00b      	beq.n	8000916 <__gesf2+0x36>
 80008fe:	2a00      	cmp	r2, #0
 8000900:	d11e      	bne.n	8000940 <__gesf2+0x60>
 8000902:	2800      	cmp	r0, #0
 8000904:	d10b      	bne.n	800091e <__gesf2+0x3e>
 8000906:	2d00      	cmp	r5, #0
 8000908:	d027      	beq.n	800095a <__gesf2+0x7a>
 800090a:	2c00      	cmp	r4, #0
 800090c:	d134      	bne.n	8000978 <__gesf2+0x98>
 800090e:	2900      	cmp	r1, #0
 8000910:	d02f      	beq.n	8000972 <__gesf2+0x92>
 8000912:	0008      	movs	r0, r1
 8000914:	bd30      	pop	{r4, r5, pc}
 8000916:	2d00      	cmp	r5, #0
 8000918:	d128      	bne.n	800096c <__gesf2+0x8c>
 800091a:	2a00      	cmp	r2, #0
 800091c:	d101      	bne.n	8000922 <__gesf2+0x42>
 800091e:	2c00      	cmp	r4, #0
 8000920:	d0f5      	beq.n	800090e <__gesf2+0x2e>
 8000922:	428b      	cmp	r3, r1
 8000924:	d107      	bne.n	8000936 <__gesf2+0x56>
 8000926:	2b00      	cmp	r3, #0
 8000928:	d023      	beq.n	8000972 <__gesf2+0x92>
 800092a:	0018      	movs	r0, r3
 800092c:	e7f2      	b.n	8000914 <__gesf2+0x34>
 800092e:	2c00      	cmp	r4, #0
 8000930:	d11c      	bne.n	800096c <__gesf2+0x8c>
 8000932:	28ff      	cmp	r0, #255	@ 0xff
 8000934:	d014      	beq.n	8000960 <__gesf2+0x80>
 8000936:	1e58      	subs	r0, r3, #1
 8000938:	2302      	movs	r3, #2
 800093a:	4018      	ands	r0, r3
 800093c:	3801      	subs	r0, #1
 800093e:	e7e9      	b.n	8000914 <__gesf2+0x34>
 8000940:	2800      	cmp	r0, #0
 8000942:	d0f8      	beq.n	8000936 <__gesf2+0x56>
 8000944:	428b      	cmp	r3, r1
 8000946:	d1f6      	bne.n	8000936 <__gesf2+0x56>
 8000948:	4282      	cmp	r2, r0
 800094a:	dcf4      	bgt.n	8000936 <__gesf2+0x56>
 800094c:	dbeb      	blt.n	8000926 <__gesf2+0x46>
 800094e:	42ac      	cmp	r4, r5
 8000950:	d8f1      	bhi.n	8000936 <__gesf2+0x56>
 8000952:	2000      	movs	r0, #0
 8000954:	42ac      	cmp	r4, r5
 8000956:	d2dd      	bcs.n	8000914 <__gesf2+0x34>
 8000958:	e7e5      	b.n	8000926 <__gesf2+0x46>
 800095a:	2c00      	cmp	r4, #0
 800095c:	d0da      	beq.n	8000914 <__gesf2+0x34>
 800095e:	e7ea      	b.n	8000936 <__gesf2+0x56>
 8000960:	2d00      	cmp	r5, #0
 8000962:	d103      	bne.n	800096c <__gesf2+0x8c>
 8000964:	428b      	cmp	r3, r1
 8000966:	d1e6      	bne.n	8000936 <__gesf2+0x56>
 8000968:	2000      	movs	r0, #0
 800096a:	e7d3      	b.n	8000914 <__gesf2+0x34>
 800096c:	2002      	movs	r0, #2
 800096e:	4240      	negs	r0, r0
 8000970:	e7d0      	b.n	8000914 <__gesf2+0x34>
 8000972:	2001      	movs	r0, #1
 8000974:	4240      	negs	r0, r0
 8000976:	e7cd      	b.n	8000914 <__gesf2+0x34>
 8000978:	428b      	cmp	r3, r1
 800097a:	d0e8      	beq.n	800094e <__gesf2+0x6e>
 800097c:	e7db      	b.n	8000936 <__gesf2+0x56>
 800097e:	46c0      	nop			@ (mov r8, r8)

08000980 <__lesf2>:
 8000980:	b530      	push	{r4, r5, lr}
 8000982:	0042      	lsls	r2, r0, #1
 8000984:	0244      	lsls	r4, r0, #9
 8000986:	024d      	lsls	r5, r1, #9
 8000988:	0fc3      	lsrs	r3, r0, #31
 800098a:	0048      	lsls	r0, r1, #1
 800098c:	0a64      	lsrs	r4, r4, #9
 800098e:	0e12      	lsrs	r2, r2, #24
 8000990:	0a6d      	lsrs	r5, r5, #9
 8000992:	0e00      	lsrs	r0, r0, #24
 8000994:	0fc9      	lsrs	r1, r1, #31
 8000996:	2aff      	cmp	r2, #255	@ 0xff
 8000998:	d01a      	beq.n	80009d0 <__lesf2+0x50>
 800099a:	28ff      	cmp	r0, #255	@ 0xff
 800099c:	d00e      	beq.n	80009bc <__lesf2+0x3c>
 800099e:	2a00      	cmp	r2, #0
 80009a0:	d11e      	bne.n	80009e0 <__lesf2+0x60>
 80009a2:	2800      	cmp	r0, #0
 80009a4:	d10e      	bne.n	80009c4 <__lesf2+0x44>
 80009a6:	2d00      	cmp	r5, #0
 80009a8:	d02a      	beq.n	8000a00 <__lesf2+0x80>
 80009aa:	2c00      	cmp	r4, #0
 80009ac:	d00c      	beq.n	80009c8 <__lesf2+0x48>
 80009ae:	428b      	cmp	r3, r1
 80009b0:	d01d      	beq.n	80009ee <__lesf2+0x6e>
 80009b2:	1e58      	subs	r0, r3, #1
 80009b4:	2302      	movs	r3, #2
 80009b6:	4018      	ands	r0, r3
 80009b8:	3801      	subs	r0, #1
 80009ba:	e010      	b.n	80009de <__lesf2+0x5e>
 80009bc:	2d00      	cmp	r5, #0
 80009be:	d10d      	bne.n	80009dc <__lesf2+0x5c>
 80009c0:	2a00      	cmp	r2, #0
 80009c2:	d120      	bne.n	8000a06 <__lesf2+0x86>
 80009c4:	2c00      	cmp	r4, #0
 80009c6:	d11e      	bne.n	8000a06 <__lesf2+0x86>
 80009c8:	2900      	cmp	r1, #0
 80009ca:	d023      	beq.n	8000a14 <__lesf2+0x94>
 80009cc:	0008      	movs	r0, r1
 80009ce:	e006      	b.n	80009de <__lesf2+0x5e>
 80009d0:	2c00      	cmp	r4, #0
 80009d2:	d103      	bne.n	80009dc <__lesf2+0x5c>
 80009d4:	28ff      	cmp	r0, #255	@ 0xff
 80009d6:	d1ec      	bne.n	80009b2 <__lesf2+0x32>
 80009d8:	2d00      	cmp	r5, #0
 80009da:	d017      	beq.n	8000a0c <__lesf2+0x8c>
 80009dc:	2002      	movs	r0, #2
 80009de:	bd30      	pop	{r4, r5, pc}
 80009e0:	2800      	cmp	r0, #0
 80009e2:	d0e6      	beq.n	80009b2 <__lesf2+0x32>
 80009e4:	428b      	cmp	r3, r1
 80009e6:	d1e4      	bne.n	80009b2 <__lesf2+0x32>
 80009e8:	4282      	cmp	r2, r0
 80009ea:	dce2      	bgt.n	80009b2 <__lesf2+0x32>
 80009ec:	db04      	blt.n	80009f8 <__lesf2+0x78>
 80009ee:	42ac      	cmp	r4, r5
 80009f0:	d8df      	bhi.n	80009b2 <__lesf2+0x32>
 80009f2:	2000      	movs	r0, #0
 80009f4:	42ac      	cmp	r4, r5
 80009f6:	d2f2      	bcs.n	80009de <__lesf2+0x5e>
 80009f8:	2b00      	cmp	r3, #0
 80009fa:	d00b      	beq.n	8000a14 <__lesf2+0x94>
 80009fc:	0018      	movs	r0, r3
 80009fe:	e7ee      	b.n	80009de <__lesf2+0x5e>
 8000a00:	2c00      	cmp	r4, #0
 8000a02:	d0ec      	beq.n	80009de <__lesf2+0x5e>
 8000a04:	e7d5      	b.n	80009b2 <__lesf2+0x32>
 8000a06:	428b      	cmp	r3, r1
 8000a08:	d1d3      	bne.n	80009b2 <__lesf2+0x32>
 8000a0a:	e7f5      	b.n	80009f8 <__lesf2+0x78>
 8000a0c:	2000      	movs	r0, #0
 8000a0e:	428b      	cmp	r3, r1
 8000a10:	d0e5      	beq.n	80009de <__lesf2+0x5e>
 8000a12:	e7ce      	b.n	80009b2 <__lesf2+0x32>
 8000a14:	2001      	movs	r0, #1
 8000a16:	4240      	negs	r0, r0
 8000a18:	e7e1      	b.n	80009de <__lesf2+0x5e>
 8000a1a:	46c0      	nop			@ (mov r8, r8)

08000a1c <__aeabi_fmul>:
 8000a1c:	b5f0      	push	{r4, r5, r6, r7, lr}
 8000a1e:	464f      	mov	r7, r9
 8000a20:	4646      	mov	r6, r8
 8000a22:	46d6      	mov	lr, sl
 8000a24:	0243      	lsls	r3, r0, #9
 8000a26:	0a5b      	lsrs	r3, r3, #9
 8000a28:	0045      	lsls	r5, r0, #1
 8000a2a:	b5c0      	push	{r6, r7, lr}
 8000a2c:	4699      	mov	r9, r3
 8000a2e:	1c0f      	adds	r7, r1, #0
 8000a30:	0e2d      	lsrs	r5, r5, #24
 8000a32:	0fc6      	lsrs	r6, r0, #31
 8000a34:	2d00      	cmp	r5, #0
 8000a36:	d100      	bne.n	8000a3a <__aeabi_fmul+0x1e>
 8000a38:	e088      	b.n	8000b4c <__aeabi_fmul+0x130>
 8000a3a:	2dff      	cmp	r5, #255	@ 0xff
 8000a3c:	d100      	bne.n	8000a40 <__aeabi_fmul+0x24>
 8000a3e:	e08d      	b.n	8000b5c <__aeabi_fmul+0x140>
 8000a40:	2280      	movs	r2, #128	@ 0x80
 8000a42:	00db      	lsls	r3, r3, #3
 8000a44:	04d2      	lsls	r2, r2, #19
 8000a46:	431a      	orrs	r2, r3
 8000a48:	2300      	movs	r3, #0
 8000a4a:	4691      	mov	r9, r2
 8000a4c:	4698      	mov	r8, r3
 8000a4e:	469a      	mov	sl, r3
 8000a50:	3d7f      	subs	r5, #127	@ 0x7f
 8000a52:	027c      	lsls	r4, r7, #9
 8000a54:	007b      	lsls	r3, r7, #1
 8000a56:	0a64      	lsrs	r4, r4, #9
 8000a58:	0e1b      	lsrs	r3, r3, #24
 8000a5a:	0fff      	lsrs	r7, r7, #31
 8000a5c:	2b00      	cmp	r3, #0
 8000a5e:	d068      	beq.n	8000b32 <__aeabi_fmul+0x116>
 8000a60:	2bff      	cmp	r3, #255	@ 0xff
 8000a62:	d021      	beq.n	8000aa8 <__aeabi_fmul+0x8c>
 8000a64:	2280      	movs	r2, #128	@ 0x80
 8000a66:	00e4      	lsls	r4, r4, #3
 8000a68:	04d2      	lsls	r2, r2, #19
 8000a6a:	4314      	orrs	r4, r2
 8000a6c:	4642      	mov	r2, r8
 8000a6e:	3b7f      	subs	r3, #127	@ 0x7f
 8000a70:	195b      	adds	r3, r3, r5
 8000a72:	2100      	movs	r1, #0
 8000a74:	1c5d      	adds	r5, r3, #1
 8000a76:	2a0a      	cmp	r2, #10
 8000a78:	dc2e      	bgt.n	8000ad8 <__aeabi_fmul+0xbc>
 8000a7a:	407e      	eors	r6, r7
 8000a7c:	4642      	mov	r2, r8
 8000a7e:	2a02      	cmp	r2, #2
 8000a80:	dc23      	bgt.n	8000aca <__aeabi_fmul+0xae>
 8000a82:	3a01      	subs	r2, #1
 8000a84:	2a01      	cmp	r2, #1
 8000a86:	d900      	bls.n	8000a8a <__aeabi_fmul+0x6e>
 8000a88:	e0bd      	b.n	8000c06 <__aeabi_fmul+0x1ea>
 8000a8a:	2902      	cmp	r1, #2
 8000a8c:	d06e      	beq.n	8000b6c <__aeabi_fmul+0x150>
 8000a8e:	2901      	cmp	r1, #1
 8000a90:	d12c      	bne.n	8000aec <__aeabi_fmul+0xd0>
 8000a92:	2000      	movs	r0, #0
 8000a94:	2200      	movs	r2, #0
 8000a96:	05c0      	lsls	r0, r0, #23
 8000a98:	07f6      	lsls	r6, r6, #31
 8000a9a:	4310      	orrs	r0, r2
 8000a9c:	4330      	orrs	r0, r6
 8000a9e:	bce0      	pop	{r5, r6, r7}
 8000aa0:	46ba      	mov	sl, r7
 8000aa2:	46b1      	mov	r9, r6
 8000aa4:	46a8      	mov	r8, r5
 8000aa6:	bdf0      	pop	{r4, r5, r6, r7, pc}
 8000aa8:	002b      	movs	r3, r5
 8000aaa:	33ff      	adds	r3, #255	@ 0xff
 8000aac:	2c00      	cmp	r4, #0
 8000aae:	d065      	beq.n	8000b7c <__aeabi_fmul+0x160>
 8000ab0:	2203      	movs	r2, #3
 8000ab2:	4641      	mov	r1, r8
 8000ab4:	4311      	orrs	r1, r2
 8000ab6:	0032      	movs	r2, r6
 8000ab8:	3501      	adds	r5, #1
 8000aba:	4688      	mov	r8, r1
 8000abc:	407a      	eors	r2, r7
 8000abe:	35ff      	adds	r5, #255	@ 0xff
 8000ac0:	290a      	cmp	r1, #10
 8000ac2:	dd00      	ble.n	8000ac6 <__aeabi_fmul+0xaa>
 8000ac4:	e0d8      	b.n	8000c78 <__aeabi_fmul+0x25c>
 8000ac6:	0016      	movs	r6, r2
 8000ac8:	2103      	movs	r1, #3
 8000aca:	4640      	mov	r0, r8
 8000acc:	2201      	movs	r2, #1
 8000ace:	4082      	lsls	r2, r0
 8000ad0:	20a6      	movs	r0, #166	@ 0xa6
 8000ad2:	00c0      	lsls	r0, r0, #3
 8000ad4:	4202      	tst	r2, r0
 8000ad6:	d020      	beq.n	8000b1a <__aeabi_fmul+0xfe>
 8000ad8:	4653      	mov	r3, sl
 8000ada:	2b02      	cmp	r3, #2
 8000adc:	d046      	beq.n	8000b6c <__aeabi_fmul+0x150>
 8000ade:	2b03      	cmp	r3, #3
 8000ae0:	d100      	bne.n	8000ae4 <__aeabi_fmul+0xc8>
 8000ae2:	e0bb      	b.n	8000c5c <__aeabi_fmul+0x240>
 8000ae4:	4651      	mov	r1, sl
 8000ae6:	464c      	mov	r4, r9
 8000ae8:	2901      	cmp	r1, #1
 8000aea:	d0d2      	beq.n	8000a92 <__aeabi_fmul+0x76>
 8000aec:	002b      	movs	r3, r5
 8000aee:	337f      	adds	r3, #127	@ 0x7f
 8000af0:	2b00      	cmp	r3, #0
 8000af2:	dd70      	ble.n	8000bd6 <__aeabi_fmul+0x1ba>
 8000af4:	0762      	lsls	r2, r4, #29
 8000af6:	d004      	beq.n	8000b02 <__aeabi_fmul+0xe6>
 8000af8:	220f      	movs	r2, #15
 8000afa:	4022      	ands	r2, r4
 8000afc:	2a04      	cmp	r2, #4
 8000afe:	d000      	beq.n	8000b02 <__aeabi_fmul+0xe6>
 8000b00:	3404      	adds	r4, #4
 8000b02:	0122      	lsls	r2, r4, #4
 8000b04:	d503      	bpl.n	8000b0e <__aeabi_fmul+0xf2>
 8000b06:	4b63      	ldr	r3, [pc, #396]	@ (8000c94 <__aeabi_fmul+0x278>)
 8000b08:	401c      	ands	r4, r3
 8000b0a:	002b      	movs	r3, r5
 8000b0c:	3380      	adds	r3, #128	@ 0x80
 8000b0e:	2bfe      	cmp	r3, #254	@ 0xfe
 8000b10:	dc2c      	bgt.n	8000b6c <__aeabi_fmul+0x150>
 8000b12:	01a2      	lsls	r2, r4, #6
 8000b14:	0a52      	lsrs	r2, r2, #9
 8000b16:	b2d8      	uxtb	r0, r3
 8000b18:	e7bd      	b.n	8000a96 <__aeabi_fmul+0x7a>
 8000b1a:	2090      	movs	r0, #144	@ 0x90
 8000b1c:	0080      	lsls	r0, r0, #2
 8000b1e:	4202      	tst	r2, r0
 8000b20:	d127      	bne.n	8000b72 <__aeabi_fmul+0x156>
 8000b22:	38b9      	subs	r0, #185	@ 0xb9
 8000b24:	38ff      	subs	r0, #255	@ 0xff
 8000b26:	4210      	tst	r0, r2
 8000b28:	d06d      	beq.n	8000c06 <__aeabi_fmul+0x1ea>
 8000b2a:	003e      	movs	r6, r7
 8000b2c:	46a1      	mov	r9, r4
 8000b2e:	468a      	mov	sl, r1
 8000b30:	e7d2      	b.n	8000ad8 <__aeabi_fmul+0xbc>
 8000b32:	2c00      	cmp	r4, #0
 8000b34:	d141      	bne.n	8000bba <__aeabi_fmul+0x19e>
 8000b36:	2301      	movs	r3, #1
 8000b38:	4642      	mov	r2, r8
 8000b3a:	431a      	orrs	r2, r3
 8000b3c:	4690      	mov	r8, r2
 8000b3e:	002b      	movs	r3, r5
 8000b40:	4642      	mov	r2, r8
 8000b42:	2101      	movs	r1, #1
 8000b44:	1c5d      	adds	r5, r3, #1
 8000b46:	2a0a      	cmp	r2, #10
 8000b48:	dd97      	ble.n	8000a7a <__aeabi_fmul+0x5e>
 8000b4a:	e7c5      	b.n	8000ad8 <__aeabi_fmul+0xbc>
 8000b4c:	2b00      	cmp	r3, #0
 8000b4e:	d126      	bne.n	8000b9e <__aeabi_fmul+0x182>
 8000b50:	2304      	movs	r3, #4
 8000b52:	4698      	mov	r8, r3
 8000b54:	3b03      	subs	r3, #3
 8000b56:	2500      	movs	r5, #0
 8000b58:	469a      	mov	sl, r3
 8000b5a:	e77a      	b.n	8000a52 <__aeabi_fmul+0x36>
 8000b5c:	2b00      	cmp	r3, #0
 8000b5e:	d118      	bne.n	8000b92 <__aeabi_fmul+0x176>
 8000b60:	2308      	movs	r3, #8
 8000b62:	4698      	mov	r8, r3
 8000b64:	3b06      	subs	r3, #6
 8000b66:	25ff      	movs	r5, #255	@ 0xff
 8000b68:	469a      	mov	sl, r3
 8000b6a:	e772      	b.n	8000a52 <__aeabi_fmul+0x36>
 8000b6c:	20ff      	movs	r0, #255	@ 0xff
 8000b6e:	2200      	movs	r2, #0
 8000b70:	e791      	b.n	8000a96 <__aeabi_fmul+0x7a>
 8000b72:	2280      	movs	r2, #128	@ 0x80
 8000b74:	2600      	movs	r6, #0
 8000b76:	20ff      	movs	r0, #255	@ 0xff
 8000b78:	03d2      	lsls	r2, r2, #15
 8000b7a:	e78c      	b.n	8000a96 <__aeabi_fmul+0x7a>
 8000b7c:	4641      	mov	r1, r8
 8000b7e:	2202      	movs	r2, #2
 8000b80:	3501      	adds	r5, #1
 8000b82:	4311      	orrs	r1, r2
 8000b84:	4688      	mov	r8, r1
 8000b86:	35ff      	adds	r5, #255	@ 0xff
 8000b88:	290a      	cmp	r1, #10
 8000b8a:	dca5      	bgt.n	8000ad8 <__aeabi_fmul+0xbc>
 8000b8c:	2102      	movs	r1, #2
 8000b8e:	407e      	eors	r6, r7
 8000b90:	e774      	b.n	8000a7c <__aeabi_fmul+0x60>
 8000b92:	230c      	movs	r3, #12
 8000b94:	4698      	mov	r8, r3
 8000b96:	3b09      	subs	r3, #9
 8000b98:	25ff      	movs	r5, #255	@ 0xff
 8000b9a:	469a      	mov	sl, r3
 8000b9c:	e759      	b.n	8000a52 <__aeabi_fmul+0x36>
 8000b9e:	0018      	movs	r0, r3
 8000ba0:	f000 facc 	bl	800113c <__clzsi2>
 8000ba4:	464a      	mov	r2, r9
 8000ba6:	1f43      	subs	r3, r0, #5
 8000ba8:	2576      	movs	r5, #118	@ 0x76
 8000baa:	409a      	lsls	r2, r3
 8000bac:	2300      	movs	r3, #0
 8000bae:	426d      	negs	r5, r5
 8000bb0:	4691      	mov	r9, r2
 8000bb2:	4698      	mov	r8, r3
 8000bb4:	469a      	mov	sl, r3
 8000bb6:	1a2d      	subs	r5, r5, r0
 8000bb8:	e74b      	b.n	8000a52 <__aeabi_fmul+0x36>
 8000bba:	0020      	movs	r0, r4
 8000bbc:	f000 fabe 	bl	800113c <__clzsi2>
 8000bc0:	4642      	mov	r2, r8
 8000bc2:	1f43      	subs	r3, r0, #5
 8000bc4:	409c      	lsls	r4, r3
 8000bc6:	1a2b      	subs	r3, r5, r0
 8000bc8:	3b76      	subs	r3, #118	@ 0x76
 8000bca:	2100      	movs	r1, #0
 8000bcc:	1c5d      	adds	r5, r3, #1
 8000bce:	2a0a      	cmp	r2, #10
 8000bd0:	dc00      	bgt.n	8000bd4 <__aeabi_fmul+0x1b8>
 8000bd2:	e752      	b.n	8000a7a <__aeabi_fmul+0x5e>
 8000bd4:	e780      	b.n	8000ad8 <__aeabi_fmul+0xbc>
 8000bd6:	2201      	movs	r2, #1
 8000bd8:	1ad3      	subs	r3, r2, r3
 8000bda:	2b1b      	cmp	r3, #27
 8000bdc:	dd00      	ble.n	8000be0 <__aeabi_fmul+0x1c4>
 8000bde:	e758      	b.n	8000a92 <__aeabi_fmul+0x76>
 8000be0:	359e      	adds	r5, #158	@ 0x9e
 8000be2:	0022      	movs	r2, r4
 8000be4:	40ac      	lsls	r4, r5
 8000be6:	40da      	lsrs	r2, r3
 8000be8:	1e63      	subs	r3, r4, #1
 8000bea:	419c      	sbcs	r4, r3
 8000bec:	4322      	orrs	r2, r4
 8000bee:	0753      	lsls	r3, r2, #29
 8000bf0:	d004      	beq.n	8000bfc <__aeabi_fmul+0x1e0>
 8000bf2:	230f      	movs	r3, #15
 8000bf4:	4013      	ands	r3, r2
 8000bf6:	2b04      	cmp	r3, #4
 8000bf8:	d000      	beq.n	8000bfc <__aeabi_fmul+0x1e0>
 8000bfa:	3204      	adds	r2, #4
 8000bfc:	0153      	lsls	r3, r2, #5
 8000bfe:	d537      	bpl.n	8000c70 <__aeabi_fmul+0x254>
 8000c00:	2001      	movs	r0, #1
 8000c02:	2200      	movs	r2, #0
 8000c04:	e747      	b.n	8000a96 <__aeabi_fmul+0x7a>
 8000c06:	0c21      	lsrs	r1, r4, #16
 8000c08:	464a      	mov	r2, r9
 8000c0a:	0424      	lsls	r4, r4, #16
 8000c0c:	0c24      	lsrs	r4, r4, #16
 8000c0e:	0027      	movs	r7, r4
 8000c10:	0c10      	lsrs	r0, r2, #16
 8000c12:	0412      	lsls	r2, r2, #16
 8000c14:	0c12      	lsrs	r2, r2, #16
 8000c16:	4344      	muls	r4, r0
 8000c18:	4357      	muls	r7, r2
 8000c1a:	4348      	muls	r0, r1
 8000c1c:	4351      	muls	r1, r2
 8000c1e:	0c3a      	lsrs	r2, r7, #16
 8000c20:	1909      	adds	r1, r1, r4
 8000c22:	1852      	adds	r2, r2, r1
 8000c24:	4294      	cmp	r4, r2
 8000c26:	d903      	bls.n	8000c30 <__aeabi_fmul+0x214>
 8000c28:	2180      	movs	r1, #128	@ 0x80
 8000c2a:	0249      	lsls	r1, r1, #9
 8000c2c:	468c      	mov	ip, r1
 8000c2e:	4460      	add	r0, ip
 8000c30:	043f      	lsls	r7, r7, #16
 8000c32:	0411      	lsls	r1, r2, #16
 8000c34:	0c3f      	lsrs	r7, r7, #16
 8000c36:	19c9      	adds	r1, r1, r7
 8000c38:	018c      	lsls	r4, r1, #6
 8000c3a:	1e67      	subs	r7, r4, #1
 8000c3c:	41bc      	sbcs	r4, r7
 8000c3e:	0c12      	lsrs	r2, r2, #16
 8000c40:	0e89      	lsrs	r1, r1, #26
 8000c42:	1812      	adds	r2, r2, r0
 8000c44:	430c      	orrs	r4, r1
 8000c46:	0192      	lsls	r2, r2, #6
 8000c48:	4314      	orrs	r4, r2
 8000c4a:	0112      	lsls	r2, r2, #4
 8000c4c:	d50e      	bpl.n	8000c6c <__aeabi_fmul+0x250>
 8000c4e:	2301      	movs	r3, #1
 8000c50:	0862      	lsrs	r2, r4, #1
 8000c52:	401c      	ands	r4, r3
 8000c54:	4314      	orrs	r4, r2
 8000c56:	e749      	b.n	8000aec <__aeabi_fmul+0xd0>
 8000c58:	003e      	movs	r6, r7
 8000c5a:	46a1      	mov	r9, r4
 8000c5c:	2280      	movs	r2, #128	@ 0x80
 8000c5e:	464b      	mov	r3, r9
 8000c60:	03d2      	lsls	r2, r2, #15
 8000c62:	431a      	orrs	r2, r3
 8000c64:	0252      	lsls	r2, r2, #9
 8000c66:	20ff      	movs	r0, #255	@ 0xff
 8000c68:	0a52      	lsrs	r2, r2, #9
 8000c6a:	e714      	b.n	8000a96 <__aeabi_fmul+0x7a>
 8000c6c:	001d      	movs	r5, r3
 8000c6e:	e73d      	b.n	8000aec <__aeabi_fmul+0xd0>
 8000c70:	0192      	lsls	r2, r2, #6
 8000c72:	2000      	movs	r0, #0
 8000c74:	0a52      	lsrs	r2, r2, #9
 8000c76:	e70e      	b.n	8000a96 <__aeabi_fmul+0x7a>
 8000c78:	290f      	cmp	r1, #15
 8000c7a:	d1ed      	bne.n	8000c58 <__aeabi_fmul+0x23c>
 8000c7c:	2280      	movs	r2, #128	@ 0x80
 8000c7e:	464b      	mov	r3, r9
 8000c80:	03d2      	lsls	r2, r2, #15
 8000c82:	4213      	tst	r3, r2
 8000c84:	d0ea      	beq.n	8000c5c <__aeabi_fmul+0x240>
 8000c86:	4214      	tst	r4, r2
 8000c88:	d1e8      	bne.n	8000c5c <__aeabi_fmul+0x240>
 8000c8a:	003e      	movs	r6, r7
 8000c8c:	20ff      	movs	r0, #255	@ 0xff
 8000c8e:	4322      	orrs	r2, r4
 8000c90:	e701      	b.n	8000a96 <__aeabi_fmul+0x7a>
 8000c92:	46c0      	nop			@ (mov r8, r8)
 8000c94:	f7ffffff 	.word	0xf7ffffff

08000c98 <__aeabi_fsub>:
 8000c98:	b5f8      	push	{r3, r4, r5, r6, r7, lr}
 8000c9a:	4647      	mov	r7, r8
 8000c9c:	46ce      	mov	lr, r9
 8000c9e:	024e      	lsls	r6, r1, #9
 8000ca0:	0243      	lsls	r3, r0, #9
 8000ca2:	0045      	lsls	r5, r0, #1
 8000ca4:	0a72      	lsrs	r2, r6, #9
 8000ca6:	0fc4      	lsrs	r4, r0, #31
 8000ca8:	0048      	lsls	r0, r1, #1
 8000caa:	b580      	push	{r7, lr}
 8000cac:	4694      	mov	ip, r2
 8000cae:	0a5f      	lsrs	r7, r3, #9
 8000cb0:	0e2d      	lsrs	r5, r5, #24
 8000cb2:	099b      	lsrs	r3, r3, #6
 8000cb4:	0e00      	lsrs	r0, r0, #24
 8000cb6:	0fc9      	lsrs	r1, r1, #31
 8000cb8:	09b6      	lsrs	r6, r6, #6
 8000cba:	28ff      	cmp	r0, #255	@ 0xff
 8000cbc:	d024      	beq.n	8000d08 <__aeabi_fsub+0x70>
 8000cbe:	2201      	movs	r2, #1
 8000cc0:	4051      	eors	r1, r2
 8000cc2:	1a2a      	subs	r2, r5, r0
 8000cc4:	428c      	cmp	r4, r1
 8000cc6:	d00f      	beq.n	8000ce8 <__aeabi_fsub+0x50>
 8000cc8:	2a00      	cmp	r2, #0
 8000cca:	dc00      	bgt.n	8000cce <__aeabi_fsub+0x36>
 8000ccc:	e16a      	b.n	8000fa4 <__aeabi_fsub+0x30c>
 8000cce:	2800      	cmp	r0, #0
 8000cd0:	d135      	bne.n	8000d3e <__aeabi_fsub+0xa6>
 8000cd2:	2e00      	cmp	r6, #0
 8000cd4:	d100      	bne.n	8000cd8 <__aeabi_fsub+0x40>
 8000cd6:	e0a2      	b.n	8000e1e <__aeabi_fsub+0x186>
 8000cd8:	1e51      	subs	r1, r2, #1
 8000cda:	2a01      	cmp	r2, #1
 8000cdc:	d100      	bne.n	8000ce0 <__aeabi_fsub+0x48>
 8000cde:	e124      	b.n	8000f2a <__aeabi_fsub+0x292>
 8000ce0:	2aff      	cmp	r2, #255	@ 0xff
 8000ce2:	d021      	beq.n	8000d28 <__aeabi_fsub+0x90>
 8000ce4:	000a      	movs	r2, r1
 8000ce6:	e02f      	b.n	8000d48 <__aeabi_fsub+0xb0>
 8000ce8:	2a00      	cmp	r2, #0
 8000cea:	dc00      	bgt.n	8000cee <__aeabi_fsub+0x56>
 8000cec:	e167      	b.n	8000fbe <__aeabi_fsub+0x326>
 8000cee:	2800      	cmp	r0, #0
 8000cf0:	d05e      	beq.n	8000db0 <__aeabi_fsub+0x118>
 8000cf2:	2dff      	cmp	r5, #255	@ 0xff
 8000cf4:	d018      	beq.n	8000d28 <__aeabi_fsub+0x90>
 8000cf6:	2180      	movs	r1, #128	@ 0x80
 8000cf8:	04c9      	lsls	r1, r1, #19
 8000cfa:	430e      	orrs	r6, r1
 8000cfc:	2a1b      	cmp	r2, #27
 8000cfe:	dc00      	bgt.n	8000d02 <__aeabi_fsub+0x6a>
 8000d00:	e076      	b.n	8000df0 <__aeabi_fsub+0x158>
 8000d02:	002a      	movs	r2, r5
 8000d04:	3301      	adds	r3, #1
 8000d06:	e032      	b.n	8000d6e <__aeabi_fsub+0xd6>
 8000d08:	002a      	movs	r2, r5
 8000d0a:	3aff      	subs	r2, #255	@ 0xff
 8000d0c:	4691      	mov	r9, r2
 8000d0e:	2e00      	cmp	r6, #0
 8000d10:	d042      	beq.n	8000d98 <__aeabi_fsub+0x100>
 8000d12:	428c      	cmp	r4, r1
 8000d14:	d055      	beq.n	8000dc2 <__aeabi_fsub+0x12a>
 8000d16:	464a      	mov	r2, r9
 8000d18:	2a00      	cmp	r2, #0
 8000d1a:	d100      	bne.n	8000d1e <__aeabi_fsub+0x86>
 8000d1c:	e09c      	b.n	8000e58 <__aeabi_fsub+0x1c0>
 8000d1e:	2d00      	cmp	r5, #0
 8000d20:	d100      	bne.n	8000d24 <__aeabi_fsub+0x8c>
 8000d22:	e077      	b.n	8000e14 <__aeabi_fsub+0x17c>
 8000d24:	000c      	movs	r4, r1
 8000d26:	0033      	movs	r3, r6
 8000d28:	08db      	lsrs	r3, r3, #3
 8000d2a:	2b00      	cmp	r3, #0
 8000d2c:	d100      	bne.n	8000d30 <__aeabi_fsub+0x98>
 8000d2e:	e06e      	b.n	8000e0e <__aeabi_fsub+0x176>
 8000d30:	2280      	movs	r2, #128	@ 0x80
 8000d32:	03d2      	lsls	r2, r2, #15
 8000d34:	4313      	orrs	r3, r2
 8000d36:	025b      	lsls	r3, r3, #9
 8000d38:	20ff      	movs	r0, #255	@ 0xff
 8000d3a:	0a5b      	lsrs	r3, r3, #9
 8000d3c:	e024      	b.n	8000d88 <__aeabi_fsub+0xf0>
 8000d3e:	2dff      	cmp	r5, #255	@ 0xff
 8000d40:	d0f2      	beq.n	8000d28 <__aeabi_fsub+0x90>
 8000d42:	2180      	movs	r1, #128	@ 0x80
 8000d44:	04c9      	lsls	r1, r1, #19
 8000d46:	430e      	orrs	r6, r1
 8000d48:	2101      	movs	r1, #1
 8000d4a:	2a1b      	cmp	r2, #27
 8000d4c:	dc08      	bgt.n	8000d60 <__aeabi_fsub+0xc8>
 8000d4e:	0031      	movs	r1, r6
 8000d50:	2020      	movs	r0, #32
 8000d52:	40d1      	lsrs	r1, r2
 8000d54:	1a82      	subs	r2, r0, r2
 8000d56:	4096      	lsls	r6, r2
 8000d58:	0032      	movs	r2, r6
 8000d5a:	1e50      	subs	r0, r2, #1
 8000d5c:	4182      	sbcs	r2, r0
 8000d5e:	4311      	orrs	r1, r2
 8000d60:	1a5b      	subs	r3, r3, r1
 8000d62:	015a      	lsls	r2, r3, #5
 8000d64:	d460      	bmi.n	8000e28 <__aeabi_fsub+0x190>
 8000d66:	2107      	movs	r1, #7
 8000d68:	002a      	movs	r2, r5
 8000d6a:	4019      	ands	r1, r3
 8000d6c:	d057      	beq.n	8000e1e <__aeabi_fsub+0x186>
 8000d6e:	210f      	movs	r1, #15
 8000d70:	4019      	ands	r1, r3
 8000d72:	2904      	cmp	r1, #4
 8000d74:	d000      	beq.n	8000d78 <__aeabi_fsub+0xe0>
 8000d76:	3304      	adds	r3, #4
 8000d78:	0159      	lsls	r1, r3, #5
 8000d7a:	d550      	bpl.n	8000e1e <__aeabi_fsub+0x186>
 8000d7c:	1c50      	adds	r0, r2, #1
 8000d7e:	2afe      	cmp	r2, #254	@ 0xfe
 8000d80:	d045      	beq.n	8000e0e <__aeabi_fsub+0x176>
 8000d82:	019b      	lsls	r3, r3, #6
 8000d84:	b2c0      	uxtb	r0, r0
 8000d86:	0a5b      	lsrs	r3, r3, #9
 8000d88:	05c0      	lsls	r0, r0, #23
 8000d8a:	4318      	orrs	r0, r3
 8000d8c:	07e4      	lsls	r4, r4, #31
 8000d8e:	4320      	orrs	r0, r4
 8000d90:	bcc0      	pop	{r6, r7}
 8000d92:	46b9      	mov	r9, r7
 8000d94:	46b0      	mov	r8, r6
 8000d96:	bdf8      	pop	{r3, r4, r5, r6, r7, pc}
 8000d98:	2201      	movs	r2, #1
 8000d9a:	4051      	eors	r1, r2
 8000d9c:	428c      	cmp	r4, r1
 8000d9e:	d1ba      	bne.n	8000d16 <__aeabi_fsub+0x7e>
 8000da0:	464a      	mov	r2, r9
 8000da2:	2a00      	cmp	r2, #0
 8000da4:	d010      	beq.n	8000dc8 <__aeabi_fsub+0x130>
 8000da6:	2d00      	cmp	r5, #0
 8000da8:	d100      	bne.n	8000dac <__aeabi_fsub+0x114>
 8000daa:	e098      	b.n	8000ede <__aeabi_fsub+0x246>
 8000dac:	2300      	movs	r3, #0
 8000dae:	e7bb      	b.n	8000d28 <__aeabi_fsub+0x90>
 8000db0:	2e00      	cmp	r6, #0
 8000db2:	d034      	beq.n	8000e1e <__aeabi_fsub+0x186>
 8000db4:	1e51      	subs	r1, r2, #1
 8000db6:	2a01      	cmp	r2, #1
 8000db8:	d06e      	beq.n	8000e98 <__aeabi_fsub+0x200>
 8000dba:	2aff      	cmp	r2, #255	@ 0xff
 8000dbc:	d0b4      	beq.n	8000d28 <__aeabi_fsub+0x90>
 8000dbe:	000a      	movs	r2, r1
 8000dc0:	e79c      	b.n	8000cfc <__aeabi_fsub+0x64>
 8000dc2:	2a00      	cmp	r2, #0
 8000dc4:	d000      	beq.n	8000dc8 <__aeabi_fsub+0x130>
 8000dc6:	e088      	b.n	8000eda <__aeabi_fsub+0x242>
 8000dc8:	20fe      	movs	r0, #254	@ 0xfe
 8000dca:	1c6a      	adds	r2, r5, #1
 8000dcc:	4210      	tst	r0, r2
 8000dce:	d000      	beq.n	8000dd2 <__aeabi_fsub+0x13a>
 8000dd0:	e092      	b.n	8000ef8 <__aeabi_fsub+0x260>
 8000dd2:	2d00      	cmp	r5, #0
 8000dd4:	d000      	beq.n	8000dd8 <__aeabi_fsub+0x140>
 8000dd6:	e0a4      	b.n	8000f22 <__aeabi_fsub+0x28a>
 8000dd8:	2b00      	cmp	r3, #0
 8000dda:	d100      	bne.n	8000dde <__aeabi_fsub+0x146>
 8000ddc:	e0cb      	b.n	8000f76 <__aeabi_fsub+0x2de>
 8000dde:	2e00      	cmp	r6, #0
 8000de0:	d000      	beq.n	8000de4 <__aeabi_fsub+0x14c>
 8000de2:	e0ca      	b.n	8000f7a <__aeabi_fsub+0x2e2>
 8000de4:	2200      	movs	r2, #0
 8000de6:	08db      	lsrs	r3, r3, #3
 8000de8:	025b      	lsls	r3, r3, #9
 8000dea:	0a5b      	lsrs	r3, r3, #9
 8000dec:	b2d0      	uxtb	r0, r2
 8000dee:	e7cb      	b.n	8000d88 <__aeabi_fsub+0xf0>
 8000df0:	0031      	movs	r1, r6
 8000df2:	2020      	movs	r0, #32
 8000df4:	40d1      	lsrs	r1, r2
 8000df6:	1a82      	subs	r2, r0, r2
 8000df8:	4096      	lsls	r6, r2
 8000dfa:	0032      	movs	r2, r6
 8000dfc:	1e50      	subs	r0, r2, #1
 8000dfe:	4182      	sbcs	r2, r0
 8000e00:	430a      	orrs	r2, r1
 8000e02:	189b      	adds	r3, r3, r2
 8000e04:	015a      	lsls	r2, r3, #5
 8000e06:	d5ae      	bpl.n	8000d66 <__aeabi_fsub+0xce>
 8000e08:	1c6a      	adds	r2, r5, #1
 8000e0a:	2dfe      	cmp	r5, #254	@ 0xfe
 8000e0c:	d14a      	bne.n	8000ea4 <__aeabi_fsub+0x20c>
 8000e0e:	20ff      	movs	r0, #255	@ 0xff
 8000e10:	2300      	movs	r3, #0
 8000e12:	e7b9      	b.n	8000d88 <__aeabi_fsub+0xf0>
 8000e14:	22ff      	movs	r2, #255	@ 0xff
 8000e16:	2b00      	cmp	r3, #0
 8000e18:	d14b      	bne.n	8000eb2 <__aeabi_fsub+0x21a>
 8000e1a:	000c      	movs	r4, r1
 8000e1c:	0033      	movs	r3, r6
 8000e1e:	08db      	lsrs	r3, r3, #3
 8000e20:	2aff      	cmp	r2, #255	@ 0xff
 8000e22:	d100      	bne.n	8000e26 <__aeabi_fsub+0x18e>
 8000e24:	e781      	b.n	8000d2a <__aeabi_fsub+0x92>
 8000e26:	e7df      	b.n	8000de8 <__aeabi_fsub+0x150>
 8000e28:	019f      	lsls	r7, r3, #6
 8000e2a:	09bf      	lsrs	r7, r7, #6
 8000e2c:	0038      	movs	r0, r7
 8000e2e:	f000 f985 	bl	800113c <__clzsi2>
 8000e32:	3805      	subs	r0, #5
 8000e34:	4087      	lsls	r7, r0
 8000e36:	4285      	cmp	r5, r0
 8000e38:	dc21      	bgt.n	8000e7e <__aeabi_fsub+0x1e6>
 8000e3a:	003b      	movs	r3, r7
 8000e3c:	2120      	movs	r1, #32
 8000e3e:	1b42      	subs	r2, r0, r5
 8000e40:	3201      	adds	r2, #1
 8000e42:	40d3      	lsrs	r3, r2
 8000e44:	1a8a      	subs	r2, r1, r2
 8000e46:	4097      	lsls	r7, r2
 8000e48:	1e7a      	subs	r2, r7, #1
 8000e4a:	4197      	sbcs	r7, r2
 8000e4c:	2200      	movs	r2, #0
 8000e4e:	433b      	orrs	r3, r7
 8000e50:	0759      	lsls	r1, r3, #29
 8000e52:	d000      	beq.n	8000e56 <__aeabi_fsub+0x1be>
 8000e54:	e78b      	b.n	8000d6e <__aeabi_fsub+0xd6>
 8000e56:	e78f      	b.n	8000d78 <__aeabi_fsub+0xe0>
 8000e58:	20fe      	movs	r0, #254	@ 0xfe
 8000e5a:	1c6a      	adds	r2, r5, #1
 8000e5c:	4210      	tst	r0, r2
 8000e5e:	d112      	bne.n	8000e86 <__aeabi_fsub+0x1ee>
 8000e60:	2d00      	cmp	r5, #0
 8000e62:	d152      	bne.n	8000f0a <__aeabi_fsub+0x272>
 8000e64:	2b00      	cmp	r3, #0
 8000e66:	d07c      	beq.n	8000f62 <__aeabi_fsub+0x2ca>
 8000e68:	2e00      	cmp	r6, #0
 8000e6a:	d0bb      	beq.n	8000de4 <__aeabi_fsub+0x14c>
 8000e6c:	1b9a      	subs	r2, r3, r6
 8000e6e:	0150      	lsls	r0, r2, #5
 8000e70:	d400      	bmi.n	8000e74 <__aeabi_fsub+0x1dc>
 8000e72:	e08b      	b.n	8000f8c <__aeabi_fsub+0x2f4>
 8000e74:	2401      	movs	r4, #1
 8000e76:	2200      	movs	r2, #0
 8000e78:	1af3      	subs	r3, r6, r3
 8000e7a:	400c      	ands	r4, r1
 8000e7c:	e7e8      	b.n	8000e50 <__aeabi_fsub+0x1b8>
 8000e7e:	4b56      	ldr	r3, [pc, #344]	@ (8000fd8 <__aeabi_fsub+0x340>)
 8000e80:	1a2a      	subs	r2, r5, r0
 8000e82:	403b      	ands	r3, r7
 8000e84:	e7e4      	b.n	8000e50 <__aeabi_fsub+0x1b8>
 8000e86:	1b9f      	subs	r7, r3, r6
 8000e88:	017a      	lsls	r2, r7, #5
 8000e8a:	d446      	bmi.n	8000f1a <__aeabi_fsub+0x282>
 8000e8c:	2f00      	cmp	r7, #0
 8000e8e:	d1cd      	bne.n	8000e2c <__aeabi_fsub+0x194>
 8000e90:	2400      	movs	r4, #0
 8000e92:	2000      	movs	r0, #0
 8000e94:	2300      	movs	r3, #0
 8000e96:	e777      	b.n	8000d88 <__aeabi_fsub+0xf0>
 8000e98:	199b      	adds	r3, r3, r6
 8000e9a:	2501      	movs	r5, #1
 8000e9c:	3201      	adds	r2, #1
 8000e9e:	0159      	lsls	r1, r3, #5
 8000ea0:	d400      	bmi.n	8000ea4 <__aeabi_fsub+0x20c>
 8000ea2:	e760      	b.n	8000d66 <__aeabi_fsub+0xce>
 8000ea4:	2101      	movs	r1, #1
 8000ea6:	484d      	ldr	r0, [pc, #308]	@ (8000fdc <__aeabi_fsub+0x344>)
 8000ea8:	4019      	ands	r1, r3
 8000eaa:	085b      	lsrs	r3, r3, #1
 8000eac:	4003      	ands	r3, r0
 8000eae:	430b      	orrs	r3, r1
 8000eb0:	e7ce      	b.n	8000e50 <__aeabi_fsub+0x1b8>
 8000eb2:	1e57      	subs	r7, r2, #1
 8000eb4:	2a01      	cmp	r2, #1
 8000eb6:	d05a      	beq.n	8000f6e <__aeabi_fsub+0x2d6>
 8000eb8:	000c      	movs	r4, r1
 8000eba:	2aff      	cmp	r2, #255	@ 0xff
 8000ebc:	d033      	beq.n	8000f26 <__aeabi_fsub+0x28e>
 8000ebe:	2201      	movs	r2, #1
 8000ec0:	2f1b      	cmp	r7, #27
 8000ec2:	dc07      	bgt.n	8000ed4 <__aeabi_fsub+0x23c>
 8000ec4:	2120      	movs	r1, #32
 8000ec6:	1bc9      	subs	r1, r1, r7
 8000ec8:	001a      	movs	r2, r3
 8000eca:	408b      	lsls	r3, r1
 8000ecc:	40fa      	lsrs	r2, r7
 8000ece:	1e59      	subs	r1, r3, #1
 8000ed0:	418b      	sbcs	r3, r1
 8000ed2:	431a      	orrs	r2, r3
 8000ed4:	0005      	movs	r5, r0
 8000ed6:	1ab3      	subs	r3, r6, r2
 8000ed8:	e743      	b.n	8000d62 <__aeabi_fsub+0xca>
 8000eda:	2d00      	cmp	r5, #0
 8000edc:	d123      	bne.n	8000f26 <__aeabi_fsub+0x28e>
 8000ede:	22ff      	movs	r2, #255	@ 0xff
 8000ee0:	2b00      	cmp	r3, #0
 8000ee2:	d09b      	beq.n	8000e1c <__aeabi_fsub+0x184>
 8000ee4:	1e51      	subs	r1, r2, #1
 8000ee6:	2a01      	cmp	r2, #1
 8000ee8:	d0d6      	beq.n	8000e98 <__aeabi_fsub+0x200>
 8000eea:	2aff      	cmp	r2, #255	@ 0xff
 8000eec:	d01b      	beq.n	8000f26 <__aeabi_fsub+0x28e>
 8000eee:	291b      	cmp	r1, #27
 8000ef0:	dd2c      	ble.n	8000f4c <__aeabi_fsub+0x2b4>
 8000ef2:	0002      	movs	r2, r0
 8000ef4:	1c73      	adds	r3, r6, #1
 8000ef6:	e73a      	b.n	8000d6e <__aeabi_fsub+0xd6>
 8000ef8:	2aff      	cmp	r2, #255	@ 0xff
 8000efa:	d088      	beq.n	8000e0e <__aeabi_fsub+0x176>
 8000efc:	199b      	adds	r3, r3, r6
 8000efe:	085b      	lsrs	r3, r3, #1
 8000f00:	0759      	lsls	r1, r3, #29
 8000f02:	d000      	beq.n	8000f06 <__aeabi_fsub+0x26e>
 8000f04:	e733      	b.n	8000d6e <__aeabi_fsub+0xd6>
 8000f06:	08db      	lsrs	r3, r3, #3
 8000f08:	e76e      	b.n	8000de8 <__aeabi_fsub+0x150>
 8000f0a:	2b00      	cmp	r3, #0
 8000f0c:	d110      	bne.n	8000f30 <__aeabi_fsub+0x298>
 8000f0e:	2e00      	cmp	r6, #0
 8000f10:	d043      	beq.n	8000f9a <__aeabi_fsub+0x302>
 8000f12:	2401      	movs	r4, #1
 8000f14:	0033      	movs	r3, r6
 8000f16:	400c      	ands	r4, r1
 8000f18:	e706      	b.n	8000d28 <__aeabi_fsub+0x90>
 8000f1a:	2401      	movs	r4, #1
 8000f1c:	1af7      	subs	r7, r6, r3
 8000f1e:	400c      	ands	r4, r1
 8000f20:	e784      	b.n	8000e2c <__aeabi_fsub+0x194>
 8000f22:	2b00      	cmp	r3, #0
 8000f24:	d104      	bne.n	8000f30 <__aeabi_fsub+0x298>
 8000f26:	0033      	movs	r3, r6
 8000f28:	e6fe      	b.n	8000d28 <__aeabi_fsub+0x90>
 8000f2a:	2501      	movs	r5, #1
 8000f2c:	1b9b      	subs	r3, r3, r6
 8000f2e:	e718      	b.n	8000d62 <__aeabi_fsub+0xca>
 8000f30:	2e00      	cmp	r6, #0
 8000f32:	d100      	bne.n	8000f36 <__aeabi_fsub+0x29e>
 8000f34:	e6f8      	b.n	8000d28 <__aeabi_fsub+0x90>
 8000f36:	2280      	movs	r2, #128	@ 0x80
 8000f38:	03d2      	lsls	r2, r2, #15
 8000f3a:	4297      	cmp	r7, r2
 8000f3c:	d304      	bcc.n	8000f48 <__aeabi_fsub+0x2b0>
 8000f3e:	4594      	cmp	ip, r2
 8000f40:	d202      	bcs.n	8000f48 <__aeabi_fsub+0x2b0>
 8000f42:	2401      	movs	r4, #1
 8000f44:	0033      	movs	r3, r6
 8000f46:	400c      	ands	r4, r1
 8000f48:	08db      	lsrs	r3, r3, #3
 8000f4a:	e6f1      	b.n	8000d30 <__aeabi_fsub+0x98>
 8000f4c:	001a      	movs	r2, r3
 8000f4e:	2520      	movs	r5, #32
 8000f50:	40ca      	lsrs	r2, r1
 8000f52:	1a69      	subs	r1, r5, r1
 8000f54:	408b      	lsls	r3, r1
 8000f56:	1e59      	subs	r1, r3, #1
 8000f58:	418b      	sbcs	r3, r1
 8000f5a:	4313      	orrs	r3, r2
 8000f5c:	0005      	movs	r5, r0
 8000f5e:	199b      	adds	r3, r3, r6
 8000f60:	e750      	b.n	8000e04 <__aeabi_fsub+0x16c>
 8000f62:	2e00      	cmp	r6, #0
 8000f64:	d094      	beq.n	8000e90 <__aeabi_fsub+0x1f8>
 8000f66:	2401      	movs	r4, #1
 8000f68:	0033      	movs	r3, r6
 8000f6a:	400c      	ands	r4, r1
 8000f6c:	e73a      	b.n	8000de4 <__aeabi_fsub+0x14c>
 8000f6e:	000c      	movs	r4, r1
 8000f70:	2501      	movs	r5, #1
 8000f72:	1af3      	subs	r3, r6, r3
 8000f74:	e6f5      	b.n	8000d62 <__aeabi_fsub+0xca>
 8000f76:	0033      	movs	r3, r6
 8000f78:	e734      	b.n	8000de4 <__aeabi_fsub+0x14c>
 8000f7a:	199b      	adds	r3, r3, r6
 8000f7c:	2200      	movs	r2, #0
 8000f7e:	0159      	lsls	r1, r3, #5
 8000f80:	d5c1      	bpl.n	8000f06 <__aeabi_fsub+0x26e>
 8000f82:	4a15      	ldr	r2, [pc, #84]	@ (8000fd8 <__aeabi_fsub+0x340>)
 8000f84:	4013      	ands	r3, r2
 8000f86:	08db      	lsrs	r3, r3, #3
 8000f88:	2201      	movs	r2, #1
 8000f8a:	e72d      	b.n	8000de8 <__aeabi_fsub+0x150>
 8000f8c:	2a00      	cmp	r2, #0
 8000f8e:	d100      	bne.n	8000f92 <__aeabi_fsub+0x2fa>
 8000f90:	e77e      	b.n	8000e90 <__aeabi_fsub+0x1f8>
 8000f92:	0013      	movs	r3, r2
 8000f94:	2200      	movs	r2, #0
 8000f96:	08db      	lsrs	r3, r3, #3
 8000f98:	e726      	b.n	8000de8 <__aeabi_fsub+0x150>
 8000f9a:	2380      	movs	r3, #128	@ 0x80
 8000f9c:	2400      	movs	r4, #0
 8000f9e:	20ff      	movs	r0, #255	@ 0xff
 8000fa0:	03db      	lsls	r3, r3, #15
 8000fa2:	e6f1      	b.n	8000d88 <__aeabi_fsub+0xf0>
 8000fa4:	2a00      	cmp	r2, #0
 8000fa6:	d100      	bne.n	8000faa <__aeabi_fsub+0x312>
 8000fa8:	e756      	b.n	8000e58 <__aeabi_fsub+0x1c0>
 8000faa:	1b47      	subs	r7, r0, r5
 8000fac:	003a      	movs	r2, r7
 8000fae:	2d00      	cmp	r5, #0
 8000fb0:	d100      	bne.n	8000fb4 <__aeabi_fsub+0x31c>
 8000fb2:	e730      	b.n	8000e16 <__aeabi_fsub+0x17e>
 8000fb4:	2280      	movs	r2, #128	@ 0x80
 8000fb6:	04d2      	lsls	r2, r2, #19
 8000fb8:	000c      	movs	r4, r1
 8000fba:	4313      	orrs	r3, r2
 8000fbc:	e77f      	b.n	8000ebe <__aeabi_fsub+0x226>
 8000fbe:	2a00      	cmp	r2, #0
 8000fc0:	d100      	bne.n	8000fc4 <__aeabi_fsub+0x32c>
 8000fc2:	e701      	b.n	8000dc8 <__aeabi_fsub+0x130>
 8000fc4:	1b41      	subs	r1, r0, r5
 8000fc6:	2d00      	cmp	r5, #0
 8000fc8:	d101      	bne.n	8000fce <__aeabi_fsub+0x336>
 8000fca:	000a      	movs	r2, r1
 8000fcc:	e788      	b.n	8000ee0 <__aeabi_fsub+0x248>
 8000fce:	2280      	movs	r2, #128	@ 0x80
 8000fd0:	04d2      	lsls	r2, r2, #19
 8000fd2:	4313      	orrs	r3, r2
 8000fd4:	e78b      	b.n	8000eee <__aeabi_fsub+0x256>
 8000fd6:	46c0      	nop			@ (mov r8, r8)
 8000fd8:	fbffffff 	.word	0xfbffffff
 8000fdc:	7dffffff 	.word	0x7dffffff

08000fe0 <__aeabi_f2iz>:
 8000fe0:	0241      	lsls	r1, r0, #9
 8000fe2:	0042      	lsls	r2, r0, #1
 8000fe4:	0fc3      	lsrs	r3, r0, #31
 8000fe6:	0a49      	lsrs	r1, r1, #9
 8000fe8:	2000      	movs	r0, #0
 8000fea:	0e12      	lsrs	r2, r2, #24
 8000fec:	2a7e      	cmp	r2, #126	@ 0x7e
 8000fee:	dd03      	ble.n	8000ff8 <__aeabi_f2iz+0x18>
 8000ff0:	2a9d      	cmp	r2, #157	@ 0x9d
 8000ff2:	dd02      	ble.n	8000ffa <__aeabi_f2iz+0x1a>
 8000ff4:	4a09      	ldr	r2, [pc, #36]	@ (800101c <__aeabi_f2iz+0x3c>)
 8000ff6:	1898      	adds	r0, r3, r2
 8000ff8:	4770      	bx	lr
 8000ffa:	2080      	movs	r0, #128	@ 0x80
 8000ffc:	0400      	lsls	r0, r0, #16
 8000ffe:	4301      	orrs	r1, r0
 8001000:	2a95      	cmp	r2, #149	@ 0x95
 8001002:	dc07      	bgt.n	8001014 <__aeabi_f2iz+0x34>
 8001004:	2096      	movs	r0, #150	@ 0x96
 8001006:	1a82      	subs	r2, r0, r2
 8001008:	40d1      	lsrs	r1, r2
 800100a:	4248      	negs	r0, r1
 800100c:	2b00      	cmp	r3, #0
 800100e:	d1f3      	bne.n	8000ff8 <__aeabi_f2iz+0x18>
 8001010:	0008      	movs	r0, r1
 8001012:	e7f1      	b.n	8000ff8 <__aeabi_f2iz+0x18>
 8001014:	3a96      	subs	r2, #150	@ 0x96
 8001016:	4091      	lsls	r1, r2
 8001018:	e7f7      	b.n	800100a <__aeabi_f2iz+0x2a>
 800101a:	46c0      	nop			@ (mov r8, r8)
 800101c:	7fffffff 	.word	0x7fffffff

08001020 <__aeabi_i2f>:
 8001020:	b570      	push	{r4, r5, r6, lr}
 8001022:	2800      	cmp	r0, #0
 8001024:	d013      	beq.n	800104e <__aeabi_i2f+0x2e>
 8001026:	17c3      	asrs	r3, r0, #31
 8001028:	18c5      	adds	r5, r0, r3
 800102a:	405d      	eors	r5, r3
 800102c:	0fc4      	lsrs	r4, r0, #31
 800102e:	0028      	movs	r0, r5
 8001030:	f000 f884 	bl	800113c <__clzsi2>
 8001034:	239e      	movs	r3, #158	@ 0x9e
 8001036:	0001      	movs	r1, r0
 8001038:	1a1b      	subs	r3, r3, r0
 800103a:	2b96      	cmp	r3, #150	@ 0x96
 800103c:	dc0f      	bgt.n	800105e <__aeabi_i2f+0x3e>
 800103e:	2808      	cmp	r0, #8
 8001040:	d034      	beq.n	80010ac <__aeabi_i2f+0x8c>
 8001042:	3908      	subs	r1, #8
 8001044:	408d      	lsls	r5, r1
 8001046:	026d      	lsls	r5, r5, #9
 8001048:	0a6d      	lsrs	r5, r5, #9
 800104a:	b2d8      	uxtb	r0, r3
 800104c:	e002      	b.n	8001054 <__aeabi_i2f+0x34>
 800104e:	2400      	movs	r4, #0
 8001050:	2000      	movs	r0, #0
 8001052:	2500      	movs	r5, #0
 8001054:	05c0      	lsls	r0, r0, #23
 8001056:	4328      	orrs	r0, r5
 8001058:	07e4      	lsls	r4, r4, #31
 800105a:	4320      	orrs	r0, r4
 800105c:	bd70      	pop	{r4, r5, r6, pc}
 800105e:	2b99      	cmp	r3, #153	@ 0x99
 8001060:	dc16      	bgt.n	8001090 <__aeabi_i2f+0x70>
 8001062:	1f42      	subs	r2, r0, #5
 8001064:	2805      	cmp	r0, #5
 8001066:	d000      	beq.n	800106a <__aeabi_i2f+0x4a>
 8001068:	4095      	lsls	r5, r2
 800106a:	002a      	movs	r2, r5
 800106c:	4811      	ldr	r0, [pc, #68]	@ (80010b4 <__aeabi_i2f+0x94>)
 800106e:	4002      	ands	r2, r0
 8001070:	076e      	lsls	r6, r5, #29
 8001072:	d009      	beq.n	8001088 <__aeabi_i2f+0x68>
 8001074:	260f      	movs	r6, #15
 8001076:	4035      	ands	r5, r6
 8001078:	2d04      	cmp	r5, #4
 800107a:	d005      	beq.n	8001088 <__aeabi_i2f+0x68>
 800107c:	3204      	adds	r2, #4
 800107e:	0155      	lsls	r5, r2, #5
 8001080:	d502      	bpl.n	8001088 <__aeabi_i2f+0x68>
 8001082:	239f      	movs	r3, #159	@ 0x9f
 8001084:	4002      	ands	r2, r0
 8001086:	1a5b      	subs	r3, r3, r1
 8001088:	0192      	lsls	r2, r2, #6
 800108a:	0a55      	lsrs	r5, r2, #9
 800108c:	b2d8      	uxtb	r0, r3
 800108e:	e7e1      	b.n	8001054 <__aeabi_i2f+0x34>
 8001090:	2205      	movs	r2, #5
 8001092:	1a12      	subs	r2, r2, r0
 8001094:	0028      	movs	r0, r5
 8001096:	40d0      	lsrs	r0, r2
 8001098:	0002      	movs	r2, r0
 800109a:	0008      	movs	r0, r1
 800109c:	301b      	adds	r0, #27
 800109e:	4085      	lsls	r5, r0
 80010a0:	0028      	movs	r0, r5
 80010a2:	1e45      	subs	r5, r0, #1
 80010a4:	41a8      	sbcs	r0, r5
 80010a6:	4302      	orrs	r2, r0
 80010a8:	0015      	movs	r5, r2
 80010aa:	e7de      	b.n	800106a <__aeabi_i2f+0x4a>
 80010ac:	026d      	lsls	r5, r5, #9
 80010ae:	2096      	movs	r0, #150	@ 0x96
 80010b0:	0a6d      	lsrs	r5, r5, #9
 80010b2:	e7cf      	b.n	8001054 <__aeabi_i2f+0x34>
 80010b4:	fbffffff 	.word	0xfbffffff

080010b8 <__aeabi_ui2f>:
 80010b8:	b570      	push	{r4, r5, r6, lr}
 80010ba:	1e04      	subs	r4, r0, #0
 80010bc:	d00e      	beq.n	80010dc <__aeabi_ui2f+0x24>
 80010be:	f000 f83d 	bl	800113c <__clzsi2>
 80010c2:	239e      	movs	r3, #158	@ 0x9e
 80010c4:	0001      	movs	r1, r0
 80010c6:	1a1b      	subs	r3, r3, r0
 80010c8:	2b96      	cmp	r3, #150	@ 0x96
 80010ca:	dc0c      	bgt.n	80010e6 <__aeabi_ui2f+0x2e>
 80010cc:	2808      	cmp	r0, #8
 80010ce:	d02f      	beq.n	8001130 <__aeabi_ui2f+0x78>
 80010d0:	3908      	subs	r1, #8
 80010d2:	408c      	lsls	r4, r1
 80010d4:	0264      	lsls	r4, r4, #9
 80010d6:	0a64      	lsrs	r4, r4, #9
 80010d8:	b2d8      	uxtb	r0, r3
 80010da:	e001      	b.n	80010e0 <__aeabi_ui2f+0x28>
 80010dc:	2000      	movs	r0, #0
 80010de:	2400      	movs	r4, #0
 80010e0:	05c0      	lsls	r0, r0, #23
 80010e2:	4320      	orrs	r0, r4
 80010e4:	bd70      	pop	{r4, r5, r6, pc}
 80010e6:	2b99      	cmp	r3, #153	@ 0x99
 80010e8:	dc16      	bgt.n	8001118 <__aeabi_ui2f+0x60>
 80010ea:	1f42      	subs	r2, r0, #5
 80010ec:	2805      	cmp	r0, #5
 80010ee:	d000      	beq.n	80010f2 <__aeabi_ui2f+0x3a>
 80010f0:	4094      	lsls	r4, r2
 80010f2:	0022      	movs	r2, r4
 80010f4:	4810      	ldr	r0, [pc, #64]	@ (8001138 <__aeabi_ui2f+0x80>)
 80010f6:	4002      	ands	r2, r0
 80010f8:	0765      	lsls	r5, r4, #29
 80010fa:	d009      	beq.n	8001110 <__aeabi_ui2f+0x58>
 80010fc:	250f      	movs	r5, #15
 80010fe:	402c      	ands	r4, r5
 8001100:	2c04      	cmp	r4, #4
 8001102:	d005      	beq.n	8001110 <__aeabi_ui2f+0x58>
 8001104:	3204      	adds	r2, #4
 8001106:	0154      	lsls	r4, r2, #5
 8001108:	d502      	bpl.n	8001110 <__aeabi_ui2f+0x58>
 800110a:	239f      	movs	r3, #159	@ 0x9f
 800110c:	4002      	ands	r2, r0
 800110e:	1a5b      	subs	r3, r3, r1
 8001110:	0192      	lsls	r2, r2, #6
 8001112:	0a54      	lsrs	r4, r2, #9
 8001114:	b2d8      	uxtb	r0, r3
 8001116:	e7e3      	b.n	80010e0 <__aeabi_ui2f+0x28>
 8001118:	0002      	movs	r2, r0
 800111a:	0020      	movs	r0, r4
 800111c:	321b      	adds	r2, #27
 800111e:	4090      	lsls	r0, r2
 8001120:	0002      	movs	r2, r0
 8001122:	1e50      	subs	r0, r2, #1
 8001124:	4182      	sbcs	r2, r0
 8001126:	2005      	movs	r0, #5
 8001128:	1a40      	subs	r0, r0, r1
 800112a:	40c4      	lsrs	r4, r0
 800112c:	4314      	orrs	r4, r2
 800112e:	e7e0      	b.n	80010f2 <__aeabi_ui2f+0x3a>
 8001130:	0264      	lsls	r4, r4, #9
 8001132:	2096      	movs	r0, #150	@ 0x96
 8001134:	0a64      	lsrs	r4, r4, #9
 8001136:	e7d3      	b.n	80010e0 <__aeabi_ui2f+0x28>
 8001138:	fbffffff 	.word	0xfbffffff

0800113c <__clzsi2>:
 800113c:	211c      	movs	r1, #28
 800113e:	2301      	movs	r3, #1
 8001140:	041b      	lsls	r3, r3, #16
 8001142:	4298      	cmp	r0, r3
 8001144:	d301      	bcc.n	800114a <__clzsi2+0xe>
 8001146:	0c00      	lsrs	r0, r0, #16
 8001148:	3910      	subs	r1, #16
 800114a:	0a1b      	lsrs	r3, r3, #8
 800114c:	4298      	cmp	r0, r3
 800114e:	d301      	bcc.n	8001154 <__clzsi2+0x18>
 8001150:	0a00      	lsrs	r0, r0, #8
 8001152:	3908      	subs	r1, #8
 8001154:	091b      	lsrs	r3, r3, #4
 8001156:	4298      	cmp	r0, r3
 8001158:	d301      	bcc.n	800115e <__clzsi2+0x22>
 800115a:	0900      	lsrs	r0, r0, #4
 800115c:	3904      	subs	r1, #4
 800115e:	a202      	add	r2, pc, #8	@ (adr r2, 8001168 <__clzsi2+0x2c>)
 8001160:	5c10      	ldrb	r0, [r2, r0]
 8001162:	1840      	adds	r0, r0, r1
 8001164:	4770      	bx	lr
 8001166:	46c0      	nop			@ (mov r8, r8)
 8001168:	02020304 	.word	0x02020304
 800116c:	01010101 	.word	0x01010101
	...

08001178 <__clzdi2>:
 8001178:	b510      	push	{r4, lr}
 800117a:	2900      	cmp	r1, #0
 800117c:	d103      	bne.n	8001186 <__clzdi2+0xe>
 800117e:	f7ff ffdd 	bl	800113c <__clzsi2>
 8001182:	3020      	adds	r0, #32
 8001184:	e002      	b.n	800118c <__clzdi2+0x14>
 8001186:	0008      	movs	r0, r1
 8001188:	f7ff ffd8 	bl	800113c <__clzsi2>
 800118c:	bd10      	pop	{r4, pc}
 800118e:	46c0      	nop			@ (mov r8, r8)

08001190 <MX_GPIO_Init>:
        * Output
        * EVENT_OUT
        * EXTI
*/
void MX_GPIO_Init(void)
{
 8001190:	b590      	push	{r4, r7, lr}
 8001192:	b08b      	sub	sp, #44	@ 0x2c
 8001194:	af00      	add	r7, sp, #0

  GPIO_InitTypeDef GPIO_InitStruct = {0};
 8001196:	2414      	movs	r4, #20
 8001198:	193b      	adds	r3, r7, r4
 800119a:	0018      	movs	r0, r3
 800119c:	2314      	movs	r3, #20
 800119e:	001a      	movs	r2, r3
 80011a0:	2100      	movs	r1, #0
 80011a2:	f00d fa4d 	bl	800e640 <memset>

  /* GPIO Ports Clock Enable */
  __HAL_RCC_GPIOC_CLK_ENABLE();
 80011a6:	4b27      	ldr	r3, [pc, #156]	@ (8001244 <MX_GPIO_Init+0xb4>)
 80011a8:	6b5a      	ldr	r2, [r3, #52]	@ 0x34
 80011aa:	4b26      	ldr	r3, [pc, #152]	@ (8001244 <MX_GPIO_Init+0xb4>)
 80011ac:	2104      	movs	r1, #4
 80011ae:	430a      	orrs	r2, r1
 80011b0:	635a      	str	r2, [r3, #52]	@ 0x34
 80011b2:	4b24      	ldr	r3, [pc, #144]	@ (8001244 <MX_GPIO_Init+0xb4>)
 80011b4:	6b5b      	ldr	r3, [r3, #52]	@ 0x34
 80011b6:	2204      	movs	r2, #4
 80011b8:	4013      	ands	r3, r2
 80011ba:	613b      	str	r3, [r7, #16]
 80011bc:	693b      	ldr	r3, [r7, #16]
  __HAL_RCC_GPIOF_CLK_ENABLE();
 80011be:	4b21      	ldr	r3, [pc, #132]	@ (8001244 <MX_GPIO_Init+0xb4>)
 80011c0:	6b5a      	ldr	r2, [r3, #52]	@ 0x34
 80011c2:	4b20      	ldr	r3, [pc, #128]	@ (8001244 <MX_GPIO_Init+0xb4>)
 80011c4:	2120      	movs	r1, #32
 80011c6:	430a      	orrs	r2, r1
 80011c8:	635a      	str	r2, [r3, #52]	@ 0x34
 80011ca:	4b1e      	ldr	r3, [pc, #120]	@ (8001244 <MX_GPIO_Init+0xb4>)
 80011cc:	6b5b      	ldr	r3, [r3, #52]	@ 0x34
 80011ce:	2220      	movs	r2, #32
 80011d0:	4013      	ands	r3, r2
 80011d2:	60fb      	str	r3, [r7, #12]
 80011d4:	68fb      	ldr	r3, [r7, #12]
  __HAL_RCC_GPIOA_CLK_ENABLE();
 80011d6:	4b1b      	ldr	r3, [pc, #108]	@ (8001244 <MX_GPIO_Init+0xb4>)
 80011d8:	6b5a      	ldr	r2, [r3, #52]	@ 0x34
 80011da:	4b1a      	ldr	r3, [pc, #104]	@ (8001244 <MX_GPIO_Init+0xb4>)
 80011dc:	2101      	movs	r1, #1
 80011de:	430a      	orrs	r2, r1
 80011e0:	635a      	str	r2, [r3, #52]	@ 0x34
 80011e2:	4b18      	ldr	r3, [pc, #96]	@ (8001244 <MX_GPIO_Init+0xb4>)
 80011e4:	6b5b      	ldr	r3, [r3, #52]	@ 0x34
 80011e6:	2201      	movs	r2, #1
 80011e8:	4013      	ands	r3, r2
 80011ea:	60bb      	str	r3, [r7, #8]
 80011ec:	68bb      	ldr	r3, [r7, #8]
  __HAL_RCC_GPIOB_CLK_ENABLE();
 80011ee:	4b15      	ldr	r3, [pc, #84]	@ (8001244 <MX_GPIO_Init+0xb4>)
 80011f0:	6b5a      	ldr	r2, [r3, #52]	@ 0x34
 80011f2:	4b14      	ldr	r3, [pc, #80]	@ (8001244 <MX_GPIO_Init+0xb4>)
 80011f4:	2102      	movs	r1, #2
 80011f6:	430a      	orrs	r2, r1
 80011f8:	635a      	str	r2, [r3, #52]	@ 0x34
 80011fa:	4b12      	ldr	r3, [pc, #72]	@ (8001244 <MX_GPIO_Init+0xb4>)
 80011fc:	6b5b      	ldr	r3, [r3, #52]	@ 0x34
 80011fe:	2202      	movs	r2, #2
 8001200:	4013      	ands	r3, r2
 8001202:	607b      	str	r3, [r7, #4]
 8001204:	687b      	ldr	r3, [r7, #4]

  /*Configure GPIO pin Output Level */
  HAL_GPIO_WritePin(LED_GREEN_GPIO_Port, LED_GREEN_Pin, GPIO_PIN_RESET);
 8001206:	23a0      	movs	r3, #160	@ 0xa0
 8001208:	05db      	lsls	r3, r3, #23
 800120a:	2200      	movs	r2, #0
 800120c:	2120      	movs	r1, #32
 800120e:	0018      	movs	r0, r3
 8001210:	f009 fed0 	bl	800afb4 <HAL_GPIO_WritePin>

  /*Configure GPIO pin : PtPin */
  GPIO_InitStruct.Pin = LED_GREEN_Pin;
 8001214:	0021      	movs	r1, r4
 8001216:	187b      	adds	r3, r7, r1
 8001218:	2220      	movs	r2, #32
 800121a:	601a      	str	r2, [r3, #0]
  GPIO_InitStruct.Mode = GPIO_MODE_OUTPUT_PP;
 800121c:	187b      	adds	r3, r7, r1
 800121e:	2201      	movs	r2, #1
 8001220:	605a      	str	r2, [r3, #4]
  GPIO_InitStruct.Pull = GPIO_NOPULL;
 8001222:	187b      	adds	r3, r7, r1
 8001224:	2200      	movs	r2, #0
 8001226:	609a      	str	r2, [r3, #8]
  GPIO_InitStruct.Speed = GPIO_SPEED_FREQ_HIGH;
 8001228:	187b      	adds	r3, r7, r1
 800122a:	2202      	movs	r2, #2
 800122c:	60da      	str	r2, [r3, #12]
  HAL_GPIO_Init(LED_GREEN_GPIO_Port, &GPIO_InitStruct);
 800122e:	187a      	adds	r2, r7, r1
 8001230:	23a0      	movs	r3, #160	@ 0xa0
 8001232:	05db      	lsls	r3, r3, #23
 8001234:	0011      	movs	r1, r2
 8001236:	0018      	movs	r0, r3
 8001238:	f009 fc78 	bl	800ab2c <HAL_GPIO_Init>

}
 800123c:	46c0      	nop			@ (mov r8, r8)
 800123e:	46bd      	mov	sp, r7
 8001240:	b00b      	add	sp, #44	@ 0x2c
 8001242:	bd90      	pop	{r4, r7, pc}
 8001244:	40021000 	.word	0x40021000

08001248 <main>:
/**
  * @brief  The application entry point.
  * @retval int
  */
int main(void)
{
 8001248:	b580      	push	{r7, lr}
 800124a:	af00      	add	r7, sp, #0
  /* USER CODE END 1 */

  /* MCU Configuration--------------------------------------------------------*/

  /* Reset of all peripherals, Initializes the Flash interface and the Systick. */
  HAL_Init();
 800124c:	f009 fafa 	bl	800a844 <HAL_Init>
  /* USER CODE BEGIN Init */

  /* USER CODE END Init */

  /* Configure the system clock */
  SystemClock_Config();
 8001250:	f000 f80d 	bl	800126e <SystemClock_Config>
  /* USER CODE BEGIN SysInit */

  /* USER CODE END SysInit */

  /* Initialize all configured peripherals */
  MX_GPIO_Init();
 8001254:	f7ff ff9c 	bl	8001190 <MX_GPIO_Init>
  MX_USART2_UART_Init();
 8001258:	f000 fb70 	bl	800193c <MX_USART2_UART_Init>
  /* USER CODE BEGIN 2 */
  MX_MEMS_Init();
 800125c:	f00c ffba 	bl	800e1d4 <MX_MEMS_Init>
  while (1)
  {
    /* USER CODE END WHILE */

    /* USER CODE BEGIN 3 */
	  MX_MEMS_Process();
 8001260:	f00c ffc0 	bl	800e1e4 <MX_MEMS_Process>
    //		printf("1\n");
	  HAL_Delay(1);
 8001264:	2001      	movs	r0, #1
 8001266:	f009 fb73 	bl	800a950 <HAL_Delay>
	  MX_MEMS_Process();
 800126a:	46c0      	nop			@ (mov r8, r8)
 800126c:	e7f8      	b.n	8001260 <main+0x18>

0800126e <SystemClock_Config>:
/**
  * @brief System Clock Configuration
  * @retval None
  */
void SystemClock_Config(void)
{
 800126e:	b590      	push	{r4, r7, lr}
 8001270:	b095      	sub	sp, #84	@ 0x54
 8001272:	af00      	add	r7, sp, #0
  RCC_OscInitTypeDef RCC_OscInitStruct = {0};
 8001274:	2414      	movs	r4, #20
 8001276:	193b      	adds	r3, r7, r4
 8001278:	0018      	movs	r0, r3
 800127a:	233c      	movs	r3, #60	@ 0x3c
 800127c:	001a      	movs	r2, r3
 800127e:	2100      	movs	r1, #0
 8001280:	f00d f9de 	bl	800e640 <memset>
  RCC_ClkInitTypeDef RCC_ClkInitStruct = {0};
 8001284:	1d3b      	adds	r3, r7, #4
 8001286:	0018      	movs	r0, r3
 8001288:	2310      	movs	r3, #16
 800128a:	001a      	movs	r2, r3
 800128c:	2100      	movs	r1, #0
 800128e:	f00d f9d7 	bl	800e640 <memset>

  /** Configure the main internal regulator output voltage
  */
  HAL_PWREx_ControlVoltageScaling(PWR_REGULATOR_VOLTAGE_SCALE1);
 8001292:	2380      	movs	r3, #128	@ 0x80
 8001294:	009b      	lsls	r3, r3, #2
 8001296:	0018      	movs	r0, r3
 8001298:	f00b f86c 	bl	800c374 <HAL_PWREx_ControlVoltageScaling>

  /** Initializes the RCC Oscillators according to the specified parameters
  * in the RCC_OscInitTypeDef structure.
  */
  RCC_OscInitStruct.OscillatorType = RCC_OSCILLATORTYPE_HSI;
 800129c:	193b      	adds	r3, r7, r4
 800129e:	2202      	movs	r2, #2
 80012a0:	601a      	str	r2, [r3, #0]
  RCC_OscInitStruct.HSIState = RCC_HSI_ON;
 80012a2:	193b      	adds	r3, r7, r4
 80012a4:	2280      	movs	r2, #128	@ 0x80
 80012a6:	0052      	lsls	r2, r2, #1
 80012a8:	60da      	str	r2, [r3, #12]
  RCC_OscInitStruct.HSIDiv = RCC_HSI_DIV1;
 80012aa:	0021      	movs	r1, r4
 80012ac:	187b      	adds	r3, r7, r1
 80012ae:	2200      	movs	r2, #0
 80012b0:	611a      	str	r2, [r3, #16]
  RCC_OscInitStruct.HSICalibrationValue = RCC_HSICALIBRATION_DEFAULT;
 80012b2:	187b      	adds	r3, r7, r1
 80012b4:	2240      	movs	r2, #64	@ 0x40
 80012b6:	615a      	str	r2, [r3, #20]
  RCC_OscInitStruct.PLL.PLLState = RCC_PLL_ON;
 80012b8:	187b      	adds	r3, r7, r1
 80012ba:	2202      	movs	r2, #2
 80012bc:	621a      	str	r2, [r3, #32]
  RCC_OscInitStruct.PLL.PLLSource = RCC_PLLSOURCE_HSI;
 80012be:	187b      	adds	r3, r7, r1
 80012c0:	2202      	movs	r2, #2
 80012c2:	625a      	str	r2, [r3, #36]	@ 0x24
  RCC_OscInitStruct.PLL.PLLM = RCC_PLLM_DIV1;
 80012c4:	187b      	adds	r3, r7, r1
 80012c6:	2200      	movs	r2, #0
 80012c8:	629a      	str	r2, [r3, #40]	@ 0x28
  RCC_OscInitStruct.PLL.PLLN = 8;
 80012ca:	187b      	adds	r3, r7, r1
 80012cc:	2208      	movs	r2, #8
 80012ce:	62da      	str	r2, [r3, #44]	@ 0x2c
  RCC_OscInitStruct.PLL.PLLP = RCC_PLLP_DIV2;
 80012d0:	187b      	adds	r3, r7, r1
 80012d2:	2280      	movs	r2, #128	@ 0x80
 80012d4:	0292      	lsls	r2, r2, #10
 80012d6:	631a      	str	r2, [r3, #48]	@ 0x30
  RCC_OscInitStruct.PLL.PLLQ = RCC_PLLQ_DIV2;
 80012d8:	187b      	adds	r3, r7, r1
 80012da:	2280      	movs	r2, #128	@ 0x80
 80012dc:	0492      	lsls	r2, r2, #18
 80012de:	635a      	str	r2, [r3, #52]	@ 0x34
  RCC_OscInitStruct.PLL.PLLR = RCC_PLLR_DIV2;
 80012e0:	187b      	adds	r3, r7, r1
 80012e2:	2280      	movs	r2, #128	@ 0x80
 80012e4:	0592      	lsls	r2, r2, #22
 80012e6:	639a      	str	r2, [r3, #56]	@ 0x38
  if (HAL_RCC_OscConfig(&RCC_OscInitStruct) != HAL_OK)
 80012e8:	187b      	adds	r3, r7, r1
 80012ea:	0018      	movs	r0, r3
 80012ec:	f00b f88e 	bl	800c40c <HAL_RCC_OscConfig>
 80012f0:	1e03      	subs	r3, r0, #0
 80012f2:	d001      	beq.n	80012f8 <SystemClock_Config+0x8a>
  {
    Error_Handler();
 80012f4:	f000 f819 	bl	800132a <Error_Handler>
  }

  /** Initializes the CPU, AHB and APB buses clocks
  */
  RCC_ClkInitStruct.ClockType = RCC_CLOCKTYPE_HCLK|RCC_CLOCKTYPE_SYSCLK
 80012f8:	1d3b      	adds	r3, r7, #4
 80012fa:	2207      	movs	r2, #7
 80012fc:	601a      	str	r2, [r3, #0]
                              |RCC_CLOCKTYPE_PCLK1;
  RCC_ClkInitStruct.SYSCLKSource = RCC_SYSCLKSOURCE_PLLCLK;
 80012fe:	1d3b      	adds	r3, r7, #4
 8001300:	2202      	movs	r2, #2
 8001302:	605a      	str	r2, [r3, #4]
  RCC_ClkInitStruct.AHBCLKDivider = RCC_SYSCLK_DIV1;
 8001304:	1d3b      	adds	r3, r7, #4
 8001306:	2200      	movs	r2, #0
 8001308:	609a      	str	r2, [r3, #8]
  RCC_ClkInitStruct.APB1CLKDivider = RCC_HCLK_DIV1;
 800130a:	1d3b      	adds	r3, r7, #4
 800130c:	2200      	movs	r2, #0
 800130e:	60da      	str	r2, [r3, #12]

  if (HAL_RCC_ClockConfig(&RCC_ClkInitStruct, FLASH_LATENCY_2) != HAL_OK)
 8001310:	1d3b      	adds	r3, r7, #4
 8001312:	2102      	movs	r1, #2
 8001314:	0018      	movs	r0, r3
 8001316:	f00b fbd9 	bl	800cacc <HAL_RCC_ClockConfig>
 800131a:	1e03      	subs	r3, r0, #0
 800131c:	d001      	beq.n	8001322 <SystemClock_Config+0xb4>
  {
    Error_Handler();
 800131e:	f000 f804 	bl	800132a <Error_Handler>
  }
}
 8001322:	46c0      	nop			@ (mov r8, r8)
 8001324:	46bd      	mov	sp, r7
 8001326:	b015      	add	sp, #84	@ 0x54
 8001328:	bd90      	pop	{r4, r7, pc}

0800132a <Error_Handler>:
/**
  * @brief  This function is executed in case of error occurrence.
  * @retval None
  */
void Error_Handler(void)
{
 800132a:	b580      	push	{r7, lr}
 800132c:	af00      	add	r7, sp, #0
  \details Disables IRQ interrupts by setting the I-bit in the CPSR.
           Can only be executed in Privileged modes.
 */
__STATIC_FORCEINLINE void __disable_irq(void)
{
  __ASM volatile ("cpsid i" : : : "memory");
 800132e:	b672      	cpsid	i
}
 8001330:	46c0      	nop			@ (mov r8, r8)
  /* USER CODE BEGIN Error_Handler_Debug */
  /* User can add his own implementation to report the HAL error return state */
  __disable_irq();
  while (1)
 8001332:	46c0      	nop			@ (mov r8, r8)
 8001334:	e7fd      	b.n	8001332 <Error_Handler+0x8>
	...

08001338 <HAL_MspInit>:
/* USER CODE END 0 */
/**
  * Initializes the Global MSP.
  */
void HAL_MspInit(void)
{
 8001338:	b580      	push	{r7, lr}
 800133a:	b082      	sub	sp, #8
 800133c:	af00      	add	r7, sp, #0

  /* USER CODE BEGIN MspInit 0 */

  /* USER CODE END MspInit 0 */

  __HAL_RCC_SYSCFG_CLK_ENABLE();
 800133e:	4b11      	ldr	r3, [pc, #68]	@ (8001384 <HAL_MspInit+0x4c>)
 8001340:	6c1a      	ldr	r2, [r3, #64]	@ 0x40
 8001342:	4b10      	ldr	r3, [pc, #64]	@ (8001384 <HAL_MspInit+0x4c>)
 8001344:	2101      	movs	r1, #1
 8001346:	430a      	orrs	r2, r1
 8001348:	641a      	str	r2, [r3, #64]	@ 0x40
 800134a:	4b0e      	ldr	r3, [pc, #56]	@ (8001384 <HAL_MspInit+0x4c>)
 800134c:	6c1b      	ldr	r3, [r3, #64]	@ 0x40
 800134e:	2201      	movs	r2, #1
 8001350:	4013      	ands	r3, r2
 8001352:	607b      	str	r3, [r7, #4]
 8001354:	687b      	ldr	r3, [r7, #4]
  __HAL_RCC_PWR_CLK_ENABLE();
 8001356:	4b0b      	ldr	r3, [pc, #44]	@ (8001384 <HAL_MspInit+0x4c>)
 8001358:	6bda      	ldr	r2, [r3, #60]	@ 0x3c
 800135a:	4b0a      	ldr	r3, [pc, #40]	@ (8001384 <HAL_MspInit+0x4c>)
 800135c:	2180      	movs	r1, #128	@ 0x80
 800135e:	0549      	lsls	r1, r1, #21
 8001360:	430a      	orrs	r2, r1
 8001362:	63da      	str	r2, [r3, #60]	@ 0x3c
 8001364:	4b07      	ldr	r3, [pc, #28]	@ (8001384 <HAL_MspInit+0x4c>)
 8001366:	6bda      	ldr	r2, [r3, #60]	@ 0x3c
 8001368:	2380      	movs	r3, #128	@ 0x80
 800136a:	055b      	lsls	r3, r3, #21
 800136c:	4013      	ands	r3, r2
 800136e:	603b      	str	r3, [r7, #0]
 8001370:	683b      	ldr	r3, [r7, #0]

  /* System interrupt init*/

  /** Disable the internal Pull-Up in Dead Battery pins of UCPD peripheral
  */
  HAL_SYSCFG_StrobeDBattpinsConfig(SYSCFG_CFGR1_UCPD1_STROBE | SYSCFG_CFGR1_UCPD2_STROBE);
 8001372:	23c0      	movs	r3, #192	@ 0xc0
 8001374:	00db      	lsls	r3, r3, #3
 8001376:	0018      	movs	r0, r3
 8001378:	f009 fb0e 	bl	800a998 <HAL_SYSCFG_StrobeDBattpinsConfig>

  /* USER CODE BEGIN MspInit 1 */

  /* USER CODE END MspInit 1 */
}
 800137c:	46c0      	nop			@ (mov r8, r8)
 800137e:	46bd      	mov	sp, r7
 8001380:	b002      	add	sp, #8
 8001382:	bd80      	pop	{r7, pc}
 8001384:	40021000 	.word	0x40021000

08001388 <NMI_Handler>:
/******************************************************************************/
/**
  * @brief This function handles Non maskable interrupt.
  */
void NMI_Handler(void)
{
 8001388:	b580      	push	{r7, lr}
 800138a:	af00      	add	r7, sp, #0
  /* USER CODE BEGIN NonMaskableInt_IRQn 0 */

  /* USER CODE END NonMaskableInt_IRQn 0 */
  /* USER CODE BEGIN NonMaskableInt_IRQn 1 */
   while (1)
 800138c:	46c0      	nop			@ (mov r8, r8)
 800138e:	e7fd      	b.n	800138c <NMI_Handler+0x4>

08001390 <HardFault_Handler>:

/**
  * @brief This function handles Hard fault interrupt.
  */
void HardFault_Handler(void)
{
 8001390:	b580      	push	{r7, lr}
 8001392:	af00      	add	r7, sp, #0
  /* USER CODE BEGIN HardFault_IRQn 0 */

  /* USER CODE END HardFault_IRQn 0 */
  while (1)
 8001394:	46c0      	nop			@ (mov r8, r8)
 8001396:	e7fd      	b.n	8001394 <HardFault_Handler+0x4>

08001398 <SVC_Handler>:

/**
  * @brief This function handles System service call via SWI instruction.
  */
void SVC_Handler(void)
{
 8001398:	b580      	push	{r7, lr}
 800139a:	af00      	add	r7, sp, #0

  /* USER CODE END SVC_IRQn 0 */
  /* USER CODE BEGIN SVC_IRQn 1 */

  /* USER CODE END SVC_IRQn 1 */
}
 800139c:	46c0      	nop			@ (mov r8, r8)
 800139e:	46bd      	mov	sp, r7
 80013a0:	bd80      	pop	{r7, pc}

080013a2 <PendSV_Handler>:

/**
  * @brief This function handles Pendable request for system service.
  */
void PendSV_Handler(void)
{
 80013a2:	b580      	push	{r7, lr}
 80013a4:	af00      	add	r7, sp, #0

  /* USER CODE END PendSV_IRQn 0 */
  /* USER CODE BEGIN PendSV_IRQn 1 */

  /* USER CODE END PendSV_IRQn 1 */
}
 80013a6:	46c0      	nop			@ (mov r8, r8)
 80013a8:	46bd      	mov	sp, r7
 80013aa:	bd80      	pop	{r7, pc}

080013ac <SysTick_Handler>:

/**
  * @brief This function handles System tick timer.
  */
void SysTick_Handler(void)
{
 80013ac:	b580      	push	{r7, lr}
 80013ae:	af00      	add	r7, sp, #0
  /* USER CODE BEGIN SysTick_IRQn 0 */

  /* USER CODE END SysTick_IRQn 0 */
  HAL_IncTick();
 80013b0:	f009 fab2 	bl	800a918 <HAL_IncTick>
  /* USER CODE BEGIN SysTick_IRQn 1 */

  /* USER CODE END SysTick_IRQn 1 */
}
 80013b4:	46c0      	nop			@ (mov r8, r8)
 80013b6:	46bd      	mov	sp, r7
 80013b8:	bd80      	pop	{r7, pc}
	...

080013bc <BSP_I2C1_Init>:
/**
  * @brief  Initialize I2C HAL
  * @retval BSP status
  */
int32_t BSP_I2C1_Init(void)
{
 80013bc:	b580      	push	{r7, lr}
 80013be:	b082      	sub	sp, #8
 80013c0:	af00      	add	r7, sp, #0

  int32_t ret = BSP_ERROR_NONE;
 80013c2:	2300      	movs	r3, #0
 80013c4:	607b      	str	r3, [r7, #4]

  hi2c1.Instance  = I2C1;
 80013c6:	4b19      	ldr	r3, [pc, #100]	@ (800142c <BSP_I2C1_Init+0x70>)
 80013c8:	4a19      	ldr	r2, [pc, #100]	@ (8001430 <BSP_I2C1_Init+0x74>)
 80013ca:	601a      	str	r2, [r3, #0]

  if(I2C1InitCounter++ == 0)
 80013cc:	4b19      	ldr	r3, [pc, #100]	@ (8001434 <BSP_I2C1_Init+0x78>)
 80013ce:	681b      	ldr	r3, [r3, #0]
 80013d0:	1c59      	adds	r1, r3, #1
 80013d2:	4a18      	ldr	r2, [pc, #96]	@ (8001434 <BSP_I2C1_Init+0x78>)
 80013d4:	6011      	str	r1, [r2, #0]
 80013d6:	2b00      	cmp	r3, #0
 80013d8:	d123      	bne.n	8001422 <BSP_I2C1_Init+0x66>
  {
    if (HAL_I2C_GetState(&hi2c1) == HAL_I2C_STATE_RESET)
 80013da:	4b14      	ldr	r3, [pc, #80]	@ (800142c <BSP_I2C1_Init+0x70>)
 80013dc:	0018      	movs	r0, r3
 80013de:	f00a fb81 	bl	800bae4 <HAL_I2C_GetState>
 80013e2:	1e03      	subs	r3, r0, #0
 80013e4:	d11d      	bne.n	8001422 <BSP_I2C1_Init+0x66>
    {
    #if (USE_HAL_I2C_REGISTER_CALLBACKS == 0U)
      /* Init the I2C Msp */
      I2C1_MspInit(&hi2c1);
 80013e6:	4b11      	ldr	r3, [pc, #68]	@ (800142c <BSP_I2C1_Init+0x70>)
 80013e8:	0018      	movs	r0, r3
 80013ea:	f000 f97b 	bl	80016e4 <I2C1_MspInit>
        {
          return BSP_ERROR_MSP_FAILURE;
        }
      }
    #endif
      if(ret == BSP_ERROR_NONE)
 80013ee:	687b      	ldr	r3, [r7, #4]
 80013f0:	2b00      	cmp	r3, #0
 80013f2:	d116      	bne.n	8001422 <BSP_I2C1_Init+0x66>
      {
        /* Init the I2C */
        if(MX_I2C1_Init(&hi2c1) != HAL_OK)
 80013f4:	4b0d      	ldr	r3, [pc, #52]	@ (800142c <BSP_I2C1_Init+0x70>)
 80013f6:	0018      	movs	r0, r3
 80013f8:	f000 f926 	bl	8001648 <MX_I2C1_Init>
 80013fc:	1e03      	subs	r3, r0, #0
 80013fe:	d003      	beq.n	8001408 <BSP_I2C1_Init+0x4c>
        {
          ret = BSP_ERROR_BUS_FAILURE;
 8001400:	2308      	movs	r3, #8
 8001402:	425b      	negs	r3, r3
 8001404:	607b      	str	r3, [r7, #4]
 8001406:	e00c      	b.n	8001422 <BSP_I2C1_Init+0x66>
        }
        else if(HAL_I2CEx_ConfigAnalogFilter(&hi2c1, I2C_ANALOGFILTER_ENABLE) != HAL_OK)
 8001408:	4b08      	ldr	r3, [pc, #32]	@ (800142c <BSP_I2C1_Init+0x70>)
 800140a:	2100      	movs	r1, #0
 800140c:	0018      	movs	r0, r3
 800140e:	f00a ff19 	bl	800c244 <HAL_I2CEx_ConfigAnalogFilter>
 8001412:	1e03      	subs	r3, r0, #0
 8001414:	d003      	beq.n	800141e <BSP_I2C1_Init+0x62>
        {
          ret = BSP_ERROR_BUS_FAILURE;
 8001416:	2308      	movs	r3, #8
 8001418:	425b      	negs	r3, r3
 800141a:	607b      	str	r3, [r7, #4]
 800141c:	e001      	b.n	8001422 <BSP_I2C1_Init+0x66>
        }
        else
        {
          ret = BSP_ERROR_NONE;
 800141e:	2300      	movs	r3, #0
 8001420:	607b      	str	r3, [r7, #4]
        }
      }
    }
  }
  return ret;
 8001422:	687b      	ldr	r3, [r7, #4]
}
 8001424:	0018      	movs	r0, r3
 8001426:	46bd      	mov	sp, r7
 8001428:	b002      	add	sp, #8
 800142a:	bd80      	pop	{r7, pc}
 800142c:	20000274 	.word	0x20000274
 8001430:	40005400 	.word	0x40005400
 8001434:	200002c8 	.word	0x200002c8

08001438 <BSP_I2C1_DeInit>:
/**
  * @brief  DeInitialize I2C HAL.
  * @retval BSP status
  */
int32_t BSP_I2C1_DeInit(void)
{
 8001438:	b580      	push	{r7, lr}
 800143a:	b082      	sub	sp, #8
 800143c:	af00      	add	r7, sp, #0
  int32_t ret = BSP_ERROR_NONE;
 800143e:	2300      	movs	r3, #0
 8001440:	607b      	str	r3, [r7, #4]

  if (I2C1InitCounter > 0)
 8001442:	4b0f      	ldr	r3, [pc, #60]	@ (8001480 <BSP_I2C1_DeInit+0x48>)
 8001444:	681b      	ldr	r3, [r3, #0]
 8001446:	2b00      	cmp	r3, #0
 8001448:	d015      	beq.n	8001476 <BSP_I2C1_DeInit+0x3e>
  {
    if (--I2C1InitCounter == 0)
 800144a:	4b0d      	ldr	r3, [pc, #52]	@ (8001480 <BSP_I2C1_DeInit+0x48>)
 800144c:	681b      	ldr	r3, [r3, #0]
 800144e:	1e5a      	subs	r2, r3, #1
 8001450:	4b0b      	ldr	r3, [pc, #44]	@ (8001480 <BSP_I2C1_DeInit+0x48>)
 8001452:	601a      	str	r2, [r3, #0]
 8001454:	4b0a      	ldr	r3, [pc, #40]	@ (8001480 <BSP_I2C1_DeInit+0x48>)
 8001456:	681b      	ldr	r3, [r3, #0]
 8001458:	2b00      	cmp	r3, #0
 800145a:	d10c      	bne.n	8001476 <BSP_I2C1_DeInit+0x3e>
    {
  #if (USE_HAL_I2C_REGISTER_CALLBACKS == 0U)
      /* DeInit the I2C */
      I2C1_MspDeInit(&hi2c1);
 800145c:	4b09      	ldr	r3, [pc, #36]	@ (8001484 <BSP_I2C1_DeInit+0x4c>)
 800145e:	0018      	movs	r0, r3
 8001460:	f000 f9a8 	bl	80017b4 <I2C1_MspDeInit>
  #endif
      /* DeInit the I2C */
      if (HAL_I2C_DeInit(&hi2c1) != HAL_OK)
 8001464:	4b07      	ldr	r3, [pc, #28]	@ (8001484 <BSP_I2C1_DeInit+0x4c>)
 8001466:	0018      	movs	r0, r3
 8001468:	f009 fe68 	bl	800b13c <HAL_I2C_DeInit>
 800146c:	1e03      	subs	r3, r0, #0
 800146e:	d002      	beq.n	8001476 <BSP_I2C1_DeInit+0x3e>
      {
        ret = BSP_ERROR_BUS_FAILURE;
 8001470:	2308      	movs	r3, #8
 8001472:	425b      	negs	r3, r3
 8001474:	607b      	str	r3, [r7, #4]
      }
    }
  }
  return ret;
 8001476:	687b      	ldr	r3, [r7, #4]
}
 8001478:	0018      	movs	r0, r3
 800147a:	46bd      	mov	sp, r7
 800147c:	b002      	add	sp, #8
 800147e:	bd80      	pop	{r7, pc}
 8001480:	200002c8 	.word	0x200002c8
 8001484:	20000274 	.word	0x20000274

08001488 <BSP_I2C1_WriteReg>:
  * @param  Length Data Length
  * @retval BSP status
  */

int32_t BSP_I2C1_WriteReg(uint16_t DevAddr, uint16_t Reg, uint8_t *pData, uint16_t Length)
{
 8001488:	b5b0      	push	{r4, r5, r7, lr}
 800148a:	b08a      	sub	sp, #40	@ 0x28
 800148c:	af04      	add	r7, sp, #16
 800148e:	0004      	movs	r4, r0
 8001490:	0008      	movs	r0, r1
 8001492:	60ba      	str	r2, [r7, #8]
 8001494:	0019      	movs	r1, r3
 8001496:	250e      	movs	r5, #14
 8001498:	197b      	adds	r3, r7, r5
 800149a:	1c22      	adds	r2, r4, #0
 800149c:	801a      	strh	r2, [r3, #0]
 800149e:	240c      	movs	r4, #12
 80014a0:	193b      	adds	r3, r7, r4
 80014a2:	1c02      	adds	r2, r0, #0
 80014a4:	801a      	strh	r2, [r3, #0]
 80014a6:	1dbb      	adds	r3, r7, #6
 80014a8:	1c0a      	adds	r2, r1, #0
 80014aa:	801a      	strh	r2, [r3, #0]
  int32_t ret = BSP_ERROR_NONE;
 80014ac:	2300      	movs	r3, #0
 80014ae:	617b      	str	r3, [r7, #20]

  if (HAL_I2C_Mem_Write(&hi2c1, DevAddr,Reg, I2C_MEMADD_SIZE_8BIT,pData, Length, BUS_I2C1_POLL_TIMEOUT) != HAL_OK)
 80014b0:	193b      	adds	r3, r7, r4
 80014b2:	881a      	ldrh	r2, [r3, #0]
 80014b4:	197b      	adds	r3, r7, r5
 80014b6:	8819      	ldrh	r1, [r3, #0]
 80014b8:	4810      	ldr	r0, [pc, #64]	@ (80014fc <BSP_I2C1_WriteReg+0x74>)
 80014ba:	2380      	movs	r3, #128	@ 0x80
 80014bc:	015b      	lsls	r3, r3, #5
 80014be:	9302      	str	r3, [sp, #8]
 80014c0:	1dbb      	adds	r3, r7, #6
 80014c2:	881b      	ldrh	r3, [r3, #0]
 80014c4:	9301      	str	r3, [sp, #4]
 80014c6:	68bb      	ldr	r3, [r7, #8]
 80014c8:	9300      	str	r3, [sp, #0]
 80014ca:	2301      	movs	r3, #1
 80014cc:	f00a f8a8 	bl	800b620 <HAL_I2C_Mem_Write>
 80014d0:	1e03      	subs	r3, r0, #0
 80014d2:	d00d      	beq.n	80014f0 <BSP_I2C1_WriteReg+0x68>
  {
    if (HAL_I2C_GetError(&hi2c1) == HAL_I2C_ERROR_AF)
 80014d4:	4b09      	ldr	r3, [pc, #36]	@ (80014fc <BSP_I2C1_WriteReg+0x74>)
 80014d6:	0018      	movs	r0, r3
 80014d8:	f00a fb10 	bl	800bafc <HAL_I2C_GetError>
 80014dc:	0003      	movs	r3, r0
 80014de:	2b04      	cmp	r3, #4
 80014e0:	d103      	bne.n	80014ea <BSP_I2C1_WriteReg+0x62>
    {
      ret = BSP_ERROR_BUS_ACKNOWLEDGE_FAILURE;
 80014e2:	2366      	movs	r3, #102	@ 0x66
 80014e4:	425b      	negs	r3, r3
 80014e6:	617b      	str	r3, [r7, #20]
 80014e8:	e002      	b.n	80014f0 <BSP_I2C1_WriteReg+0x68>
    }
    else
    {
      ret =  BSP_ERROR_PERIPH_FAILURE;
 80014ea:	2304      	movs	r3, #4
 80014ec:	425b      	negs	r3, r3
 80014ee:	617b      	str	r3, [r7, #20]
    }
  }
  return ret;
 80014f0:	697b      	ldr	r3, [r7, #20]
}
 80014f2:	0018      	movs	r0, r3
 80014f4:	46bd      	mov	sp, r7
 80014f6:	b006      	add	sp, #24
 80014f8:	bdb0      	pop	{r4, r5, r7, pc}
 80014fa:	46c0      	nop			@ (mov r8, r8)
 80014fc:	20000274 	.word	0x20000274

08001500 <BSP_I2C1_ReadReg>:
  * @param  pData  Pointer to data buffer to read
  * @param  Length Data Length
  * @retval BSP status
  */
int32_t  BSP_I2C1_ReadReg(uint16_t DevAddr, uint16_t Reg, uint8_t *pData, uint16_t Length)
{
 8001500:	b5b0      	push	{r4, r5, r7, lr}
 8001502:	b08a      	sub	sp, #40	@ 0x28
 8001504:	af04      	add	r7, sp, #16
 8001506:	0004      	movs	r4, r0
 8001508:	0008      	movs	r0, r1
 800150a:	60ba      	str	r2, [r7, #8]
 800150c:	0019      	movs	r1, r3
 800150e:	250e      	movs	r5, #14
 8001510:	197b      	adds	r3, r7, r5
 8001512:	1c22      	adds	r2, r4, #0
 8001514:	801a      	strh	r2, [r3, #0]
 8001516:	240c      	movs	r4, #12
 8001518:	193b      	adds	r3, r7, r4
 800151a:	1c02      	adds	r2, r0, #0
 800151c:	801a      	strh	r2, [r3, #0]
 800151e:	1dbb      	adds	r3, r7, #6
 8001520:	1c0a      	adds	r2, r1, #0
 8001522:	801a      	strh	r2, [r3, #0]
  int32_t ret = BSP_ERROR_NONE;
 8001524:	2300      	movs	r3, #0
 8001526:	617b      	str	r3, [r7, #20]

  if (HAL_I2C_Mem_Read(&hi2c1, DevAddr, Reg, I2C_MEMADD_SIZE_8BIT, pData, Length, BUS_I2C1_POLL_TIMEOUT) != HAL_OK)
 8001528:	193b      	adds	r3, r7, r4
 800152a:	881a      	ldrh	r2, [r3, #0]
 800152c:	197b      	adds	r3, r7, r5
 800152e:	8819      	ldrh	r1, [r3, #0]
 8001530:	4810      	ldr	r0, [pc, #64]	@ (8001574 <BSP_I2C1_ReadReg+0x74>)
 8001532:	2380      	movs	r3, #128	@ 0x80
 8001534:	015b      	lsls	r3, r3, #5
 8001536:	9302      	str	r3, [sp, #8]
 8001538:	1dbb      	adds	r3, r7, #6
 800153a:	881b      	ldrh	r3, [r3, #0]
 800153c:	9301      	str	r3, [sp, #4]
 800153e:	68bb      	ldr	r3, [r7, #8]
 8001540:	9300      	str	r3, [sp, #0]
 8001542:	2301      	movs	r3, #1
 8001544:	f00a f99a 	bl	800b87c <HAL_I2C_Mem_Read>
 8001548:	1e03      	subs	r3, r0, #0
 800154a:	d00d      	beq.n	8001568 <BSP_I2C1_ReadReg+0x68>
  {
    if (HAL_I2C_GetError(&hi2c1) == HAL_I2C_ERROR_AF)
 800154c:	4b09      	ldr	r3, [pc, #36]	@ (8001574 <BSP_I2C1_ReadReg+0x74>)
 800154e:	0018      	movs	r0, r3
 8001550:	f00a fad4 	bl	800bafc <HAL_I2C_GetError>
 8001554:	0003      	movs	r3, r0
 8001556:	2b04      	cmp	r3, #4
 8001558:	d103      	bne.n	8001562 <BSP_I2C1_ReadReg+0x62>
    {
      ret = BSP_ERROR_BUS_ACKNOWLEDGE_FAILURE;
 800155a:	2366      	movs	r3, #102	@ 0x66
 800155c:	425b      	negs	r3, r3
 800155e:	617b      	str	r3, [r7, #20]
 8001560:	e002      	b.n	8001568 <BSP_I2C1_ReadReg+0x68>
    }
    else
    {
      ret = BSP_ERROR_PERIPH_FAILURE;
 8001562:	2304      	movs	r3, #4
 8001564:	425b      	negs	r3, r3
 8001566:	617b      	str	r3, [r7, #20]
    }
  }
  return ret;
 8001568:	697b      	ldr	r3, [r7, #20]
}
 800156a:	0018      	movs	r0, r3
 800156c:	46bd      	mov	sp, r7
 800156e:	b006      	add	sp, #24
 8001570:	bdb0      	pop	{r4, r5, r7, pc}
 8001572:	46c0      	nop			@ (mov r8, r8)
 8001574:	20000274 	.word	0x20000274

08001578 <BSP_I2C1_Send>:
  * @param  DevAddr: Device address on Bus.
  * @param  pData: Data pointer
  * @param  Length: Data length
  * @retval BSP status
  */
int32_t BSP_I2C1_Send(uint16_t DevAddr, uint8_t *pData, uint16_t Length) {
 8001578:	b590      	push	{r4, r7, lr}
 800157a:	b087      	sub	sp, #28
 800157c:	af02      	add	r7, sp, #8
 800157e:	6039      	str	r1, [r7, #0]
 8001580:	0011      	movs	r1, r2
 8001582:	1dbb      	adds	r3, r7, #6
 8001584:	1c02      	adds	r2, r0, #0
 8001586:	801a      	strh	r2, [r3, #0]
 8001588:	1d3b      	adds	r3, r7, #4
 800158a:	1c0a      	adds	r2, r1, #0
 800158c:	801a      	strh	r2, [r3, #0]
  int32_t ret = BSP_ERROR_NONE;
 800158e:	2300      	movs	r3, #0
 8001590:	60fb      	str	r3, [r7, #12]

  if (HAL_I2C_Master_Transmit(&hi2c1, DevAddr, pData, Length, BUS_I2C1_POLL_TIMEOUT) != HAL_OK)
 8001592:	1d3b      	adds	r3, r7, #4
 8001594:	881c      	ldrh	r4, [r3, #0]
 8001596:	683a      	ldr	r2, [r7, #0]
 8001598:	1dbb      	adds	r3, r7, #6
 800159a:	8819      	ldrh	r1, [r3, #0]
 800159c:	480d      	ldr	r0, [pc, #52]	@ (80015d4 <BSP_I2C1_Send+0x5c>)
 800159e:	2380      	movs	r3, #128	@ 0x80
 80015a0:	015b      	lsls	r3, r3, #5
 80015a2:	9300      	str	r3, [sp, #0]
 80015a4:	0023      	movs	r3, r4
 80015a6:	f009 fe09 	bl	800b1bc <HAL_I2C_Master_Transmit>
 80015aa:	1e03      	subs	r3, r0, #0
 80015ac:	d00d      	beq.n	80015ca <BSP_I2C1_Send+0x52>
  {
    if (HAL_I2C_GetError(&hi2c1) != HAL_I2C_ERROR_AF)
 80015ae:	4b09      	ldr	r3, [pc, #36]	@ (80015d4 <BSP_I2C1_Send+0x5c>)
 80015b0:	0018      	movs	r0, r3
 80015b2:	f00a faa3 	bl	800bafc <HAL_I2C_GetError>
 80015b6:	0003      	movs	r3, r0
 80015b8:	2b04      	cmp	r3, #4
 80015ba:	d003      	beq.n	80015c4 <BSP_I2C1_Send+0x4c>
    {
      ret = BSP_ERROR_BUS_ACKNOWLEDGE_FAILURE;
 80015bc:	2366      	movs	r3, #102	@ 0x66
 80015be:	425b      	negs	r3, r3
 80015c0:	60fb      	str	r3, [r7, #12]
 80015c2:	e002      	b.n	80015ca <BSP_I2C1_Send+0x52>
    }
    else
    {
      ret =  BSP_ERROR_PERIPH_FAILURE;
 80015c4:	2304      	movs	r3, #4
 80015c6:	425b      	negs	r3, r3
 80015c8:	60fb      	str	r3, [r7, #12]
    }
  }

  return ret;
 80015ca:	68fb      	ldr	r3, [r7, #12]
}
 80015cc:	0018      	movs	r0, r3
 80015ce:	46bd      	mov	sp, r7
 80015d0:	b005      	add	sp, #20
 80015d2:	bd90      	pop	{r4, r7, pc}
 80015d4:	20000274 	.word	0x20000274

080015d8 <BSP_I2C1_Recv>:
  * @param  DevAddr: Device address on Bus.
  * @param  pData: Data pointer
  * @param  Length: Data length
  * @retval BSP status
  */
int32_t BSP_I2C1_Recv(uint16_t DevAddr, uint8_t *pData, uint16_t Length) {
 80015d8:	b590      	push	{r4, r7, lr}
 80015da:	b087      	sub	sp, #28
 80015dc:	af02      	add	r7, sp, #8
 80015de:	6039      	str	r1, [r7, #0]
 80015e0:	0011      	movs	r1, r2
 80015e2:	1dbb      	adds	r3, r7, #6
 80015e4:	1c02      	adds	r2, r0, #0
 80015e6:	801a      	strh	r2, [r3, #0]
 80015e8:	1d3b      	adds	r3, r7, #4
 80015ea:	1c0a      	adds	r2, r1, #0
 80015ec:	801a      	strh	r2, [r3, #0]
  int32_t ret = BSP_ERROR_NONE;
 80015ee:	2300      	movs	r3, #0
 80015f0:	60fb      	str	r3, [r7, #12]

  if (HAL_I2C_Master_Receive(&hi2c1, DevAddr, pData, Length, BUS_I2C1_POLL_TIMEOUT) != HAL_OK)
 80015f2:	1d3b      	adds	r3, r7, #4
 80015f4:	881c      	ldrh	r4, [r3, #0]
 80015f6:	683a      	ldr	r2, [r7, #0]
 80015f8:	1dbb      	adds	r3, r7, #6
 80015fa:	8819      	ldrh	r1, [r3, #0]
 80015fc:	480d      	ldr	r0, [pc, #52]	@ (8001634 <BSP_I2C1_Recv+0x5c>)
 80015fe:	2380      	movs	r3, #128	@ 0x80
 8001600:	015b      	lsls	r3, r3, #5
 8001602:	9300      	str	r3, [sp, #0]
 8001604:	0023      	movs	r3, r4
 8001606:	f009 ff03 	bl	800b410 <HAL_I2C_Master_Receive>
 800160a:	1e03      	subs	r3, r0, #0
 800160c:	d00d      	beq.n	800162a <BSP_I2C1_Recv+0x52>
  {
    if (HAL_I2C_GetError(&hi2c1) != HAL_I2C_ERROR_AF)
 800160e:	4b09      	ldr	r3, [pc, #36]	@ (8001634 <BSP_I2C1_Recv+0x5c>)
 8001610:	0018      	movs	r0, r3
 8001612:	f00a fa73 	bl	800bafc <HAL_I2C_GetError>
 8001616:	0003      	movs	r3, r0
 8001618:	2b04      	cmp	r3, #4
 800161a:	d003      	beq.n	8001624 <BSP_I2C1_Recv+0x4c>
    {
      ret = BSP_ERROR_BUS_ACKNOWLEDGE_FAILURE;
 800161c:	2366      	movs	r3, #102	@ 0x66
 800161e:	425b      	negs	r3, r3
 8001620:	60fb      	str	r3, [r7, #12]
 8001622:	e002      	b.n	800162a <BSP_I2C1_Recv+0x52>
    }
    else
    {
      ret =  BSP_ERROR_PERIPH_FAILURE;
 8001624:	2304      	movs	r3, #4
 8001626:	425b      	negs	r3, r3
 8001628:	60fb      	str	r3, [r7, #12]
    }
  }
  return ret;
 800162a:	68fb      	ldr	r3, [r7, #12]
}
 800162c:	0018      	movs	r0, r3
 800162e:	46bd      	mov	sp, r7
 8001630:	b005      	add	sp, #20
 8001632:	bd90      	pop	{r4, r7, pc}
 8001634:	20000274 	.word	0x20000274

08001638 <BSP_GetTick>:

/**
  * @brief  Return system tick in ms
  * @retval Current HAL time base time stamp
  */
int32_t BSP_GetTick(void) {
 8001638:	b580      	push	{r7, lr}
 800163a:	af00      	add	r7, sp, #0
  return HAL_GetTick();
 800163c:	f009 f97e 	bl	800a93c <HAL_GetTick>
 8001640:	0003      	movs	r3, r0
}
 8001642:	0018      	movs	r0, r3
 8001644:	46bd      	mov	sp, r7
 8001646:	bd80      	pop	{r7, pc}

08001648 <MX_I2C1_Init>:

/* I2C1 init function */

__weak HAL_StatusTypeDef MX_I2C1_Init(I2C_HandleTypeDef* hi2c)
{
 8001648:	b590      	push	{r4, r7, lr}
 800164a:	b085      	sub	sp, #20
 800164c:	af00      	add	r7, sp, #0
 800164e:	6078      	str	r0, [r7, #4]
  HAL_StatusTypeDef ret = HAL_OK;
 8001650:	240f      	movs	r4, #15
 8001652:	193b      	adds	r3, r7, r4
 8001654:	2200      	movs	r2, #0
 8001656:	701a      	strb	r2, [r3, #0]

  hi2c->Instance = I2C1;
 8001658:	687b      	ldr	r3, [r7, #4]
 800165a:	4a20      	ldr	r2, [pc, #128]	@ (80016dc <MX_I2C1_Init+0x94>)
 800165c:	601a      	str	r2, [r3, #0]
  hi2c->Init.Timing = 0x00602173;
 800165e:	687b      	ldr	r3, [r7, #4]
 8001660:	4a1f      	ldr	r2, [pc, #124]	@ (80016e0 <MX_I2C1_Init+0x98>)
 8001662:	605a      	str	r2, [r3, #4]
  hi2c->Init.OwnAddress1 = 0;
 8001664:	687b      	ldr	r3, [r7, #4]
 8001666:	2200      	movs	r2, #0
 8001668:	609a      	str	r2, [r3, #8]
  hi2c->Init.AddressingMode = I2C_ADDRESSINGMODE_7BIT;
 800166a:	687b      	ldr	r3, [r7, #4]
 800166c:	2201      	movs	r2, #1
 800166e:	60da      	str	r2, [r3, #12]
  hi2c->Init.DualAddressMode = I2C_DUALADDRESS_DISABLE;
 8001670:	687b      	ldr	r3, [r7, #4]
 8001672:	2200      	movs	r2, #0
 8001674:	611a      	str	r2, [r3, #16]
  hi2c->Init.OwnAddress2 = 0;
 8001676:	687b      	ldr	r3, [r7, #4]
 8001678:	2200      	movs	r2, #0
 800167a:	615a      	str	r2, [r3, #20]
  hi2c->Init.OwnAddress2Masks = I2C_OA2_NOMASK;
 800167c:	687b      	ldr	r3, [r7, #4]
 800167e:	2200      	movs	r2, #0
 8001680:	619a      	str	r2, [r3, #24]
  hi2c->Init.GeneralCallMode = I2C_GENERALCALL_DISABLE;
 8001682:	687b      	ldr	r3, [r7, #4]
 8001684:	2200      	movs	r2, #0
 8001686:	61da      	str	r2, [r3, #28]
  hi2c->Init.NoStretchMode = I2C_NOSTRETCH_DISABLE;
 8001688:	687b      	ldr	r3, [r7, #4]
 800168a:	2200      	movs	r2, #0
 800168c:	621a      	str	r2, [r3, #32]
  if (HAL_I2C_Init(hi2c) != HAL_OK)
 800168e:	687b      	ldr	r3, [r7, #4]
 8001690:	0018      	movs	r0, r3
 8001692:	f009 fcad 	bl	800aff0 <HAL_I2C_Init>
 8001696:	1e03      	subs	r3, r0, #0
 8001698:	d002      	beq.n	80016a0 <MX_I2C1_Init+0x58>
  {
    ret = HAL_ERROR;
 800169a:	193b      	adds	r3, r7, r4
 800169c:	2201      	movs	r2, #1
 800169e:	701a      	strb	r2, [r3, #0]
  }

  if (HAL_I2CEx_ConfigAnalogFilter(hi2c, I2C_ANALOGFILTER_ENABLE) != HAL_OK)
 80016a0:	687b      	ldr	r3, [r7, #4]
 80016a2:	2100      	movs	r1, #0
 80016a4:	0018      	movs	r0, r3
 80016a6:	f00a fdcd 	bl	800c244 <HAL_I2CEx_ConfigAnalogFilter>
 80016aa:	1e03      	subs	r3, r0, #0
 80016ac:	d003      	beq.n	80016b6 <MX_I2C1_Init+0x6e>
  {
    ret = HAL_ERROR;
 80016ae:	230f      	movs	r3, #15
 80016b0:	18fb      	adds	r3, r7, r3
 80016b2:	2201      	movs	r2, #1
 80016b4:	701a      	strb	r2, [r3, #0]
  }

  if (HAL_I2CEx_ConfigDigitalFilter(hi2c, 0) != HAL_OK)
 80016b6:	687b      	ldr	r3, [r7, #4]
 80016b8:	2100      	movs	r1, #0
 80016ba:	0018      	movs	r0, r3
 80016bc:	f00a fe0e 	bl	800c2dc <HAL_I2CEx_ConfigDigitalFilter>
 80016c0:	1e03      	subs	r3, r0, #0
 80016c2:	d003      	beq.n	80016cc <MX_I2C1_Init+0x84>
  {
    ret = HAL_ERROR;
 80016c4:	230f      	movs	r3, #15
 80016c6:	18fb      	adds	r3, r7, r3
 80016c8:	2201      	movs	r2, #1
 80016ca:	701a      	strb	r2, [r3, #0]
  }

  return ret;
 80016cc:	230f      	movs	r3, #15
 80016ce:	18fb      	adds	r3, r7, r3
 80016d0:	781b      	ldrb	r3, [r3, #0]
}
 80016d2:	0018      	movs	r0, r3
 80016d4:	46bd      	mov	sp, r7
 80016d6:	b005      	add	sp, #20
 80016d8:	bd90      	pop	{r4, r7, pc}
 80016da:	46c0      	nop			@ (mov r8, r8)
 80016dc:	40005400 	.word	0x40005400
 80016e0:	00602173 	.word	0x00602173

080016e4 <I2C1_MspInit>:

static void I2C1_MspInit(I2C_HandleTypeDef* i2cHandle)
{
 80016e4:	b590      	push	{r4, r7, lr}
 80016e6:	b09d      	sub	sp, #116	@ 0x74
 80016e8:	af00      	add	r7, sp, #0
 80016ea:	6078      	str	r0, [r7, #4]
  GPIO_InitTypeDef GPIO_InitStruct;
  RCC_PeriphCLKInitTypeDef PeriphClkInit = {0};
 80016ec:	2410      	movs	r4, #16
 80016ee:	193b      	adds	r3, r7, r4
 80016f0:	0018      	movs	r0, r3
 80016f2:	234c      	movs	r3, #76	@ 0x4c
 80016f4:	001a      	movs	r2, r3
 80016f6:	2100      	movs	r1, #0
 80016f8:	f00c ffa2 	bl	800e640 <memset>

  /* USER CODE END I2C1_MspInit 0 */

  /** Initializes the peripherals clocks
  */
    PeriphClkInit.PeriphClockSelection = RCC_PERIPHCLK_I2C1;
 80016fc:	193b      	adds	r3, r7, r4
 80016fe:	2220      	movs	r2, #32
 8001700:	601a      	str	r2, [r3, #0]
    PeriphClkInit.I2c1ClockSelection = RCC_I2C1CLKSOURCE_PCLK1;
 8001702:	193b      	adds	r3, r7, r4
 8001704:	2200      	movs	r2, #0
 8001706:	619a      	str	r2, [r3, #24]
    HAL_RCCEx_PeriphCLKConfig(&PeriphClkInit);
 8001708:	193b      	adds	r3, r7, r4
 800170a:	0018      	movs	r0, r3
 800170c:	f00b fb88 	bl	800ce20 <HAL_RCCEx_PeriphCLKConfig>

    __HAL_RCC_GPIOB_CLK_ENABLE();
 8001710:	4b26      	ldr	r3, [pc, #152]	@ (80017ac <I2C1_MspInit+0xc8>)
 8001712:	6b5a      	ldr	r2, [r3, #52]	@ 0x34
 8001714:	4b25      	ldr	r3, [pc, #148]	@ (80017ac <I2C1_MspInit+0xc8>)
 8001716:	2102      	movs	r1, #2
 8001718:	430a      	orrs	r2, r1
 800171a:	635a      	str	r2, [r3, #52]	@ 0x34
 800171c:	4b23      	ldr	r3, [pc, #140]	@ (80017ac <I2C1_MspInit+0xc8>)
 800171e:	6b5b      	ldr	r3, [r3, #52]	@ 0x34
 8001720:	2202      	movs	r2, #2
 8001722:	4013      	ands	r3, r2
 8001724:	60fb      	str	r3, [r7, #12]
 8001726:	68fb      	ldr	r3, [r7, #12]
    /**I2C1 GPIO Configuration
    PB8     ------> I2C1_SCL
    PB9     ------> I2C1_SDA
    */
    GPIO_InitStruct.Pin = BUS_I2C1_SCL_GPIO_PIN;
 8001728:	215c      	movs	r1, #92	@ 0x5c
 800172a:	187b      	adds	r3, r7, r1
 800172c:	2280      	movs	r2, #128	@ 0x80
 800172e:	0052      	lsls	r2, r2, #1
 8001730:	601a      	str	r2, [r3, #0]
    GPIO_InitStruct.Mode = GPIO_MODE_AF_OD;
 8001732:	000c      	movs	r4, r1
 8001734:	193b      	adds	r3, r7, r4
 8001736:	2212      	movs	r2, #18
 8001738:	605a      	str	r2, [r3, #4]
    GPIO_InitStruct.Pull = GPIO_NOPULL;
 800173a:	193b      	adds	r3, r7, r4
 800173c:	2200      	movs	r2, #0
 800173e:	609a      	str	r2, [r3, #8]
    GPIO_InitStruct.Speed = GPIO_SPEED_FREQ_LOW;
 8001740:	193b      	adds	r3, r7, r4
 8001742:	2200      	movs	r2, #0
 8001744:	60da      	str	r2, [r3, #12]
    GPIO_InitStruct.Alternate = BUS_I2C1_SCL_GPIO_AF;
 8001746:	193b      	adds	r3, r7, r4
 8001748:	2206      	movs	r2, #6
 800174a:	611a      	str	r2, [r3, #16]
    HAL_GPIO_Init(BUS_I2C1_SCL_GPIO_PORT, &GPIO_InitStruct);
 800174c:	193b      	adds	r3, r7, r4
 800174e:	4a18      	ldr	r2, [pc, #96]	@ (80017b0 <I2C1_MspInit+0xcc>)
 8001750:	0019      	movs	r1, r3
 8001752:	0010      	movs	r0, r2
 8001754:	f009 f9ea 	bl	800ab2c <HAL_GPIO_Init>

    GPIO_InitStruct.Pin = BUS_I2C1_SDA_GPIO_PIN;
 8001758:	0021      	movs	r1, r4
 800175a:	187b      	adds	r3, r7, r1
 800175c:	2280      	movs	r2, #128	@ 0x80
 800175e:	0092      	lsls	r2, r2, #2
 8001760:	601a      	str	r2, [r3, #0]
    GPIO_InitStruct.Mode = GPIO_MODE_AF_OD;
 8001762:	187b      	adds	r3, r7, r1
 8001764:	2212      	movs	r2, #18
 8001766:	605a      	str	r2, [r3, #4]
    GPIO_InitStruct.Pull = GPIO_NOPULL;
 8001768:	187b      	adds	r3, r7, r1
 800176a:	2200      	movs	r2, #0
 800176c:	609a      	str	r2, [r3, #8]
    GPIO_InitStruct.Speed = GPIO_SPEED_FREQ_LOW;
 800176e:	187b      	adds	r3, r7, r1
 8001770:	2200      	movs	r2, #0
 8001772:	60da      	str	r2, [r3, #12]
    GPIO_InitStruct.Alternate = BUS_I2C1_SDA_GPIO_AF;
 8001774:	187b      	adds	r3, r7, r1
 8001776:	2206      	movs	r2, #6
 8001778:	611a      	str	r2, [r3, #16]
    HAL_GPIO_Init(BUS_I2C1_SDA_GPIO_PORT, &GPIO_InitStruct);
 800177a:	187b      	adds	r3, r7, r1
 800177c:	4a0c      	ldr	r2, [pc, #48]	@ (80017b0 <I2C1_MspInit+0xcc>)
 800177e:	0019      	movs	r1, r3
 8001780:	0010      	movs	r0, r2
 8001782:	f009 f9d3 	bl	800ab2c <HAL_GPIO_Init>

    /* Peripheral clock enable */
    __HAL_RCC_I2C1_CLK_ENABLE();
 8001786:	4b09      	ldr	r3, [pc, #36]	@ (80017ac <I2C1_MspInit+0xc8>)
 8001788:	6bda      	ldr	r2, [r3, #60]	@ 0x3c
 800178a:	4b08      	ldr	r3, [pc, #32]	@ (80017ac <I2C1_MspInit+0xc8>)
 800178c:	2180      	movs	r1, #128	@ 0x80
 800178e:	0389      	lsls	r1, r1, #14
 8001790:	430a      	orrs	r2, r1
 8001792:	63da      	str	r2, [r3, #60]	@ 0x3c
 8001794:	4b05      	ldr	r3, [pc, #20]	@ (80017ac <I2C1_MspInit+0xc8>)
 8001796:	6bda      	ldr	r2, [r3, #60]	@ 0x3c
 8001798:	2380      	movs	r3, #128	@ 0x80
 800179a:	039b      	lsls	r3, r3, #14
 800179c:	4013      	ands	r3, r2
 800179e:	60bb      	str	r3, [r7, #8]
 80017a0:	68bb      	ldr	r3, [r7, #8]
  /* USER CODE BEGIN I2C1_MspInit 1 */

  /* USER CODE END I2C1_MspInit 1 */
}
 80017a2:	46c0      	nop			@ (mov r8, r8)
 80017a4:	46bd      	mov	sp, r7
 80017a6:	b01d      	add	sp, #116	@ 0x74
 80017a8:	bd90      	pop	{r4, r7, pc}
 80017aa:	46c0      	nop			@ (mov r8, r8)
 80017ac:	40021000 	.word	0x40021000
 80017b0:	50000400 	.word	0x50000400

080017b4 <I2C1_MspDeInit>:

static void I2C1_MspDeInit(I2C_HandleTypeDef* i2cHandle)
{
 80017b4:	b580      	push	{r7, lr}
 80017b6:	b082      	sub	sp, #8
 80017b8:	af00      	add	r7, sp, #0
 80017ba:	6078      	str	r0, [r7, #4]
  /* USER CODE BEGIN I2C1_MspDeInit 0 */

  /* USER CODE END I2C1_MspDeInit 0 */
    /* Peripheral clock disable */
    __HAL_RCC_I2C1_CLK_DISABLE();
 80017bc:	4b0b      	ldr	r3, [pc, #44]	@ (80017ec <I2C1_MspDeInit+0x38>)
 80017be:	6bda      	ldr	r2, [r3, #60]	@ 0x3c
 80017c0:	4b0a      	ldr	r3, [pc, #40]	@ (80017ec <I2C1_MspDeInit+0x38>)
 80017c2:	490b      	ldr	r1, [pc, #44]	@ (80017f0 <I2C1_MspDeInit+0x3c>)
 80017c4:	400a      	ands	r2, r1
 80017c6:	63da      	str	r2, [r3, #60]	@ 0x3c

    /**I2C1 GPIO Configuration
    PB8     ------> I2C1_SCL
    PB9     ------> I2C1_SDA
    */
    HAL_GPIO_DeInit(BUS_I2C1_SCL_GPIO_PORT, BUS_I2C1_SCL_GPIO_PIN);
 80017c8:	2380      	movs	r3, #128	@ 0x80
 80017ca:	005b      	lsls	r3, r3, #1
 80017cc:	4a09      	ldr	r2, [pc, #36]	@ (80017f4 <I2C1_MspDeInit+0x40>)
 80017ce:	0019      	movs	r1, r3
 80017d0:	0010      	movs	r0, r2
 80017d2:	f009 fb17 	bl	800ae04 <HAL_GPIO_DeInit>

    HAL_GPIO_DeInit(BUS_I2C1_SDA_GPIO_PORT, BUS_I2C1_SDA_GPIO_PIN);
 80017d6:	2380      	movs	r3, #128	@ 0x80
 80017d8:	009b      	lsls	r3, r3, #2
 80017da:	4a06      	ldr	r2, [pc, #24]	@ (80017f4 <I2C1_MspDeInit+0x40>)
 80017dc:	0019      	movs	r1, r3
 80017de:	0010      	movs	r0, r2
 80017e0:	f009 fb10 	bl	800ae04 <HAL_GPIO_DeInit>

  /* USER CODE BEGIN I2C1_MspDeInit 1 */

  /* USER CODE END I2C1_MspDeInit 1 */
}
 80017e4:	46c0      	nop			@ (mov r8, r8)
 80017e6:	46bd      	mov	sp, r7
 80017e8:	b002      	add	sp, #8
 80017ea:	bd80      	pop	{r7, pc}
 80017ec:	40021000 	.word	0x40021000
 80017f0:	ffdfffff 	.word	0xffdfffff
 80017f4:	50000400 	.word	0x50000400

080017f8 <_read>:
  _kill(status, -1);
  while (1) {}    /* Make sure we hang here */
}

__attribute__((weak)) int _read(int file, char *ptr, int len)
{
 80017f8:	b580      	push	{r7, lr}
 80017fa:	b086      	sub	sp, #24
 80017fc:	af00      	add	r7, sp, #0
 80017fe:	60f8      	str	r0, [r7, #12]
 8001800:	60b9      	str	r1, [r7, #8]
 8001802:	607a      	str	r2, [r7, #4]
  (void)file;
  int DataIdx;

  for (DataIdx = 0; DataIdx < len; DataIdx++)
 8001804:	2300      	movs	r3, #0
 8001806:	617b      	str	r3, [r7, #20]
 8001808:	e00a      	b.n	8001820 <_read+0x28>
  {
    *ptr++ = __io_getchar();
 800180a:	e000      	b.n	800180e <_read+0x16>
 800180c:	bf00      	nop
 800180e:	0001      	movs	r1, r0
 8001810:	68bb      	ldr	r3, [r7, #8]
 8001812:	1c5a      	adds	r2, r3, #1
 8001814:	60ba      	str	r2, [r7, #8]
 8001816:	b2ca      	uxtb	r2, r1
 8001818:	701a      	strb	r2, [r3, #0]
  for (DataIdx = 0; DataIdx < len; DataIdx++)
 800181a:	697b      	ldr	r3, [r7, #20]
 800181c:	3301      	adds	r3, #1
 800181e:	617b      	str	r3, [r7, #20]
 8001820:	697a      	ldr	r2, [r7, #20]
 8001822:	687b      	ldr	r3, [r7, #4]
 8001824:	429a      	cmp	r2, r3
 8001826:	dbf0      	blt.n	800180a <_read+0x12>
  }

  return len;
 8001828:	687b      	ldr	r3, [r7, #4]
}
 800182a:	0018      	movs	r0, r3
 800182c:	46bd      	mov	sp, r7
 800182e:	b006      	add	sp, #24
 8001830:	bd80      	pop	{r7, pc}

08001832 <_write>:

__attribute__((weak)) int _write(int file, char *ptr, int len)
{
 8001832:	b580      	push	{r7, lr}
 8001834:	b086      	sub	sp, #24
 8001836:	af00      	add	r7, sp, #0
 8001838:	60f8      	str	r0, [r7, #12]
 800183a:	60b9      	str	r1, [r7, #8]
 800183c:	607a      	str	r2, [r7, #4]
  (void)file;
  int DataIdx;

  for (DataIdx = 0; DataIdx < len; DataIdx++)
 800183e:	2300      	movs	r3, #0
 8001840:	617b      	str	r3, [r7, #20]
 8001842:	e009      	b.n	8001858 <_write+0x26>
  {
    __io_putchar(*ptr++);
 8001844:	68bb      	ldr	r3, [r7, #8]
 8001846:	1c5a      	adds	r2, r3, #1
 8001848:	60ba      	str	r2, [r7, #8]
 800184a:	781b      	ldrb	r3, [r3, #0]
 800184c:	0018      	movs	r0, r3
 800184e:	f00c fd0d 	bl	800e26c <__io_putchar>
  for (DataIdx = 0; DataIdx < len; DataIdx++)
 8001852:	697b      	ldr	r3, [r7, #20]
 8001854:	3301      	adds	r3, #1
 8001856:	617b      	str	r3, [r7, #20]
 8001858:	697a      	ldr	r2, [r7, #20]
 800185a:	687b      	ldr	r3, [r7, #4]
 800185c:	429a      	cmp	r2, r3
 800185e:	dbf1      	blt.n	8001844 <_write+0x12>
  }
  return len;
 8001860:	687b      	ldr	r3, [r7, #4]
}
 8001862:	0018      	movs	r0, r3
 8001864:	46bd      	mov	sp, r7
 8001866:	b006      	add	sp, #24
 8001868:	bd80      	pop	{r7, pc}

0800186a <_close>:

int _close(int file)
{
 800186a:	b580      	push	{r7, lr}
 800186c:	b082      	sub	sp, #8
 800186e:	af00      	add	r7, sp, #0
 8001870:	6078      	str	r0, [r7, #4]
  (void)file;
  return -1;
 8001872:	2301      	movs	r3, #1
 8001874:	425b      	negs	r3, r3
}
 8001876:	0018      	movs	r0, r3
 8001878:	46bd      	mov	sp, r7
 800187a:	b002      	add	sp, #8
 800187c:	bd80      	pop	{r7, pc}

0800187e <_fstat>:


int _fstat(int file, struct stat *st)
{
 800187e:	b580      	push	{r7, lr}
 8001880:	b082      	sub	sp, #8
 8001882:	af00      	add	r7, sp, #0
 8001884:	6078      	str	r0, [r7, #4]
 8001886:	6039      	str	r1, [r7, #0]
  (void)file;
  st->st_mode = S_IFCHR;
 8001888:	683b      	ldr	r3, [r7, #0]
 800188a:	2280      	movs	r2, #128	@ 0x80
 800188c:	0192      	lsls	r2, r2, #6
 800188e:	605a      	str	r2, [r3, #4]
  return 0;
 8001890:	2300      	movs	r3, #0
}
 8001892:	0018      	movs	r0, r3
 8001894:	46bd      	mov	sp, r7
 8001896:	b002      	add	sp, #8
 8001898:	bd80      	pop	{r7, pc}

0800189a <_isatty>:

int _isatty(int file)
{
 800189a:	b580      	push	{r7, lr}
 800189c:	b082      	sub	sp, #8
 800189e:	af00      	add	r7, sp, #0
 80018a0:	6078      	str	r0, [r7, #4]
  (void)file;
  return 1;
 80018a2:	2301      	movs	r3, #1
}
 80018a4:	0018      	movs	r0, r3
 80018a6:	46bd      	mov	sp, r7
 80018a8:	b002      	add	sp, #8
 80018aa:	bd80      	pop	{r7, pc}

080018ac <_lseek>:

int _lseek(int file, int ptr, int dir)
{
 80018ac:	b580      	push	{r7, lr}
 80018ae:	b084      	sub	sp, #16
 80018b0:	af00      	add	r7, sp, #0
 80018b2:	60f8      	str	r0, [r7, #12]
 80018b4:	60b9      	str	r1, [r7, #8]
 80018b6:	607a      	str	r2, [r7, #4]
  (void)file;
  (void)ptr;
  (void)dir;
  return 0;
 80018b8:	2300      	movs	r3, #0
}
 80018ba:	0018      	movs	r0, r3
 80018bc:	46bd      	mov	sp, r7
 80018be:	b004      	add	sp, #16
 80018c0:	bd80      	pop	{r7, pc}
	...

080018c4 <_sbrk>:
 *
 * @param incr Memory size
 * @return Pointer to allocated memory
 */
void *_sbrk(ptrdiff_t incr)
{
 80018c4:	b580      	push	{r7, lr}
 80018c6:	b086      	sub	sp, #24
 80018c8:	af00      	add	r7, sp, #0
 80018ca:	6078      	str	r0, [r7, #4]
  extern uint8_t _end; /* Symbol defined in the linker script */
  extern uint8_t _estack; /* Symbol defined in the linker script */
  extern uint32_t _Min_Stack_Size; /* Symbol defined in the linker script */
  const uint32_t stack_limit = (uint32_t)&_estack - (uint32_t)&_Min_Stack_Size;
 80018cc:	4a14      	ldr	r2, [pc, #80]	@ (8001920 <_sbrk+0x5c>)
 80018ce:	4b15      	ldr	r3, [pc, #84]	@ (8001924 <_sbrk+0x60>)
 80018d0:	1ad3      	subs	r3, r2, r3
 80018d2:	617b      	str	r3, [r7, #20]
  const uint8_t *max_heap = (uint8_t *)stack_limit;
 80018d4:	697b      	ldr	r3, [r7, #20]
 80018d6:	613b      	str	r3, [r7, #16]
  uint8_t *prev_heap_end;

  /* Initialize heap end at first call */
  if (NULL == __sbrk_heap_end)
 80018d8:	4b13      	ldr	r3, [pc, #76]	@ (8001928 <_sbrk+0x64>)
 80018da:	681b      	ldr	r3, [r3, #0]
 80018dc:	2b00      	cmp	r3, #0
 80018de:	d102      	bne.n	80018e6 <_sbrk+0x22>
  {
    __sbrk_heap_end = &_end;
 80018e0:	4b11      	ldr	r3, [pc, #68]	@ (8001928 <_sbrk+0x64>)
 80018e2:	4a12      	ldr	r2, [pc, #72]	@ (800192c <_sbrk+0x68>)
 80018e4:	601a      	str	r2, [r3, #0]
  }

  /* Protect heap from growing into the reserved MSP stack */
  if (__sbrk_heap_end + incr > max_heap)
 80018e6:	4b10      	ldr	r3, [pc, #64]	@ (8001928 <_sbrk+0x64>)
 80018e8:	681a      	ldr	r2, [r3, #0]
 80018ea:	687b      	ldr	r3, [r7, #4]
 80018ec:	18d3      	adds	r3, r2, r3
 80018ee:	693a      	ldr	r2, [r7, #16]
 80018f0:	429a      	cmp	r2, r3
 80018f2:	d207      	bcs.n	8001904 <_sbrk+0x40>
  {
    errno = ENOMEM;
 80018f4:	f00c fefa 	bl	800e6ec <__errno>
 80018f8:	0003      	movs	r3, r0
 80018fa:	220c      	movs	r2, #12
 80018fc:	601a      	str	r2, [r3, #0]
    return (void *)-1;
 80018fe:	2301      	movs	r3, #1
 8001900:	425b      	negs	r3, r3
 8001902:	e009      	b.n	8001918 <_sbrk+0x54>
  }

  prev_heap_end = __sbrk_heap_end;
 8001904:	4b08      	ldr	r3, [pc, #32]	@ (8001928 <_sbrk+0x64>)
 8001906:	681b      	ldr	r3, [r3, #0]
 8001908:	60fb      	str	r3, [r7, #12]
  __sbrk_heap_end += incr;
 800190a:	4b07      	ldr	r3, [pc, #28]	@ (8001928 <_sbrk+0x64>)
 800190c:	681a      	ldr	r2, [r3, #0]
 800190e:	687b      	ldr	r3, [r7, #4]
 8001910:	18d2      	adds	r2, r2, r3
 8001912:	4b05      	ldr	r3, [pc, #20]	@ (8001928 <_sbrk+0x64>)
 8001914:	601a      	str	r2, [r3, #0]

  return (void *)prev_heap_end;
 8001916:	68fb      	ldr	r3, [r7, #12]
}
 8001918:	0018      	movs	r0, r3
 800191a:	46bd      	mov	sp, r7
 800191c:	b006      	add	sp, #24
 800191e:	bd80      	pop	{r7, pc}
 8001920:	20024000 	.word	0x20024000
 8001924:	00001000 	.word	0x00001000
 8001928:	200002cc 	.word	0x200002cc
 800192c:	20000700 	.word	0x20000700

08001930 <SystemInit>:
  * @brief  Setup the microcontroller system.
  * @param  None
  * @retval None
  */
void SystemInit(void)
{
 8001930:	b580      	push	{r7, lr}
 8001932:	af00      	add	r7, sp, #0
  /* Configure the Vector Table location -------------------------------------*/
#if defined(USER_VECT_TAB_ADDRESS)
  SCB->VTOR = VECT_TAB_BASE_ADDRESS | VECT_TAB_OFFSET; /* Vector Table Relocation */
#endif /* USER_VECT_TAB_ADDRESS */
}
 8001934:	46c0      	nop			@ (mov r8, r8)
 8001936:	46bd      	mov	sp, r7
 8001938:	bd80      	pop	{r7, pc}
	...

0800193c <MX_USART2_UART_Init>:
UART_HandleTypeDef huart2;

/* USART2 init function */

void MX_USART2_UART_Init(void)
{
 800193c:	b580      	push	{r7, lr}
 800193e:	af00      	add	r7, sp, #0
  /* USER CODE END USART2_Init 0 */

  /* USER CODE BEGIN USART2_Init 1 */

  /* USER CODE END USART2_Init 1 */
  huart2.Instance = USART2;
 8001940:	4b23      	ldr	r3, [pc, #140]	@ (80019d0 <MX_USART2_UART_Init+0x94>)
 8001942:	4a24      	ldr	r2, [pc, #144]	@ (80019d4 <MX_USART2_UART_Init+0x98>)
 8001944:	601a      	str	r2, [r3, #0]
  huart2.Init.BaudRate = 921600;
 8001946:	4b22      	ldr	r3, [pc, #136]	@ (80019d0 <MX_USART2_UART_Init+0x94>)
 8001948:	22e1      	movs	r2, #225	@ 0xe1
 800194a:	0312      	lsls	r2, r2, #12
 800194c:	605a      	str	r2, [r3, #4]
  huart2.Init.WordLength = UART_WORDLENGTH_8B;
 800194e:	4b20      	ldr	r3, [pc, #128]	@ (80019d0 <MX_USART2_UART_Init+0x94>)
 8001950:	2200      	movs	r2, #0
 8001952:	609a      	str	r2, [r3, #8]
  huart2.Init.StopBits = UART_STOPBITS_1;
 8001954:	4b1e      	ldr	r3, [pc, #120]	@ (80019d0 <MX_USART2_UART_Init+0x94>)
 8001956:	2200      	movs	r2, #0
 8001958:	60da      	str	r2, [r3, #12]
  huart2.Init.Parity = UART_PARITY_NONE;
 800195a:	4b1d      	ldr	r3, [pc, #116]	@ (80019d0 <MX_USART2_UART_Init+0x94>)
 800195c:	2200      	movs	r2, #0
 800195e:	611a      	str	r2, [r3, #16]
  huart2.Init.Mode = UART_MODE_TX_RX;
 8001960:	4b1b      	ldr	r3, [pc, #108]	@ (80019d0 <MX_USART2_UART_Init+0x94>)
 8001962:	220c      	movs	r2, #12
 8001964:	615a      	str	r2, [r3, #20]
  huart2.Init.HwFlowCtl = UART_HWCONTROL_NONE;
 8001966:	4b1a      	ldr	r3, [pc, #104]	@ (80019d0 <MX_USART2_UART_Init+0x94>)
 8001968:	2200      	movs	r2, #0
 800196a:	619a      	str	r2, [r3, #24]
  huart2.Init.OverSampling = UART_OVERSAMPLING_16;
 800196c:	4b18      	ldr	r3, [pc, #96]	@ (80019d0 <MX_USART2_UART_Init+0x94>)
 800196e:	2200      	movs	r2, #0
 8001970:	61da      	str	r2, [r3, #28]
  huart2.Init.OneBitSampling = UART_ONE_BIT_SAMPLE_DISABLE;
 8001972:	4b17      	ldr	r3, [pc, #92]	@ (80019d0 <MX_USART2_UART_Init+0x94>)
 8001974:	2200      	movs	r2, #0
 8001976:	621a      	str	r2, [r3, #32]
  huart2.Init.ClockPrescaler = UART_PRESCALER_DIV1;
 8001978:	4b15      	ldr	r3, [pc, #84]	@ (80019d0 <MX_USART2_UART_Init+0x94>)
 800197a:	2200      	movs	r2, #0
 800197c:	625a      	str	r2, [r3, #36]	@ 0x24
  huart2.AdvancedInit.AdvFeatureInit = UART_ADVFEATURE_NO_INIT;
 800197e:	4b14      	ldr	r3, [pc, #80]	@ (80019d0 <MX_USART2_UART_Init+0x94>)
 8001980:	2200      	movs	r2, #0
 8001982:	629a      	str	r2, [r3, #40]	@ 0x28
  if (HAL_UART_Init(&huart2) != HAL_OK)
 8001984:	4b12      	ldr	r3, [pc, #72]	@ (80019d0 <MX_USART2_UART_Init+0x94>)
 8001986:	0018      	movs	r0, r3
 8001988:	f00b fc86 	bl	800d298 <HAL_UART_Init>
 800198c:	1e03      	subs	r3, r0, #0
 800198e:	d001      	beq.n	8001994 <MX_USART2_UART_Init+0x58>
  {
    Error_Handler();
 8001990:	f7ff fccb 	bl	800132a <Error_Handler>
  }
  if (HAL_UARTEx_SetTxFifoThreshold(&huart2, UART_TXFIFO_THRESHOLD_1_8) != HAL_OK)
 8001994:	4b0e      	ldr	r3, [pc, #56]	@ (80019d0 <MX_USART2_UART_Init+0x94>)
 8001996:	2100      	movs	r1, #0
 8001998:	0018      	movs	r0, r3
 800199a:	f00c fb3b 	bl	800e014 <HAL_UARTEx_SetTxFifoThreshold>
 800199e:	1e03      	subs	r3, r0, #0
 80019a0:	d001      	beq.n	80019a6 <MX_USART2_UART_Init+0x6a>
  {
    Error_Handler();
 80019a2:	f7ff fcc2 	bl	800132a <Error_Handler>
  }
  if (HAL_UARTEx_SetRxFifoThreshold(&huart2, UART_RXFIFO_THRESHOLD_1_8) != HAL_OK)
 80019a6:	4b0a      	ldr	r3, [pc, #40]	@ (80019d0 <MX_USART2_UART_Init+0x94>)
 80019a8:	2100      	movs	r1, #0
 80019aa:	0018      	movs	r0, r3
 80019ac:	f00c fb72 	bl	800e094 <HAL_UARTEx_SetRxFifoThreshold>
 80019b0:	1e03      	subs	r3, r0, #0
 80019b2:	d001      	beq.n	80019b8 <MX_USART2_UART_Init+0x7c>
  {
    Error_Handler();
 80019b4:	f7ff fcb9 	bl	800132a <Error_Handler>
  }
  if (HAL_UARTEx_DisableFifoMode(&huart2) != HAL_OK)
 80019b8:	4b05      	ldr	r3, [pc, #20]	@ (80019d0 <MX_USART2_UART_Init+0x94>)
 80019ba:	0018      	movs	r0, r3
 80019bc:	f00c faf0 	bl	800dfa0 <HAL_UARTEx_DisableFifoMode>
 80019c0:	1e03      	subs	r3, r0, #0
 80019c2:	d001      	beq.n	80019c8 <MX_USART2_UART_Init+0x8c>
  {
    Error_Handler();
 80019c4:	f7ff fcb1 	bl	800132a <Error_Handler>
  }
  /* USER CODE BEGIN USART2_Init 2 */

  /* USER CODE END USART2_Init 2 */

}
 80019c8:	46c0      	nop			@ (mov r8, r8)
 80019ca:	46bd      	mov	sp, r7
 80019cc:	bd80      	pop	{r7, pc}
 80019ce:	46c0      	nop			@ (mov r8, r8)
 80019d0:	200002d0 	.word	0x200002d0
 80019d4:	40004400 	.word	0x40004400

080019d8 <HAL_UART_MspInit>:

void HAL_UART_MspInit(UART_HandleTypeDef* uartHandle)
{
 80019d8:	b590      	push	{r4, r7, lr}
 80019da:	b09d      	sub	sp, #116	@ 0x74
 80019dc:	af00      	add	r7, sp, #0
 80019de:	6078      	str	r0, [r7, #4]

  GPIO_InitTypeDef GPIO_InitStruct = {0};
 80019e0:	235c      	movs	r3, #92	@ 0x5c
 80019e2:	18fb      	adds	r3, r7, r3
 80019e4:	0018      	movs	r0, r3
 80019e6:	2314      	movs	r3, #20
 80019e8:	001a      	movs	r2, r3
 80019ea:	2100      	movs	r1, #0
 80019ec:	f00c fe28 	bl	800e640 <memset>
  RCC_PeriphCLKInitTypeDef PeriphClkInit = {0};
 80019f0:	2410      	movs	r4, #16
 80019f2:	193b      	adds	r3, r7, r4
 80019f4:	0018      	movs	r0, r3
 80019f6:	234c      	movs	r3, #76	@ 0x4c
 80019f8:	001a      	movs	r2, r3
 80019fa:	2100      	movs	r1, #0
 80019fc:	f00c fe20 	bl	800e640 <memset>
  if(uartHandle->Instance==USART2)
 8001a00:	687b      	ldr	r3, [r7, #4]
 8001a02:	681b      	ldr	r3, [r3, #0]
 8001a04:	4a22      	ldr	r2, [pc, #136]	@ (8001a90 <HAL_UART_MspInit+0xb8>)
 8001a06:	4293      	cmp	r3, r2
 8001a08:	d13e      	bne.n	8001a88 <HAL_UART_MspInit+0xb0>

  /* USER CODE END USART2_MspInit 0 */

  /** Initializes the peripherals clocks
  */
    PeriphClkInit.PeriphClockSelection = RCC_PERIPHCLK_USART2;
 8001a0a:	193b      	adds	r3, r7, r4
 8001a0c:	2202      	movs	r2, #2
 8001a0e:	601a      	str	r2, [r3, #0]
    PeriphClkInit.Usart2ClockSelection = RCC_USART2CLKSOURCE_PCLK1;
 8001a10:	193b      	adds	r3, r7, r4
 8001a12:	2200      	movs	r2, #0
 8001a14:	609a      	str	r2, [r3, #8]
    if (HAL_RCCEx_PeriphCLKConfig(&PeriphClkInit) != HAL_OK)
 8001a16:	193b      	adds	r3, r7, r4
 8001a18:	0018      	movs	r0, r3
 8001a1a:	f00b fa01 	bl	800ce20 <HAL_RCCEx_PeriphCLKConfig>
 8001a1e:	1e03      	subs	r3, r0, #0
 8001a20:	d001      	beq.n	8001a26 <HAL_UART_MspInit+0x4e>
    {
      Error_Handler();
 8001a22:	f7ff fc82 	bl	800132a <Error_Handler>
    }

    /* USART2 clock enable */
    __HAL_RCC_USART2_CLK_ENABLE();
 8001a26:	4b1b      	ldr	r3, [pc, #108]	@ (8001a94 <HAL_UART_MspInit+0xbc>)
 8001a28:	6bda      	ldr	r2, [r3, #60]	@ 0x3c
 8001a2a:	4b1a      	ldr	r3, [pc, #104]	@ (8001a94 <HAL_UART_MspInit+0xbc>)
 8001a2c:	2180      	movs	r1, #128	@ 0x80
 8001a2e:	0289      	lsls	r1, r1, #10
 8001a30:	430a      	orrs	r2, r1
 8001a32:	63da      	str	r2, [r3, #60]	@ 0x3c
 8001a34:	4b17      	ldr	r3, [pc, #92]	@ (8001a94 <HAL_UART_MspInit+0xbc>)
 8001a36:	6bda      	ldr	r2, [r3, #60]	@ 0x3c
 8001a38:	2380      	movs	r3, #128	@ 0x80
 8001a3a:	029b      	lsls	r3, r3, #10
 8001a3c:	4013      	ands	r3, r2
 8001a3e:	60fb      	str	r3, [r7, #12]
 8001a40:	68fb      	ldr	r3, [r7, #12]

    __HAL_RCC_GPIOA_CLK_ENABLE();
 8001a42:	4b14      	ldr	r3, [pc, #80]	@ (8001a94 <HAL_UART_MspInit+0xbc>)
 8001a44:	6b5a      	ldr	r2, [r3, #52]	@ 0x34
 8001a46:	4b13      	ldr	r3, [pc, #76]	@ (8001a94 <HAL_UART_MspInit+0xbc>)
 8001a48:	2101      	movs	r1, #1
 8001a4a:	430a      	orrs	r2, r1
 8001a4c:	635a      	str	r2, [r3, #52]	@ 0x34
 8001a4e:	4b11      	ldr	r3, [pc, #68]	@ (8001a94 <HAL_UART_MspInit+0xbc>)
 8001a50:	6b5b      	ldr	r3, [r3, #52]	@ 0x34
 8001a52:	2201      	movs	r2, #1
 8001a54:	4013      	ands	r3, r2
 8001a56:	60bb      	str	r3, [r7, #8]
 8001a58:	68bb      	ldr	r3, [r7, #8]
    /**USART2 GPIO Configuration
    PA2     ------> USART2_TX
    PA3     ------> USART2_RX
    */
    GPIO_InitStruct.Pin = USART2_TX_Pin|USART2_RX_Pin;
 8001a5a:	215c      	movs	r1, #92	@ 0x5c
 8001a5c:	187b      	adds	r3, r7, r1
 8001a5e:	220c      	movs	r2, #12
 8001a60:	601a      	str	r2, [r3, #0]
    GPIO_InitStruct.Mode = GPIO_MODE_AF_PP;
 8001a62:	187b      	adds	r3, r7, r1
 8001a64:	2202      	movs	r2, #2
 8001a66:	605a      	str	r2, [r3, #4]
    GPIO_InitStruct.Pull = GPIO_NOPULL;
 8001a68:	187b      	adds	r3, r7, r1
 8001a6a:	2200      	movs	r2, #0
 8001a6c:	609a      	str	r2, [r3, #8]
    GPIO_InitStruct.Speed = GPIO_SPEED_FREQ_LOW;
 8001a6e:	187b      	adds	r3, r7, r1
 8001a70:	2200      	movs	r2, #0
 8001a72:	60da      	str	r2, [r3, #12]
    GPIO_InitStruct.Alternate = GPIO_AF1_USART2;
 8001a74:	187b      	adds	r3, r7, r1
 8001a76:	2201      	movs	r2, #1
 8001a78:	611a      	str	r2, [r3, #16]
    HAL_GPIO_Init(GPIOA, &GPIO_InitStruct);
 8001a7a:	187a      	adds	r2, r7, r1
 8001a7c:	23a0      	movs	r3, #160	@ 0xa0
 8001a7e:	05db      	lsls	r3, r3, #23
 8001a80:	0011      	movs	r1, r2
 8001a82:	0018      	movs	r0, r3
 8001a84:	f009 f852 	bl	800ab2c <HAL_GPIO_Init>

  /* USER CODE BEGIN USART2_MspInit 1 */

  /* USER CODE END USART2_MspInit 1 */
  }
}
 8001a88:	46c0      	nop			@ (mov r8, r8)
 8001a8a:	46bd      	mov	sp, r7
 8001a8c:	b01d      	add	sp, #116	@ 0x74
 8001a8e:	bd90      	pop	{r4, r7, pc}
 8001a90:	40004400 	.word	0x40004400
 8001a94:	40021000 	.word	0x40021000

08001a98 <Reset_Handler>:

  .section .text.Reset_Handler
  .weak Reset_Handler
  .type Reset_Handler, %function
Reset_Handler:
  ldr   r0, =_estack
 8001a98:	480d      	ldr	r0, [pc, #52]	@ (8001ad0 <LoopForever+0x2>)
  mov   sp, r0          /* set stack pointer */
 8001a9a:	4685      	mov	sp, r0

/* Call the clock system initialization function.*/
  bl  SystemInit
 8001a9c:	f7ff ff48 	bl	8001930 <SystemInit>

/* Copy the data segment initializers from flash to SRAM */
  ldr r0, =_sdata
 8001aa0:	480c      	ldr	r0, [pc, #48]	@ (8001ad4 <LoopForever+0x6>)
  ldr r1, =_edata
 8001aa2:	490d      	ldr	r1, [pc, #52]	@ (8001ad8 <LoopForever+0xa>)
  ldr r2, =_sidata
 8001aa4:	4a0d      	ldr	r2, [pc, #52]	@ (8001adc <LoopForever+0xe>)
  movs r3, #0
 8001aa6:	2300      	movs	r3, #0
  b LoopCopyDataInit
 8001aa8:	e002      	b.n	8001ab0 <LoopCopyDataInit>

08001aaa <CopyDataInit>:

CopyDataInit:
  ldr r4, [r2, r3]
 8001aaa:	58d4      	ldr	r4, [r2, r3]
  str r4, [r0, r3]
 8001aac:	50c4      	str	r4, [r0, r3]
  adds r3, r3, #4
 8001aae:	3304      	adds	r3, #4

08001ab0 <LoopCopyDataInit>:

LoopCopyDataInit:
  adds r4, r0, r3
 8001ab0:	18c4      	adds	r4, r0, r3
  cmp r4, r1
 8001ab2:	428c      	cmp	r4, r1
  bcc CopyDataInit
 8001ab4:	d3f9      	bcc.n	8001aaa <CopyDataInit>

/* Zero fill the bss segment. */
  ldr r2, =_sbss
 8001ab6:	4a0a      	ldr	r2, [pc, #40]	@ (8001ae0 <LoopForever+0x12>)
  ldr r4, =_ebss
 8001ab8:	4c0a      	ldr	r4, [pc, #40]	@ (8001ae4 <LoopForever+0x16>)
  movs r3, #0
 8001aba:	2300      	movs	r3, #0
  b LoopFillZerobss
 8001abc:	e001      	b.n	8001ac2 <LoopFillZerobss>

08001abe <FillZerobss>:

FillZerobss:
  str  r3, [r2]
 8001abe:	6013      	str	r3, [r2, #0]
  adds r2, r2, #4
 8001ac0:	3204      	adds	r2, #4

08001ac2 <LoopFillZerobss>:

LoopFillZerobss:
  cmp r2, r4
 8001ac2:	42a2      	cmp	r2, r4
  bcc FillZerobss
 8001ac4:	d3fb      	bcc.n	8001abe <FillZerobss>

/* Call static constructors */
  bl __libc_init_array
 8001ac6:	f00c fe17 	bl	800e6f8 <__libc_init_array>
/* Call the application s entry point.*/
  bl main
 8001aca:	f7ff fbbd 	bl	8001248 <main>

08001ace <LoopForever>:

LoopForever:
  b LoopForever
 8001ace:	e7fe      	b.n	8001ace <LoopForever>
  ldr   r0, =_estack
 8001ad0:	20024000 	.word	0x20024000
  ldr r0, =_sdata
 8001ad4:	20000000 	.word	0x20000000
  ldr r1, =_edata
 8001ad8:	20000258 	.word	0x20000258
  ldr r2, =_sidata
 8001adc:	0800fb5c 	.word	0x0800fb5c
  ldr r2, =_sbss
 8001ae0:	20000258 	.word	0x20000258
  ldr r4, =_ebss
 8001ae4:	20000700 	.word	0x20000700

08001ae8 <ADC1_COMP_IRQHandler>:
 * @retval None
*/
  .section .text.Default_Handler,"ax",%progbits
Default_Handler:
Infinite_Loop:
  b Infinite_Loop
 8001ae8:	e7fe      	b.n	8001ae8 <ADC1_COMP_IRQHandler>
	...

08001aec <LIS2DUXS12_RegisterBusIO>:
  * @brief  Register Component Bus IO operations
  * @param  pObj the device pObj
  * @retval 0 in case of success, an error code otherwise
  */
int32_t LIS2DUXS12_RegisterBusIO(LIS2DUXS12_Object_t *pObj, LIS2DUXS12_IO_t *pIO)
{
 8001aec:	b580      	push	{r7, lr}
 8001aee:	b084      	sub	sp, #16
 8001af0:	af00      	add	r7, sp, #0
 8001af2:	6078      	str	r0, [r7, #4]
 8001af4:	6039      	str	r1, [r7, #0]
  int32_t ret = LIS2DUXS12_OK;
 8001af6:	2300      	movs	r3, #0
 8001af8:	60fb      	str	r3, [r7, #12]

  if (pObj == NULL)
 8001afa:	687b      	ldr	r3, [r7, #4]
 8001afc:	2b00      	cmp	r3, #0
 8001afe:	d103      	bne.n	8001b08 <LIS2DUXS12_RegisterBusIO+0x1c>
  {
    ret = LIS2DUXS12_ERROR;
 8001b00:	2301      	movs	r3, #1
 8001b02:	425b      	negs	r3, r3
 8001b04:	60fb      	str	r3, [r7, #12]
 8001b06:	e085      	b.n	8001c14 <LIS2DUXS12_RegisterBusIO+0x128>
  }
  else
  {
    pObj->IO.Init      = pIO->Init;
 8001b08:	683b      	ldr	r3, [r7, #0]
 8001b0a:	681a      	ldr	r2, [r3, #0]
 8001b0c:	687b      	ldr	r3, [r7, #4]
 8001b0e:	601a      	str	r2, [r3, #0]
    pObj->IO.DeInit    = pIO->DeInit;
 8001b10:	683b      	ldr	r3, [r7, #0]
 8001b12:	685a      	ldr	r2, [r3, #4]
 8001b14:	687b      	ldr	r3, [r7, #4]
 8001b16:	605a      	str	r2, [r3, #4]
    pObj->IO.BusType   = pIO->BusType;
 8001b18:	683b      	ldr	r3, [r7, #0]
 8001b1a:	689a      	ldr	r2, [r3, #8]
 8001b1c:	687b      	ldr	r3, [r7, #4]
 8001b1e:	609a      	str	r2, [r3, #8]
    pObj->IO.Address   = pIO->Address;
 8001b20:	683b      	ldr	r3, [r7, #0]
 8001b22:	7b1a      	ldrb	r2, [r3, #12]
 8001b24:	687b      	ldr	r3, [r7, #4]
 8001b26:	731a      	strb	r2, [r3, #12]
    pObj->IO.WriteReg  = pIO->WriteReg;
 8001b28:	683b      	ldr	r3, [r7, #0]
 8001b2a:	691a      	ldr	r2, [r3, #16]
 8001b2c:	687b      	ldr	r3, [r7, #4]
 8001b2e:	611a      	str	r2, [r3, #16]
    pObj->IO.ReadReg   = pIO->ReadReg;
 8001b30:	683b      	ldr	r3, [r7, #0]
 8001b32:	695a      	ldr	r2, [r3, #20]
 8001b34:	687b      	ldr	r3, [r7, #4]
 8001b36:	615a      	str	r2, [r3, #20]
    pObj->IO.GetTick   = pIO->GetTick;
 8001b38:	683b      	ldr	r3, [r7, #0]
 8001b3a:	699a      	ldr	r2, [r3, #24]
 8001b3c:	687b      	ldr	r3, [r7, #4]
 8001b3e:	619a      	str	r2, [r3, #24]
    pObj->IO.Delay     = pIO->Delay;
 8001b40:	683b      	ldr	r3, [r7, #0]
 8001b42:	69da      	ldr	r2, [r3, #28]
 8001b44:	687b      	ldr	r3, [r7, #4]
 8001b46:	61da      	str	r2, [r3, #28]

    pObj->Ctx.read_reg  = ReadRegWrap;
 8001b48:	687b      	ldr	r3, [r7, #4]
 8001b4a:	4a35      	ldr	r2, [pc, #212]	@ (8001c20 <LIS2DUXS12_RegisterBusIO+0x134>)
 8001b4c:	625a      	str	r2, [r3, #36]	@ 0x24
    pObj->Ctx.write_reg = WriteRegWrap;
 8001b4e:	687b      	ldr	r3, [r7, #4]
 8001b50:	4a34      	ldr	r2, [pc, #208]	@ (8001c24 <LIS2DUXS12_RegisterBusIO+0x138>)
 8001b52:	621a      	str	r2, [r3, #32]
    pObj->Ctx.mdelay    = pIO->Delay;
 8001b54:	683b      	ldr	r3, [r7, #0]
 8001b56:	69da      	ldr	r2, [r3, #28]
 8001b58:	687b      	ldr	r3, [r7, #4]
 8001b5a:	629a      	str	r2, [r3, #40]	@ 0x28
    pObj->Ctx.handle    = pObj;
 8001b5c:	687b      	ldr	r3, [r7, #4]
 8001b5e:	687a      	ldr	r2, [r7, #4]
 8001b60:	62da      	str	r2, [r3, #44]	@ 0x2c

    if (pObj->IO.Init == NULL)
 8001b62:	687b      	ldr	r3, [r7, #4]
 8001b64:	681b      	ldr	r3, [r3, #0]
 8001b66:	2b00      	cmp	r3, #0
 8001b68:	d103      	bne.n	8001b72 <LIS2DUXS12_RegisterBusIO+0x86>
    {
      ret = LIS2DUXS12_ERROR;
 8001b6a:	2301      	movs	r3, #1
 8001b6c:	425b      	negs	r3, r3
 8001b6e:	60fb      	str	r3, [r7, #12]
 8001b70:	e050      	b.n	8001c14 <LIS2DUXS12_RegisterBusIO+0x128>
    }
    else if (pObj->IO.Init() != LIS2DUXS12_OK)
 8001b72:	687b      	ldr	r3, [r7, #4]
 8001b74:	681b      	ldr	r3, [r3, #0]
 8001b76:	4798      	blx	r3
 8001b78:	1e03      	subs	r3, r0, #0
 8001b7a:	d003      	beq.n	8001b84 <LIS2DUXS12_RegisterBusIO+0x98>
    {
      ret = LIS2DUXS12_ERROR;
 8001b7c:	2301      	movs	r3, #1
 8001b7e:	425b      	negs	r3, r3
 8001b80:	60fb      	str	r3, [r7, #12]
 8001b82:	e047      	b.n	8001c14 <LIS2DUXS12_RegisterBusIO+0x128>
    }
    else
    {
      if (pObj->IO.BusType == LIS2DUXS12_SPI_3WIRES_BUS) /* SPI 3-Wires */
 8001b84:	687b      	ldr	r3, [r7, #4]
 8001b86:	689b      	ldr	r3, [r3, #8]
 8001b88:	2b02      	cmp	r3, #2
 8001b8a:	d11e      	bne.n	8001bca <LIS2DUXS12_RegisterBusIO+0xde>
      {
        /* Enable the SPI 3-Wires support only the first time */
        if (pObj->is_initialized == 0U)
 8001b8c:	687b      	ldr	r3, [r7, #4]
 8001b8e:	2230      	movs	r2, #48	@ 0x30
 8001b90:	5c9b      	ldrb	r3, [r3, r2]
 8001b92:	2b00      	cmp	r3, #0
 8001b94:	d13e      	bne.n	8001c14 <LIS2DUXS12_RegisterBusIO+0x128>
        {
          /* Exit from deep power down only the first time in SPI mode */
          if (LIS2DUXS12_ExitDeepPowerDownSPI(pObj) != LIS2DUXS12_OK)
 8001b96:	687b      	ldr	r3, [r7, #4]
 8001b98:	0018      	movs	r0, r3
 8001b9a:	f000 f8e5 	bl	8001d68 <LIS2DUXS12_ExitDeepPowerDownSPI>
 8001b9e:	1e03      	subs	r3, r0, #0
 8001ba0:	d002      	beq.n	8001ba8 <LIS2DUXS12_RegisterBusIO+0xbc>
          {
            ret = LIS2DUXS12_ERROR;
 8001ba2:	2301      	movs	r3, #1
 8001ba4:	425b      	negs	r3, r3
 8001ba6:	60fb      	str	r3, [r7, #12]
          }
          /* Enable SPI 3-Wires on the component */
          uint8_t data = 0x50;
 8001ba8:	210b      	movs	r1, #11
 8001baa:	187b      	adds	r3, r7, r1
 8001bac:	2250      	movs	r2, #80	@ 0x50
 8001bae:	701a      	strb	r2, [r3, #0]

          if (LIS2DUXS12_Write_Reg(pObj, LIS2DUXS12_CTRL1, data) != LIS2DUXS12_OK)
 8001bb0:	187b      	adds	r3, r7, r1
 8001bb2:	781a      	ldrb	r2, [r3, #0]
 8001bb4:	687b      	ldr	r3, [r7, #4]
 8001bb6:	2110      	movs	r1, #16
 8001bb8:	0018      	movs	r0, r3
 8001bba:	f000 fb76 	bl	80022aa <LIS2DUXS12_Write_Reg>
 8001bbe:	1e03      	subs	r3, r0, #0
 8001bc0:	d028      	beq.n	8001c14 <LIS2DUXS12_RegisterBusIO+0x128>
          {
            ret = LIS2DUXS12_ERROR;
 8001bc2:	2301      	movs	r3, #1
 8001bc4:	425b      	negs	r3, r3
 8001bc6:	60fb      	str	r3, [r7, #12]
 8001bc8:	e024      	b.n	8001c14 <LIS2DUXS12_RegisterBusIO+0x128>
          }
        }
      }
      else if (pObj->IO.BusType == LIS2DUXS12_SPI_4WIRES_BUS)
 8001bca:	687b      	ldr	r3, [r7, #4]
 8001bcc:	689b      	ldr	r3, [r3, #8]
 8001bce:	2b01      	cmp	r3, #1
 8001bd0:	d10e      	bne.n	8001bf0 <LIS2DUXS12_RegisterBusIO+0x104>
      {
        /* Exit from deep power down only the first time in SPI mode */
        if (pObj->is_initialized == 0U)
 8001bd2:	687b      	ldr	r3, [r7, #4]
 8001bd4:	2230      	movs	r2, #48	@ 0x30
 8001bd6:	5c9b      	ldrb	r3, [r3, r2]
 8001bd8:	2b00      	cmp	r3, #0
 8001bda:	d11b      	bne.n	8001c14 <LIS2DUXS12_RegisterBusIO+0x128>
        {
          if (LIS2DUXS12_ExitDeepPowerDownSPI(pObj) != LIS2DUXS12_OK)
 8001bdc:	687b      	ldr	r3, [r7, #4]
 8001bde:	0018      	movs	r0, r3
 8001be0:	f000 f8c2 	bl	8001d68 <LIS2DUXS12_ExitDeepPowerDownSPI>
 8001be4:	1e03      	subs	r3, r0, #0
 8001be6:	d015      	beq.n	8001c14 <LIS2DUXS12_RegisterBusIO+0x128>
          {
            ret = LIS2DUXS12_ERROR;
 8001be8:	2301      	movs	r3, #1
 8001bea:	425b      	negs	r3, r3
 8001bec:	60fb      	str	r3, [r7, #12]
 8001bee:	e011      	b.n	8001c14 <LIS2DUXS12_RegisterBusIO+0x128>
          }
        }
      }
      else if (pObj->IO.BusType == LIS2DUXS12_I2C_BUS)
 8001bf0:	687b      	ldr	r3, [r7, #4]
 8001bf2:	689b      	ldr	r3, [r3, #8]
 8001bf4:	2b00      	cmp	r3, #0
 8001bf6:	d10d      	bne.n	8001c14 <LIS2DUXS12_RegisterBusIO+0x128>
      {
        /* Exit from deep power down only the first time in I2C mode */
        if (pObj->is_initialized == 0U)
 8001bf8:	687b      	ldr	r3, [r7, #4]
 8001bfa:	2230      	movs	r2, #48	@ 0x30
 8001bfc:	5c9b      	ldrb	r3, [r3, r2]
 8001bfe:	2b00      	cmp	r3, #0
 8001c00:	d108      	bne.n	8001c14 <LIS2DUXS12_RegisterBusIO+0x128>
        {
          if (LIS2DUXS12_ExitDeepPowerDownI2C(pObj) != LIS2DUXS12_OK)
 8001c02:	687b      	ldr	r3, [r7, #4]
 8001c04:	0018      	movs	r0, r3
 8001c06:	f000 f89a 	bl	8001d3e <LIS2DUXS12_ExitDeepPowerDownI2C>
 8001c0a:	1e03      	subs	r3, r0, #0
 8001c0c:	d002      	beq.n	8001c14 <LIS2DUXS12_RegisterBusIO+0x128>
          {
            ret = LIS2DUXS12_ERROR;
 8001c0e:	2301      	movs	r3, #1
 8001c10:	425b      	negs	r3, r3
 8001c12:	60fb      	str	r3, [r7, #12]
        }
      }
    }
  }

  return ret;
 8001c14:	68fb      	ldr	r3, [r7, #12]
}
 8001c16:	0018      	movs	r0, r3
 8001c18:	46bd      	mov	sp, r7
 8001c1a:	b004      	add	sp, #16
 8001c1c:	bd80      	pop	{r7, pc}
 8001c1e:	46c0      	nop			@ (mov r8, r8)
 8001c20:	080026ad 	.word	0x080026ad
 8001c24:	080026f1 	.word	0x080026f1

08001c28 <LIS2DUXS12_Init>:
  * @brief  Initialize the LIS2DUXS12 sensor
  * @param  pObj the device pObj
  * @retval 0 in case of success, an error code otherwise
  */
int32_t LIS2DUXS12_Init(LIS2DUXS12_Object_t *pObj)
{
 8001c28:	b590      	push	{r4, r7, lr}
 8001c2a:	b087      	sub	sp, #28
 8001c2c:	af00      	add	r7, sp, #0
 8001c2e:	6078      	str	r0, [r7, #4]
  lis2duxs12_i3c_cfg_t val;

  if(pObj->IO.BusType != LIS2DUXS12_I3C_BUS)
 8001c30:	687b      	ldr	r3, [r7, #4]
 8001c32:	689b      	ldr	r3, [r3, #8]
 8001c34:	2b03      	cmp	r3, #3
 8001c36:	d01e      	beq.n	8001c76 <LIS2DUXS12_Init+0x4e>
  {
    /* Disable I3C */
    if (lis2duxs12_i3c_configure_get(&(pObj->Ctx), &val) != LIS2DUXS12_OK)
 8001c38:	687b      	ldr	r3, [r7, #4]
 8001c3a:	3320      	adds	r3, #32
 8001c3c:	2214      	movs	r2, #20
 8001c3e:	18ba      	adds	r2, r7, r2
 8001c40:	0011      	movs	r1, r2
 8001c42:	0018      	movs	r0, r3
 8001c44:	f001 f9ec 	bl	8003020 <lis2duxs12_i3c_configure_get>
 8001c48:	1e03      	subs	r3, r0, #0
 8001c4a:	d002      	beq.n	8001c52 <LIS2DUXS12_Init+0x2a>
    {
      return LIS2DUXS12_ERROR;
 8001c4c:	2301      	movs	r3, #1
 8001c4e:	425b      	negs	r3, r3
 8001c50:	e051      	b.n	8001cf6 <LIS2DUXS12_Init+0xce>
    }
    val.asf_on = PROPERTY_ENABLE;
 8001c52:	2014      	movs	r0, #20
 8001c54:	183b      	adds	r3, r7, r0
 8001c56:	785a      	ldrb	r2, [r3, #1]
 8001c58:	2101      	movs	r1, #1
 8001c5a:	430a      	orrs	r2, r1
 8001c5c:	705a      	strb	r2, [r3, #1]
    if (lis2duxs12_i3c_configure_set(&(pObj->Ctx), &val) != LIS2DUXS12_OK)
 8001c5e:	687b      	ldr	r3, [r7, #4]
 8001c60:	3320      	adds	r3, #32
 8001c62:	183a      	adds	r2, r7, r0
 8001c64:	0011      	movs	r1, r2
 8001c66:	0018      	movs	r0, r3
 8001c68:	f001 f98b 	bl	8002f82 <lis2duxs12_i3c_configure_set>
 8001c6c:	1e03      	subs	r3, r0, #0
 8001c6e:	d002      	beq.n	8001c76 <LIS2DUXS12_Init+0x4e>
    {
      return LIS2DUXS12_ERROR;
 8001c70:	2301      	movs	r3, #1
 8001c72:	425b      	negs	r3, r3
 8001c74:	e03f      	b.n	8001cf6 <LIS2DUXS12_Init+0xce>
    }
  }

  /* Enable register address automatically incremented during a multiple byte
  access with a serial interface. Enable BDU. */
  if (lis2duxs12_init_set(&(pObj->Ctx), LIS2DUXS12_SENSOR_ONLY_ON) != LIS2DUXS12_OK)
 8001c76:	687b      	ldr	r3, [r7, #4]
 8001c78:	3320      	adds	r3, #32
 8001c7a:	2100      	movs	r1, #0
 8001c7c:	0018      	movs	r0, r3
 8001c7e:	f000 fe0d 	bl	800289c <lis2duxs12_init_set>
 8001c82:	1e03      	subs	r3, r0, #0
 8001c84:	d002      	beq.n	8001c8c <LIS2DUXS12_Init+0x64>
  {
    return LIS2DUXS12_ERROR;
 8001c86:	2301      	movs	r3, #1
 8001c88:	425b      	negs	r3, r3
 8001c8a:	e034      	b.n	8001cf6 <LIS2DUXS12_Init+0xce>
  }

  /* FIFO mode selection */
  lis2duxs12_fifo_mode_t fifo_mode =
 8001c8c:	240c      	movs	r4, #12
 8001c8e:	193b      	adds	r3, r7, r4
 8001c90:	0018      	movs	r0, r3
 8001c92:	2306      	movs	r3, #6
 8001c94:	001a      	movs	r2, r3
 8001c96:	2100      	movs	r1, #0
 8001c98:	f00c fcd2 	bl	800e640 <memset>
    .operation = LIS2DUXS12_BYPASS_MODE,
    .store     = LIS2DUXS12_FIFO_1X,
    .watermark = 0,
  };

  if (lis2duxs12_fifo_mode_set(&(pObj->Ctx), fifo_mode) != LIS2DUXS12_OK)
 8001c9c:	687b      	ldr	r3, [r7, #4]
 8001c9e:	3320      	adds	r3, #32
 8001ca0:	0018      	movs	r0, r3
 8001ca2:	193b      	adds	r3, r7, r4
 8001ca4:	6819      	ldr	r1, [r3, #0]
 8001ca6:	685a      	ldr	r2, [r3, #4]
 8001ca8:	f001 fa07 	bl	80030ba <lis2duxs12_fifo_mode_set>
 8001cac:	1e03      	subs	r3, r0, #0
 8001cae:	d002      	beq.n	8001cb6 <LIS2DUXS12_Init+0x8e>
  {
    return LIS2DUXS12_ERROR;
 8001cb0:	2301      	movs	r3, #1
 8001cb2:	425b      	negs	r3, r3
 8001cb4:	e01f      	b.n	8001cf6 <LIS2DUXS12_Init+0xce>
  }

  /* Select default output data rate. */
  pObj->acc_odr = 100.0f;
 8001cb6:	687b      	ldr	r3, [r7, #4]
 8001cb8:	4a11      	ldr	r2, [pc, #68]	@ (8001d00 <LIS2DUXS12_Init+0xd8>)
 8001cba:	635a      	str	r2, [r3, #52]	@ 0x34
  /* Select default ultra low power (disabled). */
  pObj->power_mode = LIS2DUXS12_LOW_POWER;
 8001cbc:	687b      	ldr	r3, [r7, #4]
 8001cbe:	2238      	movs	r2, #56	@ 0x38
 8001cc0:	2101      	movs	r1, #1
 8001cc2:	5499      	strb	r1, [r3, r2]

  /* Output data rate: power down, full scale: 2g */
  lis2duxs12_md_t mode =
 8001cc4:	2408      	movs	r4, #8
 8001cc6:	193b      	adds	r3, r7, r4
 8001cc8:	0018      	movs	r0, r3
 8001cca:	2303      	movs	r3, #3
 8001ccc:	001a      	movs	r2, r3
 8001cce:	2100      	movs	r1, #0
 8001cd0:	f00c fcb6 	bl	800e640 <memset>
  {
    .odr = LIS2DUXS12_OFF,
    .fs  = LIS2DUXS12_2g,
  };

  if (lis2duxs12_mode_set(&(pObj->Ctx), &mode) != LIS2DUXS12_OK)
 8001cd4:	687b      	ldr	r3, [r7, #4]
 8001cd6:	3320      	adds	r3, #32
 8001cd8:	193a      	adds	r2, r7, r4
 8001cda:	0011      	movs	r1, r2
 8001cdc:	0018      	movs	r0, r3
 8001cde:	f000 fe8d 	bl	80029fc <lis2duxs12_mode_set>
 8001ce2:	1e03      	subs	r3, r0, #0
 8001ce4:	d002      	beq.n	8001cec <LIS2DUXS12_Init+0xc4>
  {
    return LIS2DUXS12_ERROR;
 8001ce6:	2301      	movs	r3, #1
 8001ce8:	425b      	negs	r3, r3
 8001cea:	e004      	b.n	8001cf6 <LIS2DUXS12_Init+0xce>
  }

  pObj->is_initialized = 1;
 8001cec:	687b      	ldr	r3, [r7, #4]
 8001cee:	2230      	movs	r2, #48	@ 0x30
 8001cf0:	2101      	movs	r1, #1
 8001cf2:	5499      	strb	r1, [r3, r2]

  return LIS2DUXS12_OK;
 8001cf4:	2300      	movs	r3, #0
}
 8001cf6:	0018      	movs	r0, r3
 8001cf8:	46bd      	mov	sp, r7
 8001cfa:	b007      	add	sp, #28
 8001cfc:	bd90      	pop	{r4, r7, pc}
 8001cfe:	46c0      	nop			@ (mov r8, r8)
 8001d00:	42c80000 	.word	0x42c80000

08001d04 <LIS2DUXS12_DeInit>:
  * @brief  Deinitialize the LIS2DUXS12 sensor
  * @param  pObj the device pObj
  * @retval 0 in case of success, an error code otherwise
  */
int32_t LIS2DUXS12_DeInit(LIS2DUXS12_Object_t *pObj)
{
 8001d04:	b580      	push	{r7, lr}
 8001d06:	b082      	sub	sp, #8
 8001d08:	af00      	add	r7, sp, #0
 8001d0a:	6078      	str	r0, [r7, #4]
  /* Disable the component */
  if (LIS2DUXS12_ACC_Disable(pObj) != LIS2DUXS12_OK)
 8001d0c:	687b      	ldr	r3, [r7, #4]
 8001d0e:	0018      	movs	r0, r3
 8001d10:	f000 f8a4 	bl	8001e5c <LIS2DUXS12_ACC_Disable>
 8001d14:	1e03      	subs	r3, r0, #0
 8001d16:	d002      	beq.n	8001d1e <LIS2DUXS12_DeInit+0x1a>
  {
    return LIS2DUXS12_ERROR;
 8001d18:	2301      	movs	r3, #1
 8001d1a:	425b      	negs	r3, r3
 8001d1c:	e00b      	b.n	8001d36 <LIS2DUXS12_DeInit+0x32>
  }

  /* Reset output data rate. */
  pObj->acc_odr = 0.0f;
 8001d1e:	687b      	ldr	r3, [r7, #4]
 8001d20:	2200      	movs	r2, #0
 8001d22:	635a      	str	r2, [r3, #52]	@ 0x34
  /* Reset ultra low power to default value (disabled). */
  pObj->power_mode = LIS2DUXS12_LOW_POWER;
 8001d24:	687b      	ldr	r3, [r7, #4]
 8001d26:	2238      	movs	r2, #56	@ 0x38
 8001d28:	2101      	movs	r1, #1
 8001d2a:	5499      	strb	r1, [r3, r2]

  pObj->is_initialized = 0;
 8001d2c:	687b      	ldr	r3, [r7, #4]
 8001d2e:	2230      	movs	r2, #48	@ 0x30
 8001d30:	2100      	movs	r1, #0
 8001d32:	5499      	strb	r1, [r3, r2]

  return LIS2DUXS12_OK;
 8001d34:	2300      	movs	r3, #0
}
 8001d36:	0018      	movs	r0, r3
 8001d38:	46bd      	mov	sp, r7
 8001d3a:	b002      	add	sp, #8
 8001d3c:	bd80      	pop	{r7, pc}

08001d3e <LIS2DUXS12_ExitDeepPowerDownI2C>:
  * @brief  Exit from deep power down in I2C
  * @param  pObj the device pObj
  * @retval 0 in case of success, an error code otherwise
  */
int32_t LIS2DUXS12_ExitDeepPowerDownI2C(LIS2DUXS12_Object_t *pObj)
{
 8001d3e:	b580      	push	{r7, lr}
 8001d40:	b084      	sub	sp, #16
 8001d42:	af00      	add	r7, sp, #0
 8001d44:	6078      	str	r0, [r7, #4]
  uint8_t val;

  /* Perform dummy read in order to exit from deep power down in I2C mode*/
  (void)lis2duxs12_device_id_get(&(pObj->Ctx), &val);
 8001d46:	687b      	ldr	r3, [r7, #4]
 8001d48:	3320      	adds	r3, #32
 8001d4a:	220f      	movs	r2, #15
 8001d4c:	18ba      	adds	r2, r7, r2
 8001d4e:	0011      	movs	r1, r2
 8001d50:	0018      	movs	r0, r3
 8001d52:	f000 fd91 	bl	8002878 <lis2duxs12_device_id_get>

  /* Wait for 25 ms based on datasheet */
  pObj->Ctx.mdelay(25);
 8001d56:	687b      	ldr	r3, [r7, #4]
 8001d58:	6a9b      	ldr	r3, [r3, #40]	@ 0x28
 8001d5a:	2019      	movs	r0, #25
 8001d5c:	4798      	blx	r3

  return LIS2DUXS12_OK;
 8001d5e:	2300      	movs	r3, #0
}
 8001d60:	0018      	movs	r0, r3
 8001d62:	46bd      	mov	sp, r7
 8001d64:	b004      	add	sp, #16
 8001d66:	bd80      	pop	{r7, pc}

08001d68 <LIS2DUXS12_ExitDeepPowerDownSPI>:
  * @brief  Exit from deep power down in SPI
  * @param  pObj the device pObj
  * @retval 0 in case of success, an error code otherwise
  */
int32_t LIS2DUXS12_ExitDeepPowerDownSPI(LIS2DUXS12_Object_t *pObj)
{
 8001d68:	b580      	push	{r7, lr}
 8001d6a:	b082      	sub	sp, #8
 8001d6c:	af00      	add	r7, sp, #0
 8001d6e:	6078      	str	r0, [r7, #4]
  /* Write IF_WAKE_UP register to exit from deep power down in SPI mode*/
  (void)lis2duxs12_exit_deep_power_down(&(pObj->Ctx));
 8001d70:	687b      	ldr	r3, [r7, #4]
 8001d72:	3320      	adds	r3, #32
 8001d74:	0018      	movs	r0, r3
 8001d76:	f001 f829 	bl	8002dcc <lis2duxs12_exit_deep_power_down>

  /* Wait for 25 ms based on datasheet */
  pObj->Ctx.mdelay(25);
 8001d7a:	687b      	ldr	r3, [r7, #4]
 8001d7c:	6a9b      	ldr	r3, [r3, #40]	@ 0x28
 8001d7e:	2019      	movs	r0, #25
 8001d80:	4798      	blx	r3

  return LIS2DUXS12_OK;
 8001d82:	2300      	movs	r3, #0
}
 8001d84:	0018      	movs	r0, r3
 8001d86:	46bd      	mov	sp, r7
 8001d88:	b002      	add	sp, #8
 8001d8a:	bd80      	pop	{r7, pc}

08001d8c <LIS2DUXS12_ReadID>:
  * @param  pObj the device pObj
  * @param  Id the WHO_AM_I value
  * @retval 0 in case of success, an error code otherwise
  */
int32_t LIS2DUXS12_ReadID(LIS2DUXS12_Object_t *pObj, uint8_t *Id)
{
 8001d8c:	b580      	push	{r7, lr}
 8001d8e:	b084      	sub	sp, #16
 8001d90:	af00      	add	r7, sp, #0
 8001d92:	6078      	str	r0, [r7, #4]
 8001d94:	6039      	str	r1, [r7, #0]
  uint8_t val;

  if (lis2duxs12_device_id_get(&(pObj->Ctx), &val) != LIS2DUXS12_OK)
 8001d96:	687b      	ldr	r3, [r7, #4]
 8001d98:	3320      	adds	r3, #32
 8001d9a:	220f      	movs	r2, #15
 8001d9c:	18ba      	adds	r2, r7, r2
 8001d9e:	0011      	movs	r1, r2
 8001da0:	0018      	movs	r0, r3
 8001da2:	f000 fd69 	bl	8002878 <lis2duxs12_device_id_get>
 8001da6:	1e03      	subs	r3, r0, #0
 8001da8:	d002      	beq.n	8001db0 <LIS2DUXS12_ReadID+0x24>
  {
    return LIS2DUXS12_ERROR;
 8001daa:	2301      	movs	r3, #1
 8001dac:	425b      	negs	r3, r3
 8001dae:	e005      	b.n	8001dbc <LIS2DUXS12_ReadID+0x30>
  }

  *Id = val;
 8001db0:	230f      	movs	r3, #15
 8001db2:	18fb      	adds	r3, r7, r3
 8001db4:	781a      	ldrb	r2, [r3, #0]
 8001db6:	683b      	ldr	r3, [r7, #0]
 8001db8:	701a      	strb	r2, [r3, #0]

  return LIS2DUXS12_OK;
 8001dba:	2300      	movs	r3, #0
}
 8001dbc:	0018      	movs	r0, r3
 8001dbe:	46bd      	mov	sp, r7
 8001dc0:	b004      	add	sp, #16
 8001dc2:	bd80      	pop	{r7, pc}

08001dc4 <LIS2DUXS12_GetCapabilities>:
  * @param  pObj Component object pointer
  * @param  Capabilities pointer to LIS2DUXS12 sensor capabilities
  * @retval 0 in case of success, an error code otherwise
  */
int32_t LIS2DUXS12_GetCapabilities(LIS2DUXS12_Object_t *pObj, LIS2DUXS12_Capabilities_t *Capabilities)
{
 8001dc4:	b580      	push	{r7, lr}
 8001dc6:	b082      	sub	sp, #8
 8001dc8:	af00      	add	r7, sp, #0
 8001dca:	6078      	str	r0, [r7, #4]
 8001dcc:	6039      	str	r1, [r7, #0]
  /* Prevent unused argument(s) compilation warning */
  (void)(pObj);

  Capabilities->Acc        = 1;
 8001dce:	683b      	ldr	r3, [r7, #0]
 8001dd0:	2201      	movs	r2, #1
 8001dd2:	701a      	strb	r2, [r3, #0]
  Capabilities->Gyro       = 0;
 8001dd4:	683b      	ldr	r3, [r7, #0]
 8001dd6:	2200      	movs	r2, #0
 8001dd8:	705a      	strb	r2, [r3, #1]
  Capabilities->Magneto    = 0;
 8001dda:	683b      	ldr	r3, [r7, #0]
 8001ddc:	2200      	movs	r2, #0
 8001dde:	709a      	strb	r2, [r3, #2]
  Capabilities->LowPower   = 1;
 8001de0:	683b      	ldr	r3, [r7, #0]
 8001de2:	2201      	movs	r2, #1
 8001de4:	70da      	strb	r2, [r3, #3]
  Capabilities->GyroMaxFS  = 0;
 8001de6:	683b      	ldr	r3, [r7, #0]
 8001de8:	2200      	movs	r2, #0
 8001dea:	605a      	str	r2, [r3, #4]
  Capabilities->AccMaxFS   = 16;
 8001dec:	683b      	ldr	r3, [r7, #0]
 8001dee:	2210      	movs	r2, #16
 8001df0:	609a      	str	r2, [r3, #8]
  Capabilities->MagMaxFS   = 0;
 8001df2:	683b      	ldr	r3, [r7, #0]
 8001df4:	2200      	movs	r2, #0
 8001df6:	60da      	str	r2, [r3, #12]
  Capabilities->GyroMaxOdr = 0.0f;
 8001df8:	683b      	ldr	r3, [r7, #0]
 8001dfa:	2200      	movs	r2, #0
 8001dfc:	611a      	str	r2, [r3, #16]
  Capabilities->AccMaxOdr  = 800.0f;
 8001dfe:	683b      	ldr	r3, [r7, #0]
 8001e00:	4a04      	ldr	r2, [pc, #16]	@ (8001e14 <LIS2DUXS12_GetCapabilities+0x50>)
 8001e02:	615a      	str	r2, [r3, #20]
  Capabilities->MagMaxOdr  = 0.0f;
 8001e04:	683b      	ldr	r3, [r7, #0]
 8001e06:	2200      	movs	r2, #0
 8001e08:	619a      	str	r2, [r3, #24]
  return LIS2DUXS12_OK;
 8001e0a:	2300      	movs	r3, #0
}
 8001e0c:	0018      	movs	r0, r3
 8001e0e:	46bd      	mov	sp, r7
 8001e10:	b002      	add	sp, #8
 8001e12:	bd80      	pop	{r7, pc}
 8001e14:	44480000 	.word	0x44480000

08001e18 <LIS2DUXS12_ACC_Enable>:
  * @brief  Enable the LIS2DUXS12 accelerometer sensor
  * @param  pObj the device pObj
  * @retval 0 in case of success, an error code otherwise
  */
int32_t LIS2DUXS12_ACC_Enable(LIS2DUXS12_Object_t *pObj)
{
 8001e18:	b580      	push	{r7, lr}
 8001e1a:	b082      	sub	sp, #8
 8001e1c:	af00      	add	r7, sp, #0
 8001e1e:	6078      	str	r0, [r7, #4]
  /* Check if the component is already enabled */
  if (pObj->acc_is_enabled == 1U)
 8001e20:	687b      	ldr	r3, [r7, #4]
 8001e22:	2231      	movs	r2, #49	@ 0x31
 8001e24:	5c9b      	ldrb	r3, [r3, r2]
 8001e26:	2b01      	cmp	r3, #1
 8001e28:	d101      	bne.n	8001e2e <LIS2DUXS12_ACC_Enable+0x16>
  {
    return LIS2DUXS12_OK;
 8001e2a:	2300      	movs	r3, #0
 8001e2c:	e012      	b.n	8001e54 <LIS2DUXS12_ACC_Enable+0x3c>
  }

  /* Output data rate selection. */
  if (LIS2DUXS12_ACC_SetOutputDataRate_When_Enabled(pObj, pObj->acc_odr, pObj->power_mode) != LIS2DUXS12_OK)
 8001e2e:	687b      	ldr	r3, [r7, #4]
 8001e30:	6b59      	ldr	r1, [r3, #52]	@ 0x34
 8001e32:	687b      	ldr	r3, [r7, #4]
 8001e34:	2238      	movs	r2, #56	@ 0x38
 8001e36:	5c9a      	ldrb	r2, [r3, r2]
 8001e38:	687b      	ldr	r3, [r7, #4]
 8001e3a:	0018      	movs	r0, r3
 8001e3c:	f000 fa54 	bl	80022e8 <LIS2DUXS12_ACC_SetOutputDataRate_When_Enabled>
 8001e40:	1e03      	subs	r3, r0, #0
 8001e42:	d002      	beq.n	8001e4a <LIS2DUXS12_ACC_Enable+0x32>
  {
    return LIS2DUXS12_ERROR;
 8001e44:	2301      	movs	r3, #1
 8001e46:	425b      	negs	r3, r3
 8001e48:	e004      	b.n	8001e54 <LIS2DUXS12_ACC_Enable+0x3c>
  }

  pObj->acc_is_enabled = 1;
 8001e4a:	687b      	ldr	r3, [r7, #4]
 8001e4c:	2231      	movs	r2, #49	@ 0x31
 8001e4e:	2101      	movs	r1, #1
 8001e50:	5499      	strb	r1, [r3, r2]

  return LIS2DUXS12_OK;
 8001e52:	2300      	movs	r3, #0
}
 8001e54:	0018      	movs	r0, r3
 8001e56:	46bd      	mov	sp, r7
 8001e58:	b002      	add	sp, #8
 8001e5a:	bd80      	pop	{r7, pc}

08001e5c <LIS2DUXS12_ACC_Disable>:
  * @brief  Disable the LIS2DUXS12 accelerometer sensor
  * @param  pObj the device pObj
  * @retval 0 in case of success, an error code otherwise
  */
int32_t LIS2DUXS12_ACC_Disable(LIS2DUXS12_Object_t *pObj)
{
 8001e5c:	b580      	push	{r7, lr}
 8001e5e:	b084      	sub	sp, #16
 8001e60:	af00      	add	r7, sp, #0
 8001e62:	6078      	str	r0, [r7, #4]
  float_t Odr;
  /* Check if the component is already disabled */
  if (pObj->acc_is_enabled == 0U)
 8001e64:	687b      	ldr	r3, [r7, #4]
 8001e66:	2231      	movs	r2, #49	@ 0x31
 8001e68:	5c9b      	ldrb	r3, [r3, r2]
 8001e6a:	2b00      	cmp	r3, #0
 8001e6c:	d101      	bne.n	8001e72 <LIS2DUXS12_ACC_Disable+0x16>
  {
    return LIS2DUXS12_OK;
 8001e6e:	2300      	movs	r3, #0
 8001e70:	e043      	b.n	8001efa <LIS2DUXS12_ACC_Disable+0x9e>
  }

  if (LIS2DUXS12_ACC_GetOutputDataRate(pObj, &Odr) != LIS2DUXS12_OK)
 8001e72:	230c      	movs	r3, #12
 8001e74:	18fa      	adds	r2, r7, r3
 8001e76:	687b      	ldr	r3, [r7, #4]
 8001e78:	0011      	movs	r1, r2
 8001e7a:	0018      	movs	r0, r3
 8001e7c:	f000 f88e 	bl	8001f9c <LIS2DUXS12_ACC_GetOutputDataRate>
 8001e80:	1e03      	subs	r3, r0, #0
 8001e82:	d002      	beq.n	8001e8a <LIS2DUXS12_ACC_Disable+0x2e>
  {
    return LIS2DUXS12_ERROR;
 8001e84:	2301      	movs	r3, #1
 8001e86:	425b      	negs	r3, r3
 8001e88:	e037      	b.n	8001efa <LIS2DUXS12_ACC_Disable+0x9e>
  }

  if (Odr == 800.0f)
 8001e8a:	68fb      	ldr	r3, [r7, #12]
 8001e8c:	491d      	ldr	r1, [pc, #116]	@ (8001f04 <LIS2DUXS12_ACC_Disable+0xa8>)
 8001e8e:	1c18      	adds	r0, r3, #0
 8001e90:	f7fe fac4 	bl	800041c <__aeabi_fcmpeq>
 8001e94:	1e03      	subs	r3, r0, #0
 8001e96:	d00e      	beq.n	8001eb6 <LIS2DUXS12_ACC_Disable+0x5a>
  {
    if (LIS2DUXS12_ACC_SetOutputDataRate(pObj, 400.0f) != LIS2DUXS12_OK)
 8001e98:	4a1b      	ldr	r2, [pc, #108]	@ (8001f08 <LIS2DUXS12_ACC_Disable+0xac>)
 8001e9a:	687b      	ldr	r3, [r7, #4]
 8001e9c:	1c11      	adds	r1, r2, #0
 8001e9e:	0018      	movs	r0, r3
 8001ea0:	f000 f8ea 	bl	8002078 <LIS2DUXS12_ACC_SetOutputDataRate>
 8001ea4:	1e03      	subs	r3, r0, #0
 8001ea6:	d002      	beq.n	8001eae <LIS2DUXS12_ACC_Disable+0x52>
    {
      return LIS2DUXS12_ERROR;
 8001ea8:	2301      	movs	r3, #1
 8001eaa:	425b      	negs	r3, r3
 8001eac:	e025      	b.n	8001efa <LIS2DUXS12_ACC_Disable+0x9e>
    }

    /* Wait for 3 ms based on datasheet */
    pObj->Ctx.mdelay(3);
 8001eae:	687b      	ldr	r3, [r7, #4]
 8001eb0:	6a9b      	ldr	r3, [r3, #40]	@ 0x28
 8001eb2:	2003      	movs	r0, #3
 8001eb4:	4798      	blx	r3
  }

  /* Output data rate selection - power down. */
  lis2duxs12_md_t mode;

  if (lis2duxs12_mode_get(&(pObj->Ctx), &mode) != LIS2DUXS12_OK)
 8001eb6:	687b      	ldr	r3, [r7, #4]
 8001eb8:	3320      	adds	r3, #32
 8001eba:	2208      	movs	r2, #8
 8001ebc:	18ba      	adds	r2, r7, r2
 8001ebe:	0011      	movs	r1, r2
 8001ec0:	0018      	movs	r0, r3
 8001ec2:	f000 fe91 	bl	8002be8 <lis2duxs12_mode_get>
 8001ec6:	1e03      	subs	r3, r0, #0
 8001ec8:	d002      	beq.n	8001ed0 <LIS2DUXS12_ACC_Disable+0x74>
  {
    return LIS2DUXS12_ERROR;
 8001eca:	2301      	movs	r3, #1
 8001ecc:	425b      	negs	r3, r3
 8001ece:	e014      	b.n	8001efa <LIS2DUXS12_ACC_Disable+0x9e>
  }

  mode.odr = LIS2DUXS12_OFF;
 8001ed0:	2108      	movs	r1, #8
 8001ed2:	187b      	adds	r3, r7, r1
 8001ed4:	2200      	movs	r2, #0
 8001ed6:	701a      	strb	r2, [r3, #0]

  if (lis2duxs12_mode_set(&(pObj->Ctx), &mode) != LIS2DUXS12_OK)
 8001ed8:	687b      	ldr	r3, [r7, #4]
 8001eda:	3320      	adds	r3, #32
 8001edc:	187a      	adds	r2, r7, r1
 8001ede:	0011      	movs	r1, r2
 8001ee0:	0018      	movs	r0, r3
 8001ee2:	f000 fd8b 	bl	80029fc <lis2duxs12_mode_set>
 8001ee6:	1e03      	subs	r3, r0, #0
 8001ee8:	d002      	beq.n	8001ef0 <LIS2DUXS12_ACC_Disable+0x94>
  {
    return LIS2DUXS12_ERROR;
 8001eea:	2301      	movs	r3, #1
 8001eec:	425b      	negs	r3, r3
 8001eee:	e004      	b.n	8001efa <LIS2DUXS12_ACC_Disable+0x9e>
  }

  pObj->acc_is_enabled = 0;
 8001ef0:	687b      	ldr	r3, [r7, #4]
 8001ef2:	2231      	movs	r2, #49	@ 0x31
 8001ef4:	2100      	movs	r1, #0
 8001ef6:	5499      	strb	r1, [r3, r2]

  return LIS2DUXS12_OK;
 8001ef8:	2300      	movs	r3, #0
}
 8001efa:	0018      	movs	r0, r3
 8001efc:	46bd      	mov	sp, r7
 8001efe:	b004      	add	sp, #16
 8001f00:	bd80      	pop	{r7, pc}
 8001f02:	46c0      	nop			@ (mov r8, r8)
 8001f04:	44480000 	.word	0x44480000
 8001f08:	43c80000 	.word	0x43c80000

08001f0c <LIS2DUXS12_ACC_GetSensitivity>:
  * @param  pObj the device pObj
  * @param  Sensitivity pointer
  * @retval 0 in case of success, an error code otherwise
  */
int32_t LIS2DUXS12_ACC_GetSensitivity(LIS2DUXS12_Object_t *pObj, float_t *Sensitivity)
{
 8001f0c:	b580      	push	{r7, lr}
 8001f0e:	b084      	sub	sp, #16
 8001f10:	af00      	add	r7, sp, #0
 8001f12:	6078      	str	r0, [r7, #4]
 8001f14:	6039      	str	r1, [r7, #0]
  int32_t ret = LIS2DUXS12_OK;
 8001f16:	2300      	movs	r3, #0
 8001f18:	60fb      	str	r3, [r7, #12]
  lis2duxs12_md_t mode;

  if (lis2duxs12_mode_get(&(pObj->Ctx), &mode) != LIS2DUXS12_OK)
 8001f1a:	687b      	ldr	r3, [r7, #4]
 8001f1c:	3320      	adds	r3, #32
 8001f1e:	2208      	movs	r2, #8
 8001f20:	18ba      	adds	r2, r7, r2
 8001f22:	0011      	movs	r1, r2
 8001f24:	0018      	movs	r0, r3
 8001f26:	f000 fe5f 	bl	8002be8 <lis2duxs12_mode_get>
 8001f2a:	1e03      	subs	r3, r0, #0
 8001f2c:	d002      	beq.n	8001f34 <LIS2DUXS12_ACC_GetSensitivity+0x28>
  {
    return LIS2DUXS12_ERROR;
 8001f2e:	2301      	movs	r3, #1
 8001f30:	425b      	negs	r3, r3
 8001f32:	e025      	b.n	8001f80 <LIS2DUXS12_ACC_GetSensitivity+0x74>
  }

  switch (mode.fs)
 8001f34:	2308      	movs	r3, #8
 8001f36:	18fb      	adds	r3, r7, r3
 8001f38:	785b      	ldrb	r3, [r3, #1]
 8001f3a:	2b03      	cmp	r3, #3
 8001f3c:	d014      	beq.n	8001f68 <LIS2DUXS12_ACC_GetSensitivity+0x5c>
 8001f3e:	dc17      	bgt.n	8001f70 <LIS2DUXS12_ACC_GetSensitivity+0x64>
 8001f40:	2b02      	cmp	r3, #2
 8001f42:	d00d      	beq.n	8001f60 <LIS2DUXS12_ACC_GetSensitivity+0x54>
 8001f44:	dc14      	bgt.n	8001f70 <LIS2DUXS12_ACC_GetSensitivity+0x64>
 8001f46:	2b00      	cmp	r3, #0
 8001f48:	d002      	beq.n	8001f50 <LIS2DUXS12_ACC_GetSensitivity+0x44>
 8001f4a:	2b01      	cmp	r3, #1
 8001f4c:	d004      	beq.n	8001f58 <LIS2DUXS12_ACC_GetSensitivity+0x4c>
 8001f4e:	e00f      	b.n	8001f70 <LIS2DUXS12_ACC_GetSensitivity+0x64>
  {
    case LIS2DUXS12_2g:
      *Sensitivity = LIS2DUXS12_ACC_SENSITIVITY_FOR_FS_2G;
 8001f50:	683b      	ldr	r3, [r7, #0]
 8001f52:	4a0d      	ldr	r2, [pc, #52]	@ (8001f88 <LIS2DUXS12_ACC_GetSensitivity+0x7c>)
 8001f54:	601a      	str	r2, [r3, #0]
      break;
 8001f56:	e012      	b.n	8001f7e <LIS2DUXS12_ACC_GetSensitivity+0x72>

    case LIS2DUXS12_4g:
      *Sensitivity = LIS2DUXS12_ACC_SENSITIVITY_FOR_FS_4G;
 8001f58:	683b      	ldr	r3, [r7, #0]
 8001f5a:	4a0c      	ldr	r2, [pc, #48]	@ (8001f8c <LIS2DUXS12_ACC_GetSensitivity+0x80>)
 8001f5c:	601a      	str	r2, [r3, #0]
      break;
 8001f5e:	e00e      	b.n	8001f7e <LIS2DUXS12_ACC_GetSensitivity+0x72>

    case LIS2DUXS12_8g:
      *Sensitivity = LIS2DUXS12_ACC_SENSITIVITY_FOR_FS_8G;
 8001f60:	683b      	ldr	r3, [r7, #0]
 8001f62:	4a0b      	ldr	r2, [pc, #44]	@ (8001f90 <LIS2DUXS12_ACC_GetSensitivity+0x84>)
 8001f64:	601a      	str	r2, [r3, #0]
      break;
 8001f66:	e00a      	b.n	8001f7e <LIS2DUXS12_ACC_GetSensitivity+0x72>

    case LIS2DUXS12_16g:
      *Sensitivity = LIS2DUXS12_ACC_SENSITIVITY_FOR_FS_16G;
 8001f68:	683b      	ldr	r3, [r7, #0]
 8001f6a:	4a0a      	ldr	r2, [pc, #40]	@ (8001f94 <LIS2DUXS12_ACC_GetSensitivity+0x88>)
 8001f6c:	601a      	str	r2, [r3, #0]
      break;
 8001f6e:	e006      	b.n	8001f7e <LIS2DUXS12_ACC_GetSensitivity+0x72>

    default:
      *Sensitivity = -1.0f;
 8001f70:	683b      	ldr	r3, [r7, #0]
 8001f72:	4a09      	ldr	r2, [pc, #36]	@ (8001f98 <LIS2DUXS12_ACC_GetSensitivity+0x8c>)
 8001f74:	601a      	str	r2, [r3, #0]
      ret = LIS2DUXS12_ERROR;
 8001f76:	2301      	movs	r3, #1
 8001f78:	425b      	negs	r3, r3
 8001f7a:	60fb      	str	r3, [r7, #12]
      break;
 8001f7c:	46c0      	nop			@ (mov r8, r8)
  }

  return ret;
 8001f7e:	68fb      	ldr	r3, [r7, #12]
}
 8001f80:	0018      	movs	r0, r3
 8001f82:	46bd      	mov	sp, r7
 8001f84:	b004      	add	sp, #16
 8001f86:	bd80      	pop	{r7, pc}
 8001f88:	3d79db23 	.word	0x3d79db23
 8001f8c:	3df9db23 	.word	0x3df9db23
 8001f90:	3e79db23 	.word	0x3e79db23
 8001f94:	3ef9db23 	.word	0x3ef9db23
 8001f98:	bf800000 	.word	0xbf800000

08001f9c <LIS2DUXS12_ACC_GetOutputDataRate>:
  * @param  pObj the device pObj
  * @param  Odr pointer where the output data rate is written
  * @retval 0 in case of success, an error code otherwise
  */
int32_t LIS2DUXS12_ACC_GetOutputDataRate(LIS2DUXS12_Object_t *pObj, float_t *Odr)
{
 8001f9c:	b580      	push	{r7, lr}
 8001f9e:	b084      	sub	sp, #16
 8001fa0:	af00      	add	r7, sp, #0
 8001fa2:	6078      	str	r0, [r7, #4]
 8001fa4:	6039      	str	r1, [r7, #0]
  int32_t ret = LIS2DUXS12_OK;
 8001fa6:	2300      	movs	r3, #0
 8001fa8:	60fb      	str	r3, [r7, #12]
  lis2duxs12_md_t mode;

  /* Read actual output data rate from sensor. */
  if (lis2duxs12_mode_get(&(pObj->Ctx), &mode) != LIS2DUXS12_OK)
 8001faa:	687b      	ldr	r3, [r7, #4]
 8001fac:	3320      	adds	r3, #32
 8001fae:	2208      	movs	r2, #8
 8001fb0:	18ba      	adds	r2, r7, r2
 8001fb2:	0011      	movs	r1, r2
 8001fb4:	0018      	movs	r0, r3
 8001fb6:	f000 fe17 	bl	8002be8 <lis2duxs12_mode_get>
 8001fba:	1e03      	subs	r3, r0, #0
 8001fbc:	d002      	beq.n	8001fc4 <LIS2DUXS12_ACC_GetOutputDataRate+0x28>
  {
    return LIS2DUXS12_ERROR;
 8001fbe:	2301      	movs	r3, #1
 8001fc0:	425b      	negs	r3, r3
 8001fc2:	e03d      	b.n	8002040 <LIS2DUXS12_ACC_GetOutputDataRate+0xa4>
  }

  switch (mode.odr)
 8001fc4:	2308      	movs	r3, #8
 8001fc6:	18fb      	adds	r3, r7, r3
 8001fc8:	781b      	ldrb	r3, [r3, #0]
 8001fca:	2b2f      	cmp	r3, #47	@ 0x2f
 8001fcc:	d830      	bhi.n	8002030 <LIS2DUXS12_ACC_GetOutputDataRate+0x94>
 8001fce:	009a      	lsls	r2, r3, #2
 8001fd0:	4b1d      	ldr	r3, [pc, #116]	@ (8002048 <LIS2DUXS12_ACC_GetOutputDataRate+0xac>)
 8001fd2:	18d3      	adds	r3, r2, r3
 8001fd4:	681b      	ldr	r3, [r3, #0]
 8001fd6:	469f      	mov	pc, r3
  {
    case LIS2DUXS12_OFF:
    case LIS2DUXS12_TRIG_PIN:
    case LIS2DUXS12_TRIG_SW:
      *Odr = 0.0f;
 8001fd8:	683b      	ldr	r3, [r7, #0]
 8001fda:	2200      	movs	r2, #0
 8001fdc:	601a      	str	r2, [r3, #0]
      break;
 8001fde:	e02e      	b.n	800203e <LIS2DUXS12_ACC_GetOutputDataRate+0xa2>

    case LIS2DUXS12_1Hz6_ULP:
      *Odr = 1.6f;
 8001fe0:	683b      	ldr	r3, [r7, #0]
 8001fe2:	4a1a      	ldr	r2, [pc, #104]	@ (800204c <LIS2DUXS12_ACC_GetOutputDataRate+0xb0>)
 8001fe4:	601a      	str	r2, [r3, #0]
      break;
 8001fe6:	e02a      	b.n	800203e <LIS2DUXS12_ACC_GetOutputDataRate+0xa2>

    case LIS2DUXS12_3Hz_ULP:
      *Odr = 3.0f;
 8001fe8:	683b      	ldr	r3, [r7, #0]
 8001fea:	4a19      	ldr	r2, [pc, #100]	@ (8002050 <LIS2DUXS12_ACC_GetOutputDataRate+0xb4>)
 8001fec:	601a      	str	r2, [r3, #0]
      break;
 8001fee:	e026      	b.n	800203e <LIS2DUXS12_ACC_GetOutputDataRate+0xa2>

    case LIS2DUXS12_6Hz_LP:
    case LIS2DUXS12_6Hz_HP:
      *Odr = 6.0f;
 8001ff0:	683b      	ldr	r3, [r7, #0]
 8001ff2:	4a18      	ldr	r2, [pc, #96]	@ (8002054 <LIS2DUXS12_ACC_GetOutputDataRate+0xb8>)
 8001ff4:	601a      	str	r2, [r3, #0]
      break;
 8001ff6:	e022      	b.n	800203e <LIS2DUXS12_ACC_GetOutputDataRate+0xa2>

    case LIS2DUXS12_12Hz5_LP:
    case LIS2DUXS12_12Hz5_HP:
      *Odr = 12.5f;
 8001ff8:	683b      	ldr	r3, [r7, #0]
 8001ffa:	4a17      	ldr	r2, [pc, #92]	@ (8002058 <LIS2DUXS12_ACC_GetOutputDataRate+0xbc>)
 8001ffc:	601a      	str	r2, [r3, #0]
      break;
 8001ffe:	e01e      	b.n	800203e <LIS2DUXS12_ACC_GetOutputDataRate+0xa2>

    case LIS2DUXS12_25Hz_ULP:
    case LIS2DUXS12_25Hz_LP:
    case LIS2DUXS12_25Hz_HP:
      *Odr = 25.0f;
 8002000:	683b      	ldr	r3, [r7, #0]
 8002002:	4a16      	ldr	r2, [pc, #88]	@ (800205c <LIS2DUXS12_ACC_GetOutputDataRate+0xc0>)
 8002004:	601a      	str	r2, [r3, #0]
      break;
 8002006:	e01a      	b.n	800203e <LIS2DUXS12_ACC_GetOutputDataRate+0xa2>

    case LIS2DUXS12_50Hz_LP:
    case LIS2DUXS12_50Hz_HP:
      *Odr = 50.0f;
 8002008:	683b      	ldr	r3, [r7, #0]
 800200a:	4a15      	ldr	r2, [pc, #84]	@ (8002060 <LIS2DUXS12_ACC_GetOutputDataRate+0xc4>)
 800200c:	601a      	str	r2, [r3, #0]
      break;
 800200e:	e016      	b.n	800203e <LIS2DUXS12_ACC_GetOutputDataRate+0xa2>

    case LIS2DUXS12_100Hz_LP:
    case LIS2DUXS12_100Hz_HP:
      *Odr = 100.0f;
 8002010:	683b      	ldr	r3, [r7, #0]
 8002012:	4a14      	ldr	r2, [pc, #80]	@ (8002064 <LIS2DUXS12_ACC_GetOutputDataRate+0xc8>)
 8002014:	601a      	str	r2, [r3, #0]
      break;
 8002016:	e012      	b.n	800203e <LIS2DUXS12_ACC_GetOutputDataRate+0xa2>

    case LIS2DUXS12_200Hz_LP:
    case LIS2DUXS12_200Hz_HP:
      *Odr = 200.0f;
 8002018:	683b      	ldr	r3, [r7, #0]
 800201a:	4a13      	ldr	r2, [pc, #76]	@ (8002068 <LIS2DUXS12_ACC_GetOutputDataRate+0xcc>)
 800201c:	601a      	str	r2, [r3, #0]
      break;
 800201e:	e00e      	b.n	800203e <LIS2DUXS12_ACC_GetOutputDataRate+0xa2>

    case LIS2DUXS12_400Hz_LP:
    case LIS2DUXS12_400Hz_HP:
      *Odr = 400.0f;
 8002020:	683b      	ldr	r3, [r7, #0]
 8002022:	4a12      	ldr	r2, [pc, #72]	@ (800206c <LIS2DUXS12_ACC_GetOutputDataRate+0xd0>)
 8002024:	601a      	str	r2, [r3, #0]
      break;
 8002026:	e00a      	b.n	800203e <LIS2DUXS12_ACC_GetOutputDataRate+0xa2>

    case LIS2DUXS12_800Hz_LP:
    case LIS2DUXS12_800Hz_HP:
      *Odr = 800.0f;
 8002028:	683b      	ldr	r3, [r7, #0]
 800202a:	4a11      	ldr	r2, [pc, #68]	@ (8002070 <LIS2DUXS12_ACC_GetOutputDataRate+0xd4>)
 800202c:	601a      	str	r2, [r3, #0]
      break;
 800202e:	e006      	b.n	800203e <LIS2DUXS12_ACC_GetOutputDataRate+0xa2>

    default:
      *Odr = -1.0f;
 8002030:	683b      	ldr	r3, [r7, #0]
 8002032:	4a10      	ldr	r2, [pc, #64]	@ (8002074 <LIS2DUXS12_ACC_GetOutputDataRate+0xd8>)
 8002034:	601a      	str	r2, [r3, #0]
      ret = LIS2DUXS12_ERROR;
 8002036:	2301      	movs	r3, #1
 8002038:	425b      	negs	r3, r3
 800203a:	60fb      	str	r3, [r7, #12]
      break;
 800203c:	46c0      	nop			@ (mov r8, r8)
  }

  return ret;
 800203e:	68fb      	ldr	r3, [r7, #12]
}
 8002040:	0018      	movs	r0, r3
 8002042:	46bd      	mov	sp, r7
 8002044:	b004      	add	sp, #16
 8002046:	bd80      	pop	{r7, pc}
 8002048:	0800f3d4 	.word	0x0800f3d4
 800204c:	3fcccccd 	.word	0x3fcccccd
 8002050:	40400000 	.word	0x40400000
 8002054:	40c00000 	.word	0x40c00000
 8002058:	41480000 	.word	0x41480000
 800205c:	41c80000 	.word	0x41c80000
 8002060:	42480000 	.word	0x42480000
 8002064:	42c80000 	.word	0x42c80000
 8002068:	43480000 	.word	0x43480000
 800206c:	43c80000 	.word	0x43c80000
 8002070:	44480000 	.word	0x44480000
 8002074:	bf800000 	.word	0xbf800000

08002078 <LIS2DUXS12_ACC_SetOutputDataRate>:
  * @param  pObj the device pObj
  * @param  Odr the output data rate value to be set
  * @retval 0 in case of success, an error code otherwise
  */
int32_t LIS2DUXS12_ACC_SetOutputDataRate(LIS2DUXS12_Object_t *pObj, float_t Odr)
{
 8002078:	b580      	push	{r7, lr}
 800207a:	b082      	sub	sp, #8
 800207c:	af00      	add	r7, sp, #0
 800207e:	6078      	str	r0, [r7, #4]
 8002080:	6039      	str	r1, [r7, #0]
  /* By default we use Ultra Low Power disabled */
  return LIS2DUXS12_ACC_SetOutputDataRate_With_Mode(pObj, Odr, LIS2DUXS12_LOW_POWER);
 8002082:	6839      	ldr	r1, [r7, #0]
 8002084:	687b      	ldr	r3, [r7, #4]
 8002086:	2201      	movs	r2, #1
 8002088:	0018      	movs	r0, r3
 800208a:	f000 f805 	bl	8002098 <LIS2DUXS12_ACC_SetOutputDataRate_With_Mode>
 800208e:	0003      	movs	r3, r0
}
 8002090:	0018      	movs	r0, r3
 8002092:	46bd      	mov	sp, r7
 8002094:	b002      	add	sp, #8
 8002096:	bd80      	pop	{r7, pc}

08002098 <LIS2DUXS12_ACC_SetOutputDataRate_With_Mode>:
  * @param  Odr the output data rate value to be set
  * @param  Power the ultra low power option
  * @retval 0 in case of success, an error code otherwise
  */
int32_t LIS2DUXS12_ACC_SetOutputDataRate_With_Mode(LIS2DUXS12_Object_t *pObj, float_t Odr, LIS2DUXS12_Power_Mode_t Power)
{
 8002098:	b580      	push	{r7, lr}
 800209a:	b084      	sub	sp, #16
 800209c:	af00      	add	r7, sp, #0
 800209e:	60f8      	str	r0, [r7, #12]
 80020a0:	60b9      	str	r1, [r7, #8]
 80020a2:	1dfb      	adds	r3, r7, #7
 80020a4:	701a      	strb	r2, [r3, #0]
  /* Check if the component is enabled */
  if (pObj->acc_is_enabled == 1U)
 80020a6:	68fb      	ldr	r3, [r7, #12]
 80020a8:	2231      	movs	r2, #49	@ 0x31
 80020aa:	5c9b      	ldrb	r3, [r3, r2]
 80020ac:	2b01      	cmp	r3, #1
 80020ae:	d108      	bne.n	80020c2 <LIS2DUXS12_ACC_SetOutputDataRate_With_Mode+0x2a>
  {
    return LIS2DUXS12_ACC_SetOutputDataRate_When_Enabled(pObj, Odr, Power);
 80020b0:	1dfb      	adds	r3, r7, #7
 80020b2:	781a      	ldrb	r2, [r3, #0]
 80020b4:	68b9      	ldr	r1, [r7, #8]
 80020b6:	68fb      	ldr	r3, [r7, #12]
 80020b8:	0018      	movs	r0, r3
 80020ba:	f000 f915 	bl	80022e8 <LIS2DUXS12_ACC_SetOutputDataRate_When_Enabled>
 80020be:	0003      	movs	r3, r0
 80020c0:	e007      	b.n	80020d2 <LIS2DUXS12_ACC_SetOutputDataRate_With_Mode+0x3a>
  }
  else
  {
    return LIS2DUXS12_ACC_SetOutputDataRate_When_Disabled(pObj, Odr, Power);
 80020c2:	1dfb      	adds	r3, r7, #7
 80020c4:	781a      	ldrb	r2, [r3, #0]
 80020c6:	68b9      	ldr	r1, [r7, #8]
 80020c8:	68fb      	ldr	r3, [r7, #12]
 80020ca:	0018      	movs	r0, r3
 80020cc:	f000 fa6e 	bl	80025ac <LIS2DUXS12_ACC_SetOutputDataRate_When_Disabled>
 80020d0:	0003      	movs	r3, r0
  }
}
 80020d2:	0018      	movs	r0, r3
 80020d4:	46bd      	mov	sp, r7
 80020d6:	b004      	add	sp, #16
 80020d8:	bd80      	pop	{r7, pc}

080020da <LIS2DUXS12_ACC_GetFullScale>:
  * @param  pObj the device pObj
  * @param  FullScale pointer where the full scale is written
  * @retval 0 in case of success, an error code otherwise
  */
int32_t LIS2DUXS12_ACC_GetFullScale(LIS2DUXS12_Object_t *pObj, int32_t *FullScale)
{
 80020da:	b580      	push	{r7, lr}
 80020dc:	b084      	sub	sp, #16
 80020de:	af00      	add	r7, sp, #0
 80020e0:	6078      	str	r0, [r7, #4]
 80020e2:	6039      	str	r1, [r7, #0]
  int32_t ret = LIS2DUXS12_OK;
 80020e4:	2300      	movs	r3, #0
 80020e6:	60fb      	str	r3, [r7, #12]
  lis2duxs12_md_t mode;

  /* Read actual full scale selection from sensor. */
  if (lis2duxs12_mode_get(&(pObj->Ctx), &mode) != LIS2DUXS12_OK)
 80020e8:	687b      	ldr	r3, [r7, #4]
 80020ea:	3320      	adds	r3, #32
 80020ec:	2208      	movs	r2, #8
 80020ee:	18ba      	adds	r2, r7, r2
 80020f0:	0011      	movs	r1, r2
 80020f2:	0018      	movs	r0, r3
 80020f4:	f000 fd78 	bl	8002be8 <lis2duxs12_mode_get>
 80020f8:	1e03      	subs	r3, r0, #0
 80020fa:	d002      	beq.n	8002102 <LIS2DUXS12_ACC_GetFullScale+0x28>
  {
    return LIS2DUXS12_ERROR;
 80020fc:	2301      	movs	r3, #1
 80020fe:	425b      	negs	r3, r3
 8002100:	e026      	b.n	8002150 <LIS2DUXS12_ACC_GetFullScale+0x76>
  }

  switch (mode.fs)
 8002102:	2308      	movs	r3, #8
 8002104:	18fb      	adds	r3, r7, r3
 8002106:	785b      	ldrb	r3, [r3, #1]
 8002108:	2b03      	cmp	r3, #3
 800210a:	d014      	beq.n	8002136 <LIS2DUXS12_ACC_GetFullScale+0x5c>
 800210c:	dc17      	bgt.n	800213e <LIS2DUXS12_ACC_GetFullScale+0x64>
 800210e:	2b02      	cmp	r3, #2
 8002110:	d00d      	beq.n	800212e <LIS2DUXS12_ACC_GetFullScale+0x54>
 8002112:	dc14      	bgt.n	800213e <LIS2DUXS12_ACC_GetFullScale+0x64>
 8002114:	2b00      	cmp	r3, #0
 8002116:	d002      	beq.n	800211e <LIS2DUXS12_ACC_GetFullScale+0x44>
 8002118:	2b01      	cmp	r3, #1
 800211a:	d004      	beq.n	8002126 <LIS2DUXS12_ACC_GetFullScale+0x4c>
 800211c:	e00f      	b.n	800213e <LIS2DUXS12_ACC_GetFullScale+0x64>
  {
    case LIS2DUXS12_2g:
      *FullScale =  2;
 800211e:	683b      	ldr	r3, [r7, #0]
 8002120:	2202      	movs	r2, #2
 8002122:	601a      	str	r2, [r3, #0]
      break;
 8002124:	e013      	b.n	800214e <LIS2DUXS12_ACC_GetFullScale+0x74>

    case LIS2DUXS12_4g:
      *FullScale =  4;
 8002126:	683b      	ldr	r3, [r7, #0]
 8002128:	2204      	movs	r2, #4
 800212a:	601a      	str	r2, [r3, #0]
      break;
 800212c:	e00f      	b.n	800214e <LIS2DUXS12_ACC_GetFullScale+0x74>

    case LIS2DUXS12_8g:
      *FullScale =  8;
 800212e:	683b      	ldr	r3, [r7, #0]
 8002130:	2208      	movs	r2, #8
 8002132:	601a      	str	r2, [r3, #0]
      break;
 8002134:	e00b      	b.n	800214e <LIS2DUXS12_ACC_GetFullScale+0x74>

    case LIS2DUXS12_16g:
      *FullScale = 16;
 8002136:	683b      	ldr	r3, [r7, #0]
 8002138:	2210      	movs	r2, #16
 800213a:	601a      	str	r2, [r3, #0]
      break;
 800213c:	e007      	b.n	800214e <LIS2DUXS12_ACC_GetFullScale+0x74>

    default:
      *FullScale = -1;
 800213e:	683b      	ldr	r3, [r7, #0]
 8002140:	2201      	movs	r2, #1
 8002142:	4252      	negs	r2, r2
 8002144:	601a      	str	r2, [r3, #0]
      ret = LIS2DUXS12_ERROR;
 8002146:	2301      	movs	r3, #1
 8002148:	425b      	negs	r3, r3
 800214a:	60fb      	str	r3, [r7, #12]
      break;
 800214c:	46c0      	nop			@ (mov r8, r8)
  }

  return ret;
 800214e:	68fb      	ldr	r3, [r7, #12]
}
 8002150:	0018      	movs	r0, r3
 8002152:	46bd      	mov	sp, r7
 8002154:	b004      	add	sp, #16
 8002156:	bd80      	pop	{r7, pc}

08002158 <LIS2DUXS12_ACC_SetFullScale>:
  * @param  pObj the device pObj
  * @param  FullScale the functional full scale to be set
  * @retval 0 in case of success, an error code otherwise
  */
int32_t LIS2DUXS12_ACC_SetFullScale(LIS2DUXS12_Object_t *pObj, int32_t FullScale)
{
 8002158:	b580      	push	{r7, lr}
 800215a:	b084      	sub	sp, #16
 800215c:	af00      	add	r7, sp, #0
 800215e:	6078      	str	r0, [r7, #4]
 8002160:	6039      	str	r1, [r7, #0]
  lis2duxs12_md_t mode;

  if (lis2duxs12_mode_get(&(pObj->Ctx), &mode) != LIS2DUXS12_OK)
 8002162:	687b      	ldr	r3, [r7, #4]
 8002164:	3320      	adds	r3, #32
 8002166:	220c      	movs	r2, #12
 8002168:	18ba      	adds	r2, r7, r2
 800216a:	0011      	movs	r1, r2
 800216c:	0018      	movs	r0, r3
 800216e:	f000 fd3b 	bl	8002be8 <lis2duxs12_mode_get>
 8002172:	1e03      	subs	r3, r0, #0
 8002174:	d002      	beq.n	800217c <LIS2DUXS12_ACC_SetFullScale+0x24>
  {
    return LIS2DUXS12_ERROR;
 8002176:	2301      	movs	r3, #1
 8002178:	425b      	negs	r3, r3
 800217a:	e01f      	b.n	80021bc <LIS2DUXS12_ACC_SetFullScale+0x64>
  }

  /* Seems like MISRA C-2012 rule 14.3a violation but only from single file statical analysis point of view because
     the parameter passed to the function is not known at the moment of analysis */
  mode.fs = (FullScale <= 2) ? LIS2DUXS12_2g
            : (FullScale <= 4) ? LIS2DUXS12_4g
 800217c:	683b      	ldr	r3, [r7, #0]
 800217e:	2b02      	cmp	r3, #2
 8002180:	dd0b      	ble.n	800219a <LIS2DUXS12_ACC_SetFullScale+0x42>
 8002182:	683b      	ldr	r3, [r7, #0]
 8002184:	2b04      	cmp	r3, #4
 8002186:	dd06      	ble.n	8002196 <LIS2DUXS12_ACC_SetFullScale+0x3e>
 8002188:	683b      	ldr	r3, [r7, #0]
 800218a:	2b08      	cmp	r3, #8
 800218c:	dc01      	bgt.n	8002192 <LIS2DUXS12_ACC_SetFullScale+0x3a>
 800218e:	2302      	movs	r3, #2
 8002190:	e004      	b.n	800219c <LIS2DUXS12_ACC_SetFullScale+0x44>
 8002192:	2303      	movs	r3, #3
 8002194:	e002      	b.n	800219c <LIS2DUXS12_ACC_SetFullScale+0x44>
 8002196:	2301      	movs	r3, #1
 8002198:	e000      	b.n	800219c <LIS2DUXS12_ACC_SetFullScale+0x44>
 800219a:	2300      	movs	r3, #0
  mode.fs = (FullScale <= 2) ? LIS2DUXS12_2g
 800219c:	210c      	movs	r1, #12
 800219e:	187a      	adds	r2, r7, r1
 80021a0:	7053      	strb	r3, [r2, #1]
            : (FullScale <= 8) ? LIS2DUXS12_8g
            :                    LIS2DUXS12_16g;

  if (lis2duxs12_mode_set(&(pObj->Ctx), &mode) != LIS2DUXS12_OK)
 80021a2:	687b      	ldr	r3, [r7, #4]
 80021a4:	3320      	adds	r3, #32
 80021a6:	187a      	adds	r2, r7, r1
 80021a8:	0011      	movs	r1, r2
 80021aa:	0018      	movs	r0, r3
 80021ac:	f000 fc26 	bl	80029fc <lis2duxs12_mode_set>
 80021b0:	1e03      	subs	r3, r0, #0
 80021b2:	d002      	beq.n	80021ba <LIS2DUXS12_ACC_SetFullScale+0x62>
  {
    return LIS2DUXS12_ERROR;
 80021b4:	2301      	movs	r3, #1
 80021b6:	425b      	negs	r3, r3
 80021b8:	e000      	b.n	80021bc <LIS2DUXS12_ACC_SetFullScale+0x64>
  }

  return LIS2DUXS12_OK;
 80021ba:	2300      	movs	r3, #0
}
 80021bc:	0018      	movs	r0, r3
 80021be:	46bd      	mov	sp, r7
 80021c0:	b004      	add	sp, #16
 80021c2:	bd80      	pop	{r7, pc}

080021c4 <LIS2DUXS12_ACC_GetAxesRaw>:
  * @param  pObj the device pObj
  * @param  Value pointer where the raw values of the axes are written
  * @retval 0 in case of success, an error code otherwise
  */
int32_t LIS2DUXS12_ACC_GetAxesRaw(LIS2DUXS12_Object_t *pObj, LIS2DUXS12_AxesRaw_t *Value)
{
 80021c4:	b580      	push	{r7, lr}
 80021c6:	b088      	sub	sp, #32
 80021c8:	af00      	add	r7, sp, #0
 80021ca:	6078      	str	r0, [r7, #4]
 80021cc:	6039      	str	r1, [r7, #0]
  lis2duxs12_md_t mode;
  lis2duxs12_xl_data_t data;

  if (lis2duxs12_mode_get(&(pObj->Ctx), &mode) != LIS2DUXS12_OK)
 80021ce:	687b      	ldr	r3, [r7, #4]
 80021d0:	3320      	adds	r3, #32
 80021d2:	221c      	movs	r2, #28
 80021d4:	18ba      	adds	r2, r7, r2
 80021d6:	0011      	movs	r1, r2
 80021d8:	0018      	movs	r0, r3
 80021da:	f000 fd05 	bl	8002be8 <lis2duxs12_mode_get>
 80021de:	1e03      	subs	r3, r0, #0
 80021e0:	d002      	beq.n	80021e8 <LIS2DUXS12_ACC_GetAxesRaw+0x24>
  {
    return LIS2DUXS12_ERROR;
 80021e2:	2301      	movs	r3, #1
 80021e4:	425b      	negs	r3, r3
 80021e6:	e01e      	b.n	8002226 <LIS2DUXS12_ACC_GetAxesRaw+0x62>
  }

  if (lis2duxs12_xl_data_get(&(pObj->Ctx), &mode, &data) != LIS2DUXS12_OK)
 80021e8:	687b      	ldr	r3, [r7, #4]
 80021ea:	3320      	adds	r3, #32
 80021ec:	2208      	movs	r2, #8
 80021ee:	18ba      	adds	r2, r7, r2
 80021f0:	211c      	movs	r1, #28
 80021f2:	1879      	adds	r1, r7, r1
 80021f4:	0018      	movs	r0, r3
 80021f6:	f000 fe03 	bl	8002e00 <lis2duxs12_xl_data_get>
 80021fa:	1e03      	subs	r3, r0, #0
 80021fc:	d002      	beq.n	8002204 <LIS2DUXS12_ACC_GetAxesRaw+0x40>
  {
    return LIS2DUXS12_ERROR;
 80021fe:	2301      	movs	r3, #1
 8002200:	425b      	negs	r3, r3
 8002202:	e010      	b.n	8002226 <LIS2DUXS12_ACC_GetAxesRaw+0x62>
  }

  Value->x = data.raw[0];
 8002204:	2108      	movs	r1, #8
 8002206:	187b      	adds	r3, r7, r1
 8002208:	220c      	movs	r2, #12
 800220a:	5e9a      	ldrsh	r2, [r3, r2]
 800220c:	683b      	ldr	r3, [r7, #0]
 800220e:	801a      	strh	r2, [r3, #0]
  Value->y = data.raw[1];
