
lite.elf:     file format elf32-littlearm

Sections:
Idx Name          Size      VMA       LMA       File off  Algn
  0 .isr_vector   00000194  08000000  08000000  00001000  2**0
                  CONTENTS, ALLOC, LOAD, READONLY, DATA
  1 .text         0000dc68  080001a0  080001a0  000011a0  2**4
                  CONTENTS, ALLOC, LOAD, READONLY, CODE
  2 .rodata       00000058  0800de08  0800de08  0000ee08  2**2
                  CONTENTS, ALLOC, LOAD, READONLY, DATA
  3 .ARM.extab    00000000  0800de60  0800de60  0000f258  2**0
                  CONTENTS
  4 .ARM          00000008  0800de60  0800de60  0000ee60  2**2
                  CONTENTS, ALLOC, LOAD, READONLY, DATA
  5 .preinit_array 00000000  0800de68  0800de68  0000f258  2**0
                  CONTENTS, ALLOC, LOAD, DATA
  6 .init_array   00000004  0800de68  0800de68  0000ee68  2**2
                  CONTENTS, ALLOC, LOAD, READONLY, DATA
  7 .fini_array   00000004  0800de6c  0800de6c  0000ee6c  2**2
                  CONTENTS, ALLOC, LOAD, READONLY, DATA
  8 .data         00000258  20000000  0800de70  0000f000  2**2
                  CONTENTS, ALLOC, LOAD, DATA
  9 .bss          0000045c  20000258  0800e0c8  0000f258  2**2
                  ALLOC
 10 ._user_heap_stack 00001204  200006b4  0800e0c8  0000f6b4  2**0
                  ALLOC
 11 .ARM.attributes 00000030  00000000  00000000  0000f258  2**0
                  CONTENTS, READONLY
 12 .debug_info   0003092f  00000000  00000000  0000f288  2**0
                  CONTENTS, READONLY, DEBUGGING, OCTETS
 13 .debug_abbrev 00004724  00000000  00000000  0003fbb7  2**0
                  CONTENTS, READONLY, DEBUGGING, OCTETS
 14 .debug_aranges 00002b70  00000000  00000000  000442e0  2**3
                  CONTENTS, READONLY, DEBUGGING, OCTETS
 15 .debug_rnglists 00002184  00000000  00000000  00046e50  2**0
                  CONTENTS, READONLY, DEBUGGING, OCTETS
 16 .debug_macro  0001b98a  00000000  00000000  00048fd4  2**0
                  CONTENTS, READONLY, DEBUGGING, OCTETS
 17 .debug_line   00025716  00000000  00000000  0006495e  2**0
                  CONTENTS, READONLY, DEBUGGING, OCTETS
 18 .debug_str    000a2b3b  00000000  00000000  0008a074  2**0
                  CONTENTS, READONLY, DEBUGGING, OCTETS
 19 .comment      00000043  00000000  00000000  0012cbaf  2**0
                  CONTENTS, READONLY
 20 .debug_frame  0000c0ec  00000000  00000000  0012cbf4  2**2
                  CONTENTS, READONLY, DEBUGGING, OCTETS
 21 .debug_line_str 00000059  00000000  00000000  00138ce0  2**0
                  CONTENTS, READONLY, DEBUGGING, OCTETS

Disassembly of section .text:

080001a0 <__do_global_dtors_aux>:
 80001a0:	b510      	push	{r4, lr}
 80001a2:	4c05      	ldr	r4, [pc, #20]	@ (80001b8 <__do_global_dtors_aux+0x18>)
 80001a4:	7823      	ldrb	r3, [r4, #0]
 80001a6:	b933      	cbnz	r3, 80001b6 <__do_global_dtors_aux+0x16>
 80001a8:	4b04      	ldr	r3, [pc, #16]	@ (80001bc <__do_global_dtors_aux+0x1c>)
 80001aa:	b113      	cbz	r3, 80001b2 <__do_global_dtors_aux+0x12>
 80001ac:	4804      	ldr	r0, [pc, #16]	@ (80001c0 <__do_global_dtors_aux+0x20>)
 80001ae:	f3af 8000 	nop.w
 80001b2:	2301      	movs	r3, #1
 80001b4:	7023      	strb	r3, [r4, #0]
 80001b6:	bd10      	pop	{r4, pc}
 80001b8:	20000258 	.word	0x20000258
 80001bc:	00000000 	.word	0x00000000
 80001c0:	0800ddf0 	.word	0x0800ddf0

080001c4 <frame_dummy>:
 80001c4:	b508      	push	{r3, lr}
 80001c6:	4b03      	ldr	r3, [pc, #12]	@ (80001d4 <frame_dummy+0x10>)
 80001c8:	b11b      	cbz	r3, 80001d2 <frame_dummy+0xe>
 80001ca:	4903      	ldr	r1, [pc, #12]	@ (80001d8 <frame_dummy+0x14>)
 80001cc:	4803      	ldr	r0, [pc, #12]	@ (80001dc <frame_dummy+0x18>)
 80001ce:	f3af 8000 	nop.w
 80001d2:	bd08      	pop	{r3, pc}
 80001d4:	00000000 	.word	0x00000000
 80001d8:	2000025c 	.word	0x2000025c
 80001dc:	0800ddf0 	.word	0x0800ddf0

080001e0 <memchr>:
 80001e0:	f001 01ff 	and.w	r1, r1, #255	@ 0xff
 80001e4:	2a10      	cmp	r2, #16
 80001e6:	db2b      	blt.n	8000240 <memchr+0x60>
 80001e8:	f010 0f07 	tst.w	r0, #7
 80001ec:	d008      	beq.n	8000200 <memchr+0x20>
 80001ee:	f810 3b01 	ldrb.w	r3, [r0], #1
 80001f2:	3a01      	subs	r2, #1
 80001f4:	428b      	cmp	r3, r1
 80001f6:	d02d      	beq.n	8000254 <memchr+0x74>
 80001f8:	f010 0f07 	tst.w	r0, #7
 80001fc:	b342      	cbz	r2, 8000250 <memchr+0x70>
 80001fe:	d1f6      	bne.n	80001ee <memchr+0xe>
 8000200:	b4f0      	push	{r4, r5, r6, r7}
 8000202:	ea41 2101 	orr.w	r1, r1, r1, lsl #8
 8000206:	ea41 4101 	orr.w	r1, r1, r1, lsl #16
 800020a:	f022 0407 	bic.w	r4, r2, #7
 800020e:	f07f 0700 	mvns.w	r7, #0
 8000212:	2300      	movs	r3, #0
 8000214:	e8f0 5602 	ldrd	r5, r6, [r0], #8
 8000218:	3c08      	subs	r4, #8
 800021a:	ea85 0501 	eor.w	r5, r5, r1
 800021e:	ea86 0601 	eor.w	r6, r6, r1
 8000222:	fa85 f547 	uadd8	r5, r5, r7
 8000226:	faa3 f587 	sel	r5, r3, r7
 800022a:	fa86 f647 	uadd8	r6, r6, r7
 800022e:	faa5 f687 	sel	r6, r5, r7
 8000232:	b98e      	cbnz	r6, 8000258 <memchr+0x78>
 8000234:	d1ee      	bne.n	8000214 <memchr+0x34>
 8000236:	bcf0      	pop	{r4, r5, r6, r7}
 8000238:	f001 01ff 	and.w	r1, r1, #255	@ 0xff
 800023c:	f002 0207 	and.w	r2, r2, #7
 8000240:	b132      	cbz	r2, 8000250 <memchr+0x70>
 8000242:	f810 3b01 	ldrb.w	r3, [r0], #1
 8000246:	3a01      	subs	r2, #1
 8000248:	ea83 0301 	eor.w	r3, r3, r1
 800024c:	b113      	cbz	r3, 8000254 <memchr+0x74>
 800024e:	d1f8      	bne.n	8000242 <memchr+0x62>
 8000250:	2000      	movs	r0, #0
 8000252:	4770      	bx	lr
 8000254:	3801      	subs	r0, #1
 8000256:	4770      	bx	lr
 8000258:	2d00      	cmp	r5, #0
 800025a:	bf06      	itte	eq
 800025c:	4635      	moveq	r5, r6
 800025e:	3803      	subeq	r0, #3
 8000260:	3807      	subne	r0, #7
 8000262:	f015 0f01 	tst.w	r5, #1
 8000266:	d107      	bne.n	8000278 <memchr+0x98>
 8000268:	3001      	adds	r0, #1
 800026a:	f415 7f80 	tst.w	r5, #256	@ 0x100
 800026e:	bf02      	ittt	eq
 8000270:	3001      	addeq	r0, #1
 8000272:	f415 3fc0 	tsteq.w	r5, #98304	@ 0x18000
 8000276:	3001      	addeq	r0, #1
 8000278:	bcf0      	pop	{r4, r5, r6, r7}
 800027a:	3801      	subs	r0, #1
 800027c:	4770      	bx	lr
 800027e:	bf00      	nop

08000280 <__aeabi_uldivmod>:
 8000280:	b953      	cbnz	r3, 8000298 <__aeabi_uldivmod+0x18>
 8000282:	b94a      	cbnz	r2, 8000298 <__aeabi_uldivmod+0x18>
 8000284:	2900      	cmp	r1, #0
 8000286:	bf08      	it	eq
 8000288:	2800      	cmpeq	r0, #0
 800028a:	bf1c      	itt	ne
 800028c:	f04f 31ff 	movne.w	r1, #4294967295
 8000290:	f04f 30ff 	movne.w	r0, #4294967295
 8000294:	f000 b96a 	b.w	800056c <__aeabi_idiv0>
 8000298:	f1ad 0c08 	sub.w	ip, sp, #8
 800029c:	e96d ce04 	strd	ip, lr, [sp, #-16]!
 80002a0:	f000 f806 	bl	80002b0 <__udivmoddi4>
 80002a4:	f8dd e004 	ldr.w	lr, [sp, #4]
 80002a8:	e9dd 2302 	ldrd	r2, r3, [sp, #8]
 80002ac:	b004      	add	sp, #16
 80002ae:	4770      	bx	lr

080002b0 <__udivmoddi4>:
 80002b0:	e92d 47f0 	stmdb	sp!, {r4, r5, r6, r7, r8, r9, sl, lr}
 80002b4:	9d08      	ldr	r5, [sp, #32]
 80002b6:	460c      	mov	r4, r1
 80002b8:	2b00      	cmp	r3, #0
 80002ba:	d14e      	bne.n	800035a <__udivmoddi4+0xaa>
 80002bc:	4694      	mov	ip, r2
 80002be:	458c      	cmp	ip, r1
 80002c0:	4686      	mov	lr, r0
 80002c2:	fab2 f282 	clz	r2, r2
 80002c6:	d962      	bls.n	800038e <__udivmoddi4+0xde>
 80002c8:	b14a      	cbz	r2, 80002de <__udivmoddi4+0x2e>
 80002ca:	f1c2 0320 	rsb	r3, r2, #32
 80002ce:	4091      	lsls	r1, r2
 80002d0:	fa20 f303 	lsr.w	r3, r0, r3
 80002d4:	fa0c fc02 	lsl.w	ip, ip, r2
 80002d8:	4319      	orrs	r1, r3
 80002da:	fa00 fe02 	lsl.w	lr, r0, r2
 80002de:	ea4f 471c 	mov.w	r7, ip, lsr #16
 80002e2:	fa1f f68c 	uxth.w	r6, ip
 80002e6:	fbb1 f4f7 	udiv	r4, r1, r7
 80002ea:	ea4f 431e 	mov.w	r3, lr, lsr #16
 80002ee:	fb07 1114 	mls	r1, r7, r4, r1
 80002f2:	ea43 4301 	orr.w	r3, r3, r1, lsl #16
 80002f6:	fb04 f106 	mul.w	r1, r4, r6
 80002fa:	4299      	cmp	r1, r3
 80002fc:	d90a      	bls.n	8000314 <__udivmoddi4+0x64>
 80002fe:	eb1c 0303 	adds.w	r3, ip, r3
 8000302:	f104 30ff 	add.w	r0, r4, #4294967295
 8000306:	f080 8112 	bcs.w	800052e <__udivmoddi4+0x27e>
 800030a:	4299      	cmp	r1, r3
 800030c:	f240 810f 	bls.w	800052e <__udivmoddi4+0x27e>
 8000310:	3c02      	subs	r4, #2
 8000312:	4463      	add	r3, ip
 8000314:	1a59      	subs	r1, r3, r1
 8000316:	fa1f f38e 	uxth.w	r3, lr
 800031a:	fbb1 f0f7 	udiv	r0, r1, r7
 800031e:	fb07 1110 	mls	r1, r7, r0, r1
 8000322:	ea43 4301 	orr.w	r3, r3, r1, lsl #16
 8000326:	fb00 f606 	mul.w	r6, r0, r6
 800032a:	429e      	cmp	r6, r3
 800032c:	d90a      	bls.n	8000344 <__udivmoddi4+0x94>
 800032e:	eb1c 0303 	adds.w	r3, ip, r3
 8000332:	f100 31ff 	add.w	r1, r0, #4294967295
 8000336:	f080 80fc 	bcs.w	8000532 <__udivmoddi4+0x282>
 800033a:	429e      	cmp	r6, r3
 800033c:	f240 80f9 	bls.w	8000532 <__udivmoddi4+0x282>
 8000340:	4463      	add	r3, ip
 8000342:	3802      	subs	r0, #2
 8000344:	1b9b      	subs	r3, r3, r6
 8000346:	ea40 4004 	orr.w	r0, r0, r4, lsl #16
 800034a:	2100      	movs	r1, #0
 800034c:	b11d      	cbz	r5, 8000356 <__udivmoddi4+0xa6>
 800034e:	40d3      	lsrs	r3, r2
 8000350:	2200      	movs	r2, #0
 8000352:	e9c5 3200 	strd	r3, r2, [r5]
 8000356:	e8bd 87f0 	ldmia.w	sp!, {r4, r5, r6, r7, r8, r9, sl, pc}
 800035a:	428b      	cmp	r3, r1
 800035c:	d905      	bls.n	800036a <__udivmoddi4+0xba>
 800035e:	b10d      	cbz	r5, 8000364 <__udivmoddi4+0xb4>
 8000360:	e9c5 0100 	strd	r0, r1, [r5]
 8000364:	2100      	movs	r1, #0
 8000366:	4608      	mov	r0, r1
 8000368:	e7f5      	b.n	8000356 <__udivmoddi4+0xa6>
 800036a:	fab3 f183 	clz	r1, r3
 800036e:	2900      	cmp	r1, #0
 8000370:	d146      	bne.n	8000400 <__udivmoddi4+0x150>
 8000372:	42a3      	cmp	r3, r4
 8000374:	d302      	bcc.n	800037c <__udivmoddi4+0xcc>
 8000376:	4290      	cmp	r0, r2
 8000378:	f0c0 80f0 	bcc.w	800055c <__udivmoddi4+0x2ac>
 800037c:	1a86      	subs	r6, r0, r2
 800037e:	eb64 0303 	sbc.w	r3, r4, r3
 8000382:	2001      	movs	r0, #1
 8000384:	2d00      	cmp	r5, #0
 8000386:	d0e6      	beq.n	8000356 <__udivmoddi4+0xa6>
 8000388:	e9c5 6300 	strd	r6, r3, [r5]
 800038c:	e7e3      	b.n	8000356 <__udivmoddi4+0xa6>
 800038e:	2a00      	cmp	r2, #0
 8000390:	f040 8090 	bne.w	80004b4 <__udivmoddi4+0x204>
 8000394:	eba1 040c 	sub.w	r4, r1, ip
 8000398:	ea4f 481c 	mov.w	r8, ip, lsr #16
 800039c:	fa1f f78c 	uxth.w	r7, ip
 80003a0:	2101      	movs	r1, #1
 80003a2:	fbb4 f6f8 	udiv	r6, r4, r8
 80003a6:	ea4f 431e 	mov.w	r3, lr, lsr #16
 80003aa:	fb08 4416 	mls	r4, r8, r6, r4
 80003ae:	ea43 4304 	orr.w	r3, r3, r4, lsl #16
 80003b2:	fb07 f006 	mul.w	r0, r7, r6
 80003b6:	4298      	cmp	r0, r3
 80003b8:	d908      	bls.n	80003cc <__udivmoddi4+0x11c>
 80003ba:	eb1c 0303 	adds.w	r3, ip, r3
 80003be:	f106 34ff 	add.w	r4, r6, #4294967295
 80003c2:	d202      	bcs.n	80003ca <__udivmoddi4+0x11a>
 80003c4:	4298      	cmp	r0, r3
 80003c6:	f200 80cd 	bhi.w	8000564 <__udivmoddi4+0x2b4>
 80003ca:	4626      	mov	r6, r4
 80003cc:	1a1c      	subs	r4, r3, r0
 80003ce:	fa1f f38e 	uxth.w	r3, lr
 80003d2:	fbb4 f0f8 	udiv	r0, r4, r8
 80003d6:	fb08 4410 	mls	r4, r8, r0, r4
 80003da:	ea43 4304 	orr.w	r3, r3, r4, lsl #16
 80003de:	fb00 f707 	mul.w	r7, r0, r7
 80003e2:	429f      	cmp	r7, r3
 80003e4:	d908      	bls.n	80003f8 <__udivmoddi4+0x148>
 80003e6:	eb1c 0303 	adds.w	r3, ip, r3
 80003ea:	f100 34ff 	add.w	r4, r0, #4294967295
 80003ee:	d202      	bcs.n	80003f6 <__udivmoddi4+0x146>
 80003f0:	429f      	cmp	r7, r3
 80003f2:	f200 80b0 	bhi.w	8000556 <__udivmoddi4+0x2a6>
 80003f6:	4620      	mov	r0, r4
 80003f8:	1bdb      	subs	r3, r3, r7
 80003fa:	ea40 4006 	orr.w	r0, r0, r6, lsl #16
 80003fe:	e7a5      	b.n	800034c <__udivmoddi4+0x9c>
 8000400:	f1c1 0620 	rsb	r6, r1, #32
 8000404:	408b      	lsls	r3, r1
 8000406:	fa22 f706 	lsr.w	r7, r2, r6
 800040a:	431f      	orrs	r7, r3
 800040c:	fa20 fc06 	lsr.w	ip, r0, r6
 8000410:	fa04 f301 	lsl.w	r3, r4, r1
 8000414:	ea43 030c 	orr.w	r3, r3, ip
 8000418:	40f4      	lsrs	r4, r6
 800041a:	fa00 f801 	lsl.w	r8, r0, r1
 800041e:	0c38      	lsrs	r0, r7, #16
 8000420:	ea4f 4913 	mov.w	r9, r3, lsr #16
 8000424:	fbb4 fef0 	udiv	lr, r4, r0
 8000428:	fa1f fc87 	uxth.w	ip, r7
 800042c:	fb00 441e 	mls	r4, r0, lr, r4
 8000430:	ea49 4404 	orr.w	r4, r9, r4, lsl #16
 8000434:	fb0e f90c 	mul.w	r9, lr, ip
 8000438:	45a1      	cmp	r9, r4
 800043a:	fa02 f201 	lsl.w	r2, r2, r1
 800043e:	d90a      	bls.n	8000456 <__udivmoddi4+0x1a6>
 8000440:	193c      	adds	r4, r7, r4
 8000442:	f10e 3aff 	add.w	sl, lr, #4294967295
 8000446:	f080 8084 	bcs.w	8000552 <__udivmoddi4+0x2a2>
 800044a:	45a1      	cmp	r9, r4
 800044c:	f240 8081 	bls.w	8000552 <__udivmoddi4+0x2a2>
 8000450:	f1ae 0e02 	sub.w	lr, lr, #2
 8000454:	443c      	add	r4, r7
 8000456:	eba4 0409 	sub.w	r4, r4, r9
 800045a:	fa1f f983 	uxth.w	r9, r3
 800045e:	fbb4 f3f0 	udiv	r3, r4, r0
 8000462:	fb00 4413 	mls	r4, r0, r3, r4
 8000466:	ea49 4404 	orr.w	r4, r9, r4, lsl #16
 800046a:	fb03 fc0c 	mul.w	ip, r3, ip
 800046e:	45a4      	cmp	ip, r4
 8000470:	d907      	bls.n	8000482 <__udivmoddi4+0x1d2>
 8000472:	193c      	adds	r4, r7, r4
 8000474:	f103 30ff 	add.w	r0, r3, #4294967295
 8000478:	d267      	bcs.n	800054a <__udivmoddi4+0x29a>
 800047a:	45a4      	cmp	ip, r4
 800047c:	d965      	bls.n	800054a <__udivmoddi4+0x29a>
 800047e:	3b02      	subs	r3, #2
 8000480:	443c      	add	r4, r7
 8000482:	ea43 400e 	orr.w	r0, r3, lr, lsl #16
 8000486:	fba0 9302 	umull	r9, r3, r0, r2
 800048a:	eba4 040c 	sub.w	r4, r4, ip
 800048e:	429c      	cmp	r4, r3
 8000490:	46ce      	mov	lr, r9
 8000492:	469c      	mov	ip, r3
 8000494:	d351      	bcc.n	800053a <__udivmoddi4+0x28a>
 8000496:	d04e      	beq.n	8000536 <__udivmoddi4+0x286>
 8000498:	b155      	cbz	r5, 80004b0 <__udivmoddi4+0x200>
 800049a:	ebb8 030e 	subs.w	r3, r8, lr
 800049e:	eb64 040c 	sbc.w	r4, r4, ip
 80004a2:	fa04 f606 	lsl.w	r6, r4, r6
 80004a6:	40cb      	lsrs	r3, r1
 80004a8:	431e      	orrs	r6, r3
 80004aa:	40cc      	lsrs	r4, r1
 80004ac:	e9c5 6400 	strd	r6, r4, [r5]
 80004b0:	2100      	movs	r1, #0
 80004b2:	e750      	b.n	8000356 <__udivmoddi4+0xa6>
 80004b4:	f1c2 0320 	rsb	r3, r2, #32
 80004b8:	fa20 f103 	lsr.w	r1, r0, r3
 80004bc:	fa0c fc02 	lsl.w	ip, ip, r2
 80004c0:	fa24 f303 	lsr.w	r3, r4, r3
 80004c4:	4094      	lsls	r4, r2
 80004c6:	430c      	orrs	r4, r1
 80004c8:	ea4f 481c 	mov.w	r8, ip, lsr #16
 80004cc:	fa00 fe02 	lsl.w	lr, r0, r2
 80004d0:	fa1f f78c 	uxth.w	r7, ip
 80004d4:	fbb3 f0f8 	udiv	r0, r3, r8
 80004d8:	fb08 3110 	mls	r1, r8, r0, r3
 80004dc:	0c23      	lsrs	r3, r4, #16
 80004de:	ea43 4301 	orr.w	r3, r3, r1, lsl #16
 80004e2:	fb00 f107 	mul.w	r1, r0, r7
 80004e6:	4299      	cmp	r1, r3
 80004e8:	d908      	bls.n	80004fc <__udivmoddi4+0x24c>
 80004ea:	eb1c 0303 	adds.w	r3, ip, r3
 80004ee:	f100 36ff 	add.w	r6, r0, #4294967295
 80004f2:	d22c      	bcs.n	800054e <__udivmoddi4+0x29e>
 80004f4:	4299      	cmp	r1, r3
 80004f6:	d92a      	bls.n	800054e <__udivmoddi4+0x29e>
 80004f8:	3802      	subs	r0, #2
 80004fa:	4463      	add	r3, ip
 80004fc:	1a5b      	subs	r3, r3, r1
 80004fe:	b2a4      	uxth	r4, r4
 8000500:	fbb3 f1f8 	udiv	r1, r3, r8
 8000504:	fb08 3311 	mls	r3, r8, r1, r3
 8000508:	ea44 4403 	orr.w	r4, r4, r3, lsl #16
 800050c:	fb01 f307 	mul.w	r3, r1, r7
 8000510:	42a3      	cmp	r3, r4
 8000512:	d908      	bls.n	8000526 <__udivmoddi4+0x276>
 8000514:	eb1c 0404 	adds.w	r4, ip, r4
 8000518:	f101 36ff 	add.w	r6, r1, #4294967295
 800051c:	d213      	bcs.n	8000546 <__udivmoddi4+0x296>
 800051e:	42a3      	cmp	r3, r4
 8000520:	d911      	bls.n	8000546 <__udivmoddi4+0x296>
 8000522:	3902      	subs	r1, #2
 8000524:	4464      	add	r4, ip
 8000526:	1ae4      	subs	r4, r4, r3
 8000528:	ea41 4100 	orr.w	r1, r1, r0, lsl #16
 800052c:	e739      	b.n	80003a2 <__udivmoddi4+0xf2>
 800052e:	4604      	mov	r4, r0
 8000530:	e6f0      	b.n	8000314 <__udivmoddi4+0x64>
 8000532:	4608      	mov	r0, r1
 8000534:	e706      	b.n	8000344 <__udivmoddi4+0x94>
 8000536:	45c8      	cmp	r8, r9
 8000538:	d2ae      	bcs.n	8000498 <__udivmoddi4+0x1e8>
 800053a:	ebb9 0e02 	subs.w	lr, r9, r2
 800053e:	eb63 0c07 	sbc.w	ip, r3, r7
 8000542:	3801      	subs	r0, #1
 8000544:	e7a8      	b.n	8000498 <__udivmoddi4+0x1e8>
 8000546:	4631      	mov	r1, r6
 8000548:	e7ed      	b.n	8000526 <__udivmoddi4+0x276>
 800054a:	4603      	mov	r3, r0
 800054c:	e799      	b.n	8000482 <__udivmoddi4+0x1d2>
 800054e:	4630      	mov	r0, r6
 8000550:	e7d4      	b.n	80004fc <__udivmoddi4+0x24c>
 8000552:	46d6      	mov	lr, sl
 8000554:	e77f      	b.n	8000456 <__udivmoddi4+0x1a6>
 8000556:	4463      	add	r3, ip
 8000558:	3802      	subs	r0, #2
 800055a:	e74d      	b.n	80003f8 <__udivmoddi4+0x148>
 800055c:	4606      	mov	r6, r0
 800055e:	4623      	mov	r3, r4
 8000560:	4608      	mov	r0, r1
 8000562:	e70f      	b.n	8000384 <__udivmoddi4+0xd4>
 8000564:	3e02      	subs	r6, #2
 8000566:	4463      	add	r3, ip
 8000568:	e730      	b.n	80003cc <__udivmoddi4+0x11c>
 800056a:	bf00      	nop

0800056c <__aeabi_idiv0>:
 800056c:	4770      	bx	lr
 800056e:	bf00      	nop

08000570 <MX_GPIO_Init>:
        * Output
        * EVENT_OUT
        * EXTI
*/
void MX_GPIO_Init(void)
{
 8000570:	b580      	push	{r7, lr}
 8000572:	b08a      	sub	sp, #40	@ 0x28
 8000574:	af00      	add	r7, sp, #0

  GPIO_InitTypeDef GPIO_InitStruct = {0};
 8000576:	f107 0314 	add.w	r3, r7, #20
 800057a:	2200      	movs	r2, #0
 800057c:	601a      	str	r2, [r3, #0]
 800057e:	605a      	str	r2, [r3, #4]
 8000580:	609a      	str	r2, [r3, #8]
 8000582:	60da      	str	r2, [r3, #12]
 8000584:	611a      	str	r2, [r3, #16]

  /* GPIO Ports Clock Enable */
  __HAL_RCC_GPIOC_CLK_ENABLE();
 8000586:	2300      	movs	r3, #0
 8000588:	613b      	str	r3, [r7, #16]
 800058a:	4b2d      	ldr	r3, [pc, #180]	@ (8000640 <MX_GPIO_Init+0xd0>)
 800058c:	6b1b      	ldr	r3, [r3, #48]	@ 0x30
 800058e:	4a2c      	ldr	r2, [pc, #176]	@ (8000640 <MX_GPIO_Init+0xd0>)
 8000590:	f043 0304 	orr.w	r3, r3, #4
 8000594:	6313      	str	r3, [r2, #48]	@ 0x30
 8000596:	4b2a      	ldr	r3, [pc, #168]	@ (8000640 <MX_GPIO_Init+0xd0>)
 8000598:	6b1b      	ldr	r3, [r3, #48]	@ 0x30
 800059a:	f003 0304 	and.w	r3, r3, #4
 800059e:	613b      	str	r3, [r7, #16]
 80005a0:	693b      	ldr	r3, [r7, #16]
  __HAL_RCC_GPIOH_CLK_ENABLE();
 80005a2:	2300      	movs	r3, #0
 80005a4:	60fb      	str	r3, [r7, #12]
 80005a6:	4b26      	ldr	r3, [pc, #152]	@ (8000640 <MX_GPIO_Init+0xd0>)
 80005a8:	6b1b      	ldr	r3, [r3, #48]	@ 0x30
 80005aa:	4a25      	ldr	r2, [pc, #148]	@ (8000640 <MX_GPIO_Init+0xd0>)
 80005ac:	f043 0380 	orr.w	r3, r3, #128	@ 0x80
 80005b0:	6313      	str	r3, [r2, #48]	@ 0x30
 80005b2:	4b23      	ldr	r3, [pc, #140]	@ (8000640 <MX_GPIO_Init+0xd0>)
 80005b4:	6b1b      	ldr	r3, [r3, #48]	@ 0x30
 80005b6:	f003 0380 	and.w	r3, r3, #128	@ 0x80
 80005ba:	60fb      	str	r3, [r7, #12]
 80005bc:	68fb      	ldr	r3, [r7, #12]
  __HAL_RCC_GPIOA_CLK_ENABLE();
 80005be:	2300      	movs	r3, #0
 80005c0:	60bb      	str	r3, [r7, #8]
 80005c2:	4b1f      	ldr	r3, [pc, #124]	@ (8000640 <MX_GPIO_Init+0xd0>)
 80005c4:	6b1b      	ldr	r3, [r3, #48]	@ 0x30
 80005c6:	4a1e      	ldr	r2, [pc, #120]	@ (8000640 <MX_GPIO_Init+0xd0>)
 80005c8:	f043 0301 	orr.w	r3, r3, #1
 80005cc:	6313      	str	r3, [r2, #48]	@ 0x30
 80005ce:	4b1c      	ldr	r3, [pc, #112]	@ (8000640 <MX_GPIO_Init+0xd0>)
 80005d0:	6b1b      	ldr	r3, [r3, #48]	@ 0x30
 80005d2:	f003 0301 	and.w	r3, r3, #1
 80005d6:	60bb      	str	r3, [r7, #8]
 80005d8:	68bb      	ldr	r3, [r7, #8]
  __HAL_RCC_GPIOB_CLK_ENABLE();
 80005da:	2300      	movs	r3, #0
 80005dc:	607b      	str	r3, [r7, #4]
 80005de:	4b18      	ldr	r3, [pc, #96]	@ (8000640 <MX_GPIO_Init+0xd0>)
 80005e0:	6b1b      	ldr	r3, [r3, #48]	@ 0x30
 80005e2:	4a17      	ldr	r2, [pc, #92]	@ (8000640 <MX_GPIO_Init+0xd0>)
 80005e4:	f043 0302 	orr.w	r3, r3, #2
 80005e8:	6313      	str	r3, [r2, #48]	@ 0x30
 80005ea:	4b15      	ldr	r3, [pc, #84]	@ (8000640 <MX_GPIO_Init+0xd0>)
 80005ec:	6b1b      	ldr	r3, [r3, #48]	@ 0x30
 80005ee:	f003 0302 	and.w	r3, r3, #2
 80005f2:	607b      	str	r3, [r7, #4]
 80005f4:	687b      	ldr	r3, [r7, #4]

  /*Configure GPIO pin Output Level */
  HAL_GPIO_WritePin(LD2_GPIO_Port, LD2_Pin, GPIO_PIN_RESET);
 80005f6:	2200      	movs	r2, #0
 80005f8:	2120      	movs	r1, #32
 80005fa:	4812      	ldr	r0, [pc, #72]	@ (8000644 <MX_GPIO_Init+0xd4>)
 80005fc:	f009 fe04 	bl	800a208 <HAL_GPIO_WritePin>

  /*Configure GPIO pin : PtPin */
  GPIO_InitStruct.Pin = B1_Pin;
 8000600:	f44f 5300 	mov.w	r3, #8192	@ 0x2000
 8000604:	617b      	str	r3, [r7, #20]
  GPIO_InitStruct.Mode = GPIO_MODE_IT_FALLING;
 8000606:	f44f 1304 	mov.w	r3, #2162688	@ 0x210000
 800060a:	61bb      	str	r3, [r7, #24]
  GPIO_InitStruct.Pull = GPIO_NOPULL;
 800060c:	2300      	movs	r3, #0
 800060e:	61fb      	str	r3, [r7, #28]
  HAL_GPIO_Init(B1_GPIO_Port, &GPIO_InitStruct);
 8000610:	f107 0314 	add.w	r3, r7, #20
 8000614:	4619      	mov	r1, r3
 8000616:	480c      	ldr	r0, [pc, #48]	@ (8000648 <MX_GPIO_Init+0xd8>)
 8000618:	f009 fb8e 	bl	8009d38 <HAL_GPIO_Init>

  /*Configure GPIO pin : PtPin */
  GPIO_InitStruct.Pin = LD2_Pin;
 800061c:	2320      	movs	r3, #32
 800061e:	617b      	str	r3, [r7, #20]
  GPIO_InitStruct.Mode = GPIO_MODE_OUTPUT_PP;
 8000620:	2301      	movs	r3, #1
 8000622:	61bb      	str	r3, [r7, #24]
  GPIO_InitStruct.Pull = GPIO_NOPULL;
 8000624:	2300      	movs	r3, #0
 8000626:	61fb      	str	r3, [r7, #28]
  GPIO_InitStruct.Speed = GPIO_SPEED_FREQ_LOW;
 8000628:	2300      	movs	r3, #0
 800062a:	623b      	str	r3, [r7, #32]
  HAL_GPIO_Init(LD2_GPIO_Port, &GPIO_InitStruct);
 800062c:	f107 0314 	add.w	r3, r7, #20
 8000630:	4619      	mov	r1, r3
 8000632:	4804      	ldr	r0, [pc, #16]	@ (8000644 <MX_GPIO_Init+0xd4>)
 8000634:	f009 fb80 	bl	8009d38 <HAL_GPIO_Init>

}
 8000638:	bf00      	nop
 800063a:	3728      	adds	r7, #40	@ 0x28
 800063c:	46bd      	mov	sp, r7
 800063e:	bd80      	pop	{r7, pc}
 8000640:	40023800 	.word	0x40023800
 8000644:	40020000 	.word	0x40020000
 8000648:	40020800 	.word	0x40020800

0800064c <main>:
/**
  * @brief  The application entry point.
  * @retval int
  */
int main(void)
{
 800064c:	b580      	push	{r7, lr}
 800064e:	af00      	add	r7, sp, #0
  /* USER CODE END 1 */

  /* MCU Configuration--------------------------------------------------------*/

  /* Reset of all peripherals, Initializes the Flash interface and the Systick. */
  HAL_Init();
 8000650:	f009 f9f6 	bl	8009a40 <HAL_Init>
  /* USER CODE BEGIN Init */

  /* USER CODE END Init */

  /* Configure the system clock */
  SystemClock_Config();
 8000654:	f000 f80e 	bl	8000674 <SystemClock_Config>
  /* USER CODE BEGIN SysInit */

  /* USER CODE END SysInit */

  /* Initialize all configured peripherals */
  MX_GPIO_Init();
 8000658:	f7ff ff8a 	bl	8000570 <MX_GPIO_Init>
  MX_USART2_UART_Init();
 800065c:	f000 fb3e 	bl	8000cdc <MX_USART2_UART_Init>
  /* USER CODE BEGIN 2 */
  MX_MEMS_Init();
 8000660:	f00c fb92 	bl	800cd88 <MX_MEMS_Init>
  while (1)
  {
    /* USER CODE END WHILE */

    /* USER CODE BEGIN 3 */
	  MX_MEMS_Process();
 8000664:	f00c fb96 	bl	800cd94 <MX_MEMS_Process>
    //		printf("1\n");
	  HAL_Delay(1);
 8000668:	2001      	movs	r0, #1
 800066a:	f009 fa5b 	bl	8009b24 <HAL_Delay>
	  MX_MEMS_Process();
 800066e:	bf00      	nop
 8000670:	e7f8      	b.n	8000664 <main+0x18>
	...

08000674 <SystemClock_Config>:
/**
  * @brief System Clock Configuration
  * @retval None
  */
void SystemClock_Config(void)
{
 8000674:	b580      	push	{r7, lr}
 8000676:	b094      	sub	sp, #80	@ 0x50
 8000678:	af00      	add	r7, sp, #0
  RCC_OscInitTypeDef RCC_OscInitStruct = {0};
 800067a:	f107 0320 	add.w	r3, r7, #32
 800067e:	2230      	movs	r2, #48	@ 0x30
 8000680:	2100      	movs	r1, #0
 8000682:	4618      	mov	r0, r3
 8000684:	f00c fd9b 	bl	800d1be <memset>
  RCC_ClkInitTypeDef RCC_ClkInitStruct = {0};
 8000688:	f107 030c 	add.w	r3, r7, #12
 800068c:	2200      	movs	r2, #0
 800068e:	601a      	str	r2, [r3, #0]
 8000690:	605a      	str	r2, [r3, #4]
 8000692:	609a      	str	r2, [r3, #8]
 8000694:	60da      	str	r2, [r3, #12]
 8000696:	611a      	str	r2, [r3, #16]

  /** Configure the main internal regulator output voltage
  */
  __HAL_RCC_PWR_CLK_ENABLE();
 8000698:	2300      	movs	r3, #0
 800069a:	60bb      	str	r3, [r7, #8]
 800069c:	4b29      	ldr	r3, [pc, #164]	@ (8000744 <SystemClock_Config+0xd0>)
 800069e:	6c1b      	ldr	r3, [r3, #64]	@ 0x40
 80006a0:	4a28      	ldr	r2, [pc, #160]	@ (8000744 <SystemClock_Config+0xd0>)
 80006a2:	f043 5380 	orr.w	r3, r3, #268435456	@ 0x10000000
 80006a6:	6413      	str	r3, [r2, #64]	@ 0x40
 80006a8:	4b26      	ldr	r3, [pc, #152]	@ (8000744 <SystemClock_Config+0xd0>)
 80006aa:	6c1b      	ldr	r3, [r3, #64]	@ 0x40
 80006ac:	f003 5380 	and.w	r3, r3, #268435456	@ 0x10000000
 80006b0:	60bb      	str	r3, [r7, #8]
 80006b2:	68bb      	ldr	r3, [r7, #8]
  __HAL_PWR_VOLTAGESCALING_CONFIG(PWR_REGULATOR_VOLTAGE_SCALE2);
 80006b4:	2300      	movs	r3, #0
 80006b6:	607b      	str	r3, [r7, #4]
 80006b8:	4b23      	ldr	r3, [pc, #140]	@ (8000748 <SystemClock_Config+0xd4>)
 80006ba:	681b      	ldr	r3, [r3, #0]
 80006bc:	f423 4340 	bic.w	r3, r3, #49152	@ 0xc000
 80006c0:	4a21      	ldr	r2, [pc, #132]	@ (8000748 <SystemClock_Config+0xd4>)
 80006c2:	f443 4300 	orr.w	r3, r3, #32768	@ 0x8000
 80006c6:	6013      	str	r3, [r2, #0]
 80006c8:	4b1f      	ldr	r3, [pc, #124]	@ (8000748 <SystemClock_Config+0xd4>)
 80006ca:	681b      	ldr	r3, [r3, #0]
 80006cc:	f403 4340 	and.w	r3, r3, #49152	@ 0xc000
 80006d0:	607b      	str	r3, [r7, #4]
 80006d2:	687b      	ldr	r3, [r7, #4]

  /** Initializes the RCC Oscillators according to the specified parameters
  * in the RCC_OscInitTypeDef structure.
  */
  RCC_OscInitStruct.OscillatorType = RCC_OSCILLATORTYPE_HSI;
 80006d4:	2302      	movs	r3, #2
 80006d6:	623b      	str	r3, [r7, #32]
  RCC_OscInitStruct.HSIState = RCC_HSI_ON;
 80006d8:	2301      	movs	r3, #1
 80006da:	62fb      	str	r3, [r7, #44]	@ 0x2c
  RCC_OscInitStruct.HSICalibrationValue = RCC_HSICALIBRATION_DEFAULT;
 80006dc:	2310      	movs	r3, #16
 80006de:	633b      	str	r3, [r7, #48]	@ 0x30
  RCC_OscInitStruct.PLL.PLLState = RCC_PLL_ON;
 80006e0:	2302      	movs	r3, #2
 80006e2:	63bb      	str	r3, [r7, #56]	@ 0x38
  RCC_OscInitStruct.PLL.PLLSource = RCC_PLLSOURCE_HSI;
 80006e4:	2300      	movs	r3, #0
 80006e6:	63fb      	str	r3, [r7, #60]	@ 0x3c
  RCC_OscInitStruct.PLL.PLLM = 16;
 80006e8:	2310      	movs	r3, #16
 80006ea:	643b      	str	r3, [r7, #64]	@ 0x40
  RCC_OscInitStruct.PLL.PLLN = 336;
 80006ec:	f44f 73a8 	mov.w	r3, #336	@ 0x150
 80006f0:	647b      	str	r3, [r7, #68]	@ 0x44
  RCC_OscInitStruct.PLL.PLLP = RCC_PLLP_DIV4;
 80006f2:	2304      	movs	r3, #4
 80006f4:	64bb      	str	r3, [r7, #72]	@ 0x48
  RCC_OscInitStruct.PLL.PLLQ = 7;
 80006f6:	2307      	movs	r3, #7
 80006f8:	64fb      	str	r3, [r7, #76]	@ 0x4c
  if (HAL_RCC_OscConfig(&RCC_OscInitStruct) != HAL_OK)
 80006fa:	f107 0320 	add.w	r3, r7, #32
 80006fe:	4618      	mov	r0, r3
 8000700:	f00b fa9e 	bl	800bc40 <HAL_RCC_OscConfig>
 8000704:	4603      	mov	r3, r0
 8000706:	2b00      	cmp	r3, #0
 8000708:	d001      	beq.n	800070e <SystemClock_Config+0x9a>
  {
    Error_Handler();
 800070a:	f000 f81f 	bl	800074c <Error_Handler>
  }

  /** Initializes the CPU, AHB and APB buses clocks
  */
  RCC_ClkInitStruct.ClockType = RCC_CLOCKTYPE_HCLK|RCC_CLOCKTYPE_SYSCLK
 800070e:	230f      	movs	r3, #15
 8000710:	60fb      	str	r3, [r7, #12]
                              |RCC_CLOCKTYPE_PCLK1|RCC_CLOCKTYPE_PCLK2;
  RCC_ClkInitStruct.SYSCLKSource = RCC_SYSCLKSOURCE_PLLCLK;
 8000712:	2302      	movs	r3, #2
 8000714:	613b      	str	r3, [r7, #16]
  RCC_ClkInitStruct.AHBCLKDivider = RCC_SYSCLK_DIV1;
 8000716:	2300      	movs	r3, #0
 8000718:	617b      	str	r3, [r7, #20]
  RCC_ClkInitStruct.APB1CLKDivider = RCC_HCLK_DIV2;
 800071a:	f44f 5380 	mov.w	r3, #4096	@ 0x1000
 800071e:	61bb      	str	r3, [r7, #24]
  RCC_ClkInitStruct.APB2CLKDivider = RCC_HCLK_DIV1;
 8000720:	2300      	movs	r3, #0
 8000722:	61fb      	str	r3, [r7, #28]

  if (HAL_RCC_ClockConfig(&RCC_ClkInitStruct, FLASH_LATENCY_2) != HAL_OK)
 8000724:	f107 030c 	add.w	r3, r7, #12
 8000728:	2102      	movs	r1, #2
 800072a:	4618      	mov	r0, r3
 800072c:	f00b fd00 	bl	800c130 <HAL_RCC_ClockConfig>
 8000730:	4603      	mov	r3, r0
 8000732:	2b00      	cmp	r3, #0
 8000734:	d001      	beq.n	800073a <SystemClock_Config+0xc6>
  {
    Error_Handler();
 8000736:	f000 f809 	bl	800074c <Error_Handler>
  }
}
 800073a:	bf00      	nop
 800073c:	3750      	adds	r7, #80	@ 0x50
 800073e:	46bd      	mov	sp, r7
 8000740:	bd80      	pop	{r7, pc}
 8000742:	bf00      	nop
 8000744:	40023800 	.word	0x40023800
 8000748:	40007000 	.word	0x40007000

0800074c <Error_Handler>:
/**
  * @brief  This function is executed in case of error occurrence.
  * @retval None
  */
void Error_Handler(void)
{
 800074c:	b480      	push	{r7}
 800074e:	af00      	add	r7, sp, #0
  \details Disables IRQ interrupts by setting special-purpose register PRIMASK.
           Can only be executed in Privileged modes.
 */
__STATIC_FORCEINLINE void __disable_irq(void)
{
  __ASM volatile ("cpsid i" : : : "memory");
 8000750:	b672      	cpsid	i
}
 8000752:	bf00      	nop
  /* USER CODE BEGIN Error_Handler_Debug */
  /* User can add his own implementation to report the HAL error return state */
  __disable_irq();
  while (1)
 8000754:	bf00      	nop
 8000756:	e7fd      	b.n	8000754 <Error_Handler+0x8>

08000758 <HAL_MspInit>:
/* USER CODE END 0 */
/**
  * Initializes the Global MSP.
  */
void HAL_MspInit(void)
{
 8000758:	b580      	push	{r7, lr}
 800075a:	b082      	sub	sp, #8
 800075c:	af00      	add	r7, sp, #0

  /* USER CODE BEGIN MspInit 0 */

  /* USER CODE END MspInit 0 */

  __HAL_RCC_SYSCFG_CLK_ENABLE();
 800075e:	2300      	movs	r3, #0
 8000760:	607b      	str	r3, [r7, #4]
 8000762:	4b10      	ldr	r3, [pc, #64]	@ (80007a4 <HAL_MspInit+0x4c>)
 8000764:	6c5b      	ldr	r3, [r3, #68]	@ 0x44
 8000766:	4a0f      	ldr	r2, [pc, #60]	@ (80007a4 <HAL_MspInit+0x4c>)
 8000768:	f443 4380 	orr.w	r3, r3, #16384	@ 0x4000
 800076c:	6453      	str	r3, [r2, #68]	@ 0x44
 800076e:	4b0d      	ldr	r3, [pc, #52]	@ (80007a4 <HAL_MspInit+0x4c>)
 8000770:	6c5b      	ldr	r3, [r3, #68]	@ 0x44
 8000772:	f403 4380 	and.w	r3, r3, #16384	@ 0x4000
 8000776:	607b      	str	r3, [r7, #4]
 8000778:	687b      	ldr	r3, [r7, #4]
  __HAL_RCC_PWR_CLK_ENABLE();
 800077a:	2300      	movs	r3, #0
 800077c:	603b      	str	r3, [r7, #0]
 800077e:	4b09      	ldr	r3, [pc, #36]	@ (80007a4 <HAL_MspInit+0x4c>)
 8000780:	6c1b      	ldr	r3, [r3, #64]	@ 0x40
 8000782:	4a08      	ldr	r2, [pc, #32]	@ (80007a4 <HAL_MspInit+0x4c>)
 8000784:	f043 5380 	orr.w	r3, r3, #268435456	@ 0x10000000
 8000788:	6413      	str	r3, [r2, #64]	@ 0x40
 800078a:	4b06      	ldr	r3, [pc, #24]	@ (80007a4 <HAL_MspInit+0x4c>)
 800078c:	6c1b      	ldr	r3, [r3, #64]	@ 0x40
 800078e:	f003 5380 	and.w	r3, r3, #268435456	@ 0x10000000
 8000792:	603b      	str	r3, [r7, #0]
 8000794:	683b      	ldr	r3, [r7, #0]

  HAL_NVIC_SetPriorityGrouping(NVIC_PRIORITYGROUP_0);
 8000796:	2007      	movs	r0, #7
 8000798:	f009 fa9a 	bl	8009cd0 <HAL_NVIC_SetPriorityGrouping>
  /* System interrupt init*/

  /* USER CODE BEGIN MspInit 1 */

  /* USER CODE END MspInit 1 */
}
 800079c:	bf00      	nop
 800079e:	3708      	adds	r7, #8
 80007a0:	46bd      	mov	sp, r7
 80007a2:	bd80      	pop	{r7, pc}
 80007a4:	40023800 	.word	0x40023800

080007a8 <NMI_Handler>:
/******************************************************************************/
/**
  * @brief This function handles Non maskable interrupt.
  */
void NMI_Handler(void)
{
 80007a8:	b480      	push	{r7}
 80007aa:	af00      	add	r7, sp, #0
  /* USER CODE BEGIN NonMaskableInt_IRQn 0 */

  /* USER CODE END NonMaskableInt_IRQn 0 */
  /* USER CODE BEGIN NonMaskableInt_IRQn 1 */
   while (1)
 80007ac:	bf00      	nop
 80007ae:	e7fd      	b.n	80007ac <NMI_Handler+0x4>

080007b0 <HardFault_Handler>:

/**
  * @brief This function handles Hard fault interrupt.
  */
void HardFault_Handler(void)
{
 80007b0:	b480      	push	{r7}
 80007b2:	af00      	add	r7, sp, #0
  /* USER CODE BEGIN HardFault_IRQn 0 */

  /* USER CODE END HardFault_IRQn 0 */
  while (1)
 80007b4:	bf00      	nop
 80007b6:	e7fd      	b.n	80007b4 <HardFault_Handler+0x4>

080007b8 <MemManage_Handler>:

/**
  * @brief This function handles Memory management fault.
  */
void MemManage_Handler(void)
{
 80007b8:	b480      	push	{r7}
 80007ba:	af00      	add	r7, sp, #0
  /* USER CODE BEGIN MemoryManagement_IRQn 0 */

  /* USER CODE END MemoryManagement_IRQn 0 */
  while (1)
 80007bc:	bf00      	nop
 80007be:	e7fd      	b.n	80007bc <MemManage_Handler+0x4>

080007c0 <BusFault_Handler>:

/**
  * @brief This function handles Pre-fetch fault, memory access fault.
  */
void BusFault_Handler(void)
{
 80007c0:	b480      	push	{r7}
 80007c2:	af00      	add	r7, sp, #0
  /* USER CODE BEGIN BusFault_IRQn 0 */

  /* USER CODE END BusFault_IRQn 0 */
  while (1)
 80007c4:	bf00      	nop
 80007c6:	e7fd      	b.n	80007c4 <BusFault_Handler+0x4>

080007c8 <UsageFault_Handler>:

/**
  * @brief This function handles Undefined instruction or illegal state.
  */
void UsageFault_Handler(void)
{
 80007c8:	b480      	push	{r7}
 80007ca:	af00      	add	r7, sp, #0
  /* USER CODE BEGIN UsageFault_IRQn 0 */

  /* USER CODE END UsageFault_IRQn 0 */
  while (1)
 80007cc:	bf00      	nop
 80007ce:	e7fd      	b.n	80007cc <UsageFault_Handler+0x4>

080007d0 <SVC_Handler>:

/**
  * @brief This function handles System service call via SWI instruction.
  */
void SVC_Handler(void)
{
 80007d0:	b480      	push	{r7}
 80007d2:	af00      	add	r7, sp, #0

  /* USER CODE END SVCall_IRQn 0 */
  /* USER CODE BEGIN SVCall_IRQn 1 */

  /* USER CODE END SVCall_IRQn 1 */
}
 80007d4:	bf00      	nop
 80007d6:	46bd      	mov	sp, r7
 80007d8:	f85d 7b04 	ldr.w	r7, [sp], #4
 80007dc:	4770      	bx	lr

080007de <DebugMon_Handler>:

/**
  * @brief This function handles Debug monitor.
  */
void DebugMon_Handler(void)
{
 80007de:	b480      	push	{r7}
 80007e0:	af00      	add	r7, sp, #0

  /* USER CODE END DebugMonitor_IRQn 0 */
  /* USER CODE BEGIN DebugMonitor_IRQn 1 */

  /* USER CODE END DebugMonitor_IRQn 1 */
}
 80007e2:	bf00      	nop
 80007e4:	46bd      	mov	sp, r7
 80007e6:	f85d 7b04 	ldr.w	r7, [sp], #4
 80007ea:	4770      	bx	lr

080007ec <PendSV_Handler>:

/**
  * @brief This function handles Pendable request for system service.
  */
void PendSV_Handler(void)
{
 80007ec:	b480      	push	{r7}
 80007ee:	af00      	add	r7, sp, #0

  /* USER CODE END PendSV_IRQn 0 */
  /* USER CODE BEGIN PendSV_IRQn 1 */

  /* USER CODE END PendSV_IRQn 1 */
}
 80007f0:	bf00      	nop
 80007f2:	46bd      	mov	sp, r7
 80007f4:	f85d 7b04 	ldr.w	r7, [sp], #4
 80007f8:	4770      	bx	lr

080007fa <SysTick_Handler>:

/**
  * @brief This function handles System tick timer.
  */
void SysTick_Handler(void)
{
 80007fa:	b580      	push	{r7, lr}
 80007fc:	af00      	add	r7, sp, #0
  /* USER CODE BEGIN SysTick_IRQn 0 */

  /* USER CODE END SysTick_IRQn 0 */
  HAL_IncTick();
 80007fe:	f009 f971 	bl	8009ae4 <HAL_IncTick>
  /* USER CODE BEGIN SysTick_IRQn 1 */

  /* USER CODE END SysTick_IRQn 1 */
}
 8000802:	bf00      	nop
 8000804:	bd80      	pop	{r7, pc}
	...

08000808 <BSP_I2C1_Init>:
/**
  * @brief  Initialize I2C HAL
  * @retval BSP status
  */
int32_t BSP_I2C1_Init(void)
{
 8000808:	b580      	push	{r7, lr}
 800080a:	b082      	sub	sp, #8
 800080c:	af00      	add	r7, sp, #0

  int32_t ret = BSP_ERROR_NONE;
 800080e:	2300      	movs	r3, #0
 8000810:	607b      	str	r3, [r7, #4]

  hi2c1.Instance  = I2C1;
 8000812:	4b13      	ldr	r3, [pc, #76]	@ (8000860 <BSP_I2C1_Init+0x58>)
 8000814:	4a13      	ldr	r2, [pc, #76]	@ (8000864 <BSP_I2C1_Init+0x5c>)
 8000816:	601a      	str	r2, [r3, #0]

  if(I2C1InitCounter++ == 0)
 8000818:	4b13      	ldr	r3, [pc, #76]	@ (8000868 <BSP_I2C1_Init+0x60>)
 800081a:	681b      	ldr	r3, [r3, #0]
 800081c:	1c5a      	adds	r2, r3, #1
 800081e:	4912      	ldr	r1, [pc, #72]	@ (8000868 <BSP_I2C1_Init+0x60>)
 8000820:	600a      	str	r2, [r1, #0]
 8000822:	2b00      	cmp	r3, #0
 8000824:	d117      	bne.n	8000856 <BSP_I2C1_Init+0x4e>
  {
    if (HAL_I2C_GetState(&hi2c1) == HAL_I2C_STATE_RESET)
 8000826:	480e      	ldr	r0, [pc, #56]	@ (8000860 <BSP_I2C1_Init+0x58>)
 8000828:	f00a fcec 	bl	800b204 <HAL_I2C_GetState>
 800082c:	4603      	mov	r3, r0
 800082e:	2b00      	cmp	r3, #0
 8000830:	d111      	bne.n	8000856 <BSP_I2C1_Init+0x4e>
    {
    #if (USE_HAL_I2C_REGISTER_CALLBACKS == 0U)
      /* Init the I2C Msp */
      I2C1_MspInit(&hi2c1);
 8000832:	480b      	ldr	r0, [pc, #44]	@ (8000860 <BSP_I2C1_Init+0x58>)
 8000834:	f000 f936 	bl	8000aa4 <I2C1_MspInit>
        {
          return BSP_ERROR_MSP_FAILURE;
        }
      }
    #endif
      if(ret == BSP_ERROR_NONE)
 8000838:	687b      	ldr	r3, [r7, #4]
 800083a:	2b00      	cmp	r3, #0
 800083c:	d10b      	bne.n	8000856 <BSP_I2C1_Init+0x4e>
      {
        /* Init the I2C */
        if(MX_I2C1_Init(&hi2c1) != HAL_OK)
 800083e:	4808      	ldr	r0, [pc, #32]	@ (8000860 <BSP_I2C1_Init+0x58>)
 8000840:	f000 f8fc 	bl	8000a3c <MX_I2C1_Init>
 8000844:	4603      	mov	r3, r0
 8000846:	2b00      	cmp	r3, #0
 8000848:	d003      	beq.n	8000852 <BSP_I2C1_Init+0x4a>
        {
          ret = BSP_ERROR_BUS_FAILURE;
 800084a:	f06f 0307 	mvn.w	r3, #7
 800084e:	607b      	str	r3, [r7, #4]
 8000850:	e001      	b.n	8000856 <BSP_I2C1_Init+0x4e>
        }
        else
        {
          ret = BSP_ERROR_NONE;
 8000852:	2300      	movs	r3, #0
 8000854:	607b      	str	r3, [r7, #4]
        }
      }
    }
  }
  return ret;
 8000856:	687b      	ldr	r3, [r7, #4]
}
 8000858:	4618      	mov	r0, r3
 800085a:	3708      	adds	r7, #8
 800085c:	46bd      	mov	sp, r7
 800085e:	bd80      	pop	{r7, pc}
 8000860:	20000274 	.word	0x20000274
 8000864:	40005400 	.word	0x40005400
 8000868:	200002c8 	.word	0x200002c8

0800086c <BSP_I2C1_DeInit>:
/**
  * @brief  DeInitialize I2C HAL.
  * @retval BSP status
  */
int32_t BSP_I2C1_DeInit(void)
{
 800086c:	b580      	push	{r7, lr}
 800086e:	b082      	sub	sp, #8
 8000870:	af00      	add	r7, sp, #0
  int32_t ret = BSP_ERROR_NONE;
 8000872:	2300      	movs	r3, #0
 8000874:	607b      	str	r3, [r7, #4]

  if (I2C1InitCounter > 0)
 8000876:	4b0f      	ldr	r3, [pc, #60]	@ (80008b4 <BSP_I2C1_DeInit+0x48>)
 8000878:	681b      	ldr	r3, [r3, #0]
 800087a:	2b00      	cmp	r3, #0
 800087c:	d014      	beq.n	80008a8 <BSP_I2C1_DeInit+0x3c>
  {
    if (--I2C1InitCounter == 0)
 800087e:	4b0d      	ldr	r3, [pc, #52]	@ (80008b4 <BSP_I2C1_DeInit+0x48>)
 8000880:	681b      	ldr	r3, [r3, #0]
 8000882:	3b01      	subs	r3, #1
 8000884:	4a0b      	ldr	r2, [pc, #44]	@ (80008b4 <BSP_I2C1_DeInit+0x48>)
 8000886:	6013      	str	r3, [r2, #0]
 8000888:	4b0a      	ldr	r3, [pc, #40]	@ (80008b4 <BSP_I2C1_DeInit+0x48>)
 800088a:	681b      	ldr	r3, [r3, #0]
 800088c:	2b00      	cmp	r3, #0
 800088e:	d10b      	bne.n	80008a8 <BSP_I2C1_DeInit+0x3c>
    {
  #if (USE_HAL_I2C_REGISTER_CALLBACKS == 0U)
      /* DeInit the I2C */
      I2C1_MspDeInit(&hi2c1);
 8000890:	4809      	ldr	r0, [pc, #36]	@ (80008b8 <BSP_I2C1_DeInit+0x4c>)
 8000892:	f000 f951 	bl	8000b38 <I2C1_MspDeInit>
  #endif
      /* DeInit the I2C */
      if (HAL_I2C_DeInit(&hi2c1) != HAL_OK)
 8000896:	4808      	ldr	r0, [pc, #32]	@ (80008b8 <BSP_I2C1_DeInit+0x4c>)
 8000898:	f009 fe14 	bl	800a4c4 <HAL_I2C_DeInit>
 800089c:	4603      	mov	r3, r0
 800089e:	2b00      	cmp	r3, #0
 80008a0:	d002      	beq.n	80008a8 <BSP_I2C1_DeInit+0x3c>
      {
        ret = BSP_ERROR_BUS_FAILURE;
 80008a2:	f06f 0307 	mvn.w	r3, #7
 80008a6:	607b      	str	r3, [r7, #4]
      }
    }
  }
  return ret;
 80008a8:	687b      	ldr	r3, [r7, #4]
}
 80008aa:	4618      	mov	r0, r3
 80008ac:	3708      	adds	r7, #8
 80008ae:	46bd      	mov	sp, r7
 80008b0:	bd80      	pop	{r7, pc}
 80008b2:	bf00      	nop
 80008b4:	200002c8 	.word	0x200002c8
 80008b8:	20000274 	.word	0x20000274

080008bc <BSP_I2C1_WriteReg>:
  * @param  Length Data Length
  * @retval BSP status
  */

int32_t BSP_I2C1_WriteReg(uint16_t DevAddr, uint16_t Reg, uint8_t *pData, uint16_t Length)
{
 80008bc:	b580      	push	{r7, lr}
 80008be:	b08a      	sub	sp, #40	@ 0x28
 80008c0:	af04      	add	r7, sp, #16
 80008c2:	60ba      	str	r2, [r7, #8]
 80008c4:	461a      	mov	r2, r3
 80008c6:	4603      	mov	r3, r0
 80008c8:	81fb      	strh	r3, [r7, #14]
 80008ca:	460b      	mov	r3, r1
 80008cc:	81bb      	strh	r3, [r7, #12]
 80008ce:	4613      	mov	r3, r2
 80008d0:	80fb      	strh	r3, [r7, #6]
  int32_t ret = BSP_ERROR_NONE;
 80008d2:	2300      	movs	r3, #0
 80008d4:	617b      	str	r3, [r7, #20]

  if (HAL_I2C_Mem_Write(&hi2c1, DevAddr,Reg, I2C_MEMADD_SIZE_8BIT,pData, Length, BUS_I2C1_POLL_TIMEOUT) != HAL_OK)
 80008d6:	89ba      	ldrh	r2, [r7, #12]
 80008d8:	89f9      	ldrh	r1, [r7, #14]
 80008da:	f44f 5380 	mov.w	r3, #4096	@ 0x1000
 80008de:	9302      	str	r3, [sp, #8]
 80008e0:	88fb      	ldrh	r3, [r7, #6]
 80008e2:	9301      	str	r3, [sp, #4]
 80008e4:	68bb      	ldr	r3, [r7, #8]
 80008e6:	9300      	str	r3, [sp, #0]
 80008e8:	2301      	movs	r3, #1
 80008ea:	480c      	ldr	r0, [pc, #48]	@ (800091c <BSP_I2C1_WriteReg+0x60>)
 80008ec:	f00a f95e 	bl	800abac <HAL_I2C_Mem_Write>
 80008f0:	4603      	mov	r3, r0
 80008f2:	2b00      	cmp	r3, #0
 80008f4:	d00c      	beq.n	8000910 <BSP_I2C1_WriteReg+0x54>
  {
    if (HAL_I2C_GetError(&hi2c1) == HAL_I2C_ERROR_AF)
 80008f6:	4809      	ldr	r0, [pc, #36]	@ (800091c <BSP_I2C1_WriteReg+0x60>)
 80008f8:	f00a fc92 	bl	800b220 <HAL_I2C_GetError>
 80008fc:	4603      	mov	r3, r0
 80008fe:	2b04      	cmp	r3, #4
 8000900:	d103      	bne.n	800090a <BSP_I2C1_WriteReg+0x4e>
    {
      ret = BSP_ERROR_BUS_ACKNOWLEDGE_FAILURE;
 8000902:	f06f 0365 	mvn.w	r3, #101	@ 0x65
 8000906:	617b      	str	r3, [r7, #20]
 8000908:	e002      	b.n	8000910 <BSP_I2C1_WriteReg+0x54>
    }
    else
    {
      ret =  BSP_ERROR_PERIPH_FAILURE;
 800090a:	f06f 0303 	mvn.w	r3, #3
 800090e:	617b      	str	r3, [r7, #20]
    }
  }
  return ret;
 8000910:	697b      	ldr	r3, [r7, #20]
}
 8000912:	4618      	mov	r0, r3
 8000914:	3718      	adds	r7, #24
 8000916:	46bd      	mov	sp, r7
 8000918:	bd80      	pop	{r7, pc}
 800091a:	bf00      	nop
 800091c:	20000274 	.word	0x20000274

08000920 <BSP_I2C1_ReadReg>:
  * @param  pData  Pointer to data buffer to read
  * @param  Length Data Length
  * @retval BSP status
  */
int32_t  BSP_I2C1_ReadReg(uint16_t DevAddr, uint16_t Reg, uint8_t *pData, uint16_t Length)
{
 8000920:	b580      	push	{r7, lr}
 8000922:	b08a      	sub	sp, #40	@ 0x28
 8000924:	af04      	add	r7, sp, #16
 8000926:	60ba      	str	r2, [r7, #8]
 8000928:	461a      	mov	r2, r3
 800092a:	4603      	mov	r3, r0
 800092c:	81fb      	strh	r3, [r7, #14]
 800092e:	460b      	mov	r3, r1
 8000930:	81bb      	strh	r3, [r7, #12]
 8000932:	4613      	mov	r3, r2
 8000934:	80fb      	strh	r3, [r7, #6]
  int32_t ret = BSP_ERROR_NONE;
 8000936:	2300      	movs	r3, #0
 8000938:	617b      	str	r3, [r7, #20]

  if (HAL_I2C_Mem_Read(&hi2c1, DevAddr, Reg, I2C_MEMADD_SIZE_8BIT, pData, Length, BUS_I2C1_POLL_TIMEOUT) != HAL_OK)
 800093a:	89ba      	ldrh	r2, [r7, #12]
 800093c:	89f9      	ldrh	r1, [r7, #14]
 800093e:	f44f 5380 	mov.w	r3, #4096	@ 0x1000
 8000942:	9302      	str	r3, [sp, #8]
 8000944:	88fb      	ldrh	r3, [r7, #6]
 8000946:	9301      	str	r3, [sp, #4]
 8000948:	68bb      	ldr	r3, [r7, #8]
 800094a:	9300      	str	r3, [sp, #0]
 800094c:	2301      	movs	r3, #1
 800094e:	480c      	ldr	r0, [pc, #48]	@ (8000980 <BSP_I2C1_ReadReg+0x60>)
 8000950:	f00a fa26 	bl	800ada0 <HAL_I2C_Mem_Read>
 8000954:	4603      	mov	r3, r0
 8000956:	2b00      	cmp	r3, #0
 8000958:	d00c      	beq.n	8000974 <BSP_I2C1_ReadReg+0x54>
  {
    if (HAL_I2C_GetError(&hi2c1) == HAL_I2C_ERROR_AF)
 800095a:	4809      	ldr	r0, [pc, #36]	@ (8000980 <BSP_I2C1_ReadReg+0x60>)
 800095c:	f00a fc60 	bl	800b220 <HAL_I2C_GetError>
 8000960:	4603      	mov	r3, r0
 8000962:	2b04      	cmp	r3, #4
 8000964:	d103      	bne.n	800096e <BSP_I2C1_ReadReg+0x4e>
    {
      ret = BSP_ERROR_BUS_ACKNOWLEDGE_FAILURE;
 8000966:	f06f 0365 	mvn.w	r3, #101	@ 0x65
 800096a:	617b      	str	r3, [r7, #20]
 800096c:	e002      	b.n	8000974 <BSP_I2C1_ReadReg+0x54>
    }
    else
    {
      ret = BSP_ERROR_PERIPH_FAILURE;
 800096e:	f06f 0303 	mvn.w	r3, #3
 8000972:	617b      	str	r3, [r7, #20]
    }
  }
  return ret;
 8000974:	697b      	ldr	r3, [r7, #20]
}
 8000976:	4618      	mov	r0, r3
 8000978:	3718      	adds	r7, #24
 800097a:	46bd      	mov	sp, r7
 800097c:	bd80      	pop	{r7, pc}
 800097e:	bf00      	nop
 8000980:	20000274 	.word	0x20000274

08000984 <BSP_I2C1_Send>:
  * @param  DevAddr: Device address on Bus.
  * @param  pData: Data pointer
  * @param  Length: Data length
  * @retval BSP status
  */
int32_t BSP_I2C1_Send(uint16_t DevAddr, uint8_t *pData, uint16_t Length) {
 8000984:	b580      	push	{r7, lr}
 8000986:	b086      	sub	sp, #24
 8000988:	af02      	add	r7, sp, #8
 800098a:	4603      	mov	r3, r0
 800098c:	6039      	str	r1, [r7, #0]
 800098e:	80fb      	strh	r3, [r7, #6]
 8000990:	4613      	mov	r3, r2
 8000992:	80bb      	strh	r3, [r7, #4]
  int32_t ret = BSP_ERROR_NONE;
 8000994:	2300      	movs	r3, #0
 8000996:	60fb      	str	r3, [r7, #12]

  if (HAL_I2C_Master_Transmit(&hi2c1, DevAddr, pData, Length, BUS_I2C1_POLL_TIMEOUT) != HAL_OK)
 8000998:	88bb      	ldrh	r3, [r7, #4]
 800099a:	88f9      	ldrh	r1, [r7, #6]
 800099c:	f44f 5280 	mov.w	r2, #4096	@ 0x1000
 80009a0:	9200      	str	r2, [sp, #0]
 80009a2:	683a      	ldr	r2, [r7, #0]
 80009a4:	480b      	ldr	r0, [pc, #44]	@ (80009d4 <BSP_I2C1_Send+0x50>)
 80009a6:	f009 fdd1 	bl	800a54c <HAL_I2C_Master_Transmit>
 80009aa:	4603      	mov	r3, r0
 80009ac:	2b00      	cmp	r3, #0
 80009ae:	d00c      	beq.n	80009ca <BSP_I2C1_Send+0x46>
  {
    if (HAL_I2C_GetError(&hi2c1) != HAL_I2C_ERROR_AF)
 80009b0:	4808      	ldr	r0, [pc, #32]	@ (80009d4 <BSP_I2C1_Send+0x50>)
 80009b2:	f00a fc35 	bl	800b220 <HAL_I2C_GetError>
 80009b6:	4603      	mov	r3, r0
 80009b8:	2b04      	cmp	r3, #4
 80009ba:	d003      	beq.n	80009c4 <BSP_I2C1_Send+0x40>
    {
      ret = BSP_ERROR_BUS_ACKNOWLEDGE_FAILURE;
 80009bc:	f06f 0365 	mvn.w	r3, #101	@ 0x65
 80009c0:	60fb      	str	r3, [r7, #12]
 80009c2:	e002      	b.n	80009ca <BSP_I2C1_Send+0x46>
    }
    else
    {
      ret =  BSP_ERROR_PERIPH_FAILURE;
 80009c4:	f06f 0303 	mvn.w	r3, #3
 80009c8:	60fb      	str	r3, [r7, #12]
    }
  }

  return ret;
 80009ca:	68fb      	ldr	r3, [r7, #12]
}
 80009cc:	4618      	mov	r0, r3
 80009ce:	3710      	adds	r7, #16
 80009d0:	46bd      	mov	sp, r7
 80009d2:	bd80      	pop	{r7, pc}
 80009d4:	20000274 	.word	0x20000274

080009d8 <BSP_I2C1_Recv>:
  * @param  DevAddr: Device address on Bus.
  * @param  pData: Data pointer
  * @param  Length: Data length
  * @retval BSP status
  */
int32_t BSP_I2C1_Recv(uint16_t DevAddr, uint8_t *pData, uint16_t Length) {
 80009d8:	b580      	push	{r7, lr}
 80009da:	b086      	sub	sp, #24
 80009dc:	af02      	add	r7, sp, #8
 80009de:	4603      	mov	r3, r0
 80009e0:	6039      	str	r1, [r7, #0]
 80009e2:	80fb      	strh	r3, [r7, #6]
 80009e4:	4613      	mov	r3, r2
 80009e6:	80bb      	strh	r3, [r7, #4]
  int32_t ret = BSP_ERROR_NONE;
 80009e8:	2300      	movs	r3, #0
 80009ea:	60fb      	str	r3, [r7, #12]

  if (HAL_I2C_Master_Receive(&hi2c1, DevAddr, pData, Length, BUS_I2C1_POLL_TIMEOUT) != HAL_OK)
 80009ec:	88bb      	ldrh	r3, [r7, #4]
 80009ee:	88f9      	ldrh	r1, [r7, #6]
 80009f0:	f44f 5280 	mov.w	r2, #4096	@ 0x1000
 80009f4:	9200      	str	r2, [sp, #0]
 80009f6:	683a      	ldr	r2, [r7, #0]
 80009f8:	480b      	ldr	r0, [pc, #44]	@ (8000a28 <BSP_I2C1_Recv+0x50>)
 80009fa:	f009 fea5 	bl	800a748 <HAL_I2C_Master_Receive>
 80009fe:	4603      	mov	r3, r0
 8000a00:	2b00      	cmp	r3, #0
 8000a02:	d00c      	beq.n	8000a1e <BSP_I2C1_Recv+0x46>
  {
    if (HAL_I2C_GetError(&hi2c1) != HAL_I2C_ERROR_AF)
 8000a04:	4808      	ldr	r0, [pc, #32]	@ (8000a28 <BSP_I2C1_Recv+0x50>)
 8000a06:	f00a fc0b 	bl	800b220 <HAL_I2C_GetError>
 8000a0a:	4603      	mov	r3, r0
 8000a0c:	2b04      	cmp	r3, #4
 8000a0e:	d003      	beq.n	8000a18 <BSP_I2C1_Recv+0x40>
    {
      ret = BSP_ERROR_BUS_ACKNOWLEDGE_FAILURE;
 8000a10:	f06f 0365 	mvn.w	r3, #101	@ 0x65
 8000a14:	60fb      	str	r3, [r7, #12]
 8000a16:	e002      	b.n	8000a1e <BSP_I2C1_Recv+0x46>
    }
    else
    {
      ret =  BSP_ERROR_PERIPH_FAILURE;
 8000a18:	f06f 0303 	mvn.w	r3, #3
 8000a1c:	60fb      	str	r3, [r7, #12]
    }
  }
  return ret;
 8000a1e:	68fb      	ldr	r3, [r7, #12]
}
 8000a20:	4618      	mov	r0, r3
 8000a22:	3710      	adds	r7, #16
 8000a24:	46bd      	mov	sp, r7
 8000a26:	bd80      	pop	{r7, pc}
 8000a28:	20000274 	.word	0x20000274

08000a2c <BSP_GetTick>:

/**
  * @brief  Return system tick in ms
  * @retval Current HAL time base time stamp
  */
int32_t BSP_GetTick(void) {
 8000a2c:	b580      	push	{r7, lr}
 8000a2e:	af00      	add	r7, sp, #0
  return HAL_GetTick();
 8000a30:	f009 f86c 	bl	8009b0c <HAL_GetTick>
 8000a34:	4603      	mov	r3, r0
}
 8000a36:	4618      	mov	r0, r3
 8000a38:	bd80      	pop	{r7, pc}
	...

08000a3c <MX_I2C1_Init>:

/* I2C1 init function */

__weak HAL_StatusTypeDef MX_I2C1_Init(I2C_HandleTypeDef* hi2c)
{
 8000a3c:	b580      	push	{r7, lr}
 8000a3e:	b084      	sub	sp, #16
 8000a40:	af00      	add	r7, sp, #0
 8000a42:	6078      	str	r0, [r7, #4]
  HAL_StatusTypeDef ret = HAL_OK;
 8000a44:	2300      	movs	r3, #0
 8000a46:	73fb      	strb	r3, [r7, #15]

  hi2c->Instance = I2C1;
 8000a48:	687b      	ldr	r3, [r7, #4]
 8000a4a:	4a14      	ldr	r2, [pc, #80]	@ (8000a9c <MX_I2C1_Init+0x60>)
 8000a4c:	601a      	str	r2, [r3, #0]
  hi2c->Init.ClockSpeed = 400000;
 8000a4e:	687b      	ldr	r3, [r7, #4]
 8000a50:	4a13      	ldr	r2, [pc, #76]	@ (8000aa0 <MX_I2C1_Init+0x64>)
 8000a52:	605a      	str	r2, [r3, #4]
  hi2c->Init.DutyCycle = I2C_DUTYCYCLE_2;
 8000a54:	687b      	ldr	r3, [r7, #4]
 8000a56:	2200      	movs	r2, #0
 8000a58:	609a      	str	r2, [r3, #8]
  hi2c->Init.OwnAddress1 = 0;
 8000a5a:	687b      	ldr	r3, [r7, #4]
 8000a5c:	2200      	movs	r2, #0
 8000a5e:	60da      	str	r2, [r3, #12]
  hi2c->Init.AddressingMode = I2C_ADDRESSINGMODE_7BIT;
 8000a60:	687b      	ldr	r3, [r7, #4]
 8000a62:	f44f 4280 	mov.w	r2, #16384	@ 0x4000
 8000a66:	611a      	str	r2, [r3, #16]
  hi2c->Init.DualAddressMode = I2C_DUALADDRESS_DISABLE;
 8000a68:	687b      	ldr	r3, [r7, #4]
 8000a6a:	2200      	movs	r2, #0
 8000a6c:	615a      	str	r2, [r3, #20]
  hi2c->Init.OwnAddress2 = 0;
 8000a6e:	687b      	ldr	r3, [r7, #4]
 8000a70:	2200      	movs	r2, #0
 8000a72:	619a      	str	r2, [r3, #24]
  hi2c->Init.GeneralCallMode = I2C_GENERALCALL_DISABLE;
 8000a74:	687b      	ldr	r3, [r7, #4]
 8000a76:	2200      	movs	r2, #0
 8000a78:	61da      	str	r2, [r3, #28]
  hi2c->Init.NoStretchMode = I2C_NOSTRETCH_DISABLE;
 8000a7a:	687b      	ldr	r3, [r7, #4]
 8000a7c:	2200      	movs	r2, #0
 8000a7e:	621a      	str	r2, [r3, #32]
  if (HAL_I2C_Init(hi2c) != HAL_OK)
 8000a80:	6878      	ldr	r0, [r7, #4]
 8000a82:	f009 fbdb 	bl	800a23c <HAL_I2C_Init>
 8000a86:	4603      	mov	r3, r0
 8000a88:	2b00      	cmp	r3, #0
 8000a8a:	d001      	beq.n	8000a90 <MX_I2C1_Init+0x54>
  {
    ret = HAL_ERROR;
 8000a8c:	2301      	movs	r3, #1
 8000a8e:	73fb      	strb	r3, [r7, #15]
  }

  return ret;
 8000a90:	7bfb      	ldrb	r3, [r7, #15]
}
 8000a92:	4618      	mov	r0, r3
 8000a94:	3710      	adds	r7, #16
 8000a96:	46bd      	mov	sp, r7
 8000a98:	bd80      	pop	{r7, pc}
 8000a9a:	bf00      	nop
 8000a9c:	40005400 	.word	0x40005400
 8000aa0:	00061a80 	.word	0x00061a80

08000aa4 <I2C1_MspInit>:

static void I2C1_MspInit(I2C_HandleTypeDef* i2cHandle)
{
 8000aa4:	b580      	push	{r7, lr}
 8000aa6:	b08a      	sub	sp, #40	@ 0x28
 8000aa8:	af00      	add	r7, sp, #0
 8000aaa:	6078      	str	r0, [r7, #4]
  GPIO_InitTypeDef GPIO_InitStruct;
  /* USER CODE BEGIN I2C1_MspInit 0 */

  /* USER CODE END I2C1_MspInit 0 */

    __HAL_RCC_GPIOB_CLK_ENABLE();
 8000aac:	2300      	movs	r3, #0
 8000aae:	613b      	str	r3, [r7, #16]
 8000ab0:	4b1f      	ldr	r3, [pc, #124]	@ (8000b30 <I2C1_MspInit+0x8c>)
 8000ab2:	6b1b      	ldr	r3, [r3, #48]	@ 0x30
 8000ab4:	4a1e      	ldr	r2, [pc, #120]	@ (8000b30 <I2C1_MspInit+0x8c>)
 8000ab6:	f043 0302 	orr.w	r3, r3, #2
 8000aba:	6313      	str	r3, [r2, #48]	@ 0x30
 8000abc:	4b1c      	ldr	r3, [pc, #112]	@ (8000b30 <I2C1_MspInit+0x8c>)
 8000abe:	6b1b      	ldr	r3, [r3, #48]	@ 0x30
 8000ac0:	f003 0302 	and.w	r3, r3, #2
 8000ac4:	613b      	str	r3, [r7, #16]
 8000ac6:	693b      	ldr	r3, [r7, #16]
    /**I2C1 GPIO Configuration
    PB8     ------> I2C1_SCL
    PB9     ------> I2C1_SDA
    */
    GPIO_InitStruct.Pin = BUS_I2C1_SCL_GPIO_PIN;
 8000ac8:	f44f 7380 	mov.w	r3, #256	@ 0x100
 8000acc:	617b      	str	r3, [r7, #20]
    GPIO_InitStruct.Mode = GPIO_MODE_AF_OD;
 8000ace:	2312      	movs	r3, #18
 8000ad0:	61bb      	str	r3, [r7, #24]
    GPIO_InitStruct.Pull = GPIO_NOPULL;
 8000ad2:	2300      	movs	r3, #0
 8000ad4:	61fb      	str	r3, [r7, #28]
    GPIO_InitStruct.Speed = GPIO_SPEED_FREQ_VERY_HIGH;
 8000ad6:	2303      	movs	r3, #3
 8000ad8:	623b      	str	r3, [r7, #32]
    GPIO_InitStruct.Alternate = BUS_I2C1_SCL_GPIO_AF;
 8000ada:	2304      	movs	r3, #4
 8000adc:	627b      	str	r3, [r7, #36]	@ 0x24
    HAL_GPIO_Init(BUS_I2C1_SCL_GPIO_PORT, &GPIO_InitStruct);
 8000ade:	f107 0314 	add.w	r3, r7, #20
 8000ae2:	4619      	mov	r1, r3
 8000ae4:	4813      	ldr	r0, [pc, #76]	@ (8000b34 <I2C1_MspInit+0x90>)
 8000ae6:	f009 f927 	bl	8009d38 <HAL_GPIO_Init>

    GPIO_InitStruct.Pin = BUS_I2C1_SDA_GPIO_PIN;
 8000aea:	f44f 7300 	mov.w	r3, #512	@ 0x200
 8000aee:	617b      	str	r3, [r7, #20]
    GPIO_InitStruct.Mode = GPIO_MODE_AF_OD;
 8000af0:	2312      	movs	r3, #18
 8000af2:	61bb      	str	r3, [r7, #24]
    GPIO_InitStruct.Pull = GPIO_NOPULL;
 8000af4:	2300      	movs	r3, #0
 8000af6:	61fb      	str	r3, [r7, #28]
    GPIO_InitStruct.Speed = GPIO_SPEED_FREQ_VERY_HIGH;
 8000af8:	2303      	movs	r3, #3
 8000afa:	623b      	str	r3, [r7, #32]
    GPIO_InitStruct.Alternate = BUS_I2C1_SDA_GPIO_AF;
 8000afc:	2304      	movs	r3, #4
 8000afe:	627b      	str	r3, [r7, #36]	@ 0x24
    HAL_GPIO_Init(BUS_I2C1_SDA_GPIO_PORT, &GPIO_InitStruct);
 8000b00:	f107 0314 	add.w	r3, r7, #20
 8000b04:	4619      	mov	r1, r3
 8000b06:	480b      	ldr	r0, [pc, #44]	@ (8000b34 <I2C1_MspInit+0x90>)
 8000b08:	f009 f916 	bl	8009d38 <HAL_GPIO_Init>

    /* Peripheral clock enable */
    __HAL_RCC_I2C1_CLK_ENABLE();
 8000b0c:	2300      	movs	r3, #0
 8000b0e:	60fb      	str	r3, [r7, #12]
 8000b10:	4b07      	ldr	r3, [pc, #28]	@ (8000b30 <I2C1_MspInit+0x8c>)
 8000b12:	6c1b      	ldr	r3, [r3, #64]	@ 0x40
 8000b14:	4a06      	ldr	r2, [pc, #24]	@ (8000b30 <I2C1_MspInit+0x8c>)
 8000b16:	f443 1300 	orr.w	r3, r3, #2097152	@ 0x200000
 8000b1a:	6413      	str	r3, [r2, #64]	@ 0x40
 8000b1c:	4b04      	ldr	r3, [pc, #16]	@ (8000b30 <I2C1_MspInit+0x8c>)
 8000b1e:	6c1b      	ldr	r3, [r3, #64]	@ 0x40
 8000b20:	f403 1300 	and.w	r3, r3, #2097152	@ 0x200000
 8000b24:	60fb      	str	r3, [r7, #12]
 8000b26:	68fb      	ldr	r3, [r7, #12]
  /* USER CODE BEGIN I2C1_MspInit 1 */

  /* USER CODE END I2C1_MspInit 1 */
}
 8000b28:	bf00      	nop
 8000b2a:	3728      	adds	r7, #40	@ 0x28
 8000b2c:	46bd      	mov	sp, r7
 8000b2e:	bd80      	pop	{r7, pc}
 8000b30:	40023800 	.word	0x40023800
 8000b34:	40020400 	.word	0x40020400

08000b38 <I2C1_MspDeInit>:

static void I2C1_MspDeInit(I2C_HandleTypeDef* i2cHandle)
{
 8000b38:	b580      	push	{r7, lr}
 8000b3a:	b082      	sub	sp, #8
 8000b3c:	af00      	add	r7, sp, #0
 8000b3e:	6078      	str	r0, [r7, #4]
  /* USER CODE BEGIN I2C1_MspDeInit 0 */

  /* USER CODE END I2C1_MspDeInit 0 */
    /* Peripheral clock disable */
    __HAL_RCC_I2C1_CLK_DISABLE();
 8000b40:	4b09      	ldr	r3, [pc, #36]	@ (8000b68 <I2C1_MspDeInit+0x30>)
 8000b42:	6c1b      	ldr	r3, [r3, #64]	@ 0x40
 8000b44:	4a08      	ldr	r2, [pc, #32]	@ (8000b68 <I2C1_MspDeInit+0x30>)
 8000b46:	f423 1300 	bic.w	r3, r3, #2097152	@ 0x200000
 8000b4a:	6413      	str	r3, [r2, #64]	@ 0x40

    /**I2C1 GPIO Configuration
    PB8     ------> I2C1_SCL
    PB9     ------> I2C1_SDA
    */
    HAL_GPIO_DeInit(BUS_I2C1_SCL_GPIO_PORT, BUS_I2C1_SCL_GPIO_PIN);
 8000b4c:	f44f 7180 	mov.w	r1, #256	@ 0x100
 8000b50:	4806      	ldr	r0, [pc, #24]	@ (8000b6c <I2C1_MspDeInit+0x34>)
 8000b52:	f009 fa75 	bl	800a040 <HAL_GPIO_DeInit>

    HAL_GPIO_DeInit(BUS_I2C1_SDA_GPIO_PORT, BUS_I2C1_SDA_GPIO_PIN);
 8000b56:	f44f 7100 	mov.w	r1, #512	@ 0x200
 8000b5a:	4804      	ldr	r0, [pc, #16]	@ (8000b6c <I2C1_MspDeInit+0x34>)
 8000b5c:	f009 fa70 	bl	800a040 <HAL_GPIO_DeInit>

  /* USER CODE BEGIN I2C1_MspDeInit 1 */

  /* USER CODE END I2C1_MspDeInit 1 */
}
 8000b60:	bf00      	nop
 8000b62:	3708      	adds	r7, #8
 8000b64:	46bd      	mov	sp, r7
 8000b66:	bd80      	pop	{r7, pc}
 8000b68:	40023800 	.word	0x40023800
 8000b6c:	40020400 	.word	0x40020400

08000b70 <_read>:
  _kill(status, -1);
  while (1) {}    /* Make sure we hang here */
}

__attribute__((weak)) int _read(int file, char *ptr, int len)
{
 8000b70:	b580      	push	{r7, lr}
 8000b72:	b086      	sub	sp, #24
 8000b74:	af00      	add	r7, sp, #0
 8000b76:	60f8      	str	r0, [r7, #12]
 8000b78:	60b9      	str	r1, [r7, #8]
 8000b7a:	607a      	str	r2, [r7, #4]
  (void)file;
  int DataIdx;

  for (DataIdx = 0; DataIdx < len; DataIdx++)
 8000b7c:	2300      	movs	r3, #0
 8000b7e:	617b      	str	r3, [r7, #20]
 8000b80:	e00a      	b.n	8000b98 <_read+0x28>
  {
    *ptr++ = __io_getchar();
 8000b82:	f3af 8000 	nop.w
 8000b86:	4601      	mov	r1, r0
 8000b88:	68bb      	ldr	r3, [r7, #8]
 8000b8a:	1c5a      	adds	r2, r3, #1
 8000b8c:	60ba      	str	r2, [r7, #8]
 8000b8e:	b2ca      	uxtb	r2, r1
 8000b90:	701a      	strb	r2, [r3, #0]
  for (DataIdx = 0; DataIdx < len; DataIdx++)
 8000b92:	697b      	ldr	r3, [r7, #20]
 8000b94:	3301      	adds	r3, #1
 8000b96:	617b      	str	r3, [r7, #20]
 8000b98:	697a      	ldr	r2, [r7, #20]
 8000b9a:	687b      	ldr	r3, [r7, #4]
 8000b9c:	429a      	cmp	r2, r3
 8000b9e:	dbf0      	blt.n	8000b82 <_read+0x12>
  }

  return len;
 8000ba0:	687b      	ldr	r3, [r7, #4]
}
 8000ba2:	4618      	mov	r0, r3
 8000ba4:	3718      	adds	r7, #24
 8000ba6:	46bd      	mov	sp, r7
 8000ba8:	bd80      	pop	{r7, pc}

08000baa <_write>:

__attribute__((weak)) int _write(int file, char *ptr, int len)
{
 8000baa:	b580      	push	{r7, lr}
 8000bac:	b086      	sub	sp, #24
 8000bae:	af00      	add	r7, sp, #0
 8000bb0:	60f8      	str	r0, [r7, #12]
 8000bb2:	60b9      	str	r1, [r7, #8]
 8000bb4:	607a      	str	r2, [r7, #4]
  (void)file;
  int DataIdx;

  for (DataIdx = 0; DataIdx < len; DataIdx++)
 8000bb6:	2300      	movs	r3, #0
 8000bb8:	617b      	str	r3, [r7, #20]
 8000bba:	e009      	b.n	8000bd0 <_write+0x26>
  {
    __io_putchar(*ptr++);
 8000bbc:	68bb      	ldr	r3, [r7, #8]
 8000bbe:	1c5a      	adds	r2, r3, #1
 8000bc0:	60ba      	str	r2, [r7, #8]
 8000bc2:	781b      	ldrb	r3, [r3, #0]
 8000bc4:	4618      	mov	r0, r3
 8000bc6:	f00c f925 	bl	800ce14 <__io_putchar>
  for (DataIdx = 0; DataIdx < len; DataIdx++)
 8000bca:	697b      	ldr	r3, [r7, #20]
 8000bcc:	3301      	adds	r3, #1
 8000bce:	617b      	str	r3, [r7, #20]
 8000bd0:	697a      	ldr	r2, [r7, #20]
 8000bd2:	687b      	ldr	r3, [r7, #4]
 8000bd4:	429a      	cmp	r2, r3
 8000bd6:	dbf1      	blt.n	8000bbc <_write+0x12>
  }
  return len;
 8000bd8:	687b      	ldr	r3, [r7, #4]
}
 8000bda:	4618      	mov	r0, r3
 8000bdc:	3718      	adds	r7, #24
 8000bde:	46bd      	mov	sp, r7
 8000be0:	bd80      	pop	{r7, pc}

08000be2 <_close>:

int _close(int file)
{
 8000be2:	b480      	push	{r7}
 8000be4:	b083      	sub	sp, #12
 8000be6:	af00      	add	r7, sp, #0
 8000be8:	6078      	str	r0, [r7, #4]
  (void)file;
  return -1;
 8000bea:	f04f 33ff 	mov.w	r3, #4294967295
}
 8000bee:	4618      	mov	r0, r3
 8000bf0:	370c      	adds	r7, #12
 8000bf2:	46bd      	mov	sp, r7
 8000bf4:	f85d 7b04 	ldr.w	r7, [sp], #4
 8000bf8:	4770      	bx	lr

08000bfa <_fstat>:


int _fstat(int file, struct stat *st)
{
 8000bfa:	b480      	push	{r7}
 8000bfc:	b083      	sub	sp, #12
 8000bfe:	af00      	add	r7, sp, #0
 8000c00:	6078      	str	r0, [r7, #4]
 8000c02:	6039      	str	r1, [r7, #0]
  (void)file;
  st->st_mode = S_IFCHR;
 8000c04:	683b      	ldr	r3, [r7, #0]
 8000c06:	f44f 5200 	mov.w	r2, #8192	@ 0x2000
 8000c0a:	605a      	str	r2, [r3, #4]
  return 0;
 8000c0c:	2300      	movs	r3, #0
}
 8000c0e:	4618      	mov	r0, r3
 8000c10:	370c      	adds	r7, #12
 8000c12:	46bd      	mov	sp, r7
 8000c14:	f85d 7b04 	ldr.w	r7, [sp], #4
 8000c18:	4770      	bx	lr

08000c1a <_isatty>:

int _isatty(int file)
{
 8000c1a:	b480      	push	{r7}
 8000c1c:	b083      	sub	sp, #12
 8000c1e:	af00      	add	r7, sp, #0
 8000c20:	6078      	str	r0, [r7, #4]
  (void)file;
  return 1;
 8000c22:	2301      	movs	r3, #1
}
 8000c24:	4618      	mov	r0, r3
 8000c26:	370c      	adds	r7, #12
 8000c28:	46bd      	mov	sp, r7
 8000c2a:	f85d 7b04 	ldr.w	r7, [sp], #4
 8000c2e:	4770      	bx	lr

08000c30 <_lseek>:

int _lseek(int file, int ptr, int dir)
{
 8000c30:	b480      	push	{r7}
 8000c32:	b085      	sub	sp, #20
 8000c34:	af00      	add	r7, sp, #0
 8000c36:	60f8      	str	r0, [r7, #12]
 8000c38:	60b9      	str	r1, [r7, #8]
 8000c3a:	607a      	str	r2, [r7, #4]
  (void)file;
  (void)ptr;
  (void)dir;
  return 0;
 8000c3c:	2300      	movs	r3, #0
}
 8000c3e:	4618      	mov	r0, r3
 8000c40:	3714      	adds	r7, #20
 8000c42:	46bd      	mov	sp, r7
 8000c44:	f85d 7b04 	ldr.w	r7, [sp], #4
 8000c48:	4770      	bx	lr
	...

08000c4c <_sbrk>:
 *
 * @param incr Memory size
 * @return Pointer to allocated memory
 */
void *_sbrk(ptrdiff_t incr)
{
 8000c4c:	b580      	push	{r7, lr}
 8000c4e:	b086      	sub	sp, #24
 8000c50:	af00      	add	r7, sp, #0
 8000c52:	6078      	str	r0, [r7, #4]
  extern uint8_t _end; /* Symbol defined in the linker script */
  extern uint8_t _estack; /* Symbol defined in the linker script */
  extern uint32_t _Min_Stack_Size; /* Symbol defined in the linker script */
  const uint32_t stack_limit = (uint32_t)&_estack - (uint32_t)&_Min_Stack_Size;
 8000c54:	4a14      	ldr	r2, [pc, #80]	@ (8000ca8 <_sbrk+0x5c>)
 8000c56:	4b15      	ldr	r3, [pc, #84]	@ (8000cac <_sbrk+0x60>)
 8000c58:	1ad3      	subs	r3, r2, r3
 8000c5a:	617b      	str	r3, [r7, #20]
  const uint8_t *max_heap = (uint8_t *)stack_limit;
 8000c5c:	697b      	ldr	r3, [r7, #20]
 8000c5e:	613b      	str	r3, [r7, #16]
  uint8_t *prev_heap_end;

  /* Initialize heap end at first call */
  if (NULL == __sbrk_heap_end)
 8000c60:	4b13      	ldr	r3, [pc, #76]	@ (8000cb0 <_sbrk+0x64>)
 8000c62:	681b      	ldr	r3, [r3, #0]
 8000c64:	2b00      	cmp	r3, #0
 8000c66:	d102      	bne.n	8000c6e <_sbrk+0x22>
  {
    __sbrk_heap_end = &_end;
 8000c68:	4b11      	ldr	r3, [pc, #68]	@ (8000cb0 <_sbrk+0x64>)
 8000c6a:	4a12      	ldr	r2, [pc, #72]	@ (8000cb4 <_sbrk+0x68>)
 8000c6c:	601a      	str	r2, [r3, #0]
  }

  /* Protect heap from growing into the reserved MSP stack */
  if (__sbrk_heap_end + incr > max_heap)
 8000c6e:	4b10      	ldr	r3, [pc, #64]	@ (8000cb0 <_sbrk+0x64>)
 8000c70:	681a      	ldr	r2, [r3, #0]
 8000c72:	687b      	ldr	r3, [r7, #4]
 8000c74:	4413      	add	r3, r2
 8000c76:	693a      	ldr	r2, [r7, #16]
 8000c78:	429a      	cmp	r2, r3
 8000c7a:	d207      	bcs.n	8000c8c <_sbrk+0x40>
  {
    errno = ENOMEM;
 8000c7c:	f00c faee 	bl	800d25c <__errno>
 8000c80:	4603      	mov	r3, r0
 8000c82:	220c      	movs	r2, #12
 8000c84:	601a      	str	r2, [r3, #0]
    return (void *)-1;
 8000c86:	f04f 33ff 	mov.w	r3, #4294967295
 8000c8a:	e009      	b.n	8000ca0 <_sbrk+0x54>
  }

  prev_heap_end = __sbrk_heap_end;
 8000c8c:	4b08      	ldr	r3, [pc, #32]	@ (8000cb0 <_sbrk+0x64>)
 8000c8e:	681b      	ldr	r3, [r3, #0]
 8000c90:	60fb      	str	r3, [r7, #12]
  __sbrk_heap_end += incr;
 8000c92:	4b07      	ldr	r3, [pc, #28]	@ (8000cb0 <_sbrk+0x64>)
 8000c94:	681a      	ldr	r2, [r3, #0]
 8000c96:	687b      	ldr	r3, [r7, #4]
 8000c98:	4413      	add	r3, r2
 8000c9a:	4a05      	ldr	r2, [pc, #20]	@ (8000cb0 <_sbrk+0x64>)
 8000c9c:	6013      	str	r3, [r2, #0]

  return (void *)prev_heap_end;
 8000c9e:	68fb      	ldr	r3, [r7, #12]
}
 8000ca0:	4618      	mov	r0, r3
 8000ca2:	3718      	adds	r7, #24
 8000ca4:	46bd      	mov	sp, r7
 8000ca6:	bd80      	pop	{r7, pc}
 8000ca8:	20018000 	.word	0x20018000
 8000cac:	00001000 	.word	0x00001000
 8000cb0:	200002cc 	.word	0x200002cc
 8000cb4:	200006b8 	.word	0x200006b8

08000cb8 <SystemInit>:
  *         configuration.
  * @param  None
  * @retval None
  */
void SystemInit(void)
{
 8000cb8:	b480      	push	{r7}
 8000cba:	af00      	add	r7, sp, #0
  /* FPU settings ------------------------------------------------------------*/
  #if (__FPU_PRESENT == 1) && (__FPU_USED == 1)
    SCB->CPACR |= ((3UL << 10*2)|(3UL << 11*2));  /* set CP10 and CP11 Full Access */
 8000cbc:	4b06      	ldr	r3, [pc, #24]	@ (8000cd8 <SystemInit+0x20>)
 8000cbe:	f8d3 3088 	ldr.w	r3, [r3, #136]	@ 0x88
 8000cc2:	4a05      	ldr	r2, [pc, #20]	@ (8000cd8 <SystemInit+0x20>)
 8000cc4:	f443 0370 	orr.w	r3, r3, #15728640	@ 0xf00000
 8000cc8:	f8c2 3088 	str.w	r3, [r2, #136]	@ 0x88

  /* Configure the Vector Table location -------------------------------------*/
#if defined(USER_VECT_TAB_ADDRESS)
  SCB->VTOR = VECT_TAB_BASE_ADDRESS | VECT_TAB_OFFSET; /* Vector Table Relocation in Internal SRAM */
#endif /* USER_VECT_TAB_ADDRESS */
}
 8000ccc:	bf00      	nop
 8000cce:	46bd      	mov	sp, r7
 8000cd0:	f85d 7b04 	ldr.w	r7, [sp], #4
 8000cd4:	4770      	bx	lr
 8000cd6:	bf00      	nop
 8000cd8:	e000ed00 	.word	0xe000ed00

08000cdc <MX_USART2_UART_Init>:
UART_HandleTypeDef huart2;

/* USART2 init function */

void MX_USART2_UART_Init(void)
{
 8000cdc:	b580      	push	{r7, lr}
 8000cde:	af00      	add	r7, sp, #0
  /* USER CODE END USART2_Init 0 */

  /* USER CODE BEGIN USART2_Init 1 */

  /* USER CODE END USART2_Init 1 */
  huart2.Instance = USART2;
 8000ce0:	4b11      	ldr	r3, [pc, #68]	@ (8000d28 <MX_USART2_UART_Init+0x4c>)
 8000ce2:	4a12      	ldr	r2, [pc, #72]	@ (8000d2c <MX_USART2_UART_Init+0x50>)
 8000ce4:	601a      	str	r2, [r3, #0]
  huart2.Init.BaudRate = 115200;
 8000ce6:	4b10      	ldr	r3, [pc, #64]	@ (8000d28 <MX_USART2_UART_Init+0x4c>)
 8000ce8:	f44f 32e1 	mov.w	r2, #115200	@ 0x1c200
 8000cec:	605a      	str	r2, [r3, #4]
  huart2.Init.WordLength = UART_WORDLENGTH_8B;
 8000cee:	4b0e      	ldr	r3, [pc, #56]	@ (8000d28 <MX_USART2_UART_Init+0x4c>)
 8000cf0:	2200      	movs	r2, #0
 8000cf2:	609a      	str	r2, [r3, #8]
  huart2.Init.StopBits = UART_STOPBITS_1;
 8000cf4:	4b0c      	ldr	r3, [pc, #48]	@ (8000d28 <MX_USART2_UART_Init+0x4c>)
 8000cf6:	2200      	movs	r2, #0
 8000cf8:	60da      	str	r2, [r3, #12]
  huart2.Init.Parity = UART_PARITY_NONE;
 8000cfa:	4b0b      	ldr	r3, [pc, #44]	@ (8000d28 <MX_USART2_UART_Init+0x4c>)
 8000cfc:	2200      	movs	r2, #0
 8000cfe:	611a      	str	r2, [r3, #16]
  huart2.Init.Mode = UART_MODE_TX_RX;
 8000d00:	4b09      	ldr	r3, [pc, #36]	@ (8000d28 <MX_USART2_UART_Init+0x4c>)
 8000d02:	220c      	movs	r2, #12
 8000d04:	615a      	str	r2, [r3, #20]
  huart2.Init.HwFlowCtl = UART_HWCONTROL_NONE;
 8000d06:	4b08      	ldr	r3, [pc, #32]	@ (8000d28 <MX_USART2_UART_Init+0x4c>)
 8000d08:	2200      	movs	r2, #0
 8000d0a:	619a      	str	r2, [r3, #24]
  huart2.Init.OverSampling = UART_OVERSAMPLING_16;
 8000d0c:	4b06      	ldr	r3, [pc, #24]	@ (8000d28 <MX_USART2_UART_Init+0x4c>)
 8000d0e:	2200      	movs	r2, #0
 8000d10:	61da      	str	r2, [r3, #28]
  if (HAL_UART_Init(&huart2) != HAL_OK)
 8000d12:	4805      	ldr	r0, [pc, #20]	@ (8000d28 <MX_USART2_UART_Init+0x4c>)
 8000d14:	f00b fc2c 	bl	800c570 <HAL_UART_Init>
 8000d18:	4603      	mov	r3, r0
 8000d1a:	2b00      	cmp	r3, #0
 8000d1c:	d001      	beq.n	8000d22 <MX_USART2_UART_Init+0x46>
  {
    Error_Handler();
 8000d1e:	f7ff fd15 	bl	800074c <Error_Handler>
  }
  /* USER CODE BEGIN USART2_Init 2 */

  /* USER CODE END USART2_Init 2 */

}
 8000d22:	bf00      	nop
 8000d24:	bd80      	pop	{r7, pc}
 8000d26:	bf00      	nop
 8000d28:	200002d0 	.word	0x200002d0
 8000d2c:	40004400 	.word	0x40004400

08000d30 <HAL_UART_MspInit>:

void HAL_UART_MspInit(UART_HandleTypeDef* uartHandle)
{
 8000d30:	b580      	push	{r7, lr}
 8000d32:	b08a      	sub	sp, #40	@ 0x28
 8000d34:	af00      	add	r7, sp, #0
 8000d36:	6078      	str	r0, [r7, #4]

  GPIO_InitTypeDef GPIO_InitStruct = {0};
 8000d38:	f107 0314 	add.w	r3, r7, #20
 8000d3c:	2200      	movs	r2, #0
 8000d3e:	601a      	str	r2, [r3, #0]
 8000d40:	605a      	str	r2, [r3, #4]
 8000d42:	609a      	str	r2, [r3, #8]
 8000d44:	60da      	str	r2, [r3, #12]
 8000d46:	611a      	str	r2, [r3, #16]
  if(uartHandle->Instance==USART2)
 8000d48:	687b      	ldr	r3, [r7, #4]
 8000d4a:	681b      	ldr	r3, [r3, #0]
 8000d4c:	4a19      	ldr	r2, [pc, #100]	@ (8000db4 <HAL_UART_MspInit+0x84>)
 8000d4e:	4293      	cmp	r3, r2
 8000d50:	d12b      	bne.n	8000daa <HAL_UART_MspInit+0x7a>
  {
  /* USER CODE BEGIN USART2_MspInit 0 */

  /* USER CODE END USART2_MspInit 0 */
    /* USART2 clock enable */
    __HAL_RCC_USART2_CLK_ENABLE();
 8000d52:	2300      	movs	r3, #0
 8000d54:	613b      	str	r3, [r7, #16]
 8000d56:	4b18      	ldr	r3, [pc, #96]	@ (8000db8 <HAL_UART_MspInit+0x88>)
 8000d58:	6c1b      	ldr	r3, [r3, #64]	@ 0x40
 8000d5a:	4a17      	ldr	r2, [pc, #92]	@ (8000db8 <HAL_UART_MspInit+0x88>)
 8000d5c:	f443 3300 	orr.w	r3, r3, #131072	@ 0x20000
 8000d60:	6413      	str	r3, [r2, #64]	@ 0x40
 8000d62:	4b15      	ldr	r3, [pc, #84]	@ (8000db8 <HAL_UART_MspInit+0x88>)
 8000d64:	6c1b      	ldr	r3, [r3, #64]	@ 0x40
 8000d66:	f403 3300 	and.w	r3, r3, #131072	@ 0x20000
 8000d6a:	613b      	str	r3, [r7, #16]
 8000d6c:	693b      	ldr	r3, [r7, #16]

    __HAL_RCC_GPIOA_CLK_ENABLE();
 8000d6e:	2300      	movs	r3, #0
 8000d70:	60fb      	str	r3, [r7, #12]
 8000d72:	4b11      	ldr	r3, [pc, #68]	@ (8000db8 <HAL_UART_MspInit+0x88>)
 8000d74:	6b1b      	ldr	r3, [r3, #48]	@ 0x30
 8000d76:	4a10      	ldr	r2, [pc, #64]	@ (8000db8 <HAL_UART_MspInit+0x88>)
 8000d78:	f043 0301 	orr.w	r3, r3, #1
 8000d7c:	6313      	str	r3, [r2, #48]	@ 0x30
 8000d7e:	4b0e      	ldr	r3, [pc, #56]	@ (8000db8 <HAL_UART_MspInit+0x88>)
 8000d80:	6b1b      	ldr	r3, [r3, #48]	@ 0x30
 8000d82:	f003 0301 	and.w	r3, r3, #1
 8000d86:	60fb      	str	r3, [r7, #12]
 8000d88:	68fb      	ldr	r3, [r7, #12]
    /**USART2 GPIO Configuration
    PA2     ------> USART2_TX
    PA3     ------> USART2_RX
    */
    GPIO_InitStruct.Pin = USART_TX_Pin|USART_RX_Pin;
 8000d8a:	230c      	movs	r3, #12
 8000d8c:	617b      	str	r3, [r7, #20]
    GPIO_InitStruct.Mode = GPIO_MODE_AF_PP;
 8000d8e:	2302      	movs	r3, #2
 8000d90:	61bb      	str	r3, [r7, #24]
    GPIO_InitStruct.Pull = GPIO_NOPULL;
 8000d92:	2300      	movs	r3, #0
 8000d94:	61fb      	str	r3, [r7, #28]
    GPIO_InitStruct.Speed = GPIO_SPEED_FREQ_LOW;
 8000d96:	2300      	movs	r3, #0
 8000d98:	623b      	str	r3, [r7, #32]
    GPIO_InitStruct.Alternate = GPIO_AF7_USART2;
 8000d9a:	2307      	movs	r3, #7
 8000d9c:	627b      	str	r3, [r7, #36]	@ 0x24
    HAL_GPIO_Init(GPIOA, &GPIO_InitStruct);
 8000d9e:	f107 0314 	add.w	r3, r7, #20
 8000da2:	4619      	mov	r1, r3
 8000da4:	4805      	ldr	r0, [pc, #20]	@ (8000dbc <HAL_UART_MspInit+0x8c>)
 8000da6:	f008 ffc7 	bl	8009d38 <HAL_GPIO_Init>

  /* USER CODE BEGIN USART2_MspInit 1 */

  /* USER CODE END USART2_MspInit 1 */
  }
}
 8000daa:	bf00      	nop
 8000dac:	3728      	adds	r7, #40	@ 0x28
 8000dae:	46bd      	mov	sp, r7
 8000db0:	bd80      	pop	{r7, pc}
 8000db2:	bf00      	nop
 8000db4:	40004400 	.word	0x40004400
 8000db8:	40023800 	.word	0x40023800
 8000dbc:	40020000 	.word	0x40020000

08000dc0 <Reset_Handler>:

    .section  .text.Reset_Handler
  .weak  Reset_Handler
  .type  Reset_Handler, %function
Reset_Handler:  
  ldr   sp, =_estack    		 /* set stack pointer */
 8000dc0:	f8df d034 	ldr.w	sp, [pc, #52]	@ 8000df8 <LoopFillZerobss+0xe>

/* Call the clock system initialization function.*/
  bl  SystemInit  
 8000dc4:	f7ff ff78 	bl	8000cb8 <SystemInit>

/* Copy the data segment initializers from flash to SRAM */  
  ldr r0, =_sdata
 8000dc8:	480c      	ldr	r0, [pc, #48]	@ (8000dfc <LoopFillZerobss+0x12>)
  ldr r1, =_edata
 8000dca:	490d      	ldr	r1, [pc, #52]	@ (8000e00 <LoopFillZerobss+0x16>)
  ldr r2, =_sidata
 8000dcc:	4a0d      	ldr	r2, [pc, #52]	@ (8000e04 <LoopFillZerobss+0x1a>)
  movs r3, #0
 8000dce:	2300      	movs	r3, #0
  b LoopCopyDataInit
 8000dd0:	e002      	b.n	8000dd8 <LoopCopyDataInit>

08000dd2 <CopyDataInit>:

CopyDataInit:
  ldr r4, [r2, r3]
 8000dd2:	58d4      	ldr	r4, [r2, r3]
  str r4, [r0, r3]
 8000dd4:	50c4      	str	r4, [r0, r3]
  adds r3, r3, #4
 8000dd6:	3304      	adds	r3, #4

08000dd8 <LoopCopyDataInit>:

LoopCopyDataInit:
  adds r4, r0, r3
 8000dd8:	18c4      	adds	r4, r0, r3
  cmp r4, r1
 8000dda:	428c      	cmp	r4, r1
  bcc CopyDataInit
 8000ddc:	d3f9      	bcc.n	8000dd2 <CopyDataInit>
  
/* Zero fill the bss segment. */
  ldr r2, =_sbss
 8000dde:	4a0a      	ldr	r2, [pc, #40]	@ (8000e08 <LoopFillZerobss+0x1e>)
  ldr r4, =_ebss
 8000de0:	4c0a      	ldr	r4, [pc, #40]	@ (8000e0c <LoopFillZerobss+0x22>)
  movs r3, #0
 8000de2:	2300      	movs	r3, #0
  b LoopFillZerobss
 8000de4:	e001      	b.n	8000dea <LoopFillZerobss>

08000de6 <FillZerobss>:

FillZerobss:
  str  r3, [r2]
 8000de6:	6013      	str	r3, [r2, #0]
  adds r2, r2, #4
 8000de8:	3204      	adds	r2, #4

08000dea <LoopFillZerobss>:

LoopFillZerobss:
  cmp r2, r4
 8000dea:	42a2      	cmp	r2, r4
  bcc FillZerobss
 8000dec:	d3fb      	bcc.n	8000de6 <FillZerobss>
 
/* Call static constructors */
    bl __libc_init_array
 8000dee:	f00c fa3b 	bl	800d268 <__libc_init_array>
/* Call the application's entry point.*/
  bl  main
 8000df2:	f7ff fc2b 	bl	800064c <main>
  bx  lr    
 8000df6:	4770      	bx	lr
  ldr   sp, =_estack    		 /* set stack pointer */
 8000df8:	20018000 	.word	0x20018000
  ldr r0, =_sdata
 8000dfc:	20000000 	.word	0x20000000
  ldr r1, =_edata
 8000e00:	20000258 	.word	0x20000258
  ldr r2, =_sidata
 8000e04:	0800de70 	.word	0x0800de70
  ldr r2, =_sbss
 8000e08:	20000258 	.word	0x20000258
  ldr r4, =_ebss
 8000e0c:	200006b4 	.word	0x200006b4

08000e10 <ADC_IRQHandler>:
 * @retval None       
*/
    .section  .text.Default_Handler,"ax",%progbits
Default_Handler:
Infinite_Loop:
  b  Infinite_Loop
 8000e10:	e7fe      	b.n	8000e10 <ADC_IRQHandler>
	...

08000e14 <LIS2DUXS12_RegisterBusIO>:
  * @brief  Register Component Bus IO operations
  * @param  pObj the device pObj
  * @retval 0 in case of success, an error code otherwise
  */
int32_t LIS2DUXS12_RegisterBusIO(LIS2DUXS12_Object_t *pObj, LIS2DUXS12_IO_t *pIO)
{
 8000e14:	b580      	push	{r7, lr}
 8000e16:	b084      	sub	sp, #16
 8000e18:	af00      	add	r7, sp, #0
 8000e1a:	6078      	str	r0, [r7, #4]
 8000e1c:	6039      	str	r1, [r7, #0]
  int32_t ret = LIS2DUXS12_OK;
 8000e1e:	2300      	movs	r3, #0
 8000e20:	60fb      	str	r3, [r7, #12]

  if (pObj == NULL)
 8000e22:	687b      	ldr	r3, [r7, #4]
 8000e24:	2b00      	cmp	r3, #0
 8000e26:	d103      	bne.n	8000e30 <LIS2DUXS12_RegisterBusIO+0x1c>
  {
    ret = LIS2DUXS12_ERROR;
 8000e28:	f04f 33ff 	mov.w	r3, #4294967295
 8000e2c:	60fb      	str	r3, [r7, #12]
 8000e2e:	e084      	b.n	8000f3a <LIS2DUXS12_RegisterBusIO+0x126>
  }
  else
  {
    pObj->IO.Init      = pIO->Init;
 8000e30:	683b      	ldr	r3, [r7, #0]
 8000e32:	681a      	ldr	r2, [r3, #0]
 8000e34:	687b      	ldr	r3, [r7, #4]
 8000e36:	601a      	str	r2, [r3, #0]
    pObj->IO.DeInit    = pIO->DeInit;
 8000e38:	683b      	ldr	r3, [r7, #0]
 8000e3a:	685a      	ldr	r2, [r3, #4]
 8000e3c:	687b      	ldr	r3, [r7, #4]
 8000e3e:	605a      	str	r2, [r3, #4]
    pObj->IO.BusType   = pIO->BusType;
 8000e40:	683b      	ldr	r3, [r7, #0]
 8000e42:	689a      	ldr	r2, [r3, #8]
 8000e44:	687b      	ldr	r3, [r7, #4]
 8000e46:	609a      	str	r2, [r3, #8]
    pObj->IO.Address   = pIO->Address;
 8000e48:	683b      	ldr	r3, [r7, #0]
 8000e4a:	7b1a      	ldrb	r2, [r3, #12]
 8000e4c:	687b      	ldr	r3, [r7, #4]
 8000e4e:	731a      	strb	r2, [r3, #12]
    pObj->IO.WriteReg  = pIO->WriteReg;
 8000e50:	683b      	ldr	r3, [r7, #0]
 8000e52:	691a      	ldr	r2, [r3, #16]
 8000e54:	687b      	ldr	r3, [r7, #4]
 8000e56:	611a      	str	r2, [r3, #16]
    pObj->IO.ReadReg   = pIO->ReadReg;
 8000e58:	683b      	ldr	r3, [r7, #0]
 8000e5a:	695a      	ldr	r2, [r3, #20]
 8000e5c:	687b      	ldr	r3, [r7, #4]
 8000e5e:	615a      	str	r2, [r3, #20]
    pObj->IO.GetTick   = pIO->GetTick;
 8000e60:	683b      	ldr	r3, [r7, #0]
 8000e62:	699a      	ldr	r2, [r3, #24]
 8000e64:	687b      	ldr	r3, [r7, #4]
 8000e66:	619a      	str	r2, [r3, #24]
    pObj->IO.Delay     = pIO->Delay;
 8000e68:	683b      	ldr	r3, [r7, #0]
 8000e6a:	69da      	ldr	r2, [r3, #28]
 8000e6c:	687b      	ldr	r3, [r7, #4]
 8000e6e:	61da      	str	r2, [r3, #28]

    pObj->Ctx.read_reg  = ReadRegWrap;
 8000e70:	687b      	ldr	r3, [r7, #4]
 8000e72:	4a34      	ldr	r2, [pc, #208]	@ (8000f44 <LIS2DUXS12_RegisterBusIO+0x130>)
 8000e74:	625a      	str	r2, [r3, #36]	@ 0x24
    pObj->Ctx.write_reg = WriteRegWrap;
 8000e76:	687b      	ldr	r3, [r7, #4]
 8000e78:	4a33      	ldr	r2, [pc, #204]	@ (8000f48 <LIS2DUXS12_RegisterBusIO+0x134>)
 8000e7a:	621a      	str	r2, [r3, #32]
    pObj->Ctx.mdelay    = pIO->Delay;
 8000e7c:	683b      	ldr	r3, [r7, #0]
 8000e7e:	69da      	ldr	r2, [r3, #28]
 8000e80:	687b      	ldr	r3, [r7, #4]
 8000e82:	629a      	str	r2, [r3, #40]	@ 0x28
    pObj->Ctx.handle    = pObj;
 8000e84:	687b      	ldr	r3, [r7, #4]
 8000e86:	687a      	ldr	r2, [r7, #4]
 8000e88:	62da      	str	r2, [r3, #44]	@ 0x2c

    if (pObj->IO.Init == NULL)
 8000e8a:	687b      	ldr	r3, [r7, #4]
 8000e8c:	681b      	ldr	r3, [r3, #0]
 8000e8e:	2b00      	cmp	r3, #0
 8000e90:	d103      	bne.n	8000e9a <LIS2DUXS12_RegisterBusIO+0x86>
    {
      ret = LIS2DUXS12_ERROR;
 8000e92:	f04f 33ff 	mov.w	r3, #4294967295
 8000e96:	60fb      	str	r3, [r7, #12]
 8000e98:	e04f      	b.n	8000f3a <LIS2DUXS12_RegisterBusIO+0x126>
    }
    else if (pObj->IO.Init() != LIS2DUXS12_OK)
 8000e9a:	687b      	ldr	r3, [r7, #4]
 8000e9c:	681b      	ldr	r3, [r3, #0]
 8000e9e:	4798      	blx	r3
 8000ea0:	4603      	mov	r3, r0
 8000ea2:	2b00      	cmp	r3, #0
 8000ea4:	d003      	beq.n	8000eae <LIS2DUXS12_RegisterBusIO+0x9a>
    {
      ret = LIS2DUXS12_ERROR;
 8000ea6:	f04f 33ff 	mov.w	r3, #4294967295
 8000eaa:	60fb      	str	r3, [r7, #12]
 8000eac:	e045      	b.n	8000f3a <LIS2DUXS12_RegisterBusIO+0x126>
    }
    else
    {
      if (pObj->IO.BusType == LIS2DUXS12_SPI_3WIRES_BUS) /* SPI 3-Wires */
 8000eae:	687b      	ldr	r3, [r7, #4]
 8000eb0:	689b      	ldr	r3, [r3, #8]
 8000eb2:	2b02      	cmp	r3, #2
 8000eb4:	d11c      	bne.n	8000ef0 <LIS2DUXS12_RegisterBusIO+0xdc>
      {
        /* Enable the SPI 3-Wires support only the first time */
        if (pObj->is_initialized == 0U)
 8000eb6:	687b      	ldr	r3, [r7, #4]
 8000eb8:	f893 3030 	ldrb.w	r3, [r3, #48]	@ 0x30
 8000ebc:	2b00      	cmp	r3, #0
 8000ebe:	d13c      	bne.n	8000f3a <LIS2DUXS12_RegisterBusIO+0x126>
        {
          /* Exit from deep power down only the first time in SPI mode */
          if (LIS2DUXS12_ExitDeepPowerDownSPI(pObj) != LIS2DUXS12_OK)
 8000ec0:	6878      	ldr	r0, [r7, #4]
 8000ec2:	f000 f8e6 	bl	8001092 <LIS2DUXS12_ExitDeepPowerDownSPI>
 8000ec6:	4603      	mov	r3, r0
 8000ec8:	2b00      	cmp	r3, #0
 8000eca:	d002      	beq.n	8000ed2 <LIS2DUXS12_RegisterBusIO+0xbe>
          {
            ret = LIS2DUXS12_ERROR;
 8000ecc:	f04f 33ff 	mov.w	r3, #4294967295
 8000ed0:	60fb      	str	r3, [r7, #12]
          }
          /* Enable SPI 3-Wires on the component */
          uint8_t data = 0x50;
 8000ed2:	2350      	movs	r3, #80	@ 0x50
 8000ed4:	72fb      	strb	r3, [r7, #11]

          if (LIS2DUXS12_Write_Reg(pObj, LIS2DUXS12_CTRL1, data) != LIS2DUXS12_OK)
 8000ed6:	7afb      	ldrb	r3, [r7, #11]
 8000ed8:	461a      	mov	r2, r3
 8000eda:	2110      	movs	r1, #16
 8000edc:	6878      	ldr	r0, [r7, #4]
 8000ede:	f000 fbe8 	bl	80016b2 <LIS2DUXS12_Write_Reg>
 8000ee2:	4603      	mov	r3, r0
 8000ee4:	2b00      	cmp	r3, #0
 8000ee6:	d028      	beq.n	8000f3a <LIS2DUXS12_RegisterBusIO+0x126>
          {
            ret = LIS2DUXS12_ERROR;
 8000ee8:	f04f 33ff 	mov.w	r3, #4294967295
 8000eec:	60fb      	str	r3, [r7, #12]
 8000eee:	e024      	b.n	8000f3a <LIS2DUXS12_RegisterBusIO+0x126>
          }
        }
      }
      else if (pObj->IO.BusType == LIS2DUXS12_SPI_4WIRES_BUS)
 8000ef0:	687b      	ldr	r3, [r7, #4]
 8000ef2:	689b      	ldr	r3, [r3, #8]
 8000ef4:	2b01      	cmp	r3, #1
 8000ef6:	d10e      	bne.n	8000f16 <LIS2DUXS12_RegisterBusIO+0x102>
      {
        /* Exit from deep power down only the first time in SPI mode */
        if (pObj->is_initialized == 0U)
 8000ef8:	687b      	ldr	r3, [r7, #4]
 8000efa:	f893 3030 	ldrb.w	r3, [r3, #48]	@ 0x30
 8000efe:	2b00      	cmp	r3, #0
 8000f00:	d11b      	bne.n	8000f3a <LIS2DUXS12_RegisterBusIO+0x126>
        {
          if (LIS2DUXS12_ExitDeepPowerDownSPI(pObj) != LIS2DUXS12_OK)
 8000f02:	6878      	ldr	r0, [r7, #4]
 8000f04:	f000 f8c5 	bl	8001092 <LIS2DUXS12_ExitDeepPowerDownSPI>
 8000f08:	4603      	mov	r3, r0
 8000f0a:	2b00      	cmp	r3, #0
 8000f0c:	d015      	beq.n	8000f3a <LIS2DUXS12_RegisterBusIO+0x126>
          {
            ret = LIS2DUXS12_ERROR;
 8000f0e:	f04f 33ff 	mov.w	r3, #4294967295
 8000f12:	60fb      	str	r3, [r7, #12]
 8000f14:	e011      	b.n	8000f3a <LIS2DUXS12_RegisterBusIO+0x126>
          }
        }
      }
      else if (pObj->IO.BusType == LIS2DUXS12_I2C_BUS)
 8000f16:	687b      	ldr	r3, [r7, #4]
 8000f18:	689b      	ldr	r3, [r3, #8]
 8000f1a:	2b00      	cmp	r3, #0
 8000f1c:	d10d      	bne.n	8000f3a <LIS2DUXS12_RegisterBusIO+0x126>
      {
        /* Exit from deep power down only the first time in I2C mode */
        if (pObj->is_initialized == 0U)
 8000f1e:	687b      	ldr	r3, [r7, #4]
 8000f20:	f893 3030 	ldrb.w	r3, [r3, #48]	@ 0x30
 8000f24:	2b00      	cmp	r3, #0
 8000f26:	d108      	bne.n	8000f3a <LIS2DUXS12_RegisterBusIO+0x126>
        {
          if (LIS2DUXS12_ExitDeepPowerDownI2C(pObj) != LIS2DUXS12_OK)
 8000f28:	6878      	ldr	r0, [r7, #4]
 8000f2a:	f000 f89d 	bl	8001068 <LIS2DUXS12_ExitDeepPowerDownI2C>
 8000f2e:	4603      	mov	r3, r0
 8000f30:	2b00      	cmp	r3, #0
 8000f32:	d002      	beq.n	8000f3a <LIS2DUXS12_RegisterBusIO+0x126>
          {
            ret = LIS2DUXS12_ERROR;
 8000f34:	f04f 33ff 	mov.w	r3, #4294967295
 8000f38:	60fb      	str	r3, [r7, #12]
        }
      }
    }
  }

  return ret;
 8000f3a:	68fb      	ldr	r3, [r7, #12]
}
 8000f3c:	4618      	mov	r0, r3
 8000f3e:	3710      	adds	r7, #16
 8000f40:	46bd      	mov	sp, r7
 8000f42:	bd80      	pop	{r7, pc}
 8000f44:	08001b29 	.word	0x08001b29
 8000f48:	08001b5f 	.word	0x08001b5f

08000f4c <LIS2DUXS12_Init>:
  * @brief  Initialize the LIS2DUXS12 sensor
  * @param  pObj the device pObj
  * @retval 0 in case of success, an error code otherwise
  */
int32_t LIS2DUXS12_Init(LIS2DUXS12_Object_t *pObj)
{
 8000f4c:	b580      	push	{r7, lr}
 8000f4e:	b086      	sub	sp, #24
 8000f50:	af00      	add	r7, sp, #0
 8000f52:	6078      	str	r0, [r7, #4]
  lis2duxs12_i3c_cfg_t val;

  if(pObj->IO.BusType != LIS2DUXS12_I3C_BUS)
 8000f54:	687b      	ldr	r3, [r7, #4]
 8000f56:	689b      	ldr	r3, [r3, #8]
 8000f58:	2b03      	cmp	r3, #3
 8000f5a:	d01f      	beq.n	8000f9c <LIS2DUXS12_Init+0x50>
  {
    /* Disable I3C */
    if (lis2duxs12_i3c_configure_get(&(pObj->Ctx), &val) != LIS2DUXS12_OK)
 8000f5c:	687b      	ldr	r3, [r7, #4]
 8000f5e:	3320      	adds	r3, #32
 8000f60:	f107 0214 	add.w	r2, r7, #20
 8000f64:	4611      	mov	r1, r2
 8000f66:	4618      	mov	r0, r3
 8000f68:	f001 fa72 	bl	8002450 <lis2duxs12_i3c_configure_get>
 8000f6c:	4603      	mov	r3, r0
 8000f6e:	2b00      	cmp	r3, #0
 8000f70:	d002      	beq.n	8000f78 <LIS2DUXS12_Init+0x2c>
    {
      return LIS2DUXS12_ERROR;
 8000f72:	f04f 33ff 	mov.w	r3, #4294967295
 8000f76:	e052      	b.n	800101e <LIS2DUXS12_Init+0xd2>
    }
    val.asf_on = PROPERTY_ENABLE;
 8000f78:	7d7b      	ldrb	r3, [r7, #21]
 8000f7a:	f043 0301 	orr.w	r3, r3, #1
 8000f7e:	757b      	strb	r3, [r7, #21]
    if (lis2duxs12_i3c_configure_set(&(pObj->Ctx), &val) != LIS2DUXS12_OK)
 8000f80:	687b      	ldr	r3, [r7, #4]
 8000f82:	3320      	adds	r3, #32
 8000f84:	f107 0214 	add.w	r2, r7, #20
 8000f88:	4611      	mov	r1, r2
 8000f8a:	4618      	mov	r0, r3
 8000f8c:	f001 fa28 	bl	80023e0 <lis2duxs12_i3c_configure_set>
 8000f90:	4603      	mov	r3, r0
 8000f92:	2b00      	cmp	r3, #0
 8000f94:	d002      	beq.n	8000f9c <LIS2DUXS12_Init+0x50>
    {
      return LIS2DUXS12_ERROR;
 8000f96:	f04f 33ff 	mov.w	r3, #4294967295
 8000f9a:	e040      	b.n	800101e <LIS2DUXS12_Init+0xd2>
    }
  }

  /* Enable register address automatically incremented during a multiple byte
  access with a serial interface. Enable BDU. */
  if (lis2duxs12_init_set(&(pObj->Ctx), LIS2DUXS12_SENSOR_ONLY_ON) != LIS2DUXS12_OK)
 8000f9c:	687b      	ldr	r3, [r7, #4]
 8000f9e:	3320      	adds	r3, #32
 8000fa0:	2100      	movs	r1, #0
 8000fa2:	4618      	mov	r0, r3
 8000fa4:	f000 fe98 	bl	8001cd8 <lis2duxs12_init_set>
 8000fa8:	4603      	mov	r3, r0
 8000faa:	2b00      	cmp	r3, #0
 8000fac:	d002      	beq.n	8000fb4 <LIS2DUXS12_Init+0x68>
  {
    return LIS2DUXS12_ERROR;
 8000fae:	f04f 33ff 	mov.w	r3, #4294967295
 8000fb2:	e034      	b.n	800101e <LIS2DUXS12_Init+0xd2>
  }

  /* FIFO mode selection */
  lis2duxs12_fifo_mode_t fifo_mode =
 8000fb4:	f107 030c 	add.w	r3, r7, #12
 8000fb8:	2200      	movs	r2, #0
 8000fba:	601a      	str	r2, [r3, #0]
 8000fbc:	809a      	strh	r2, [r3, #4]
    .operation = LIS2DUXS12_BYPASS_MODE,
    .store     = LIS2DUXS12_FIFO_1X,
    .watermark = 0,
  };

  if (lis2duxs12_fifo_mode_set(&(pObj->Ctx), fifo_mode) != LIS2DUXS12_OK)
 8000fbe:	687b      	ldr	r3, [r7, #4]
 8000fc0:	f103 0020 	add.w	r0, r3, #32
 8000fc4:	f107 030c 	add.w	r3, r7, #12
 8000fc8:	e893 0006 	ldmia.w	r3, {r1, r2}
 8000fcc:	f001 fa7f 	bl	80024ce <lis2duxs12_fifo_mode_set>
 8000fd0:	4603      	mov	r3, r0
 8000fd2:	2b00      	cmp	r3, #0
 8000fd4:	d002      	beq.n	8000fdc <LIS2DUXS12_Init+0x90>
  {
    return LIS2DUXS12_ERROR;
 8000fd6:	f04f 33ff 	mov.w	r3, #4294967295
 8000fda:	e020      	b.n	800101e <LIS2DUXS12_Init+0xd2>
  }

  /* Select default output data rate. */
  pObj->acc_odr = 100.0f;
 8000fdc:	687b      	ldr	r3, [r7, #4]
 8000fde:	4a12      	ldr	r2, [pc, #72]	@ (8001028 <LIS2DUXS12_Init+0xdc>)
 8000fe0:	635a      	str	r2, [r3, #52]	@ 0x34
  /* Select default ultra low power (disabled). */
  pObj->power_mode = LIS2DUXS12_LOW_POWER;
 8000fe2:	687b      	ldr	r3, [r7, #4]
 8000fe4:	2201      	movs	r2, #1
 8000fe6:	f883 2038 	strb.w	r2, [r3, #56]	@ 0x38

  /* Output data rate: power down, full scale: 2g */
  lis2duxs12_md_t mode =
 8000fea:	f107 0308 	add.w	r3, r7, #8
 8000fee:	2100      	movs	r1, #0
 8000ff0:	460a      	mov	r2, r1
 8000ff2:	801a      	strh	r2, [r3, #0]
 8000ff4:	460a      	mov	r2, r1
 8000ff6:	709a      	strb	r2, [r3, #2]
  {
    .odr = LIS2DUXS12_OFF,
    .fs  = LIS2DUXS12_2g,
  };

  if (lis2duxs12_mode_set(&(pObj->Ctx), &mode) != LIS2DUXS12_OK)
 8000ff8:	687b      	ldr	r3, [r7, #4]
 8000ffa:	3320      	adds	r3, #32
 8000ffc:	f107 0208 	add.w	r2, r7, #8
 8001000:	4611      	mov	r1, r2
 8001002:	4618      	mov	r0, r3
 8001004:	f000 ff10 	bl	8001e28 <lis2duxs12_mode_set>
 8001008:	4603      	mov	r3, r0
 800100a:	2b00      	cmp	r3, #0
 800100c:	d002      	beq.n	8001014 <LIS2DUXS12_Init+0xc8>
  {
    return LIS2DUXS12_ERROR;
 800100e:	f04f 33ff 	mov.w	r3, #4294967295
 8001012:	e004      	b.n	800101e <LIS2DUXS12_Init+0xd2>
  }

  pObj->is_initialized = 1;
 8001014:	687b      	ldr	r3, [r7, #4]
 8001016:	2201      	movs	r2, #1
 8001018:	f883 2030 	strb.w	r2, [r3, #48]	@ 0x30

  return LIS2DUXS12_OK;
 800101c:	2300      	movs	r3, #0
}
 800101e:	4618      	mov	r0, r3
 8001020:	3718      	adds	r7, #24
 8001022:	46bd      	mov	sp, r7
 8001024:	bd80      	pop	{r7, pc}
 8001026:	bf00      	nop
 8001028:	42c80000 	.word	0x42c80000

0800102c <LIS2DUXS12_DeInit>:
  * @brief  Deinitialize the LIS2DUXS12 sensor
  * @param  pObj the device pObj
  * @retval 0 in case of success, an error code otherwise
  */
int32_t LIS2DUXS12_DeInit(LIS2DUXS12_Object_t *pObj)
{
 800102c:	b580      	push	{r7, lr}
 800102e:	b082      	sub	sp, #8
 8001030:	af00      	add	r7, sp, #0
 8001032:	6078      	str	r0, [r7, #4]
  /* Disable the component */
  if (LIS2DUXS12_ACC_Disable(pObj) != LIS2DUXS12_OK)
 8001034:	6878      	ldr	r0, [r7, #4]
 8001036:	f000 f8ad 	bl	8001194 <LIS2DUXS12_ACC_Disable>
 800103a:	4603      	mov	r3, r0
 800103c:	2b00      	cmp	r3, #0
 800103e:	d002      	beq.n	8001046 <LIS2DUXS12_DeInit+0x1a>
  {
    return LIS2DUXS12_ERROR;
 8001040:	f04f 33ff 	mov.w	r3, #4294967295
 8001044:	e00c      	b.n	8001060 <LIS2DUXS12_DeInit+0x34>
  }

  /* Reset output data rate. */
  pObj->acc_odr = 0.0f;
 8001046:	687b      	ldr	r3, [r7, #4]
 8001048:	f04f 0200 	mov.w	r2, #0
 800104c:	635a      	str	r2, [r3, #52]	@ 0x34
  /* Reset ultra low power to default value (disabled). */
  pObj->power_mode = LIS2DUXS12_LOW_POWER;
 800104e:	687b      	ldr	r3, [r7, #4]
 8001050:	2201      	movs	r2, #1
 8001052:	f883 2038 	strb.w	r2, [r3, #56]	@ 0x38

  pObj->is_initialized = 0;
 8001056:	687b      	ldr	r3, [r7, #4]
 8001058:	2200      	movs	r2, #0
 800105a:	f883 2030 	strb.w	r2, [r3, #48]	@ 0x30

  return LIS2DUXS12_OK;
 800105e:	2300      	movs	r3, #0
}
 8001060:	4618      	mov	r0, r3
 8001062:	3708      	adds	r7, #8
 8001064:	46bd      	mov	sp, r7
 8001066:	bd80      	pop	{r7, pc}

08001068 <LIS2DUXS12_ExitDeepPowerDownI2C>:
  * @brief  Exit from deep power down in I2C
  * @param  pObj the device pObj
  * @retval 0 in case of success, an error code otherwise
  */
int32_t LIS2DUXS12_ExitDeepPowerDownI2C(LIS2DUXS12_Object_t *pObj)
{
 8001068:	b580      	push	{r7, lr}
 800106a:	b084      	sub	sp, #16
 800106c:	af00      	add	r7, sp, #0
 800106e:	6078      	str	r0, [r7, #4]
  uint8_t val;

  /* Perform dummy read in order to exit from deep power down in I2C mode*/
  (void)lis2duxs12_device_id_get(&(pObj->Ctx), &val);
 8001070:	687b      	ldr	r3, [r7, #4]
 8001072:	3320      	adds	r3, #32
 8001074:	f107 020f 	add.w	r2, r7, #15
 8001078:	4611      	mov	r1, r2
 800107a:	4618      	mov	r0, r3
 800107c:	f000 fe1a 	bl	8001cb4 <lis2duxs12_device_id_get>

  /* Wait for 25 ms based on datasheet */
  pObj->Ctx.mdelay(25);
 8001080:	687b      	ldr	r3, [r7, #4]
 8001082:	6a9b      	ldr	r3, [r3, #40]	@ 0x28
 8001084:	2019      	movs	r0, #25
 8001086:	4798      	blx	r3

  return LIS2DUXS12_OK;
 8001088:	2300      	movs	r3, #0
}
 800108a:	4618      	mov	r0, r3
 800108c:	3710      	adds	r7, #16
 800108e:	46bd      	mov	sp, r7
 8001090:	bd80      	pop	{r7, pc}

08001092 <LIS2DUXS12_ExitDeepPowerDownSPI>:
  * @brief  Exit from deep power down in SPI
  * @param  pObj the device pObj
  * @retval 0 in case of success, an error code otherwise
  */
int32_t LIS2DUXS12_ExitDeepPowerDownSPI(LIS2DUXS12_Object_t *pObj)
{
 8001092:	b580      	push	{r7, lr}
 8001094:	b082      	sub	sp, #8
 8001096:	af00      	add	r7, sp, #0
 8001098:	6078      	str	r0, [r7, #4]
  /* Write IF_WAKE_UP register to exit from deep power down in SPI mode*/
  (void)lis2duxs12_exit_deep_power_down(&(pObj->Ctx));
 800109a:	687b      	ldr	r3, [r7, #4]
 800109c:	3320      	adds	r3, #32
 800109e:	4618      	mov	r0, r3
 80010a0:	f001 f8da 	bl	8002258 <lis2duxs12_exit_deep_power_down>

  /* Wait for 25 ms based on datasheet */
  pObj->Ctx.mdelay(25);
 80010a4:	687b      	ldr	r3, [r7, #4]
 80010a6:	6a9b      	ldr	r3, [r3, #40]	@ 0x28
 80010a8:	2019      	movs	r0, #25
 80010aa:	4798      	blx	r3

  return LIS2DUXS12_OK;
 80010ac:	2300      	movs	r3, #0
}
 80010ae:	4618      	mov	r0, r3
 80010b0:	3708      	adds	r7, #8
 80010b2:	46bd      	mov	sp, r7
 80010b4:	bd80      	pop	{r7, pc}

080010b6 <LIS2DUXS12_ReadID>:
  * @param  pObj the device pObj
  * @param  Id the WHO_AM_I value
  * @retval 0 in case of success, an error code otherwise
  */
int32_t LIS2DUXS12_ReadID(LIS2DUXS12_Object_t *pObj, uint8_t *Id)
{
 80010b6:	b580      	push	{r7, lr}
 80010b8:	b084      	sub	sp, #16
 80010ba:	af00      	add	r7, sp, #0
 80010bc:	6078      	str	r0, [r7, #4]
 80010be:	6039      	str	r1, [r7, #0]
  uint8_t val;

  if (lis2duxs12_device_id_get(&(pObj->Ctx), &val) != LIS2DUXS12_OK)
 80010c0:	687b      	ldr	r3, [r7, #4]
 80010c2:	3320      	adds	r3, #32
 80010c4:	f107 020f 	add.w	r2, r7, #15
 80010c8:	4611      	mov	r1, r2
 80010ca:	4618      	mov	r0, r3
 80010cc:	f000 fdf2 	bl	8001cb4 <lis2duxs12_device_id_get>
 80010d0:	4603      	mov	r3, r0
 80010d2:	2b00      	cmp	r3, #0
 80010d4:	d002      	beq.n	80010dc <LIS2DUXS12_ReadID+0x26>
  {
    return LIS2DUXS12_ERROR;
 80010d6:	f04f 33ff 	mov.w	r3, #4294967295
 80010da:	e003      	b.n	80010e4 <LIS2DUXS12_ReadID+0x2e>
  }

  *Id = val;
 80010dc:	7bfa      	ldrb	r2, [r7, #15]
 80010de:	683b      	ldr	r3, [r7, #0]
 80010e0:	701a      	strb	r2, [r3, #0]

  return LIS2DUXS12_OK;
 80010e2:	2300      	movs	r3, #0
}
 80010e4:	4618      	mov	r0, r3
 80010e6:	3710      	adds	r7, #16
 80010e8:	46bd      	mov	sp, r7
 80010ea:	bd80      	pop	{r7, pc}

080010ec <LIS2DUXS12_GetCapabilities>:
  * @param  pObj Component object pointer
  * @param  Capabilities pointer to LIS2DUXS12 sensor capabilities
  * @retval 0 in case of success, an error code otherwise
  */
int32_t LIS2DUXS12_GetCapabilities(LIS2DUXS12_Object_t *pObj, LIS2DUXS12_Capabilities_t *Capabilities)
{
 80010ec:	b480      	push	{r7}
 80010ee:	b083      	sub	sp, #12
 80010f0:	af00      	add	r7, sp, #0
 80010f2:	6078      	str	r0, [r7, #4]
 80010f4:	6039      	str	r1, [r7, #0]
  /* Prevent unused argument(s) compilation warning */
  (void)(pObj);

  Capabilities->Acc        = 1;
 80010f6:	683b      	ldr	r3, [r7, #0]
 80010f8:	2201      	movs	r2, #1
 80010fa:	701a      	strb	r2, [r3, #0]
  Capabilities->Gyro       = 0;
 80010fc:	683b      	ldr	r3, [r7, #0]
 80010fe:	2200      	movs	r2, #0
 8001100:	705a      	strb	r2, [r3, #1]
  Capabilities->Magneto    = 0;
 8001102:	683b      	ldr	r3, [r7, #0]
 8001104:	2200      	movs	r2, #0
 8001106:	709a      	strb	r2, [r3, #2]
  Capabilities->LowPower   = 1;
 8001108:	683b      	ldr	r3, [r7, #0]
 800110a:	2201      	movs	r2, #1
 800110c:	70da      	strb	r2, [r3, #3]
  Capabilities->GyroMaxFS  = 0;
 800110e:	683b      	ldr	r3, [r7, #0]
 8001110:	2200      	movs	r2, #0
 8001112:	605a      	str	r2, [r3, #4]
  Capabilities->AccMaxFS   = 16;
 8001114:	683b      	ldr	r3, [r7, #0]
 8001116:	2210      	movs	r2, #16
 8001118:	609a      	str	r2, [r3, #8]
  Capabilities->MagMaxFS   = 0;
 800111a:	683b      	ldr	r3, [r7, #0]
 800111c:	2200      	movs	r2, #0
 800111e:	60da      	str	r2, [r3, #12]
  Capabilities->GyroMaxOdr = 0.0f;
 8001120:	683b      	ldr	r3, [r7, #0]
 8001122:	f04f 0200 	mov.w	r2, #0
 8001126:	611a      	str	r2, [r3, #16]
  Capabilities->AccMaxOdr  = 800.0f;
 8001128:	683b      	ldr	r3, [r7, #0]
 800112a:	4a06      	ldr	r2, [pc, #24]	@ (8001144 <LIS2DUXS12_GetCapabilities+0x58>)
 800112c:	615a      	str	r2, [r3, #20]
  Capabilities->MagMaxOdr  = 0.0f;
 800112e:	683b      	ldr	r3, [r7, #0]
 8001130:	f04f 0200 	mov.w	r2, #0
 8001134:	619a      	str	r2, [r3, #24]
  return LIS2DUXS12_OK;
 8001136:	2300      	movs	r3, #0
}
 8001138:	4618      	mov	r0, r3
 800113a:	370c      	adds	r7, #12
 800113c:	46bd      	mov	sp, r7
 800113e:	f85d 7b04 	ldr.w	r7, [sp], #4
 8001142:	4770      	bx	lr
 8001144:	44480000 	.word	0x44480000

08001148 <LIS2DUXS12_ACC_Enable>:
  * @brief  Enable the LIS2DUXS12 accelerometer sensor
  * @param  pObj the device pObj
  * @retval 0 in case of success, an error code otherwise
  */
int32_t LIS2DUXS12_ACC_Enable(LIS2DUXS12_Object_t *pObj)
{
 8001148:	b580      	push	{r7, lr}
 800114a:	b082      	sub	sp, #8
 800114c:	af00      	add	r7, sp, #0
 800114e:	6078      	str	r0, [r7, #4]
  /* Check if the component is already enabled */
  if (pObj->acc_is_enabled == 1U)
 8001150:	687b      	ldr	r3, [r7, #4]
 8001152:	f893 3031 	ldrb.w	r3, [r3, #49]	@ 0x31
 8001156:	2b01      	cmp	r3, #1
 8001158:	d101      	bne.n	800115e <LIS2DUXS12_ACC_Enable+0x16>
  {
    return LIS2DUXS12_OK;
 800115a:	2300      	movs	r3, #0
 800115c:	e016      	b.n	800118c <LIS2DUXS12_ACC_Enable+0x44>
  }

  /* Output data rate selection. */
  if (LIS2DUXS12_ACC_SetOutputDataRate_When_Enabled(pObj, pObj->acc_odr, pObj->power_mode) != LIS2DUXS12_OK)
 800115e:	687b      	ldr	r3, [r7, #4]
 8001160:	edd3 7a0d 	vldr	s15, [r3, #52]	@ 0x34
 8001164:	687b      	ldr	r3, [r7, #4]
 8001166:	f893 3038 	ldrb.w	r3, [r3, #56]	@ 0x38
 800116a:	4619      	mov	r1, r3
 800116c:	eeb0 0a67 	vmov.f32	s0, s15
 8001170:	6878      	ldr	r0, [r7, #4]
 8001172:	f000 fab9 	bl	80016e8 <LIS2DUXS12_ACC_SetOutputDataRate_When_Enabled>
 8001176:	4603      	mov	r3, r0
 8001178:	2b00      	cmp	r3, #0
 800117a:	d002      	beq.n	8001182 <LIS2DUXS12_ACC_Enable+0x3a>
  {
    return LIS2DUXS12_ERROR;
 800117c:	f04f 33ff 	mov.w	r3, #4294967295
 8001180:	e004      	b.n	800118c <LIS2DUXS12_ACC_Enable+0x44>
  }

  pObj->acc_is_enabled = 1;
 8001182:	687b      	ldr	r3, [r7, #4]
 8001184:	2201      	movs	r2, #1
 8001186:	f883 2031 	strb.w	r2, [r3, #49]	@ 0x31

  return LIS2DUXS12_OK;
 800118a:	2300      	movs	r3, #0
}
 800118c:	4618      	mov	r0, r3
 800118e:	3708      	adds	r7, #8
 8001190:	46bd      	mov	sp, r7
 8001192:	bd80      	pop	{r7, pc}

08001194 <LIS2DUXS12_ACC_Disable>:
  * @brief  Disable the LIS2DUXS12 accelerometer sensor
  * @param  pObj the device pObj
  * @retval 0 in case of success, an error code otherwise
  */
int32_t LIS2DUXS12_ACC_Disable(LIS2DUXS12_Object_t *pObj)
{
 8001194:	b580      	push	{r7, lr}
 8001196:	b084      	sub	sp, #16
 8001198:	af00      	add	r7, sp, #0
 800119a:	6078      	str	r0, [r7, #4]
  float_t Odr;
  /* Check if the component is already disabled */
  if (pObj->acc_is_enabled == 0U)
 800119c:	687b      	ldr	r3, [r7, #4]
 800119e:	f893 3031 	ldrb.w	r3, [r3, #49]	@ 0x31
 80011a2:	2b00      	cmp	r3, #0
 80011a4:	d101      	bne.n	80011aa <LIS2DUXS12_ACC_Disable+0x16>
  {
    return LIS2DUXS12_OK;
 80011a6:	2300      	movs	r3, #0
 80011a8:	e046      	b.n	8001238 <LIS2DUXS12_ACC_Disable+0xa4>
  }

  if (LIS2DUXS12_ACC_GetOutputDataRate(pObj, &Odr) != LIS2DUXS12_OK)
 80011aa:	f107 030c 	add.w	r3, r7, #12
 80011ae:	4619      	mov	r1, r3
 80011b0:	6878      	ldr	r0, [r7, #4]
 80011b2:	f000 f893 	bl	80012dc <LIS2DUXS12_ACC_GetOutputDataRate>
 80011b6:	4603      	mov	r3, r0
 80011b8:	2b00      	cmp	r3, #0
 80011ba:	d002      	beq.n	80011c2 <LIS2DUXS12_ACC_Disable+0x2e>
  {
    return LIS2DUXS12_ERROR;
 80011bc:	f04f 33ff 	mov.w	r3, #4294967295
 80011c0:	e03a      	b.n	8001238 <LIS2DUXS12_ACC_Disable+0xa4>
  }

  if (Odr == 800.0f)
 80011c2:	edd7 7a03 	vldr	s15, [r7, #12]
 80011c6:	ed9f 7a1e 	vldr	s14, [pc, #120]	@ 8001240 <LIS2DUXS12_ACC_Disable+0xac>
 80011ca:	eef4 7a47 	vcmp.f32	s15, s14
 80011ce:	eef1 fa10 	vmrs	APSR_nzcv, fpscr
 80011d2:	d10e      	bne.n	80011f2 <LIS2DUXS12_ACC_Disable+0x5e>
  {
    if (LIS2DUXS12_ACC_SetOutputDataRate(pObj, 400.0f) != LIS2DUXS12_OK)
 80011d4:	ed9f 0a1b 	vldr	s0, [pc, #108]	@ 8001244 <LIS2DUXS12_ACC_Disable+0xb0>
 80011d8:	6878      	ldr	r0, [r7, #4]
 80011da:	f000 f94b 	bl	8001474 <LIS2DUXS12_ACC_SetOutputDataRate>
 80011de:	4603      	mov	r3, r0
 80011e0:	2b00      	cmp	r3, #0
 80011e2:	d002      	beq.n	80011ea <LIS2DUXS12_ACC_Disable+0x56>
    {
      return LIS2DUXS12_ERROR;
 80011e4:	f04f 33ff 	mov.w	r3, #4294967295
 80011e8:	e026      	b.n	8001238 <LIS2DUXS12_ACC_Disable+0xa4>
    }

    /* Wait for 3 ms based on datasheet */
    pObj->Ctx.mdelay(3);
 80011ea:	687b      	ldr	r3, [r7, #4]
 80011ec:	6a9b      	ldr	r3, [r3, #40]	@ 0x28
 80011ee:	2003      	movs	r0, #3
 80011f0:	4798      	blx	r3
  }

  /* Output data rate selection - power down. */
  lis2duxs12_md_t mode;

  if (lis2duxs12_mode_get(&(pObj->Ctx), &mode) != LIS2DUXS12_OK)
 80011f2:	687b      	ldr	r3, [r7, #4]
 80011f4:	3320      	adds	r3, #32
 80011f6:	f107 0208 	add.w	r2, r7, #8
 80011fa:	4611      	mov	r1, r2
 80011fc:	4618      	mov	r0, r3
 80011fe:	f000 ff33 	bl	8002068 <lis2duxs12_mode_get>
 8001202:	4603      	mov	r3, r0
 8001204:	2b00      	cmp	r3, #0
 8001206:	d002      	beq.n	800120e <LIS2DUXS12_ACC_Disable+0x7a>
  {
    return LIS2DUXS12_ERROR;
 8001208:	f04f 33ff 	mov.w	r3, #4294967295
 800120c:	e014      	b.n	8001238 <LIS2DUXS12_ACC_Disable+0xa4>
  }

  mode.odr = LIS2DUXS12_OFF;
 800120e:	2300      	movs	r3, #0
 8001210:	723b      	strb	r3, [r7, #8]

  if (lis2duxs12_mode_set(&(pObj->Ctx), &mode) != LIS2DUXS12_OK)
 8001212:	687b      	ldr	r3, [r7, #4]
 8001214:	3320      	adds	r3, #32
 8001216:	f107 0208 	add.w	r2, r7, #8
 800121a:	4611      	mov	r1, r2
 800121c:	4618      	mov	r0, r3
 800121e:	f000 fe03 	bl	8001e28 <lis2duxs12_mode_set>
 8001222:	4603      	mov	r3, r0
 8001224:	2b00      	cmp	r3, #0
 8001226:	d002      	beq.n	800122e <LIS2DUXS12_ACC_Disable+0x9a>
  {
    return LIS2DUXS12_ERROR;
 8001228:	f04f 33ff 	mov.w	r3, #4294967295
 800122c:	e004      	b.n	8001238 <LIS2DUXS12_ACC_Disable+0xa4>
  }

  pObj->acc_is_enabled = 0;
 800122e:	687b      	ldr	r3, [r7, #4]
 8001230:	2200      	movs	r2, #0
 8001232:	f883 2031 	strb.w	r2, [r3, #49]	@ 0x31

  return LIS2DUXS12_OK;
 8001236:	2300      	movs	r3, #0
}
 8001238:	4618      	mov	r0, r3
 800123a:	3710      	adds	r7, #16
 800123c:	46bd      	mov	sp, r7
 800123e:	bd80      	pop	{r7, pc}
 8001240:	44480000 	.word	0x44480000
 8001244:	43c80000 	.word	0x43c80000

08001248 <LIS2DUXS12_ACC_GetSensitivity>:
  * @param  pObj the device pObj
  * @param  Sensitivity pointer
  * @retval 0 in case of success, an error code otherwise
  */
int32_t LIS2DUXS12_ACC_GetSensitivity(LIS2DUXS12_Object_t *pObj, float_t *Sensitivity)
{
 8001248:	b580      	push	{r7, lr}
 800124a:	b084      	sub	sp, #16
 800124c:	af00      	add	r7, sp, #0
 800124e:	6078      	str	r0, [r7, #4]
 8001250:	6039      	str	r1, [r7, #0]
  int32_t ret = LIS2DUXS12_OK;
 8001252:	2300      	movs	r3, #0
 8001254:	60fb      	str	r3, [r7, #12]
  lis2duxs12_md_t mode;

  if (lis2duxs12_mode_get(&(pObj->Ctx), &mode) != LIS2DUXS12_OK)
 8001256:	687b      	ldr	r3, [r7, #4]
 8001258:	3320      	adds	r3, #32
 800125a:	f107 0208 	add.w	r2, r7, #8
 800125e:	4611      	mov	r1, r2
 8001260:	4618      	mov	r0, r3
 8001262:	f000 ff01 	bl	8002068 <lis2duxs12_mode_get>
 8001266:	4603      	mov	r3, r0
 8001268:	2b00      	cmp	r3, #0
 800126a:	d002      	beq.n	8001272 <LIS2DUXS12_ACC_GetSensitivity+0x2a>
  {
    return LIS2DUXS12_ERROR;
 800126c:	f04f 33ff 	mov.w	r3, #4294967295
 8001270:	e026      	b.n	80012c0 <LIS2DUXS12_ACC_GetSensitivity+0x78>
  }

  switch (mode.fs)
 8001272:	7a7b      	ldrb	r3, [r7, #9]
 8001274:	2b03      	cmp	r3, #3
 8001276:	d81b      	bhi.n	80012b0 <LIS2DUXS12_ACC_GetSensitivity+0x68>
 8001278:	a201      	add	r2, pc, #4	@ (adr r2, 8001280 <LIS2DUXS12_ACC_GetSensitivity+0x38>)
 800127a:	f852 f023 	ldr.w	pc, [r2, r3, lsl #2]
 800127e:	bf00      	nop
 8001280:	08001291 	.word	0x08001291
 8001284:	08001299 	.word	0x08001299
 8001288:	080012a1 	.word	0x080012a1
 800128c:	080012a9 	.word	0x080012a9
  {
    case LIS2DUXS12_2g:
      *Sensitivity = LIS2DUXS12_ACC_SENSITIVITY_FOR_FS_2G;
 8001290:	683b      	ldr	r3, [r7, #0]
 8001292:	4a0d      	ldr	r2, [pc, #52]	@ (80012c8 <LIS2DUXS12_ACC_GetSensitivity+0x80>)
 8001294:	601a      	str	r2, [r3, #0]
      break;
 8001296:	e012      	b.n	80012be <LIS2DUXS12_ACC_GetSensitivity+0x76>

    case LIS2DUXS12_4g:
      *Sensitivity = LIS2DUXS12_ACC_SENSITIVITY_FOR_FS_4G;
 8001298:	683b      	ldr	r3, [r7, #0]
 800129a:	4a0c      	ldr	r2, [pc, #48]	@ (80012cc <LIS2DUXS12_ACC_GetSensitivity+0x84>)
 800129c:	601a      	str	r2, [r3, #0]
      break;
 800129e:	e00e      	b.n	80012be <LIS2DUXS12_ACC_GetSensitivity+0x76>

    case LIS2DUXS12_8g:
      *Sensitivity = LIS2DUXS12_ACC_SENSITIVITY_FOR_FS_8G;
 80012a0:	683b      	ldr	r3, [r7, #0]
 80012a2:	4a0b      	ldr	r2, [pc, #44]	@ (80012d0 <LIS2DUXS12_ACC_GetSensitivity+0x88>)
 80012a4:	601a      	str	r2, [r3, #0]
      break;
 80012a6:	e00a      	b.n	80012be <LIS2DUXS12_ACC_GetSensitivity+0x76>

    case LIS2DUXS12_16g:
      *Sensitivity = LIS2DUXS12_ACC_SENSITIVITY_FOR_FS_16G;
 80012a8:	683b      	ldr	r3, [r7, #0]
 80012aa:	4a0a      	ldr	r2, [pc, #40]	@ (80012d4 <LIS2DUXS12_ACC_GetSensitivity+0x8c>)
 80012ac:	601a      	str	r2, [r3, #0]
      break;
 80012ae:	e006      	b.n	80012be <LIS2DUXS12_ACC_GetSensitivity+0x76>

    default:
      *Sensitivity = -1.0f;
 80012b0:	683b      	ldr	r3, [r7, #0]
 80012b2:	4a09      	ldr	r2, [pc, #36]	@ (80012d8 <LIS2DUXS12_ACC_GetSensitivity+0x90>)
 80012b4:	601a      	str	r2, [r3, #0]
      ret = LIS2DUXS12_ERROR;
 80012b6:	f04f 33ff 	mov.w	r3, #4294967295
 80012ba:	60fb      	str	r3, [r7, #12]
      break;
 80012bc:	bf00      	nop
  }

  return ret;
 80012be:	68fb      	ldr	r3, [r7, #12]
}
 80012c0:	4618      	mov	r0, r3
 80012c2:	3710      	adds	r7, #16
 80012c4:	46bd      	mov	sp, r7
 80012c6:	bd80      	pop	{r7, pc}
 80012c8:	3d79db23 	.word	0x3d79db23
 80012cc:	3df9db23 	.word	0x3df9db23
 80012d0:	3e79db23 	.word	0x3e79db23
 80012d4:	3ef9db23 	.word	0x3ef9db23
 80012d8:	bf800000 	.word	0xbf800000

080012dc <LIS2DUXS12_ACC_GetOutputDataRate>:
  * @param  pObj the device pObj
  * @param  Odr pointer where the output data rate is written
  * @retval 0 in case of success, an error code otherwise
  */
int32_t LIS2DUXS12_ACC_GetOutputDataRate(LIS2DUXS12_Object_t *pObj, float_t *Odr)
{
 80012dc:	b580      	push	{r7, lr}
 80012de:	b084      	sub	sp, #16
 80012e0:	af00      	add	r7, sp, #0
 80012e2:	6078      	str	r0, [r7, #4]
 80012e4:	6039      	str	r1, [r7, #0]
  int32_t ret = LIS2DUXS12_OK;
 80012e6:	2300      	movs	r3, #0
 80012e8:	60fb      	str	r3, [r7, #12]
  lis2duxs12_md_t mode;

  /* Read actual output data rate from sensor. */
  if (lis2duxs12_mode_get(&(pObj->Ctx), &mode) != LIS2DUXS12_OK)
 80012ea:	687b      	ldr	r3, [r7, #4]
 80012ec:	3320      	adds	r3, #32
 80012ee:	f107 0208 	add.w	r2, r7, #8
 80012f2:	4611      	mov	r1, r2
 80012f4:	4618      	mov	r0, r3
 80012f6:	f000 feb7 	bl	8002068 <lis2duxs12_mode_get>
 80012fa:	4603      	mov	r3, r0
 80012fc:	2b00      	cmp	r3, #0
 80012fe:	d002      	beq.n	8001306 <LIS2DUXS12_ACC_GetOutputDataRate+0x2a>
  {
    return LIS2DUXS12_ERROR;
 8001300:	f04f 33ff 	mov.w	r3, #4294967295
 8001304:	e09b      	b.n	800143e <LIS2DUXS12_ACC_GetOutputDataRate+0x162>
  }

  switch (mode.odr)
 8001306:	7a3b      	ldrb	r3, [r7, #8]
 8001308:	2b2f      	cmp	r3, #47	@ 0x2f
 800130a:	f200 8090 	bhi.w	800142e <LIS2DUXS12_ACC_GetOutputDataRate+0x152>
 800130e:	a201      	add	r2, pc, #4	@ (adr r2, 8001314 <LIS2DUXS12_ACC_GetOutputDataRate+0x38>)
 8001310:	f852 f023 	ldr.w	pc, [r2, r3, lsl #2]
 8001314:	080013d5 	.word	0x080013d5
 8001318:	080013df 	.word	0x080013df
 800131c:	080013e7 	.word	0x080013e7
 8001320:	080013ff 	.word	0x080013ff
 8001324:	080013ef 	.word	0x080013ef
 8001328:	080013f7 	.word	0x080013f7
 800132c:	080013ff 	.word	0x080013ff
 8001330:	08001407 	.word	0x08001407
 8001334:	0800140f 	.word	0x0800140f
 8001338:	08001417 	.word	0x08001417
 800133c:	0800141f 	.word	0x0800141f
 8001340:	08001427 	.word	0x08001427
 8001344:	0800142f 	.word	0x0800142f
 8001348:	0800142f 	.word	0x0800142f
 800134c:	0800142f 	.word	0x0800142f
 8001350:	0800142f 	.word	0x0800142f
 8001354:	0800142f 	.word	0x0800142f
 8001358:	0800142f 	.word	0x0800142f
 800135c:	0800142f 	.word	0x0800142f
 8001360:	0800142f 	.word	0x0800142f
 8001364:	080013ef 	.word	0x080013ef
 8001368:	080013f7 	.word	0x080013f7
 800136c:	080013ff 	.word	0x080013ff
 8001370:	08001407 	.word	0x08001407
 8001374:	0800140f 	.word	0x0800140f
 8001378:	08001417 	.word	0x08001417
 800137c:	0800141f 	.word	0x0800141f
 8001380:	08001427 	.word	0x08001427
 8001384:	0800142f 	.word	0x0800142f
 8001388:	0800142f 	.word	0x0800142f
 800138c:	0800142f 	.word	0x0800142f
 8001390:	0800142f 	.word	0x0800142f
 8001394:	0800142f 	.word	0x0800142f
 8001398:	0800142f 	.word	0x0800142f
 800139c:	0800142f 	.word	0x0800142f
 80013a0:	0800142f 	.word	0x0800142f
 80013a4:	0800142f 	.word	0x0800142f
 80013a8:	0800142f 	.word	0x0800142f
 80013ac:	0800142f 	.word	0x0800142f
 80013b0:	0800142f 	.word	0x0800142f
 80013b4:	0800142f 	.word	0x0800142f
 80013b8:	0800142f 	.word	0x0800142f
 80013bc:	0800142f 	.word	0x0800142f
 80013c0:	0800142f 	.word	0x0800142f
 80013c4:	0800142f 	.word	0x0800142f
 80013c8:	0800142f 	.word	0x0800142f
 80013cc:	080013d5 	.word	0x080013d5
 80013d0:	080013d5 	.word	0x080013d5
  {
    case LIS2DUXS12_OFF:
    case LIS2DUXS12_TRIG_PIN:
    case LIS2DUXS12_TRIG_SW:
      *Odr = 0.0f;
 80013d4:	683b      	ldr	r3, [r7, #0]
 80013d6:	f04f 0200 	mov.w	r2, #0
 80013da:	601a      	str	r2, [r3, #0]
      break;
 80013dc:	e02e      	b.n	800143c <LIS2DUXS12_ACC_GetOutputDataRate+0x160>

    case LIS2DUXS12_1Hz6_ULP:
      *Odr = 1.6f;
 80013de:	683b      	ldr	r3, [r7, #0]
 80013e0:	4a19      	ldr	r2, [pc, #100]	@ (8001448 <LIS2DUXS12_ACC_GetOutputDataRate+0x16c>)
 80013e2:	601a      	str	r2, [r3, #0]
      break;
 80013e4:	e02a      	b.n	800143c <LIS2DUXS12_ACC_GetOutputDataRate+0x160>

    case LIS2DUXS12_3Hz_ULP:
      *Odr = 3.0f;
 80013e6:	683b      	ldr	r3, [r7, #0]
 80013e8:	4a18      	ldr	r2, [pc, #96]	@ (800144c <LIS2DUXS12_ACC_GetOutputDataRate+0x170>)
 80013ea:	601a      	str	r2, [r3, #0]
      break;
 80013ec:	e026      	b.n	800143c <LIS2DUXS12_ACC_GetOutputDataRate+0x160>

    case LIS2DUXS12_6Hz_LP:
    case LIS2DUXS12_6Hz_HP:
      *Odr = 6.0f;
 80013ee:	683b      	ldr	r3, [r7, #0]
 80013f0:	4a17      	ldr	r2, [pc, #92]	@ (8001450 <LIS2DUXS12_ACC_GetOutputDataRate+0x174>)
 80013f2:	601a      	str	r2, [r3, #0]
      break;
 80013f4:	e022      	b.n	800143c <LIS2DUXS12_ACC_GetOutputDataRate+0x160>

    case LIS2DUXS12_12Hz5_LP:
    case LIS2DUXS12_12Hz5_HP:
      *Odr = 12.5f;
 80013f6:	683b      	ldr	r3, [r7, #0]
 80013f8:	4a16      	ldr	r2, [pc, #88]	@ (8001454 <LIS2DUXS12_ACC_GetOutputDataRate+0x178>)
 80013fa:	601a      	str	r2, [r3, #0]
      break;
 80013fc:	e01e      	b.n	800143c <LIS2DUXS12_ACC_GetOutputDataRate+0x160>

    case LIS2DUXS12_25Hz_ULP:
    case LIS2DUXS12_25Hz_LP:
    case LIS2DUXS12_25Hz_HP:
      *Odr = 25.0f;
 80013fe:	683b      	ldr	r3, [r7, #0]
 8001400:	4a15      	ldr	r2, [pc, #84]	@ (8001458 <LIS2DUXS12_ACC_GetOutputDataRate+0x17c>)
 8001402:	601a      	str	r2, [r3, #0]
      break;
 8001404:	e01a      	b.n	800143c <LIS2DUXS12_ACC_GetOutputDataRate+0x160>

    case LIS2DUXS12_50Hz_LP:
    case LIS2DUXS12_50Hz_HP:
      *Odr = 50.0f;
 8001406:	683b      	ldr	r3, [r7, #0]
 8001408:	4a14      	ldr	r2, [pc, #80]	@ (800145c <LIS2DUXS12_ACC_GetOutputDataRate+0x180>)
 800140a:	601a      	str	r2, [r3, #0]
      break;
 800140c:	e016      	b.n	800143c <LIS2DUXS12_ACC_GetOutputDataRate+0x160>

    case LIS2DUXS12_100Hz_LP:
    case LIS2DUXS12_100Hz_HP:
      *Odr = 100.0f;
 800140e:	683b      	ldr	r3, [r7, #0]
 8001410:	4a13      	ldr	r2, [pc, #76]	@ (8001460 <LIS2DUXS12_ACC_GetOutputDataRate+0x184>)
 8001412:	601a      	str	r2, [r3, #0]
      break;
 8001414:	e012      	b.n	800143c <LIS2DUXS12_ACC_GetOutputDataRate+0x160>

    case LIS2DUXS12_200Hz_LP:
    case LIS2DUXS12_200Hz_HP:
      *Odr = 200.0f;
 8001416:	683b      	ldr	r3, [r7, #0]
 8001418:	4a12      	ldr	r2, [pc, #72]	@ (8001464 <LIS2DUXS12_ACC_GetOutputDataRate+0x188>)
 800141a:	601a      	str	r2, [r3, #0]
      break;
 800141c:	e00e      	b.n	800143c <LIS2DUXS12_ACC_GetOutputDataRate+0x160>

    case LIS2DUXS12_400Hz_LP:
    case LIS2DUXS12_400Hz_HP:
      *Odr = 400.0f;
 800141e:	683b      	ldr	r3, [r7, #0]
 8001420:	4a11      	ldr	r2, [pc, #68]	@ (8001468 <LIS2DUXS12_ACC_GetOutputDataRate+0x18c>)
 8001422:	601a      	str	r2, [r3, #0]
      break;
 8001424:	e00a      	b.n	800143c <LIS2DUXS12_ACC_GetOutputDataRate+0x160>

    case LIS2DUXS12_800Hz_LP:
    case LIS2DUXS12_800Hz_HP:
      *Odr = 800.0f;
 8001426:	683b      	ldr	r3, [r7, #0]
 8001428:	4a10      	ldr	r2, [pc, #64]	@ (800146c <LIS2DUXS12_ACC_GetOutputDataRate+0x190>)
 800142a:	601a      	str	r2, [r3, #0]
      break;
 800142c:	e006      	b.n	800143c <LIS2DUXS12_ACC_GetOutputDataRate+0x160>

    default:
      *Odr = -1.0f;
 800142e:	683b      	ldr	r3, [r7, #0]
 8001430:	4a0f      	ldr	r2, [pc, #60]	@ (8001470 <LIS2DUXS12_ACC_GetOutputDataRate+0x194>)
 8001432:	601a      	str	r2, [r3, #0]
      ret = LIS2DUXS12_ERROR;
 8001434:	f04f 33ff 	mov.w	r3, #4294967295
 8001438:	60fb      	str	r3, [r7, #12]
      break;
 800143a:	bf00      	nop
  }

  return ret;
 800143c:	68fb      	ldr	r3, [r7, #12]
}
 800143e:	4618      	mov	r0, r3
 8001440:	3710      	adds	r7, #16
 8001442:	46bd      	mov	sp, r7
 8001444:	bd80      	pop	{r7, pc}
 8001446:	bf00      	nop
 8001448:	3fcccccd 	.word	0x3fcccccd
 800144c:	40400000 	.word	0x40400000
 8001450:	40c00000 	.word	0x40c00000
 8001454:	41480000 	.word	0x41480000
 8001458:	41c80000 	.word	0x41c80000
 800145c:	42480000 	.word	0x42480000
 8001460:	42c80000 	.word	0x42c80000
 8001464:	43480000 	.word	0x43480000
 8001468:	43c80000 	.word	0x43c80000
 800146c:	44480000 	.word	0x44480000
 8001470:	bf800000 	.word	0xbf800000

08001474 <LIS2DUXS12_ACC_SetOutputDataRate>:
  * @param  pObj the device pObj
  * @param  Odr the output data rate value to be set
  * @retval 0 in case of success, an error code otherwise
  */
int32_t LIS2DUXS12_ACC_SetOutputDataRate(LIS2DUXS12_Object_t *pObj, float_t Odr)
{
 8001474:	b580      	push	{r7, lr}
 8001476:	b082      	sub	sp, #8
 8001478:	af00      	add	r7, sp, #0
 800147a:	6078      	str	r0, [r7, #4]
 800147c:	ed87 0a00 	vstr	s0, [r7]
  /* By default we use Ultra Low Power disabled */
  return LIS2DUXS12_ACC_SetOutputDataRate_With_Mode(pObj, Odr, LIS2DUXS12_LOW_POWER);
 8001480:	2101      	movs	r1, #1
 8001482:	ed97 0a00 	vldr	s0, [r7]
 8001486:	6878      	ldr	r0, [r7, #4]
 8001488:	f000 f805 	bl	8001496 <LIS2DUXS12_ACC_SetOutputDataRate_With_Mode>
 800148c:	4603      	mov	r3, r0
}
 800148e:	4618      	mov	r0, r3
 8001490:	3708      	adds	r7, #8
 8001492:	46bd      	mov	sp, r7
 8001494:	bd80      	pop	{r7, pc}

08001496 <LIS2DUXS12_ACC_SetOutputDataRate_With_Mode>:
  * @param  Odr the output data rate value to be set
  * @param  Power the ultra low power option
  * @retval 0 in case of success, an error code otherwise
  */
int32_t LIS2DUXS12_ACC_SetOutputDataRate_With_Mode(LIS2DUXS12_Object_t *pObj, float_t Odr, LIS2DUXS12_Power_Mode_t Power)
{
 8001496:	b580      	push	{r7, lr}
 8001498:	b084      	sub	sp, #16
 800149a:	af00      	add	r7, sp, #0
 800149c:	60f8      	str	r0, [r7, #12]
 800149e:	ed87 0a02 	vstr	s0, [r7, #8]
 80014a2:	460b      	mov	r3, r1
 80014a4:	71fb      	strb	r3, [r7, #7]
  /* Check if the component is enabled */
  if (pObj->acc_is_enabled == 1U)
 80014a6:	68fb      	ldr	r3, [r7, #12]
 80014a8:	f893 3031 	ldrb.w	r3, [r3, #49]	@ 0x31
 80014ac:	2b01      	cmp	r3, #1
 80014ae:	d108      	bne.n	80014c2 <LIS2DUXS12_ACC_SetOutputDataRate_With_Mode+0x2c>
  {
    return LIS2DUXS12_ACC_SetOutputDataRate_When_Enabled(pObj, Odr, Power);
 80014b0:	79fb      	ldrb	r3, [r7, #7]
 80014b2:	4619      	mov	r1, r3
 80014b4:	ed97 0a02 	vldr	s0, [r7, #8]
 80014b8:	68f8      	ldr	r0, [r7, #12]
 80014ba:	f000 f915 	bl	80016e8 <LIS2DUXS12_ACC_SetOutputDataRate_When_Enabled>
 80014be:	4603      	mov	r3, r0
 80014c0:	e007      	b.n	80014d2 <LIS2DUXS12_ACC_SetOutputDataRate_With_Mode+0x3c>
  }
  else
  {
    return LIS2DUXS12_ACC_SetOutputDataRate_When_Disabled(pObj, Odr, Power);
 80014c2:	79fb      	ldrb	r3, [r7, #7]
 80014c4:	4619      	mov	r1, r3
 80014c6:	ed97 0a02 	vldr	s0, [r7, #8]
 80014ca:	68f8      	ldr	r0, [r7, #12]
 80014cc:	f000 fa8a 	bl	80019e4 <LIS2DUXS12_ACC_SetOutputDataRate_When_Disabled>
 80014d0:	4603      	mov	r3, r0
  }
}
 80014d2:	4618      	mov	r0, r3
 80014d4:	3710      	adds	r7, #16
 80014d6:	46bd      	mov	sp, r7
 80014d8:	bd80      	pop	{r7, pc}
	...

080014dc <LIS2DUXS12_ACC_GetFullScale>:
  * @param  pObj the device pObj
  * @param  FullScale pointer where the full scale is written
  * @retval 0 in case of success, an error code otherwise
  */
int32_t LIS2DUXS12_ACC_GetFullScale(LIS2DUXS12_Object_t *pObj, int32_t *FullScale)
{
 80014dc:	b580      	push	{r7, lr}
 80014de:	b084      	sub	sp, #16
 80014e0:	af00      	add	r7, sp, #0
 80014e2:	6078      	str	r0, [r7, #4]
 80014e4:	6039      	str	r1, [r7, #0]
  int32_t ret = LIS2DUXS12_OK;
 80014e6:	2300      	movs	r3, #0
 80014e8:	60fb      	str	r3, [r7, #12]
  lis2duxs12_md_t mode;

  /* Read actual full scale selection from sensor. */
  if (lis2duxs12_mode_get(&(pObj->Ctx), &mode) != LIS2DUXS12_OK)
 80014ea:	687b      	ldr	r3, [r7, #4]
 80014ec:	3320      	adds	r3, #32
 80014ee:	f107 0208 	add.w	r2, r7, #8
 80014f2:	4611      	mov	r1, r2
 80014f4:	4618      	mov	r0, r3
 80014f6:	f000 fdb7 	bl	8002068 <lis2duxs12_mode_get>
 80014fa:	4603      	mov	r3, r0
 80014fc:	2b00      	cmp	r3, #0
 80014fe:	d002      	beq.n	8001506 <LIS2DUXS12_ACC_GetFullScale+0x2a>
  {
    return LIS2DUXS12_ERROR;
 8001500:	f04f 33ff 	mov.w	r3, #4294967295
 8001504:	e027      	b.n	8001556 <LIS2DUXS12_ACC_GetFullScale+0x7a>
  }

  switch (mode.fs)
 8001506:	7a7b      	ldrb	r3, [r7, #9]
 8001508:	2b03      	cmp	r3, #3
 800150a:	d81b      	bhi.n	8001544 <LIS2DUXS12_ACC_GetFullScale+0x68>
 800150c:	a201      	add	r2, pc, #4	@ (adr r2, 8001514 <LIS2DUXS12_ACC_GetFullScale+0x38>)
 800150e:	f852 f023 	ldr.w	pc, [r2, r3, lsl #2]
 8001512:	bf00      	nop
 8001514:	08001525 	.word	0x08001525
 8001518:	0800152d 	.word	0x0800152d
 800151c:	08001535 	.word	0x08001535
 8001520:	0800153d 	.word	0x0800153d
  {
    case LIS2DUXS12_2g:
      *FullScale =  2;
 8001524:	683b      	ldr	r3, [r7, #0]
 8001526:	2202      	movs	r2, #2
 8001528:	601a      	str	r2, [r3, #0]
      break;
 800152a:	e013      	b.n	8001554 <LIS2DUXS12_ACC_GetFullScale+0x78>

    case LIS2DUXS12_4g:
      *FullScale =  4;
 800152c:	683b      	ldr	r3, [r7, #0]
 800152e:	2204      	movs	r2, #4
 8001530:	601a      	str	r2, [r3, #0]
      break;
 8001532:	e00f      	b.n	8001554 <LIS2DUXS12_ACC_GetFullScale+0x78>

    case LIS2DUXS12_8g:
      *FullScale =  8;
 8001534:	683b      	ldr	r3, [r7, #0]
 8001536:	2208      	movs	r2, #8
 8001538:	601a      	str	r2, [r3, #0]
      break;
 800153a:	e00b      	b.n	8001554 <LIS2DUXS12_ACC_GetFullScale+0x78>

    case LIS2DUXS12_16g:
      *FullScale = 16;
 800153c:	683b      	ldr	r3, [r7, #0]
 800153e:	2210      	movs	r2, #16
 8001540:	601a      	str	r2, [r3, #0]
      break;
 8001542:	e007      	b.n	8001554 <LIS2DUXS12_ACC_GetFullScale+0x78>

    default:
      *FullScale = -1;
 8001544:	683b      	ldr	r3, [r7, #0]
 8001546:	f04f 32ff 	mov.w	r2, #4294967295
 800154a:	601a      	str	r2, [r3, #0]
      ret = LIS2DUXS12_ERROR;
 800154c:	f04f 33ff 	mov.w	r3, #4294967295
 8001550:	60fb      	str	r3, [r7, #12]
      break;
 8001552:	bf00      	nop
  }

  return ret;
 8001554:	68fb      	ldr	r3, [r7, #12]
}
 8001556:	4618      	mov	r0, r3
 8001558:	3710      	adds	r7, #16
 800155a:	46bd      	mov	sp, r7
 800155c:	bd80      	pop	{r7, pc}
 800155e:	bf00      	nop

08001560 <LIS2DUXS12_ACC_SetFullScale>:
  * @param  pObj the device pObj
  * @param  FullScale the functional full scale to be set
  * @retval 0 in case of success, an error code otherwise
  */
int32_t LIS2DUXS12_ACC_SetFullScale(LIS2DUXS12_Object_t *pObj, int32_t FullScale)
{
 8001560:	b580      	push	{r7, lr}
 8001562:	b084      	sub	sp, #16
 8001564:	af00      	add	r7, sp, #0
 8001566:	6078      	str	r0, [r7, #4]
 8001568:	6039      	str	r1, [r7, #0]
  lis2duxs12_md_t mode;

  if (lis2duxs12_mode_get(&(pObj->Ctx), &mode) != LIS2DUXS12_OK)
 800156a:	687b      	ldr	r3, [r7, #4]
 800156c:	3320      	adds	r3, #32
 800156e:	f107 020c 	add.w	r2, r7, #12
 8001572:	4611      	mov	r1, r2
 8001574:	4618      	mov	r0, r3
 8001576:	f000 fd77 	bl	8002068 <lis2duxs12_mode_get>
 800157a:	4603      	mov	r3, r0
 800157c:	2b00      	cmp	r3, #0
 800157e:	d002      	beq.n	8001586 <LIS2DUXS12_ACC_SetFullScale+0x26>
  {
    return LIS2DUXS12_ERROR;
 8001580:	f04f 33ff 	mov.w	r3, #4294967295
 8001584:	e01f      	b.n	80015c6 <LIS2DUXS12_ACC_SetFullScale+0x66>
  }

  /* Seems like MISRA C-2012 rule 14.3a violation but only from single file statical analysis point of view because
     the parameter passed to the function is not known at the moment of analysis */
  mode.fs = (FullScale <= 2) ? LIS2DUXS12_2g
            : (FullScale <= 4) ? LIS2DUXS12_4g
 8001586:	683b      	ldr	r3, [r7, #0]
 8001588:	2b02      	cmp	r3, #2
 800158a:	dd0b      	ble.n	80015a4 <LIS2DUXS12_ACC_SetFullScale+0x44>
 800158c:	683b      	ldr	r3, [r7, #0]
 800158e:	2b04      	cmp	r3, #4
 8001590:	dd06      	ble.n	80015a0 <LIS2DUXS12_ACC_SetFullScale+0x40>
 8001592:	683b      	ldr	r3, [r7, #0]
 8001594:	2b08      	cmp	r3, #8
 8001596:	dc01      	bgt.n	800159c <LIS2DUXS12_ACC_SetFullScale+0x3c>
 8001598:	2302      	movs	r3, #2
 800159a:	e004      	b.n	80015a6 <LIS2DUXS12_ACC_SetFullScale+0x46>
 800159c:	2303      	movs	r3, #3
 800159e:	e002      	b.n	80015a6 <LIS2DUXS12_ACC_SetFullScale+0x46>
 80015a0:	2301      	movs	r3, #1
 80015a2:	e000      	b.n	80015a6 <LIS2DUXS12_ACC_SetFullScale+0x46>
 80015a4:	2300      	movs	r3, #0
  mode.fs = (FullScale <= 2) ? LIS2DUXS12_2g
 80015a6:	737b      	strb	r3, [r7, #13]
            : (FullScale <= 8) ? LIS2DUXS12_8g
            :                    LIS2DUXS12_16g;

  if (lis2duxs12_mode_set(&(pObj->Ctx), &mode) != LIS2DUXS12_OK)
 80015a8:	687b      	ldr	r3, [r7, #4]
 80015aa:	3320      	adds	r3, #32
 80015ac:	f107 020c 	add.w	r2, r7, #12
 80015b0:	4611      	mov	r1, r2
 80015b2:	4618      	mov	r0, r3
 80015b4:	f000 fc38 	bl	8001e28 <lis2duxs12_mode_set>
 80015b8:	4603      	mov	r3, r0
 80015ba:	2b00      	cmp	r3, #0
 80015bc:	d002      	beq.n	80015c4 <LIS2DUXS12_ACC_SetFullScale+0x64>
  {
    return LIS2DUXS12_ERROR;
 80015be:	f04f 33ff 	mov.w	r3, #4294967295
 80015c2:	e000      	b.n	80015c6 <LIS2DUXS12_ACC_SetFullScale+0x66>
  }

  return LIS2DUXS12_OK;
 80015c4:	2300      	movs	r3, #0
}
 80015c6:	4618      	mov	r0, r3
 80015c8:	3710      	adds	r7, #16
 80015ca:	46bd      	mov	sp, r7
 80015cc:	bd80      	pop	{r7, pc}

080015ce <LIS2DUXS12_ACC_GetAxesRaw>:
  * @param  pObj the device pObj
  * @param  Value pointer where the raw values of the axes are written
  * @retval 0 in case of success, an error code otherwise
  */
int32_t LIS2DUXS12_ACC_GetAxesRaw(LIS2DUXS12_Object_t *pObj, LIS2DUXS12_AxesRaw_t *Value)
{
 80015ce:	b580      	push	{r7, lr}
 80015d0:	b088      	sub	sp, #32
 80015d2:	af00      	add	r7, sp, #0
 80015d4:	6078      	str	r0, [r7, #4]
 80015d6:	6039      	str	r1, [r7, #0]
  lis2duxs12_md_t mode;
  lis2duxs12_xl_data_t data;

  if (lis2duxs12_mode_get(&(pObj->Ctx), &mode) != LIS2DUXS12_OK)
 80015d8:	687b      	ldr	r3, [r7, #4]
 80015da:	3320      	adds	r3, #32
 80015dc:	f107 021c 	add.w	r2, r7, #28
 80015e0:	4611      	mov	r1, r2
 80015e2:	4618      	mov	r0, r3
 80015e4:	f000 fd40 	bl	8002068 <lis2duxs12_mode_get>
 80015e8:	4603      	mov	r3, r0
 80015ea:	2b00      	cmp	r3, #0
 80015ec:	d002      	beq.n	80015f4 <LIS2DUXS12_ACC_GetAxesRaw+0x26>
  {
    return LIS2DUXS12_ERROR;
 80015ee:	f04f 33ff 	mov.w	r3, #4294967295
 80015f2:	e01b      	b.n	800162c <LIS2DUXS12_ACC_GetAxesRaw+0x5e>
  }

  if (lis2duxs12_xl_data_get(&(pObj->Ctx), &mode, &data) != LIS2DUXS12_OK)
 80015f4:	687b      	ldr	r3, [r7, #4]
 80015f6:	3320      	adds	r3, #32
 80015f8:	f107 0208 	add.w	r2, r7, #8
 80015fc:	f107 011c 	add.w	r1, r7, #28
 8001600:	4618      	mov	r0, r3
 8001602:	f000 fe41 	bl	8002288 <lis2duxs12_xl_data_get>
 8001606:	4603      	mov	r3, r0
 8001608:	2b00      	cmp	r3, #0
 800160a:	d002      	beq.n	8001612 <LIS2DUXS12_ACC_GetAxesRaw+0x44>
  {
    return LIS2DUXS12_ERROR;
 800160c:	f04f 33ff 	mov.w	r3, #4294967295
 8001610:	e00c      	b.n	800162c <LIS2DUXS12_ACC_GetAxesRaw+0x5e>
  }

  Value->x = data.raw[0];
 8001612:	f9b7 2014 	ldrsh.w	r2, [r7, #20]
 8001616:	683b      	ldr	r3, [r7, #0]
 8001618:	801a      	strh	r2, [r3, #0]
  Value->y = data.raw[1];
 800161a:	f9b7 2016 	ldrsh.w	r2, [r7, #22]
 800161e:	683b      	ldr	r3, [r7, #0]
 8001620:	805a      	strh	r2, [r3, #2]
  Value->z = data.raw[2];
 8001622:	f9b7 2018 	ldrsh.w	r2, [r7, #24]
 8001626:	683b      	ldr	r3, [r7, #0]
 8001628:	809a      	strh	r2, [r3, #4]

  return LIS2DUXS12_OK;
 800162a:	2300      	movs	r3, #0
}
 800162c:	4618      	mov	r0, r3
 800162e:	3720      	adds	r7, #32
 8001630:	46bd      	mov	sp, r7
 8001632:	bd80      	pop	{r7, pc}

08001634 <LIS2DUXS12_ACC_GetAxes>:
  * @param  pObj the device pObj
  * @param  Acceleration pointer where the values of the axes are written
  * @retval 0 in case of success, an error code otherwise
  */
int32_t LIS2DUXS12_ACC_GetAxes(LIS2DUXS12_Object_t *pObj, LIS2DUXS12_Axes_t *Acceleration)
{
 8001634:	b580      	push	{r7, lr}
 8001636:	b088      	sub	sp, #32
 8001638:	af00      	add	r7, sp, #0
 800163a:	6078      	str	r0, [r7, #4]
 800163c:	6039      	str	r1, [r7, #0]
  lis2duxs12_md_t mode;
  lis2duxs12_xl_data_t data;

  if (lis2duxs12_mode_get(&(pObj->Ctx), &mode) != LIS2DUXS12_OK)
 800163e:	687b      	ldr	r3, [r7, #4]
 8001640:	3320      	adds	r3, #32
 8001642:	f107 021c 	add.w	r2, r7, #28
 8001646:	4611      	mov	r1, r2
 8001648:	4618      	mov	r0, r3
 800164a:	f000 fd0d 	bl	8002068 <lis2duxs12_mode_get>
 800164e:	4603      	mov	r3, r0
 8001650:	2b00      	cmp	r3, #0
 8001652:	d002      	beq.n	800165a <LIS2DUXS12_ACC_GetAxes+0x26>
  {
    return LIS2DUXS12_ERROR;
 8001654:	f04f 33ff 	mov.w	r3, #4294967295
 8001658:	e027      	b.n	80016aa <LIS2DUXS12_ACC_GetAxes+0x76>
  }

  if (lis2duxs12_xl_data_get(&(pObj->Ctx), &mode, &data) != LIS2DUXS12_OK)
 800165a:	687b      	ldr	r3, [r7, #4]
 800165c:	3320      	adds	r3, #32
 800165e:	f107 0208 	add.w	r2, r7, #8
 8001662:	f107 011c 	add.w	r1, r7, #28
 8001666:	4618      	mov	r0, r3
 8001668:	f000 fe0e 	bl	8002288 <lis2duxs12_xl_data_get>
 800166c:	4603      	mov	r3, r0
 800166e:	2b00      	cmp	r3, #0
 8001670:	d002      	beq.n	8001678 <LIS2DUXS12_ACC_GetAxes+0x44>
  {
    return LIS2DUXS12_ERROR;
 8001672:	f04f 33ff 	mov.w	r3, #4294967295
 8001676:	e018      	b.n	80016aa <LIS2DUXS12_ACC_GetAxes+0x76>
  }

  Acceleration->x = (int32_t)data.mg[0];
 8001678:	edd7 7a02 	vldr	s15, [r7, #8]
 800167c:	eefd 7ae7 	vcvt.s32.f32	s15, s15
 8001680:	ee17 2a90 	vmov	r2, s15
 8001684:	683b      	ldr	r3, [r7, #0]
 8001686:	601a      	str	r2, [r3, #0]
  Acceleration->y = (int32_t)data.mg[1];
 8001688:	edd7 7a03 	vldr	s15, [r7, #12]
 800168c:	eefd 7ae7 	vcvt.s32.f32	s15, s15
 8001690:	ee17 2a90 	vmov	r2, s15
 8001694:	683b      	ldr	r3, [r7, #0]
 8001696:	605a      	str	r2, [r3, #4]
  Acceleration->z = (int32_t)data.mg[2];
 8001698:	edd7 7a04 	vldr	s15, [r7, #16]
 800169c:	eefd 7ae7 	vcvt.s32.f32	s15, s15
 80016a0:	ee17 2a90 	vmov	r2, s15
 80016a4:	683b      	ldr	r3, [r7, #0]
 80016a6:	609a      	str	r2, [r3, #8]

  return LIS2DUXS12_OK;
 80016a8:	2300      	movs	r3, #0
}
 80016aa:	4618      	mov	r0, r3
 80016ac:	3720      	adds	r7, #32
 80016ae:	46bd      	mov	sp, r7
 80016b0:	bd80      	pop	{r7, pc}

080016b2 <LIS2DUXS12_Write_Reg>:
  * @param  Reg address to be written
  * @param  Data value to be written
  * @retval 0 in case of success, an error code otherwise
  */
int32_t LIS2DUXS12_Write_Reg(LIS2DUXS12_Object_t *pObj, uint8_t Reg, uint8_t Data)
{
 80016b2:	b580      	push	{r7, lr}
 80016b4:	b082      	sub	sp, #8
 80016b6:	af00      	add	r7, sp, #0
 80016b8:	6078      	str	r0, [r7, #4]
 80016ba:	460b      	mov	r3, r1
 80016bc:	70fb      	strb	r3, [r7, #3]
 80016be:	4613      	mov	r3, r2
 80016c0:	70bb      	strb	r3, [r7, #2]
  if (lis2duxs12_write_reg(&(pObj->Ctx), Reg, &Data, 1) != LIS2DUXS12_OK)
 80016c2:	687b      	ldr	r3, [r7, #4]
 80016c4:	f103 0020 	add.w	r0, r3, #32
 80016c8:	1cba      	adds	r2, r7, #2
 80016ca:	78f9      	ldrb	r1, [r7, #3]
 80016cc:	2301      	movs	r3, #1
 80016ce:	f000 fa79 	bl	8001bc4 <lis2duxs12_write_reg>
 80016d2:	4603      	mov	r3, r0
 80016d4:	2b00      	cmp	r3, #0
 80016d6:	d002      	beq.n	80016de <LIS2DUXS12_Write_Reg+0x2c>
  {
    return LIS2DUXS12_ERROR;
 80016d8:	f04f 33ff 	mov.w	r3, #4294967295
 80016dc:	e000      	b.n	80016e0 <LIS2DUXS12_Write_Reg+0x2e>
  }

  return LIS2DUXS12_OK;
 80016de:	2300      	movs	r3, #0
}
 80016e0:	4618      	mov	r0, r3
 80016e2:	3708      	adds	r7, #8
 80016e4:	46bd      	mov	sp, r7
 80016e6:	bd80      	pop	{r7, pc}

080016e8 <LIS2DUXS12_ACC_SetOutputDataRate_When_Enabled>:
  * @param  Power the ultra low power option
  * @retval 0 in case of success, an error code otherwise
  */
static int32_t LIS2DUXS12_ACC_SetOutputDataRate_When_Enabled(LIS2DUXS12_Object_t *pObj, float_t Odr,
    LIS2DUXS12_Power_Mode_t Power)
{
 80016e8:	b580      	push	{r7, lr}
 80016ea:	b086      	sub	sp, #24
 80016ec:	af00      	add	r7, sp, #0
 80016ee:	60f8      	str	r0, [r7, #12]
 80016f0:	ed87 0a02 	vstr	s0, [r7, #8]
 80016f4:	460b      	mov	r3, r1
 80016f6:	71fb      	strb	r3, [r7, #7]
  lis2duxs12_md_t mode;

  if (lis2duxs12_mode_get(&(pObj->Ctx), &mode) != LIS2DUXS12_OK)
 80016f8:	68fb      	ldr	r3, [r7, #12]
 80016fa:	3320      	adds	r3, #32
 80016fc:	f107 0214 	add.w	r2, r7, #20
 8001700:	4611      	mov	r1, r2
 8001702:	4618      	mov	r0, r3
 8001704:	f000 fcb0 	bl	8002068 <lis2duxs12_mode_get>
 8001708:	4603      	mov	r3, r0
 800170a:	2b00      	cmp	r3, #0
 800170c:	d002      	beq.n	8001714 <LIS2DUXS12_ACC_SetOutputDataRate_When_Enabled+0x2c>
  {
    return LIS2DUXS12_ERROR;
 800170e:	f04f 33ff 	mov.w	r3, #4294967295
 8001712:	e142      	b.n	800199a <LIS2DUXS12_ACC_SetOutputDataRate_When_Enabled+0x2b2>
  }

  if (Power == LIS2DUXS12_ULTRA_LOW_POWER)
 8001714:	79fb      	ldrb	r3, [r7, #7]
 8001716:	2b00      	cmp	r3, #0
 8001718:	d118      	bne.n	800174c <LIS2DUXS12_ACC_SetOutputDataRate_When_Enabled+0x64>
  {
    mode.odr = (Odr <= 1.6f) ? LIS2DUXS12_1Hz6_ULP
               : (Odr <= 3.0f) ? LIS2DUXS12_3Hz_ULP
 800171a:	edd7 7a02 	vldr	s15, [r7, #8]
 800171e:	ed9f 7aa1 	vldr	s14, [pc, #644]	@ 80019a4 <LIS2DUXS12_ACC_SetOutputDataRate_When_Enabled+0x2bc>
 8001722:	eef4 7ac7 	vcmpe.f32	s15, s14
 8001726:	eef1 fa10 	vmrs	APSR_nzcv, fpscr
 800172a:	d801      	bhi.n	8001730 <LIS2DUXS12_ACC_SetOutputDataRate_When_Enabled+0x48>
 800172c:	2301      	movs	r3, #1
 800172e:	e00b      	b.n	8001748 <LIS2DUXS12_ACC_SetOutputDataRate_When_Enabled+0x60>
 8001730:	edd7 7a02 	vldr	s15, [r7, #8]
 8001734:	eeb0 7a08 	vmov.f32	s14, #8	@ 0x40400000  3.0
 8001738:	eef4 7ac7 	vcmpe.f32	s15, s14
 800173c:	eef1 fa10 	vmrs	APSR_nzcv, fpscr
 8001740:	d801      	bhi.n	8001746 <LIS2DUXS12_ACC_SetOutputDataRate_When_Enabled+0x5e>
 8001742:	2302      	movs	r3, #2
 8001744:	e000      	b.n	8001748 <LIS2DUXS12_ACC_SetOutputDataRate_When_Enabled+0x60>
 8001746:	2303      	movs	r3, #3
    mode.odr = (Odr <= 1.6f) ? LIS2DUXS12_1Hz6_ULP
 8001748:	753b      	strb	r3, [r7, #20]
 800174a:	e0a4      	b.n	8001896 <LIS2DUXS12_ACC_SetOutputDataRate_When_Enabled+0x1ae>
               :                 LIS2DUXS12_25Hz_ULP;
  }
  else if (Power == LIS2DUXS12_LOW_POWER)
 800174c:	79fb      	ldrb	r3, [r7, #7]
 800174e:	2b01      	cmp	r3, #1
 8001750:	d14f      	bne.n	80017f2 <LIS2DUXS12_ACC_SetOutputDataRate_When_Enabled+0x10a>
  {
    mode.odr = (Odr <=   6.0f) ? LIS2DUXS12_6Hz_LP
               : (Odr <=  12.5f) ? LIS2DUXS12_12Hz5_LP
 8001752:	edd7 7a02 	vldr	s15, [r7, #8]
 8001756:	eeb1 7a08 	vmov.f32	s14, #24	@ 0x40c00000  6.0
 800175a:	eef4 7ac7 	vcmpe.f32	s15, s14
 800175e:	eef1 fa10 	vmrs	APSR_nzcv, fpscr
 8001762:	d801      	bhi.n	8001768 <LIS2DUXS12_ACC_SetOutputDataRate_When_Enabled+0x80>
 8001764:	2304      	movs	r3, #4
 8001766:	e042      	b.n	80017ee <LIS2DUXS12_ACC_SetOutputDataRate_When_Enabled+0x106>
 8001768:	edd7 7a02 	vldr	s15, [r7, #8]
 800176c:	eeb2 7a09 	vmov.f32	s14, #41	@ 0x41480000  12.5
 8001770:	eef4 7ac7 	vcmpe.f32	s15, s14
 8001774:	eef1 fa10 	vmrs	APSR_nzcv, fpscr
 8001778:	d801      	bhi.n	800177e <LIS2DUXS12_ACC_SetOutputDataRate_When_Enabled+0x96>
 800177a:	2305      	movs	r3, #5
 800177c:	e037      	b.n	80017ee <LIS2DUXS12_ACC_SetOutputDataRate_When_Enabled+0x106>
 800177e:	edd7 7a02 	vldr	s15, [r7, #8]
 8001782:	eeb3 7a09 	vmov.f32	s14, #57	@ 0x41c80000  25.0
 8001786:	eef4 7ac7 	vcmpe.f32	s15, s14
 800178a:	eef1 fa10 	vmrs	APSR_nzcv, fpscr
 800178e:	d801      	bhi.n	8001794 <LIS2DUXS12_ACC_SetOutputDataRate_When_Enabled+0xac>
 8001790:	2306      	movs	r3, #6
 8001792:	e02c      	b.n	80017ee <LIS2DUXS12_ACC_SetOutputDataRate_When_Enabled+0x106>
 8001794:	edd7 7a02 	vldr	s15, [r7, #8]
 8001798:	ed9f 7a83 	vldr	s14, [pc, #524]	@ 80019a8 <LIS2DUXS12_ACC_SetOutputDataRate_When_Enabled+0x2c0>
 800179c:	eef4 7ac7 	vcmpe.f32	s15, s14
 80017a0:	eef1 fa10 	vmrs	APSR_nzcv, fpscr
 80017a4:	d801      	bhi.n	80017aa <LIS2DUXS12_ACC_SetOutputDataRate_When_Enabled+0xc2>
 80017a6:	2307      	movs	r3, #7
 80017a8:	e021      	b.n	80017ee <LIS2DUXS12_ACC_SetOutputDataRate_When_Enabled+0x106>
 80017aa:	edd7 7a02 	vldr	s15, [r7, #8]
 80017ae:	ed9f 7a7f 	vldr	s14, [pc, #508]	@ 80019ac <LIS2DUXS12_ACC_SetOutputDataRate_When_Enabled+0x2c4>
 80017b2:	eef4 7ac7 	vcmpe.f32	s15, s14
 80017b6:	eef1 fa10 	vmrs	APSR_nzcv, fpscr
 80017ba:	d801      	bhi.n	80017c0 <LIS2DUXS12_ACC_SetOutputDataRate_When_Enabled+0xd8>
 80017bc:	2308      	movs	r3, #8
 80017be:	e016      	b.n	80017ee <LIS2DUXS12_ACC_SetOutputDataRate_When_Enabled+0x106>
 80017c0:	edd7 7a02 	vldr	s15, [r7, #8]
 80017c4:	ed9f 7a7a 	vldr	s14, [pc, #488]	@ 80019b0 <LIS2DUXS12_ACC_SetOutputDataRate_When_Enabled+0x2c8>
 80017c8:	eef4 7ac7 	vcmpe.f32	s15, s14
 80017cc:	eef1 fa10 	vmrs	APSR_nzcv, fpscr
 80017d0:	d801      	bhi.n	80017d6 <LIS2DUXS12_ACC_SetOutputDataRate_When_Enabled+0xee>
 80017d2:	2309      	movs	r3, #9
 80017d4:	e00b      	b.n	80017ee <LIS2DUXS12_ACC_SetOutputDataRate_When_Enabled+0x106>
 80017d6:	edd7 7a02 	vldr	s15, [r7, #8]
 80017da:	ed9f 7a76 	vldr	s14, [pc, #472]	@ 80019b4 <LIS2DUXS12_ACC_SetOutputDataRate_When_Enabled+0x2cc>
 80017de:	eef4 7ac7 	vcmpe.f32	s15, s14
 80017e2:	eef1 fa10 	vmrs	APSR_nzcv, fpscr
 80017e6:	d801      	bhi.n	80017ec <LIS2DUXS12_ACC_SetOutputDataRate_When_Enabled+0x104>
 80017e8:	230a      	movs	r3, #10
 80017ea:	e000      	b.n	80017ee <LIS2DUXS12_ACC_SetOutputDataRate_When_Enabled+0x106>
 80017ec:	230b      	movs	r3, #11
    mode.odr = (Odr <=   6.0f) ? LIS2DUXS12_6Hz_LP
 80017ee:	753b      	strb	r3, [r7, #20]
 80017f0:	e051      	b.n	8001896 <LIS2DUXS12_ACC_SetOutputDataRate_When_Enabled+0x1ae>
               : (Odr <= 100.0f) ? LIS2DUXS12_100Hz_LP
               : (Odr <= 200.0f) ? LIS2DUXS12_200Hz_LP
               : (Odr <= 400.0f) ? LIS2DUXS12_400Hz_LP
               :                   LIS2DUXS12_800Hz_LP;
  }
  else if (Power == LIS2DUXS12_HIGH_PERFORMANCE)
 80017f2:	79fb      	ldrb	r3, [r7, #7]
 80017f4:	2b02      	cmp	r3, #2
 80017f6:	d14e      	bne.n	8001896 <LIS2DUXS12_ACC_SetOutputDataRate_When_Enabled+0x1ae>
  {
    mode.odr = (Odr <=   6.0f) ? LIS2DUXS12_6Hz_HP
               : (Odr <=  12.5f) ? LIS2DUXS12_12Hz5_HP
 80017f8:	edd7 7a02 	vldr	s15, [r7, #8]
 80017fc:	eeb1 7a08 	vmov.f32	s14, #24	@ 0x40c00000  6.0
 8001800:	eef4 7ac7 	vcmpe.f32	s15, s14
 8001804:	eef1 fa10 	vmrs	APSR_nzcv, fpscr
 8001808:	d801      	bhi.n	800180e <LIS2DUXS12_ACC_SetOutputDataRate_When_Enabled+0x126>
 800180a:	2314      	movs	r3, #20
 800180c:	e042      	b.n	8001894 <LIS2DUXS12_ACC_SetOutputDataRate_When_Enabled+0x1ac>
 800180e:	edd7 7a02 	vldr	s15, [r7, #8]
 8001812:	eeb2 7a09 	vmov.f32	s14, #41	@ 0x41480000  12.5
 8001816:	eef4 7ac7 	vcmpe.f32	s15, s14
 800181a:	eef1 fa10 	vmrs	APSR_nzcv, fpscr
 800181e:	d801      	bhi.n	8001824 <LIS2DUXS12_ACC_SetOutputDataRate_When_Enabled+0x13c>
 8001820:	2315      	movs	r3, #21
 8001822:	e037      	b.n	8001894 <LIS2DUXS12_ACC_SetOutputDataRate_When_Enabled+0x1ac>
 8001824:	edd7 7a02 	vldr	s15, [r7, #8]
 8001828:	eeb3 7a09 	vmov.f32	s14, #57	@ 0x41c80000  25.0
 800182c:	eef4 7ac7 	vcmpe.f32	s15, s14
 8001830:	eef1 fa10 	vmrs	APSR_nzcv, fpscr
 8001834:	d801      	bhi.n	800183a <LIS2DUXS12_ACC_SetOutputDataRate_When_Enabled+0x152>
 8001836:	2316      	movs	r3, #22
 8001838:	e02c      	b.n	8001894 <LIS2DUXS12_ACC_SetOutputDataRate_When_Enabled+0x1ac>
 800183a:	edd7 7a02 	vldr	s15, [r7, #8]
 800183e:	ed9f 7a5a 	vldr	s14, [pc, #360]	@ 80019a8 <LIS2DUXS12_ACC_SetOutputDataRate_When_Enabled+0x2c0>
 8001842:	eef4 7ac7 	vcmpe.f32	s15, s14
 8001846:	eef1 fa10 	vmrs	APSR_nzcv, fpscr
 800184a:	d801      	bhi.n	8001850 <LIS2DUXS12_ACC_SetOutputDataRate_When_Enabled+0x168>
 800184c:	2317      	movs	r3, #23
 800184e:	e021      	b.n	8001894 <LIS2DUXS12_ACC_SetOutputDataRate_When_Enabled+0x1ac>
 8001850:	edd7 7a02 	vldr	s15, [r7, #8]
 8001854:	ed9f 7a55 	vldr	s14, [pc, #340]	@ 80019ac <LIS2DUXS12_ACC_SetOutputDataRate_When_Enabled+0x2c4>
 8001858:	eef4 7ac7 	vcmpe.f32	s15, s14
 800185c:	eef1 fa10 	vmrs	APSR_nzcv, fpscr
 8001860:	d801      	bhi.n	8001866 <LIS2DUXS12_ACC_SetOutputDataRate_When_Enabled+0x17e>
 8001862:	2318      	movs	r3, #24
 8001864:	e016      	b.n	8001894 <LIS2DUXS12_ACC_SetOutputDataRate_When_Enabled+0x1ac>
 8001866:	edd7 7a02 	vldr	s15, [r7, #8]
 800186a:	ed9f 7a51 	vldr	s14, [pc, #324]	@ 80019b0 <LIS2DUXS12_ACC_SetOutputDataRate_When_Enabled+0x2c8>
 800186e:	eef4 7ac7 	vcmpe.f32	s15, s14
 8001872:	eef1 fa10 	vmrs	APSR_nzcv, fpscr
 8001876:	d801      	bhi.n	800187c <LIS2DUXS12_ACC_SetOutputDataRate_When_Enabled+0x194>
 8001878:	2319      	movs	r3, #25
 800187a:	e00b      	b.n	8001894 <LIS2DUXS12_ACC_SetOutputDataRate_When_Enabled+0x1ac>
 800187c:	edd7 7a02 	vldr	s15, [r7, #8]
 8001880:	ed9f 7a4c 	vldr	s14, [pc, #304]	@ 80019b4 <LIS2DUXS12_ACC_SetOutputDataRate_When_Enabled+0x2cc>
 8001884:	eef4 7ac7 	vcmpe.f32	s15, s14
 8001888:	eef1 fa10 	vmrs	APSR_nzcv, fpscr
 800188c:	d801      	bhi.n	8001892 <LIS2DUXS12_ACC_SetOutputDataRate_When_Enabled+0x1aa>
 800188e:	231a      	movs	r3, #26
 8001890:	e000      	b.n	8001894 <LIS2DUXS12_ACC_SetOutputDataRate_When_Enabled+0x1ac>
 8001892:	231b      	movs	r3, #27
    mode.odr = (Odr <=   6.0f) ? LIS2DUXS12_6Hz_HP
 8001894:	753b      	strb	r3, [r7, #20]
  else
  {
    /* Do nothing */
  }

  if (lis2duxs12_mode_set(&(pObj->Ctx), &mode) != LIS2DUXS12_OK)
 8001896:	68fb      	ldr	r3, [r7, #12]
 8001898:	3320      	adds	r3, #32
 800189a:	f107 0214 	add.w	r2, r7, #20
 800189e:	4611      	mov	r1, r2
 80018a0:	4618      	mov	r0, r3
 80018a2:	f000 fac1 	bl	8001e28 <lis2duxs12_mode_set>
 80018a6:	4603      	mov	r3, r0
 80018a8:	2b00      	cmp	r3, #0
 80018aa:	d002      	beq.n	80018b2 <LIS2DUXS12_ACC_SetOutputDataRate_When_Enabled+0x1ca>
  {
    return LIS2DUXS12_ERROR;
 80018ac:	f04f 33ff 	mov.w	r3, #4294967295
 80018b0:	e073      	b.n	800199a <LIS2DUXS12_ACC_SetOutputDataRate_When_Enabled+0x2b2>
  }

  /* Store the current Odr value */
  pObj->acc_odr = (mode.odr == LIS2DUXS12_1Hz6_ULP) ?   1.6f
 80018b2:	7d3b      	ldrb	r3, [r7, #20]
                  : (mode.odr == LIS2DUXS12_3Hz_ULP)  ?   3.0f
 80018b4:	2b01      	cmp	r3, #1
 80018b6:	d05b      	beq.n	8001970 <LIS2DUXS12_ACC_SetOutputDataRate_When_Enabled+0x288>
 80018b8:	7d3b      	ldrb	r3, [r7, #20]
                  : (mode.odr == LIS2DUXS12_6Hz_LP)   ?   6.0f
 80018ba:	2b02      	cmp	r3, #2
 80018bc:	d056      	beq.n	800196c <LIS2DUXS12_ACC_SetOutputDataRate_When_Enabled+0x284>
 80018be:	7d3b      	ldrb	r3, [r7, #20]
                  : (mode.odr == LIS2DUXS12_6Hz_HP)   ?   6.0f
 80018c0:	2b04      	cmp	r3, #4
 80018c2:	d051      	beq.n	8001968 <LIS2DUXS12_ACC_SetOutputDataRate_When_Enabled+0x280>
 80018c4:	7d3b      	ldrb	r3, [r7, #20]
                  : (mode.odr == LIS2DUXS12_12Hz5_LP) ?  12.5f
 80018c6:	2b14      	cmp	r3, #20
 80018c8:	d04c      	beq.n	8001964 <LIS2DUXS12_ACC_SetOutputDataRate_When_Enabled+0x27c>
 80018ca:	7d3b      	ldrb	r3, [r7, #20]
                  : (mode.odr == LIS2DUXS12_12Hz5_HP) ?  12.5f
 80018cc:	2b05      	cmp	r3, #5
 80018ce:	d047      	beq.n	8001960 <LIS2DUXS12_ACC_SetOutputDataRate_When_Enabled+0x278>
 80018d0:	7d3b      	ldrb	r3, [r7, #20]
                  : (mode.odr == LIS2DUXS12_25Hz_ULP) ?  25.0f
 80018d2:	2b15      	cmp	r3, #21
 80018d4:	d042      	beq.n	800195c <LIS2DUXS12_ACC_SetOutputDataRate_When_Enabled+0x274>
 80018d6:	7d3b      	ldrb	r3, [r7, #20]
                  : (mode.odr == LIS2DUXS12_25Hz_LP)  ?  25.0f
 80018d8:	2b03      	cmp	r3, #3
 80018da:	d03d      	beq.n	8001958 <LIS2DUXS12_ACC_SetOutputDataRate_When_Enabled+0x270>
 80018dc:	7d3b      	ldrb	r3, [r7, #20]
                  : (mode.odr == LIS2DUXS12_25Hz_HP)  ?  25.0f
 80018de:	2b06      	cmp	r3, #6
 80018e0:	d038      	beq.n	8001954 <LIS2DUXS12_ACC_SetOutputDataRate_When_Enabled+0x26c>
 80018e2:	7d3b      	ldrb	r3, [r7, #20]
                  : (mode.odr == LIS2DUXS12_50Hz_LP)  ?  50.0f
 80018e4:	2b16      	cmp	r3, #22
 80018e6:	d033      	beq.n	8001950 <LIS2DUXS12_ACC_SetOutputDataRate_When_Enabled+0x268>
 80018e8:	7d3b      	ldrb	r3, [r7, #20]
                  : (mode.odr == LIS2DUXS12_50Hz_HP)  ?  50.0f
 80018ea:	2b07      	cmp	r3, #7
 80018ec:	d02e      	beq.n	800194c <LIS2DUXS12_ACC_SetOutputDataRate_When_Enabled+0x264>
 80018ee:	7d3b      	ldrb	r3, [r7, #20]
                  : (mode.odr == LIS2DUXS12_100Hz_LP) ? 100.0f
 80018f0:	2b17      	cmp	r3, #23
 80018f2:	d029      	beq.n	8001948 <LIS2DUXS12_ACC_SetOutputDataRate_When_Enabled+0x260>
 80018f4:	7d3b      	ldrb	r3, [r7, #20]
                  : (mode.odr == LIS2DUXS12_100Hz_HP) ? 100.0f
 80018f6:	2b08      	cmp	r3, #8
 80018f8:	d024      	beq.n	8001944 <LIS2DUXS12_ACC_SetOutputDataRate_When_Enabled+0x25c>
 80018fa:	7d3b      	ldrb	r3, [r7, #20]
                  : (mode.odr == LIS2DUXS12_200Hz_LP) ? 200.0f
 80018fc:	2b18      	cmp	r3, #24
 80018fe:	d01f      	beq.n	8001940 <LIS2DUXS12_ACC_SetOutputDataRate_When_Enabled+0x258>
 8001900:	7d3b      	ldrb	r3, [r7, #20]
                  : (mode.odr == LIS2DUXS12_200Hz_HP) ? 200.0f
 8001902:	2b09      	cmp	r3, #9
 8001904:	d01a      	beq.n	800193c <LIS2DUXS12_ACC_SetOutputDataRate_When_Enabled+0x254>
 8001906:	7d3b      	ldrb	r3, [r7, #20]
                  : (mode.odr == LIS2DUXS12_400Hz_LP) ? 400.0f
 8001908:	2b19      	cmp	r3, #25
 800190a:	d015      	beq.n	8001938 <LIS2DUXS12_ACC_SetOutputDataRate_When_Enabled+0x250>
 800190c:	7d3b      	ldrb	r3, [r7, #20]
                  : (mode.odr == LIS2DUXS12_400Hz_HP) ? 400.0f
 800190e:	2b0a      	cmp	r3, #10
 8001910:	d010      	beq.n	8001934 <LIS2DUXS12_ACC_SetOutputDataRate_When_Enabled+0x24c>
 8001912:	7d3b      	ldrb	r3, [r7, #20]
                  : (mode.odr == LIS2DUXS12_800Hz_LP) ? 800.0f
 8001914:	2b1a      	cmp	r3, #26
 8001916:	d00b      	beq.n	8001930 <LIS2DUXS12_ACC_SetOutputDataRate_When_Enabled+0x248>
 8001918:	7d3b      	ldrb	r3, [r7, #20]
                  : (mode.odr == LIS2DUXS12_800Hz_HP) ? 800.0f
 800191a:	2b0b      	cmp	r3, #11
 800191c:	d006      	beq.n	800192c <LIS2DUXS12_ACC_SetOutputDataRate_When_Enabled+0x244>
 800191e:	7d3b      	ldrb	r3, [r7, #20]
                  :                                     -1.0f;
 8001920:	2b1b      	cmp	r3, #27
 8001922:	d101      	bne.n	8001928 <LIS2DUXS12_ACC_SetOutputDataRate_When_Enabled+0x240>
 8001924:	4b24      	ldr	r3, [pc, #144]	@ (80019b8 <LIS2DUXS12_ACC_SetOutputDataRate_When_Enabled+0x2d0>)
 8001926:	e024      	b.n	8001972 <LIS2DUXS12_ACC_SetOutputDataRate_When_Enabled+0x28a>
 8001928:	4b24      	ldr	r3, [pc, #144]	@ (80019bc <LIS2DUXS12_ACC_SetOutputDataRate_When_Enabled+0x2d4>)
 800192a:	e022      	b.n	8001972 <LIS2DUXS12_ACC_SetOutputDataRate_When_Enabled+0x28a>
                  : (mode.odr == LIS2DUXS12_800Hz_HP) ? 800.0f
 800192c:	4b22      	ldr	r3, [pc, #136]	@ (80019b8 <LIS2DUXS12_ACC_SetOutputDataRate_When_Enabled+0x2d0>)
 800192e:	e020      	b.n	8001972 <LIS2DUXS12_ACC_SetOutputDataRate_When_Enabled+0x28a>
                  : (mode.odr == LIS2DUXS12_800Hz_LP) ? 800.0f
 8001930:	4b23      	ldr	r3, [pc, #140]	@ (80019c0 <LIS2DUXS12_ACC_SetOutputDataRate_When_Enabled+0x2d8>)
 8001932:	e01e      	b.n	8001972 <LIS2DUXS12_ACC_SetOutputDataRate_When_Enabled+0x28a>
                  : (mode.odr == LIS2DUXS12_400Hz_HP) ? 400.0f
 8001934:	4b22      	ldr	r3, [pc, #136]	@ (80019c0 <LIS2DUXS12_ACC_SetOutputDataRate_When_Enabled+0x2d8>)
 8001936:	e01c      	b.n	8001972 <LIS2DUXS12_ACC_SetOutputDataRate_When_Enabled+0x28a>
                  : (mode.odr == LIS2DUXS12_400Hz_LP) ? 400.0f
 8001938:	4b22      	ldr	r3, [pc, #136]	@ (80019c4 <LIS2DUXS12_ACC_SetOutputDataRate_When_Enabled+0x2dc>)
 800193a:	e01a      	b.n	8001972 <LIS2DUXS12_ACC_SetOutputDataRate_When_Enabled+0x28a>
                  : (mode.odr == LIS2DUXS12_200Hz_HP) ? 200.0f
 800193c:	4b21      	ldr	r3, [pc, #132]	@ (80019c4 <LIS2DUXS12_ACC_SetOutputDataRate_When_Enabled+0x2dc>)
 800193e:	e018      	b.n	8001972 <LIS2DUXS12_ACC_SetOutputDataRate_When_Enabled+0x28a>
                  : (mode.odr == LIS2DUXS12_200Hz_LP) ? 200.0f
 8001940:	4b21      	ldr	r3, [pc, #132]	@ (80019c8 <LIS2DUXS12_ACC_SetOutputDataRate_When_Enabled+0x2e0>)
 8001942:	e016      	b.n	8001972 <LIS2DUXS12_ACC_SetOutputDataRate_When_Enabled+0x28a>
                  : (mode.odr == LIS2DUXS12_100Hz_HP) ? 100.0f
 8001944:	4b20      	ldr	r3, [pc, #128]	@ (80019c8 <LIS2DUXS12_ACC_SetOutputDataRate_When_Enabled+0x2e0>)
 8001946:	e014      	b.n	8001972 <LIS2DUXS12_ACC_SetOutputDataRate_When_Enabled+0x28a>
                  : (mode.odr == LIS2DUXS12_100Hz_LP) ? 100.0f
 8001948:	4b20      	ldr	r3, [pc, #128]	@ (80019cc <LIS2DUXS12_ACC_SetOutputDataRate_When_Enabled+0x2e4>)
 800194a:	e012      	b.n	8001972 <LIS2DUXS12_ACC_SetOutputDataRate_When_Enabled+0x28a>
                  : (mode.odr == LIS2DUXS12_50Hz_HP)  ?  50.0f
 800194c:	4b1f      	ldr	r3, [pc, #124]	@ (80019cc <LIS2DUXS12_ACC_SetOutputDataRate_When_Enabled+0x2e4>)
 800194e:	e010      	b.n	8001972 <LIS2DUXS12_ACC_SetOutputDataRate_When_Enabled+0x28a>
                  : (mode.odr == LIS2DUXS12_50Hz_LP)  ?  50.0f
 8001950:	4b1f      	ldr	r3, [pc, #124]	@ (80019d0 <LIS2DUXS12_ACC_SetOutputDataRate_When_Enabled+0x2e8>)
 8001952:	e00e      	b.n	8001972 <LIS2DUXS12_ACC_SetOutputDataRate_When_Enabled+0x28a>
                  : (mode.odr == LIS2DUXS12_25Hz_HP)  ?  25.0f
 8001954:	4b1e      	ldr	r3, [pc, #120]	@ (80019d0 <LIS2DUXS12_ACC_SetOutputDataRate_When_Enabled+0x2e8>)
 8001956:	e00c      	b.n	8001972 <LIS2DUXS12_ACC_SetOutputDataRate_When_Enabled+0x28a>
                  : (mode.odr == LIS2DUXS12_25Hz_LP)  ?  25.0f
 8001958:	4b1d      	ldr	r3, [pc, #116]	@ (80019d0 <LIS2DUXS12_ACC_SetOutputDataRate_When_Enabled+0x2e8>)
 800195a:	e00a      	b.n	8001972 <LIS2DUXS12_ACC_SetOutputDataRate_When_Enabled+0x28a>
                  : (mode.odr == LIS2DUXS12_25Hz_ULP) ?  25.0f
 800195c:	4b1d      	ldr	r3, [pc, #116]	@ (80019d4 <LIS2DUXS12_ACC_SetOutputDataRate_When_Enabled+0x2ec>)
 800195e:	e008      	b.n	8001972 <LIS2DUXS12_ACC_SetOutputDataRate_When_Enabled+0x28a>
                  : (mode.odr == LIS2DUXS12_12Hz5_HP) ?  12.5f
 8001960:	4b1c      	ldr	r3, [pc, #112]	@ (80019d4 <LIS2DUXS12_ACC_SetOutputDataRate_When_Enabled+0x2ec>)
 8001962:	e006      	b.n	8001972 <LIS2DUXS12_ACC_SetOutputDataRate_When_Enabled+0x28a>
                  : (mode.odr == LIS2DUXS12_12Hz5_LP) ?  12.5f
 8001964:	4b1c      	ldr	r3, [pc, #112]	@ (80019d8 <LIS2DUXS12_ACC_SetOutputDataRate_When_Enabled+0x2f0>)
 8001966:	e004      	b.n	8001972 <LIS2DUXS12_ACC_SetOutputDataRate_When_Enabled+0x28a>
                  : (mode.odr == LIS2DUXS12_6Hz_HP)   ?   6.0f
 8001968:	4b1b      	ldr	r3, [pc, #108]	@ (80019d8 <LIS2DUXS12_ACC_SetOutputDataRate_When_Enabled+0x2f0>)
 800196a:	e002      	b.n	8001972 <LIS2DUXS12_ACC_SetOutputDataRate_When_Enabled+0x28a>
                  : (mode.odr == LIS2DUXS12_6Hz_LP)   ?   6.0f
 800196c:	4b1b      	ldr	r3, [pc, #108]	@ (80019dc <LIS2DUXS12_ACC_SetOutputDataRate_When_Enabled+0x2f4>)
 800196e:	e000      	b.n	8001972 <LIS2DUXS12_ACC_SetOutputDataRate_When_Enabled+0x28a>
                  : (mode.odr == LIS2DUXS12_3Hz_ULP)  ?   3.0f
 8001970:	4b1b      	ldr	r3, [pc, #108]	@ (80019e0 <LIS2DUXS12_ACC_SetOutputDataRate_When_Enabled+0x2f8>)
  pObj->acc_odr = (mode.odr == LIS2DUXS12_1Hz6_ULP) ?   1.6f
 8001972:	68fa      	ldr	r2, [r7, #12]
 8001974:	6353      	str	r3, [r2, #52]	@ 0x34

  if (pObj->acc_odr == -1.0f)
 8001976:	68fb      	ldr	r3, [r7, #12]
 8001978:	edd3 7a0d 	vldr	s15, [r3, #52]	@ 0x34
 800197c:	eebf 7a00 	vmov.f32	s14, #240	@ 0xbf800000 -1.0
 8001980:	eef4 7a47 	vcmp.f32	s15, s14
 8001984:	eef1 fa10 	vmrs	APSR_nzcv, fpscr
 8001988:	d102      	bne.n	8001990 <LIS2DUXS12_ACC_SetOutputDataRate_When_Enabled+0x2a8>
  {
    return LIS2DUXS12_ERROR;
 800198a:	f04f 33ff 	mov.w	r3, #4294967295
 800198e:	e004      	b.n	800199a <LIS2DUXS12_ACC_SetOutputDataRate_When_Enabled+0x2b2>
  }

  /* Store the current Power value */
  pObj->power_mode = Power;
 8001990:	68fb      	ldr	r3, [r7, #12]
 8001992:	79fa      	ldrb	r2, [r7, #7]
 8001994:	f883 2038 	strb.w	r2, [r3, #56]	@ 0x38

  return LIS2DUXS12_OK;
 8001998:	2300      	movs	r3, #0
}
 800199a:	4618      	mov	r0, r3
 800199c:	3718      	adds	r7, #24
 800199e:	46bd      	mov	sp, r7
 80019a0:	bd80      	pop	{r7, pc}
 80019a2:	bf00      	nop
 80019a4:	3fcccccd 	.word	0x3fcccccd
 80019a8:	42480000 	.word	0x42480000
 80019ac:	42c80000 	.word	0x42c80000
 80019b0:	43480000 	.word	0x43480000
 80019b4:	43c80000 	.word	0x43c80000
 80019b8:	44480000 	.word	0x44480000
 80019bc:	bf800000 	.word	0xbf800000
 80019c0:	43c80000 	.word	0x43c80000
 80019c4:	43480000 	.word	0x43480000
 80019c8:	42c80000 	.word	0x42c80000
 80019cc:	42480000 	.word	0x42480000
 80019d0:	41c80000 	.word	0x41c80000
 80019d4:	41480000 	.word	0x41480000
 80019d8:	40c00000 	.word	0x40c00000
 80019dc:	40400000 	.word	0x40400000
 80019e0:	3fcccccd 	.word	0x3fcccccd

080019e4 <LIS2DUXS12_ACC_SetOutputDataRate_When_Disabled>:
  * @param  Power the ultra low power option
  * @retval 0 in case of success, an error code otherwise
  */
static int32_t LIS2DUXS12_ACC_SetOutputDataRate_When_Disabled(LIS2DUXS12_Object_t *pObj, float_t Odr,
    LIS2DUXS12_Power_Mode_t Power)
{
 80019e4:	b480      	push	{r7}
 80019e6:	b085      	sub	sp, #20
 80019e8:	af00      	add	r7, sp, #0
 80019ea:	60f8      	str	r0, [r7, #12]
 80019ec:	ed87 0a02 	vstr	s0, [r7, #8]
 80019f0:	460b      	mov	r3, r1
 80019f2:	71fb      	strb	r3, [r7, #7]
  /* Store the new Odr value */
  if (Power == LIS2DUXS12_ULTRA_LOW_POWER)
 80019f4:	79fb      	ldrb	r3, [r7, #7]
 80019f6:	2b00      	cmp	r3, #0
 80019f8:	d11a      	bne.n	8001a30 <LIS2DUXS12_ACC_SetOutputDataRate_When_Disabled+0x4c>
  {
    pObj->acc_odr = (Odr <= 1.5f) ? 1.5f
                    : (Odr <= 3.0f) ? 3.0f
 80019fa:	edd7 7a02 	vldr	s15, [r7, #8]
 80019fe:	eeb7 7a08 	vmov.f32	s14, #120	@ 0x3fc00000  1.5
 8001a02:	eef4 7ac7 	vcmpe.f32	s15, s14
 8001a06:	eef1 fa10 	vmrs	APSR_nzcv, fpscr
 8001a0a:	d802      	bhi.n	8001a12 <LIS2DUXS12_ACC_SetOutputDataRate_When_Disabled+0x2e>
 8001a0c:	f04f 537f 	mov.w	r3, #1069547520	@ 0x3fc00000
 8001a10:	e00b      	b.n	8001a2a <LIS2DUXS12_ACC_SetOutputDataRate_When_Disabled+0x46>
                    :                25.0f;
 8001a12:	edd7 7a02 	vldr	s15, [r7, #8]
 8001a16:	eeb0 7a08 	vmov.f32	s14, #8	@ 0x40400000  3.0
 8001a1a:	eef4 7ac7 	vcmpe.f32	s15, s14
 8001a1e:	eef1 fa10 	vmrs	APSR_nzcv, fpscr
 8001a22:	d801      	bhi.n	8001a28 <LIS2DUXS12_ACC_SetOutputDataRate_When_Disabled+0x44>
 8001a24:	4b33      	ldr	r3, [pc, #204]	@ (8001af4 <LIS2DUXS12_ACC_SetOutputDataRate_When_Disabled+0x110>)
 8001a26:	e000      	b.n	8001a2a <LIS2DUXS12_ACC_SetOutputDataRate_When_Disabled+0x46>
 8001a28:	4b33      	ldr	r3, [pc, #204]	@ (8001af8 <LIS2DUXS12_ACC_SetOutputDataRate_When_Disabled+0x114>)
    pObj->acc_odr = (Odr <= 1.5f) ? 1.5f
 8001a2a:	68fa      	ldr	r2, [r7, #12]
 8001a2c:	6353      	str	r3, [r2, #52]	@ 0x34
 8001a2e:	e055      	b.n	8001adc <LIS2DUXS12_ACC_SetOutputDataRate_When_Disabled+0xf8>
  }
  else if ((Power == LIS2DUXS12_LOW_POWER) || (Power == LIS2DUXS12_HIGH_PERFORMANCE))
 8001a30:	79fb      	ldrb	r3, [r7, #7]
 8001a32:	2b01      	cmp	r3, #1
 8001a34:	d002      	beq.n	8001a3c <LIS2DUXS12_ACC_SetOutputDataRate_When_Disabled+0x58>
 8001a36:	79fb      	ldrb	r3, [r7, #7]
 8001a38:	2b02      	cmp	r3, #2
 8001a3a:	d14f      	bne.n	8001adc <LIS2DUXS12_ACC_SetOutputDataRate_When_Disabled+0xf8>
  {
    pObj->acc_odr = (Odr <=   6.0f) ?   6.0f
                    : (Odr <=  12.5f) ?  12.5f
 8001a3c:	edd7 7a02 	vldr	s15, [r7, #8]
 8001a40:	eeb1 7a08 	vmov.f32	s14, #24	@ 0x40c00000  6.0
 8001a44:	eef4 7ac7 	vcmpe.f32	s15, s14
 8001a48:	eef1 fa10 	vmrs	APSR_nzcv, fpscr
 8001a4c:	d801      	bhi.n	8001a52 <LIS2DUXS12_ACC_SetOutputDataRate_When_Disabled+0x6e>
 8001a4e:	4b2b      	ldr	r3, [pc, #172]	@ (8001afc <LIS2DUXS12_ACC_SetOutputDataRate_When_Disabled+0x118>)
 8001a50:	e042      	b.n	8001ad8 <LIS2DUXS12_ACC_SetOutputDataRate_When_Disabled+0xf4>
                    : (Odr <=  25.0f) ?  25.0f
 8001a52:	edd7 7a02 	vldr	s15, [r7, #8]
 8001a56:	eeb2 7a09 	vmov.f32	s14, #41	@ 0x41480000  12.5
 8001a5a:	eef4 7ac7 	vcmpe.f32	s15, s14
 8001a5e:	eef1 fa10 	vmrs	APSR_nzcv, fpscr
 8001a62:	d801      	bhi.n	8001a68 <LIS2DUXS12_ACC_SetOutputDataRate_When_Disabled+0x84>
 8001a64:	4b26      	ldr	r3, [pc, #152]	@ (8001b00 <LIS2DUXS12_ACC_SetOutputDataRate_When_Disabled+0x11c>)
 8001a66:	e037      	b.n	8001ad8 <LIS2DUXS12_ACC_SetOutputDataRate_When_Disabled+0xf4>
                    : (Odr <=  50.0f) ?  50.0f
 8001a68:	edd7 7a02 	vldr	s15, [r7, #8]
 8001a6c:	eeb3 7a09 	vmov.f32	s14, #57	@ 0x41c80000  25.0
 8001a70:	eef4 7ac7 	vcmpe.f32	s15, s14
 8001a74:	eef1 fa10 	vmrs	APSR_nzcv, fpscr
 8001a78:	d801      	bhi.n	8001a7e <LIS2DUXS12_ACC_SetOutputDataRate_When_Disabled+0x9a>
 8001a7a:	4b1f      	ldr	r3, [pc, #124]	@ (8001af8 <LIS2DUXS12_ACC_SetOutputDataRate_When_Disabled+0x114>)
 8001a7c:	e02c      	b.n	8001ad8 <LIS2DUXS12_ACC_SetOutputDataRate_When_Disabled+0xf4>
                    : (Odr <= 100.0f) ? 100.0f
 8001a7e:	edd7 7a02 	vldr	s15, [r7, #8]
 8001a82:	ed9f 7a20 	vldr	s14, [pc, #128]	@ 8001b04 <LIS2DUXS12_ACC_SetOutputDataRate_When_Disabled+0x120>
 8001a86:	eef4 7ac7 	vcmpe.f32	s15, s14
 8001a8a:	eef1 fa10 	vmrs	APSR_nzcv, fpscr
 8001a8e:	d801      	bhi.n	8001a94 <LIS2DUXS12_ACC_SetOutputDataRate_When_Disabled+0xb0>
 8001a90:	4b1d      	ldr	r3, [pc, #116]	@ (8001b08 <LIS2DUXS12_ACC_SetOutputDataRate_When_Disabled+0x124>)
 8001a92:	e021      	b.n	8001ad8 <LIS2DUXS12_ACC_SetOutputDataRate_When_Disabled+0xf4>
                    : (Odr <= 200.0f) ? 200.0f
 8001a94:	edd7 7a02 	vldr	s15, [r7, #8]
 8001a98:	ed9f 7a1c 	vldr	s14, [pc, #112]	@ 8001b0c <LIS2DUXS12_ACC_SetOutputDataRate_When_Disabled+0x128>
 8001a9c:	eef4 7ac7 	vcmpe.f32	s15, s14
 8001aa0:	eef1 fa10 	vmrs	APSR_nzcv, fpscr
 8001aa4:	d801      	bhi.n	8001aaa <LIS2DUXS12_ACC_SetOutputDataRate_When_Disabled+0xc6>
 8001aa6:	4b1a      	ldr	r3, [pc, #104]	@ (8001b10 <LIS2DUXS12_ACC_SetOutputDataRate_When_Disabled+0x12c>)
 8001aa8:	e016      	b.n	8001ad8 <LIS2DUXS12_ACC_SetOutputDataRate_When_Disabled+0xf4>
                    : (Odr <= 400.0f) ? 400.0f
 8001aaa:	edd7 7a02 	vldr	s15, [r7, #8]
 8001aae:	ed9f 7a19 	vldr	s14, [pc, #100]	@ 8001b14 <LIS2DUXS12_ACC_SetOutputDataRate_When_Disabled+0x130>
 8001ab2:	eef4 7ac7 	vcmpe.f32	s15, s14
 8001ab6:	eef1 fa10 	vmrs	APSR_nzcv, fpscr
 8001aba:	d801      	bhi.n	8001ac0 <LIS2DUXS12_ACC_SetOutputDataRate_When_Disabled+0xdc>
 8001abc:	4b16      	ldr	r3, [pc, #88]	@ (8001b18 <LIS2DUXS12_ACC_SetOutputDataRate_When_Disabled+0x134>)
 8001abe:	e00b      	b.n	8001ad8 <LIS2DUXS12_ACC_SetOutputDataRate_When_Disabled+0xf4>
                    :                   800.0f;
 8001ac0:	edd7 7a02 	vldr	s15, [r7, #8]
 8001ac4:	ed9f 7a15 	vldr	s14, [pc, #84]	@ 8001b1c <LIS2DUXS12_ACC_SetOutputDataRate_When_Disabled+0x138>
 8001ac8:	eef4 7ac7 	vcmpe.f32	s15, s14
 8001acc:	eef1 fa10 	vmrs	APSR_nzcv, fpscr
 8001ad0:	d801      	bhi.n	8001ad6 <LIS2DUXS12_ACC_SetOutputDataRate_When_Disabled+0xf2>
 8001ad2:	4b13      	ldr	r3, [pc, #76]	@ (8001b20 <LIS2DUXS12_ACC_SetOutputDataRate_When_Disabled+0x13c>)
 8001ad4:	e000      	b.n	8001ad8 <LIS2DUXS12_ACC_SetOutputDataRate_When_Disabled+0xf4>
 8001ad6:	4b13      	ldr	r3, [pc, #76]	@ (8001b24 <LIS2DUXS12_ACC_SetOutputDataRate_When_Disabled+0x140>)
    pObj->acc_odr = (Odr <=   6.0f) ?   6.0f
 8001ad8:	68fa      	ldr	r2, [r7, #12]
 8001ada:	6353      	str	r3, [r2, #52]	@ 0x34
  {
    /* Do nothing */
  }

  /* Store the new Power value */
  pObj->power_mode = Power;
 8001adc:	68fb      	ldr	r3, [r7, #12]
 8001ade:	79fa      	ldrb	r2, [r7, #7]
 8001ae0:	f883 2038 	strb.w	r2, [r3, #56]	@ 0x38

  return LIS2DUXS12_OK;
 8001ae4:	2300      	movs	r3, #0
}
 8001ae6:	4618      	mov	r0, r3
 8001ae8:	3714      	adds	r7, #20
 8001aea:	46bd      	mov	sp, r7
 8001aec:	f85d 7b04 	ldr.w	r7, [sp], #4
 8001af0:	4770      	bx	lr
 8001af2:	bf00      	nop
 8001af4:	40400000 	.word	0x40400000
 8001af8:	41c80000 	.word	0x41c80000
 8001afc:	40c00000 	.word	0x40c00000
 8001b00:	41480000 	.word	0x41480000
 8001b04:	42480000 	.word	0x42480000
 8001b08:	42480000 	.word	0x42480000
 8001b0c:	42c80000 	.word	0x42c80000
 8001b10:	42c80000 	.word	0x42c80000
 8001b14:	43480000 	.word	0x43480000
 8001b18:	43480000 	.word	0x43480000
 8001b1c:	43c80000 	.word	0x43c80000
 8001b20:	43c80000 	.word	0x43c80000
 8001b24:	44480000 	.word	0x44480000

08001b28 <ReadRegWrap>:
  * @param  pData the stored data pointer
  * @param  Length the length
  * @retval 0 in case of success, an error code otherwise
  */
static int32_t ReadRegWrap(void *Handle, uint8_t Reg, uint8_t *pData, uint16_t Length)
{
 8001b28:	b590      	push	{r4, r7, lr}
 8001b2a:	b087      	sub	sp, #28
 8001b2c:	af00      	add	r7, sp, #0
 8001b2e:	60f8      	str	r0, [r7, #12]
 8001b30:	607a      	str	r2, [r7, #4]
 8001b32:	461a      	mov	r2, r3
 8001b34:	460b      	mov	r3, r1
 8001b36:	72fb      	strb	r3, [r7, #11]
 8001b38:	4613      	mov	r3, r2
 8001b3a:	813b      	strh	r3, [r7, #8]
  LIS2DUXS12_Object_t *pObj = (LIS2DUXS12_Object_t *)Handle;
 8001b3c:	68fb      	ldr	r3, [r7, #12]
 8001b3e:	617b      	str	r3, [r7, #20]

  return pObj->IO.ReadReg(pObj->IO.Address, Reg, pData, Length);
 8001b40:	697b      	ldr	r3, [r7, #20]
 8001b42:	695c      	ldr	r4, [r3, #20]
 8001b44:	697b      	ldr	r3, [r7, #20]
 8001b46:	7b1b      	ldrb	r3, [r3, #12]
 8001b48:	4618      	mov	r0, r3
 8001b4a:	7afb      	ldrb	r3, [r7, #11]
 8001b4c:	b299      	uxth	r1, r3
 8001b4e:	893b      	ldrh	r3, [r7, #8]
 8001b50:	687a      	ldr	r2, [r7, #4]
 8001b52:	47a0      	blx	r4
 8001b54:	4603      	mov	r3, r0
}
 8001b56:	4618      	mov	r0, r3
 8001b58:	371c      	adds	r7, #28
 8001b5a:	46bd      	mov	sp, r7
 8001b5c:	bd90      	pop	{r4, r7, pc}

08001b5e <WriteRegWrap>:
  * @param  pData the stored data pointer
  * @param  Length the length
  * @retval 0 in case of success, an error code otherwise
  */
static int32_t WriteRegWrap(void *Handle, uint8_t Reg, uint8_t *pData, uint16_t Length)
{
 8001b5e:	b590      	push	{r4, r7, lr}
 8001b60:	b087      	sub	sp, #28
 8001b62:	af00      	add	r7, sp, #0
 8001b64:	60f8      	str	r0, [r7, #12]
 8001b66:	607a      	str	r2, [r7, #4]
 8001b68:	461a      	mov	r2, r3
 8001b6a:	460b      	mov	r3, r1
 8001b6c:	72fb      	strb	r3, [r7, #11]
 8001b6e:	4613      	mov	r3, r2
 8001b70:	813b      	strh	r3, [r7, #8]
  LIS2DUXS12_Object_t *pObj = (LIS2DUXS12_Object_t *)Handle;
 8001b72:	68fb      	ldr	r3, [r7, #12]
 8001b74:	617b      	str	r3, [r7, #20]

  return pObj->IO.WriteReg(pObj->IO.Address, Reg, pData, Length);
 8001b76:	697b      	ldr	r3, [r7, #20]
 8001b78:	691c      	ldr	r4, [r3, #16]
 8001b7a:	697b      	ldr	r3, [r7, #20]
 8001b7c:	7b1b      	ldrb	r3, [r3, #12]
 8001b7e:	4618      	mov	r0, r3
 8001b80:	7afb      	ldrb	r3, [r7, #11]
 8001b82:	b299      	uxth	r1, r3
 8001b84:	893b      	ldrh	r3, [r7, #8]
 8001b86:	687a      	ldr	r2, [r7, #4]
 8001b88:	47a0      	blx	r4
 8001b8a:	4603      	mov	r3, r0
}
 8001b8c:	4618      	mov	r0, r3
 8001b8e:	371c      	adds	r7, #28
 8001b90:	46bd      	mov	sp, r7
 8001b92:	bd90      	pop	{r4, r7, pc}

08001b94 <lis2duxs12_read_reg>:
  * @retval       interface status (MANDATORY: return 0 -> no Error)
  *
  */
int32_t __weak lis2duxs12_read_reg(stmdev_ctx_t* ctx, uint8_t reg, uint8_t* data,
                                   uint16_t len)
{
 8001b94:	b590      	push	{r4, r7, lr}
 8001b96:	b087      	sub	sp, #28
 8001b98:	af00      	add	r7, sp, #0
 8001b9a:	60f8      	str	r0, [r7, #12]
 8001b9c:	607a      	str	r2, [r7, #4]
 8001b9e:	461a      	mov	r2, r3
 8001ba0:	460b      	mov	r3, r1
 8001ba2:	72fb      	strb	r3, [r7, #11]
 8001ba4:	4613      	mov	r3, r2
 8001ba6:	813b      	strh	r3, [r7, #8]
  int32_t ret;
  ret = ctx->read_reg(ctx->handle, reg, data, len);
 8001ba8:	68fb      	ldr	r3, [r7, #12]
 8001baa:	685c      	ldr	r4, [r3, #4]
 8001bac:	68fb      	ldr	r3, [r7, #12]
 8001bae:	68d8      	ldr	r0, [r3, #12]
 8001bb0:	893b      	ldrh	r3, [r7, #8]
 8001bb2:	7af9      	ldrb	r1, [r7, #11]
 8001bb4:	687a      	ldr	r2, [r7, #4]
 8001bb6:	47a0      	blx	r4
 8001bb8:	6178      	str	r0, [r7, #20]
  return ret;
 8001bba:	697b      	ldr	r3, [r7, #20]
}
 8001bbc:	4618      	mov	r0, r3
 8001bbe:	371c      	adds	r7, #28
 8001bc0:	46bd      	mov	sp, r7
 8001bc2:	bd90      	pop	{r4, r7, pc}

08001bc4 <lis2duxs12_write_reg>:
  * @retval       interface status (MANDATORY: return 0 -> no Error)
  *
  */
int32_t __weak lis2duxs12_write_reg(stmdev_ctx_t* ctx, uint8_t reg, uint8_t* data,
                                    uint16_t len)
{
 8001bc4:	b590      	push	{r4, r7, lr}
 8001bc6:	b087      	sub	sp, #28
 8001bc8:	af00      	add	r7, sp, #0
 8001bca:	60f8      	str	r0, [r7, #12]
 8001bcc:	607a      	str	r2, [r7, #4]
 8001bce:	461a      	mov	r2, r3
 8001bd0:	460b      	mov	r3, r1
 8001bd2:	72fb      	strb	r3, [r7, #11]
 8001bd4:	4613      	mov	r3, r2
 8001bd6:	813b      	strh	r3, [r7, #8]
  int32_t ret;
  ret = ctx->write_reg(ctx->handle, reg, data, len);
 8001bd8:	68fb      	ldr	r3, [r7, #12]
 8001bda:	681c      	ldr	r4, [r3, #0]
 8001bdc:	68fb      	ldr	r3, [r7, #12]
 8001bde:	68d8      	ldr	r0, [r3, #12]
 8001be0:	893b      	ldrh	r3, [r7, #8]
 8001be2:	7af9      	ldrb	r1, [r7, #11]
 8001be4:	687a      	ldr	r2, [r7, #4]
 8001be6:	47a0      	blx	r4
 8001be8:	6178      	str	r0, [r7, #20]
  return ret;
 8001bea:	697b      	ldr	r3, [r7, #20]
}
 8001bec:	4618      	mov	r0, r3
 8001bee:	371c      	adds	r7, #28
 8001bf0:	46bd      	mov	sp, r7
 8001bf2:	bd90      	pop	{r4, r7, pc}

08001bf4 <lis2duxs12_from_fs2g_to_mg>:
  * @{
  *
  */

float_t lis2duxs12_from_fs2g_to_mg(int16_t lsb)
{
 8001bf4:	b480      	push	{r7}
 8001bf6:	b083      	sub	sp, #12
 8001bf8:	af00      	add	r7, sp, #0
 8001bfa:	4603      	mov	r3, r0
 8001bfc:	80fb      	strh	r3, [r7, #6]
  return (float_t)lsb * 0.061f;
 8001bfe:	f9b7 3006 	ldrsh.w	r3, [r7, #6]
 8001c02:	ee07 3a90 	vmov	s15, r3
 8001c06:	eef8 7ae7 	vcvt.f32.s32	s15, s15
 8001c0a:	ed9f 7a05 	vldr	s14, [pc, #20]	@ 8001c20 <lis2duxs12_from_fs2g_to_mg+0x2c>
 8001c0e:	ee67 7a87 	vmul.f32	s15, s15, s14
}
 8001c12:	eeb0 0a67 	vmov.f32	s0, s15
 8001c16:	370c      	adds	r7, #12
 8001c18:	46bd      	mov	sp, r7
 8001c1a:	f85d 7b04 	ldr.w	r7, [sp], #4
 8001c1e:	4770      	bx	lr
 8001c20:	3d79db23 	.word	0x3d79db23

08001c24 <lis2duxs12_from_fs4g_to_mg>:

float_t lis2duxs12_from_fs4g_to_mg(int16_t lsb)
{
 8001c24:	b480      	push	{r7}
 8001c26:	b083      	sub	sp, #12
 8001c28:	af00      	add	r7, sp, #0
 8001c2a:	4603      	mov	r3, r0
 8001c2c:	80fb      	strh	r3, [r7, #6]
  return (float_t)lsb * 0.122f;
 8001c2e:	f9b7 3006 	ldrsh.w	r3, [r7, #6]
 8001c32:	ee07 3a90 	vmov	s15, r3
 8001c36:	eef8 7ae7 	vcvt.f32.s32	s15, s15
 8001c3a:	ed9f 7a05 	vldr	s14, [pc, #20]	@ 8001c50 <lis2duxs12_from_fs4g_to_mg+0x2c>
 8001c3e:	ee67 7a87 	vmul.f32	s15, s15, s14
}
 8001c42:	eeb0 0a67 	vmov.f32	s0, s15
 8001c46:	370c      	adds	r7, #12
 8001c48:	46bd      	mov	sp, r7
 8001c4a:	f85d 7b04 	ldr.w	r7, [sp], #4
 8001c4e:	4770      	bx	lr
 8001c50:	3df9db23 	.word	0x3df9db23

08001c54 <lis2duxs12_from_fs8g_to_mg>:

float_t lis2duxs12_from_fs8g_to_mg(int16_t lsb)
{
 8001c54:	b480      	push	{r7}
 8001c56:	b083      	sub	sp, #12
 8001c58:	af00      	add	r7, sp, #0
 8001c5a:	4603      	mov	r3, r0
 8001c5c:	80fb      	strh	r3, [r7, #6]
  return (float_t)lsb * 0.244f;
 8001c5e:	f9b7 3006 	ldrsh.w	r3, [r7, #6]
 8001c62:	ee07 3a90 	vmov	s15, r3
 8001c66:	eef8 7ae7 	vcvt.f32.s32	s15, s15
 8001c6a:	ed9f 7a05 	vldr	s14, [pc, #20]	@ 8001c80 <lis2duxs12_from_fs8g_to_mg+0x2c>
 8001c6e:	ee67 7a87 	vmul.f32	s15, s15, s14
}
 8001c72:	eeb0 0a67 	vmov.f32	s0, s15
 8001c76:	370c      	adds	r7, #12
 8001c78:	46bd      	mov	sp, r7
 8001c7a:	f85d 7b04 	ldr.w	r7, [sp], #4
 8001c7e:	4770      	bx	lr
 8001c80:	3e79db23 	.word	0x3e79db23

08001c84 <lis2duxs12_from_fs16g_to_mg>:

float_t lis2duxs12_from_fs16g_to_mg(int16_t lsb)
{
 8001c84:	b480      	push	{r7}
 8001c86:	b083      	sub	sp, #12
 8001c88:	af00      	add	r7, sp, #0
 8001c8a:	4603      	mov	r3, r0
 8001c8c:	80fb      	strh	r3, [r7, #6]
  return (float_t)lsb * 0.488f;
 8001c8e:	f9b7 3006 	ldrsh.w	r3, [r7, #6]
 8001c92:	ee07 3a90 	vmov	s15, r3
 8001c96:	eef8 7ae7 	vcvt.f32.s32	s15, s15
 8001c9a:	ed9f 7a05 	vldr	s14, [pc, #20]	@ 8001cb0 <lis2duxs12_from_fs16g_to_mg+0x2c>
 8001c9e:	ee67 7a87 	vmul.f32	s15, s15, s14
}
 8001ca2:	eeb0 0a67 	vmov.f32	s0, s15
 8001ca6:	370c      	adds	r7, #12
 8001ca8:	46bd      	mov	sp, r7
 8001caa:	f85d 7b04 	ldr.w	r7, [sp], #4
 8001cae:	4770      	bx	lr
 8001cb0:	3ef9db23 	.word	0x3ef9db23

08001cb4 <lis2duxs12_device_id_get>:
  * @param  val      Device ID.
  * @retval          interface status (MANDATORY: return 0 -> no Error)
  *
  */
int32_t lis2duxs12_device_id_get(stmdev_ctx_t *ctx, uint8_t *val)
{
 8001cb4:	b580      	push	{r7, lr}
 8001cb6:	b084      	sub	sp, #16
 8001cb8:	af00      	add	r7, sp, #0
 8001cba:	6078      	str	r0, [r7, #4]
 8001cbc:	6039      	str	r1, [r7, #0]
  int32_t ret;

  ret = lis2duxs12_read_reg(ctx, LIS2DUXS12_WHO_AM_I, val, 1);
 8001cbe:	2301      	movs	r3, #1
 8001cc0:	683a      	ldr	r2, [r7, #0]
 8001cc2:	210f      	movs	r1, #15
 8001cc4:	6878      	ldr	r0, [r7, #4]
 8001cc6:	f7ff ff65 	bl	8001b94 <lis2duxs12_read_reg>
 8001cca:	60f8      	str	r0, [r7, #12]

  return ret;
 8001ccc:	68fb      	ldr	r3, [r7, #12]
}
 8001cce:	4618      	mov	r0, r3
 8001cd0:	3710      	adds	r7, #16
 8001cd2:	46bd      	mov	sp, r7
 8001cd4:	bd80      	pop	{r7, pc}
	...

08001cd8 <lis2duxs12_init_set>:
  * @param  val   configures the bus operating mode.(ptr)
  * @retval       interface status (MANDATORY: return 0 -> no Error)
  *
  */
int32_t lis2duxs12_init_set(stmdev_ctx_t *ctx, lis2duxs12_init_t val)
{
 8001cd8:	b580      	push	{r7, lr}
 8001cda:	b086      	sub	sp, #24
 8001cdc:	af00      	add	r7, sp, #0
 8001cde:	6078      	str	r0, [r7, #4]
 8001ce0:	460b      	mov	r3, r1
 8001ce2:	70fb      	strb	r3, [r7, #3]
  lis2duxs12_ctrl1_t ctrl1;
  lis2duxs12_ctrl4_t ctrl4;
  int32_t ret = 0;
 8001ce4:	2300      	movs	r3, #0
 8001ce6:	617b      	str	r3, [r7, #20]

  ret += lis2duxs12_read_reg(ctx, LIS2DUXS12_CTRL1, (uint8_t*)&ctrl1, 1);
 8001ce8:	f107 0210 	add.w	r2, r7, #16
 8001cec:	2301      	movs	r3, #1
 8001cee:	2110      	movs	r1, #16
 8001cf0:	6878      	ldr	r0, [r7, #4]
 8001cf2:	f7ff ff4f 	bl	8001b94 <lis2duxs12_read_reg>
 8001cf6:	4602      	mov	r2, r0
 8001cf8:	697b      	ldr	r3, [r7, #20]
 8001cfa:	4413      	add	r3, r2
 8001cfc:	617b      	str	r3, [r7, #20]
  ret += lis2duxs12_read_reg(ctx, LIS2DUXS12_CTRL4, (uint8_t*)&ctrl4, 1);
 8001cfe:	f107 020c 	add.w	r2, r7, #12
 8001d02:	2301      	movs	r3, #1
 8001d04:	2113      	movs	r1, #19
 8001d06:	6878      	ldr	r0, [r7, #4]
 8001d08:	f7ff ff44 	bl	8001b94 <lis2duxs12_read_reg>
 8001d0c:	4602      	mov	r2, r0
 8001d0e:	697b      	ldr	r3, [r7, #20]
 8001d10:	4413      	add	r3, r2
 8001d12:	617b      	str	r3, [r7, #20]
  switch (val) {
 8001d14:	78fb      	ldrb	r3, [r7, #3]
 8001d16:	2b03      	cmp	r3, #3
 8001d18:	d870      	bhi.n	8001dfc <lis2duxs12_init_set+0x124>
 8001d1a:	a201      	add	r2, pc, #4	@ (adr r2, 8001d20 <lis2duxs12_init_set+0x48>)
 8001d1c:	f852 f023 	ldr.w	pc, [r2, r3, lsl #2]
 8001d20:	08001d71 	.word	0x08001d71
 8001d24:	08001d31 	.word	0x08001d31
 8001d28:	08001d51 	.word	0x08001d51
 8001d2c:	08001db7 	.word	0x08001db7
    case LIS2DUXS12_BOOT:
      ctrl4.boot = PROPERTY_ENABLE;
 8001d30:	7b3b      	ldrb	r3, [r7, #12]
 8001d32:	f043 0301 	orr.w	r3, r3, #1
 8001d36:	733b      	strb	r3, [r7, #12]
      ret += lis2duxs12_write_reg(ctx, LIS2DUXS12_CTRL4, (uint8_t*)&ctrl4, 1);
 8001d38:	f107 020c 	add.w	r2, r7, #12
 8001d3c:	2301      	movs	r3, #1
 8001d3e:	2113      	movs	r1, #19
 8001d40:	6878      	ldr	r0, [r7, #4]
 8001d42:	f7ff ff3f 	bl	8001bc4 <lis2duxs12_write_reg>
 8001d46:	4602      	mov	r2, r0
 8001d48:	697b      	ldr	r3, [r7, #20]
 8001d4a:	4413      	add	r3, r2
 8001d4c:	617b      	str	r3, [r7, #20]
      break;
 8001d4e:	e065      	b.n	8001e1c <lis2duxs12_init_set+0x144>
    case LIS2DUXS12_RESET:

      ctrl1.sw_reset = PROPERTY_ENABLE;
 8001d50:	7c3b      	ldrb	r3, [r7, #16]
 8001d52:	f043 0320 	orr.w	r3, r3, #32
 8001d56:	743b      	strb	r3, [r7, #16]
      ret += lis2duxs12_write_reg(ctx, LIS2DUXS12_CTRL1, (uint8_t*)&ctrl1, 1);
 8001d58:	f107 0210 	add.w	r2, r7, #16
 8001d5c:	2301      	movs	r3, #1
 8001d5e:	2110      	movs	r1, #16
 8001d60:	6878      	ldr	r0, [r7, #4]
 8001d62:	f7ff ff2f 	bl	8001bc4 <lis2duxs12_write_reg>
 8001d66:	4602      	mov	r2, r0
 8001d68:	697b      	ldr	r3, [r7, #20]
 8001d6a:	4413      	add	r3, r2
 8001d6c:	617b      	str	r3, [r7, #20]
      break;
 8001d6e:	e055      	b.n	8001e1c <lis2duxs12_init_set+0x144>
    case LIS2DUXS12_SENSOR_ONLY_ON:
      /* no embedded funcs are used */
      ctrl4.emb_func_en = PROPERTY_DISABLE;
 8001d70:	7b3b      	ldrb	r3, [r7, #12]
 8001d72:	f36f 1304 	bfc	r3, #4, #1
 8001d76:	733b      	strb	r3, [r7, #12]
      ctrl4.bdu = PROPERTY_ENABLE;
 8001d78:	7b3b      	ldrb	r3, [r7, #12]
 8001d7a:	f043 0320 	orr.w	r3, r3, #32
 8001d7e:	733b      	strb	r3, [r7, #12]
      ctrl1.if_add_inc = PROPERTY_ENABLE;
 8001d80:	7c3b      	ldrb	r3, [r7, #16]
 8001d82:	f043 0310 	orr.w	r3, r3, #16
 8001d86:	743b      	strb	r3, [r7, #16]
      ret += lis2duxs12_write_reg(ctx, LIS2DUXS12_CTRL4, (uint8_t*)&ctrl4, 1);
 8001d88:	f107 020c 	add.w	r2, r7, #12
 8001d8c:	2301      	movs	r3, #1
 8001d8e:	2113      	movs	r1, #19
 8001d90:	6878      	ldr	r0, [r7, #4]
 8001d92:	f7ff ff17 	bl	8001bc4 <lis2duxs12_write_reg>
 8001d96:	4602      	mov	r2, r0
 8001d98:	697b      	ldr	r3, [r7, #20]
 8001d9a:	4413      	add	r3, r2
 8001d9c:	617b      	str	r3, [r7, #20]
      ret += lis2duxs12_write_reg(ctx, LIS2DUXS12_CTRL1, (uint8_t*)&ctrl1, 1);
 8001d9e:	f107 0210 	add.w	r2, r7, #16
 8001da2:	2301      	movs	r3, #1
 8001da4:	2110      	movs	r1, #16
 8001da6:	6878      	ldr	r0, [r7, #4]
 8001da8:	f7ff ff0c 	bl	8001bc4 <lis2duxs12_write_reg>
 8001dac:	4602      	mov	r2, r0
 8001dae:	697b      	ldr	r3, [r7, #20]
 8001db0:	4413      	add	r3, r2
 8001db2:	617b      	str	r3, [r7, #20]
      break;
 8001db4:	e032      	b.n	8001e1c <lis2duxs12_init_set+0x144>
    case LIS2DUXS12_SENSOR_EMB_FUNC_ON:
      /* complete configuration is used */
      ctrl4.emb_func_en = PROPERTY_ENABLE;
 8001db6:	7b3b      	ldrb	r3, [r7, #12]
 8001db8:	f043 0310 	orr.w	r3, r3, #16
 8001dbc:	733b      	strb	r3, [r7, #12]
      ctrl4.bdu = PROPERTY_ENABLE;
 8001dbe:	7b3b      	ldrb	r3, [r7, #12]
 8001dc0:	f043 0320 	orr.w	r3, r3, #32
 8001dc4:	733b      	strb	r3, [r7, #12]
      ctrl1.if_add_inc = PROPERTY_ENABLE;
 8001dc6:	7c3b      	ldrb	r3, [r7, #16]
 8001dc8:	f043 0310 	orr.w	r3, r3, #16
 8001dcc:	743b      	strb	r3, [r7, #16]
      ret += lis2duxs12_write_reg(ctx, LIS2DUXS12_CTRL4, (uint8_t*)&ctrl4, 1);
 8001dce:	f107 020c 	add.w	r2, r7, #12
 8001dd2:	2301      	movs	r3, #1
 8001dd4:	2113      	movs	r1, #19
 8001dd6:	6878      	ldr	r0, [r7, #4]
 8001dd8:	f7ff fef4 	bl	8001bc4 <lis2duxs12_write_reg>
 8001ddc:	4602      	mov	r2, r0
 8001dde:	697b      	ldr	r3, [r7, #20]
 8001de0:	4413      	add	r3, r2
 8001de2:	617b      	str	r3, [r7, #20]
      ret += lis2duxs12_write_reg(ctx, LIS2DUXS12_CTRL1, (uint8_t*)&ctrl1, 1);
 8001de4:	f107 0210 	add.w	r2, r7, #16
 8001de8:	2301      	movs	r3, #1
 8001dea:	2110      	movs	r1, #16
 8001dec:	6878      	ldr	r0, [r7, #4]
 8001dee:	f7ff fee9 	bl	8001bc4 <lis2duxs12_write_reg>
 8001df2:	4602      	mov	r2, r0
 8001df4:	697b      	ldr	r3, [r7, #20]
 8001df6:	4413      	add	r3, r2
 8001df8:	617b      	str	r3, [r7, #20]
      break;
 8001dfa:	e00f      	b.n	8001e1c <lis2duxs12_init_set+0x144>
    default:
      ctrl1.sw_reset = PROPERTY_ENABLE;
 8001dfc:	7c3b      	ldrb	r3, [r7, #16]
 8001dfe:	f043 0320 	orr.w	r3, r3, #32
 8001e02:	743b      	strb	r3, [r7, #16]
      ret += lis2duxs12_write_reg(ctx, LIS2DUXS12_CTRL1, (uint8_t*)&ctrl1, 1);
 8001e04:	f107 0210 	add.w	r2, r7, #16
 8001e08:	2301      	movs	r3, #1
 8001e0a:	2110      	movs	r1, #16
 8001e0c:	6878      	ldr	r0, [r7, #4]
 8001e0e:	f7ff fed9 	bl	8001bc4 <lis2duxs12_write_reg>
 8001e12:	4602      	mov	r2, r0
 8001e14:	697b      	ldr	r3, [r7, #20]
 8001e16:	4413      	add	r3, r2
 8001e18:	617b      	str	r3, [r7, #20]
      break;
 8001e1a:	bf00      	nop
  }
  return ret;
 8001e1c:	697b      	ldr	r3, [r7, #20]
}
 8001e1e:	4618      	mov	r0, r3
 8001e20:	3718      	adds	r7, #24
 8001e22:	46bd      	mov	sp, r7
 8001e24:	bd80      	pop	{r7, pc}
 8001e26:	bf00      	nop

08001e28 <lis2duxs12_mode_set>:
  * @param  val   set the sensor FS and ODR.(ptr)
  * @retval       interface status (MANDATORY: return 0 -> no Error)
  *
  */
int32_t lis2duxs12_mode_set(stmdev_ctx_t *ctx, lis2duxs12_md_t *val)
{
 8001e28:	b580      	push	{r7, lr}
 8001e2a:	b086      	sub	sp, #24
 8001e2c:	af00      	add	r7, sp, #0
 8001e2e:	6078      	str	r0, [r7, #4]
 8001e30:	6039      	str	r1, [r7, #0]
  lis2duxs12_ctrl3_t ctrl3;
  lis2duxs12_ctrl5_t ctrl5;
  int32_t ret;

  ret = lis2duxs12_read_reg(ctx, LIS2DUXS12_CTRL5, (uint8_t*)&ctrl5, 1);
 8001e32:	f107 020c 	add.w	r2, r7, #12
 8001e36:	2301      	movs	r3, #1
 8001e38:	2114      	movs	r1, #20
 8001e3a:	6878      	ldr	r0, [r7, #4]
 8001e3c:	f7ff feaa 	bl	8001b94 <lis2duxs12_read_reg>
 8001e40:	6178      	str	r0, [r7, #20]

  ctrl5.odr = (uint8_t)val->odr & 0xFU;
 8001e42:	683b      	ldr	r3, [r7, #0]
 8001e44:	781b      	ldrb	r3, [r3, #0]
 8001e46:	f003 030f 	and.w	r3, r3, #15
 8001e4a:	b2da      	uxtb	r2, r3
 8001e4c:	7b3b      	ldrb	r3, [r7, #12]
 8001e4e:	f362 1307 	bfi	r3, r2, #4, #4
 8001e52:	733b      	strb	r3, [r7, #12]
  ctrl5.fs = (uint8_t)val->fs;
 8001e54:	683b      	ldr	r3, [r7, #0]
 8001e56:	785b      	ldrb	r3, [r3, #1]
 8001e58:	f003 0303 	and.w	r3, r3, #3
 8001e5c:	b2da      	uxtb	r2, r3
 8001e5e:	7b3b      	ldrb	r3, [r7, #12]
 8001e60:	f362 0301 	bfi	r3, r2, #0, #2
 8001e64:	733b      	strb	r3, [r7, #12]

  /* set the bandwidth */
  switch (val->odr) {
 8001e66:	683b      	ldr	r3, [r7, #0]
 8001e68:	781b      	ldrb	r3, [r3, #0]
 8001e6a:	2b2f      	cmp	r3, #47	@ 0x2f
 8001e6c:	f200 80c8 	bhi.w	8002000 <lis2duxs12_mode_set+0x1d8>
 8001e70:	a201      	add	r2, pc, #4	@ (adr r2, 8001e78 <lis2duxs12_mode_set+0x50>)
 8001e72:	f852 f023 	ldr.w	pc, [r2, r3, lsl #2]
 8001e76:	bf00      	nop
 8001e78:	08001f39 	.word	0x08001f39
 8001e7c:	08001f39 	.word	0x08001f39
 8001e80:	08001f39 	.word	0x08001f39
 8001e84:	08001f39 	.word	0x08001f39
 8001e88:	08001f43 	.word	0x08001f43
 8001e8c:	08001f67 	.word	0x08001f67
 8001e90:	08001f9b 	.word	0x08001f9b
 8001e94:	08001fe3 	.word	0x08001fe3
 8001e98:	08001fe3 	.word	0x08001fe3
 8001e9c:	08001fe3 	.word	0x08001fe3
 8001ea0:	08001fe3 	.word	0x08001fe3
 8001ea4:	08001fe3 	.word	0x08001fe3
 8001ea8:	08002001 	.word	0x08002001
 8001eac:	08002001 	.word	0x08002001
 8001eb0:	08002001 	.word	0x08002001
 8001eb4:	08002001 	.word	0x08002001
 8001eb8:	08002001 	.word	0x08002001
 8001ebc:	08002001 	.word	0x08002001
 8001ec0:	08002001 	.word	0x08002001
 8001ec4:	08002001 	.word	0x08002001
 8001ec8:	08001fe3 	.word	0x08001fe3
 8001ecc:	08001fe3 	.word	0x08001fe3
 8001ed0:	08001fe3 	.word	0x08001fe3
 8001ed4:	08001fe3 	.word	0x08001fe3
 8001ed8:	08001fe3 	.word	0x08001fe3
 8001edc:	08001fe3 	.word	0x08001fe3
 8001ee0:	08001fe3 	.word	0x08001fe3
 8001ee4:	08001fe3 	.word	0x08001fe3
 8001ee8:	08002001 	.word	0x08002001
 8001eec:	08002001 	.word	0x08002001
 8001ef0:	08002001 	.word	0x08002001
 8001ef4:	08002001 	.word	0x08002001
 8001ef8:	08002001 	.word	0x08002001
 8001efc:	08002001 	.word	0x08002001
 8001f00:	08002001 	.word	0x08002001
 8001f04:	08002001 	.word	0x08002001
 8001f08:	08002001 	.word	0x08002001
 8001f0c:	08002001 	.word	0x08002001
 8001f10:	08002001 	.word	0x08002001
 8001f14:	08002001 	.word	0x08002001
 8001f18:	08002001 	.word	0x08002001
 8001f1c:	08002001 	.word	0x08002001
 8001f20:	08002001 	.word	0x08002001
 8001f24:	08002001 	.word	0x08002001
 8001f28:	08002001 	.word	0x08002001
 8001f2c:	08002001 	.word	0x08002001
 8001f30:	08001fe3 	.word	0x08001fe3
 8001f34:	08001fe3 	.word	0x08001fe3
    /* no anti-aliasing filter present */
    case LIS2DUXS12_OFF:
    case LIS2DUXS12_1Hz6_ULP:
    case LIS2DUXS12_3Hz_ULP:
    case LIS2DUXS12_25Hz_ULP:
      ctrl5.bw = 0x0;
 8001f38:	7b3b      	ldrb	r3, [r7, #12]
 8001f3a:	f36f 0383 	bfc	r3, #2, #2
 8001f3e:	733b      	strb	r3, [r7, #12]
      break;
 8001f40:	e05e      	b.n	8002000 <lis2duxs12_mode_set+0x1d8>

    /* low-power mode with ODR < 50 Hz */
    case LIS2DUXS12_6Hz_LP:
      switch(val->bw) {
 8001f42:	683b      	ldr	r3, [r7, #0]
 8001f44:	789b      	ldrb	r3, [r3, #2]
 8001f46:	2b00      	cmp	r3, #0
 8001f48:	d007      	beq.n	8001f5a <lis2duxs12_mode_set+0x132>
 8001f4a:	2b00      	cmp	r3, #0
 8001f4c:	db53      	blt.n	8001ff6 <lis2duxs12_mode_set+0x1ce>
 8001f4e:	3b01      	subs	r3, #1
 8001f50:	2b02      	cmp	r3, #2
 8001f52:	d850      	bhi.n	8001ff6 <lis2duxs12_mode_set+0x1ce>
        case LIS2DUXS12_ODR_div_4:
        case LIS2DUXS12_ODR_div_8:
        case LIS2DUXS12_ODR_div_16:
          return -1;
 8001f54:	f04f 33ff 	mov.w	r3, #4294967295
 8001f58:	e081      	b.n	800205e <lis2duxs12_mode_set+0x236>
        case LIS2DUXS12_ODR_div_2:
          ctrl5.bw = 0x3;
 8001f5a:	7b3b      	ldrb	r3, [r7, #12]
 8001f5c:	f043 030c 	orr.w	r3, r3, #12
 8001f60:	733b      	strb	r3, [r7, #12]
          break;
 8001f62:	bf00      	nop
      }
      break;
 8001f64:	e047      	b.n	8001ff6 <lis2duxs12_mode_set+0x1ce>
    case LIS2DUXS12_12Hz5_LP:
      switch(val->bw) {
 8001f66:	683b      	ldr	r3, [r7, #0]
 8001f68:	789b      	ldrb	r3, [r3, #2]
 8001f6a:	2b03      	cmp	r3, #3
 8001f6c:	dc45      	bgt.n	8001ffa <lis2duxs12_mode_set+0x1d2>
 8001f6e:	2b02      	cmp	r3, #2
 8001f70:	da04      	bge.n	8001f7c <lis2duxs12_mode_set+0x154>
 8001f72:	2b00      	cmp	r3, #0
 8001f74:	d005      	beq.n	8001f82 <lis2duxs12_mode_set+0x15a>
 8001f76:	2b01      	cmp	r3, #1
 8001f78:	d009      	beq.n	8001f8e <lis2duxs12_mode_set+0x166>
          break;
        case LIS2DUXS12_ODR_div_4:
          ctrl5.bw = 0x3;
          break;
      }
      break;
 8001f7a:	e03e      	b.n	8001ffa <lis2duxs12_mode_set+0x1d2>
          return -1;
 8001f7c:	f04f 33ff 	mov.w	r3, #4294967295
 8001f80:	e06d      	b.n	800205e <lis2duxs12_mode_set+0x236>
          ctrl5.bw = 0x2;
 8001f82:	7b3b      	ldrb	r3, [r7, #12]
 8001f84:	2202      	movs	r2, #2
 8001f86:	f362 0383 	bfi	r3, r2, #2, #2
 8001f8a:	733b      	strb	r3, [r7, #12]
          break;
 8001f8c:	e004      	b.n	8001f98 <lis2duxs12_mode_set+0x170>
          ctrl5.bw = 0x3;
 8001f8e:	7b3b      	ldrb	r3, [r7, #12]
 8001f90:	f043 030c 	orr.w	r3, r3, #12
 8001f94:	733b      	strb	r3, [r7, #12]
          break;
 8001f96:	bf00      	nop
      break;
 8001f98:	e02f      	b.n	8001ffa <lis2duxs12_mode_set+0x1d2>
    case LIS2DUXS12_25Hz_LP:
      switch(val->bw) {
 8001f9a:	683b      	ldr	r3, [r7, #0]
 8001f9c:	789b      	ldrb	r3, [r3, #2]
 8001f9e:	2b03      	cmp	r3, #3
 8001fa0:	d82d      	bhi.n	8001ffe <lis2duxs12_mode_set+0x1d6>
 8001fa2:	a201      	add	r2, pc, #4	@ (adr r2, 8001fa8 <lis2duxs12_mode_set+0x180>)
 8001fa4:	f852 f023 	ldr.w	pc, [r2, r3, lsl #2]
 8001fa8:	08001fbf 	.word	0x08001fbf
 8001fac:	08001fcb 	.word	0x08001fcb
 8001fb0:	08001fd7 	.word	0x08001fd7
 8001fb4:	08001fb9 	.word	0x08001fb9
        case LIS2DUXS12_ODR_div_16:
          return -1;
 8001fb8:	f04f 33ff 	mov.w	r3, #4294967295
 8001fbc:	e04f      	b.n	800205e <lis2duxs12_mode_set+0x236>
        case LIS2DUXS12_ODR_div_2:
          ctrl5.bw = 0x1;
 8001fbe:	7b3b      	ldrb	r3, [r7, #12]
 8001fc0:	2201      	movs	r2, #1
 8001fc2:	f362 0383 	bfi	r3, r2, #2, #2
 8001fc6:	733b      	strb	r3, [r7, #12]
          break;
 8001fc8:	e00a      	b.n	8001fe0 <lis2duxs12_mode_set+0x1b8>
        case LIS2DUXS12_ODR_div_4:
          ctrl5.bw = 0x2;
 8001fca:	7b3b      	ldrb	r3, [r7, #12]
 8001fcc:	2202      	movs	r2, #2
 8001fce:	f362 0383 	bfi	r3, r2, #2, #2
 8001fd2:	733b      	strb	r3, [r7, #12]
          break;
 8001fd4:	e004      	b.n	8001fe0 <lis2duxs12_mode_set+0x1b8>
        case LIS2DUXS12_ODR_div_8:
          ctrl5.bw = 0x3;
 8001fd6:	7b3b      	ldrb	r3, [r7, #12]
 8001fd8:	f043 030c 	orr.w	r3, r3, #12
 8001fdc:	733b      	strb	r3, [r7, #12]
          break;
 8001fde:	bf00      	nop
      }
      break;
 8001fe0:	e00d      	b.n	8001ffe <lis2duxs12_mode_set+0x1d6>
    case LIS2DUXS12_50Hz_HP:
    case LIS2DUXS12_100Hz_HP:
    case LIS2DUXS12_200Hz_HP:
    case LIS2DUXS12_400Hz_HP:
    case LIS2DUXS12_800Hz_HP:
      ctrl5.bw = (uint8_t)val->bw;
 8001fe2:	683b      	ldr	r3, [r7, #0]
 8001fe4:	789b      	ldrb	r3, [r3, #2]
 8001fe6:	f003 0303 	and.w	r3, r3, #3
 8001fea:	b2da      	uxtb	r2, r3
 8001fec:	7b3b      	ldrb	r3, [r7, #12]
 8001fee:	f362 0383 	bfi	r3, r2, #2, #2
 8001ff2:	733b      	strb	r3, [r7, #12]
      break;
 8001ff4:	e004      	b.n	8002000 <lis2duxs12_mode_set+0x1d8>
      break;
 8001ff6:	bf00      	nop
 8001ff8:	e002      	b.n	8002000 <lis2duxs12_mode_set+0x1d8>
      break;
 8001ffa:	bf00      	nop
 8001ffc:	e000      	b.n	8002000 <lis2duxs12_mode_set+0x1d8>
      break;
 8001ffe:	bf00      	nop
  }

  ret += lis2duxs12_read_reg(ctx, LIS2DUXS12_CTRL3, (uint8_t*)&ctrl3, 1);
 8002000:	f107 0210 	add.w	r2, r7, #16
 8002004:	2301      	movs	r3, #1
 8002006:	2112      	movs	r1, #18
 8002008:	6878      	ldr	r0, [r7, #4]
 800200a:	f7ff fdc3 	bl	8001b94 <lis2duxs12_read_reg>
 800200e:	4602      	mov	r2, r0
 8002010:	697b      	ldr	r3, [r7, #20]
 8002012:	4413      	add	r3, r2
 8002014:	617b      	str	r3, [r7, #20]

  ctrl3.hp_en = (((uint8_t)val->odr & 0x30U) == 0x10U) ? 1U : 0U;
 8002016:	683b      	ldr	r3, [r7, #0]
 8002018:	781b      	ldrb	r3, [r3, #0]
 800201a:	f003 0330 	and.w	r3, r3, #48	@ 0x30
 800201e:	2b10      	cmp	r3, #16
 8002020:	d101      	bne.n	8002026 <lis2duxs12_mode_set+0x1fe>
 8002022:	2201      	movs	r2, #1
 8002024:	e000      	b.n	8002028 <lis2duxs12_mode_set+0x200>
 8002026:	2200      	movs	r2, #0
 8002028:	7c3b      	ldrb	r3, [r7, #16]
 800202a:	f362 0382 	bfi	r3, r2, #2, #1
 800202e:	743b      	strb	r3, [r7, #16]

  if (ret == 0) {
 8002030:	697b      	ldr	r3, [r7, #20]
 8002032:	2b00      	cmp	r3, #0
 8002034:	d112      	bne.n	800205c <lis2duxs12_mode_set+0x234>
    ret = lis2duxs12_write_reg(ctx, LIS2DUXS12_CTRL5, (uint8_t*)&ctrl5, 1);
 8002036:	f107 020c 	add.w	r2, r7, #12
 800203a:	2301      	movs	r3, #1
 800203c:	2114      	movs	r1, #20
 800203e:	6878      	ldr	r0, [r7, #4]
 8002040:	f7ff fdc0 	bl	8001bc4 <lis2duxs12_write_reg>
 8002044:	6178      	str	r0, [r7, #20]
    ret += lis2duxs12_write_reg(ctx, LIS2DUXS12_CTRL3, (uint8_t*)&ctrl3, 1);
 8002046:	f107 0210 	add.w	r2, r7, #16
 800204a:	2301      	movs	r3, #1
 800204c:	2112      	movs	r1, #18
 800204e:	6878      	ldr	r0, [r7, #4]
 8002050:	f7ff fdb8 	bl	8001bc4 <lis2duxs12_write_reg>
 8002054:	4602      	mov	r2, r0
 8002056:	697b      	ldr	r3, [r7, #20]
 8002058:	4413      	add	r3, r2
 800205a:	617b      	str	r3, [r7, #20]
  }

  return ret;
 800205c:	697b      	ldr	r3, [r7, #20]
}
 800205e:	4618      	mov	r0, r3
 8002060:	3718      	adds	r7, #24
 8002062:	46bd      	mov	sp, r7
 8002064:	bd80      	pop	{r7, pc}
 8002066:	bf00      	nop

08002068 <lis2duxs12_mode_get>:
  * @param  val   get the sensor FS and ODR.(ptr)
  * @retval       interface status (MANDATORY: return 0 -> no Error)
  *
  */
int32_t lis2duxs12_mode_get(stmdev_ctx_t *ctx, lis2duxs12_md_t *val)
{
 8002068:	b580      	push	{r7, lr}
 800206a:	b086      	sub	sp, #24
 800206c:	af00      	add	r7, sp, #0
 800206e:	6078      	str	r0, [r7, #4]
 8002070:	6039      	str	r1, [r7, #0]
  lis2duxs12_ctrl3_t ctrl3;
  lis2duxs12_ctrl5_t ctrl5;
  int32_t ret;

  ret = lis2duxs12_read_reg(ctx, LIS2DUXS12_CTRL5, (uint8_t*)&ctrl5, 1);
 8002072:	f107 020c 	add.w	r2, r7, #12
 8002076:	2301      	movs	r3, #1
 8002078:	2114      	movs	r1, #20
 800207a:	6878      	ldr	r0, [r7, #4]
 800207c:	f7ff fd8a 	bl	8001b94 <lis2duxs12_read_reg>
 8002080:	6178      	str	r0, [r7, #20]
  ret += lis2duxs12_read_reg(ctx, LIS2DUXS12_CTRL3, (uint8_t*)&ctrl3, 1);
 8002082:	f107 0210 	add.w	r2, r7, #16
 8002086:	2301      	movs	r3, #1
 8002088:	2112      	movs	r1, #18
 800208a:	6878      	ldr	r0, [r7, #4]
 800208c:	f7ff fd82 	bl	8001b94 <lis2duxs12_read_reg>
 8002090:	4602      	mov	r2, r0
 8002092:	697b      	ldr	r3, [r7, #20]
 8002094:	4413      	add	r3, r2
 8002096:	617b      	str	r3, [r7, #20]

  switch (ctrl5.odr) {
 8002098:	7b3b      	ldrb	r3, [r7, #12]
 800209a:	f3c3 1303 	ubfx	r3, r3, #4, #4
 800209e:	b2db      	uxtb	r3, r3
 80020a0:	2b0b      	cmp	r3, #11
 80020a2:	f200 8083 	bhi.w	80021ac <lis2duxs12_mode_get+0x144>
 80020a6:	a201      	add	r2, pc, #4	@ (adr r2, 80020ac <lis2duxs12_mode_get+0x44>)
 80020a8:	f852 f023 	ldr.w	pc, [r2, r3, lsl #2]
 80020ac:	080020dd 	.word	0x080020dd
 80020b0:	080020e5 	.word	0x080020e5
 80020b4:	080020ed 	.word	0x080020ed
 80020b8:	080020f5 	.word	0x080020f5
 80020bc:	080020fd 	.word	0x080020fd
 80020c0:	08002105 	.word	0x08002105
 80020c4:	0800211d 	.word	0x0800211d
 80020c8:	08002135 	.word	0x08002135
 80020cc:	0800214d 	.word	0x0800214d
 80020d0:	08002165 	.word	0x08002165
 80020d4:	0800217d 	.word	0x0800217d
 80020d8:	08002195 	.word	0x08002195
    case LIS2DUXS12_OFF:
      val->odr = LIS2DUXS12_OFF;
 80020dc:	683b      	ldr	r3, [r7, #0]
 80020de:	2200      	movs	r2, #0
 80020e0:	701a      	strb	r2, [r3, #0]
      break;
 80020e2:	e067      	b.n	80021b4 <lis2duxs12_mode_get+0x14c>
    case LIS2DUXS12_1Hz6_ULP:
      val->odr = LIS2DUXS12_1Hz6_ULP;
 80020e4:	683b      	ldr	r3, [r7, #0]
 80020e6:	2201      	movs	r2, #1
 80020e8:	701a      	strb	r2, [r3, #0]
      break;
 80020ea:	e063      	b.n	80021b4 <lis2duxs12_mode_get+0x14c>
    case LIS2DUXS12_3Hz_ULP:
      val->odr = LIS2DUXS12_3Hz_ULP;
 80020ec:	683b      	ldr	r3, [r7, #0]
 80020ee:	2202      	movs	r2, #2
 80020f0:	701a      	strb	r2, [r3, #0]
      break;
 80020f2:	e05f      	b.n	80021b4 <lis2duxs12_mode_get+0x14c>
    case LIS2DUXS12_25Hz_ULP:
      val->odr = LIS2DUXS12_25Hz_ULP;
 80020f4:	683b      	ldr	r3, [r7, #0]
 80020f6:	2203      	movs	r2, #3
 80020f8:	701a      	strb	r2, [r3, #0]
      break;
 80020fa:	e05b      	b.n	80021b4 <lis2duxs12_mode_get+0x14c>
    case LIS2DUXS12_6Hz_LP:
      val->odr = LIS2DUXS12_6Hz_LP;
 80020fc:	683b      	ldr	r3, [r7, #0]
 80020fe:	2204      	movs	r2, #4
 8002100:	701a      	strb	r2, [r3, #0]
      break;
 8002102:	e057      	b.n	80021b4 <lis2duxs12_mode_get+0x14c>
    case LIS2DUXS12_12Hz5_LP:
      val->odr = (ctrl3.hp_en == 0x1U) ? LIS2DUXS12_12Hz5_HP : LIS2DUXS12_12Hz5_LP;
 8002104:	7c3b      	ldrb	r3, [r7, #16]
 8002106:	f003 0304 	and.w	r3, r3, #4
 800210a:	b2db      	uxtb	r3, r3
 800210c:	2b00      	cmp	r3, #0
 800210e:	d001      	beq.n	8002114 <lis2duxs12_mode_get+0xac>
 8002110:	2215      	movs	r2, #21
 8002112:	e000      	b.n	8002116 <lis2duxs12_mode_get+0xae>
 8002114:	2205      	movs	r2, #5
 8002116:	683b      	ldr	r3, [r7, #0]
 8002118:	701a      	strb	r2, [r3, #0]
      break;
 800211a:	e04b      	b.n	80021b4 <lis2duxs12_mode_get+0x14c>
    case LIS2DUXS12_25Hz_LP:
      val->odr = (ctrl3.hp_en == 0x1U) ? LIS2DUXS12_25Hz_HP : LIS2DUXS12_25Hz_LP;
 800211c:	7c3b      	ldrb	r3, [r7, #16]
 800211e:	f003 0304 	and.w	r3, r3, #4
 8002122:	b2db      	uxtb	r3, r3
 8002124:	2b00      	cmp	r3, #0
 8002126:	d001      	beq.n	800212c <lis2duxs12_mode_get+0xc4>
 8002128:	2216      	movs	r2, #22
 800212a:	e000      	b.n	800212e <lis2duxs12_mode_get+0xc6>
 800212c:	2206      	movs	r2, #6
 800212e:	683b      	ldr	r3, [r7, #0]
 8002130:	701a      	strb	r2, [r3, #0]
      break;
 8002132:	e03f      	b.n	80021b4 <lis2duxs12_mode_get+0x14c>
    case LIS2DUXS12_50Hz_LP:
      val->odr = (ctrl3.hp_en == 0x1U) ? LIS2DUXS12_50Hz_HP : LIS2DUXS12_50Hz_LP;
 8002134:	7c3b      	ldrb	r3, [r7, #16]
 8002136:	f003 0304 	and.w	r3, r3, #4
 800213a:	b2db      	uxtb	r3, r3
 800213c:	2b00      	cmp	r3, #0
 800213e:	d001      	beq.n	8002144 <lis2duxs12_mode_get+0xdc>
 8002140:	2217      	movs	r2, #23
 8002142:	e000      	b.n	8002146 <lis2duxs12_mode_get+0xde>
 8002144:	2207      	movs	r2, #7
 8002146:	683b      	ldr	r3, [r7, #0]
 8002148:	701a      	strb	r2, [r3, #0]
      break;
 800214a:	e033      	b.n	80021b4 <lis2duxs12_mode_get+0x14c>
    case LIS2DUXS12_100Hz_LP:
      val->odr = (ctrl3.hp_en == 0x1U) ? LIS2DUXS12_100Hz_HP : LIS2DUXS12_100Hz_LP;
 800214c:	7c3b      	ldrb	r3, [r7, #16]
 800214e:	f003 0304 	and.w	r3, r3, #4
 8002152:	b2db      	uxtb	r3, r3
 8002154:	2b00      	cmp	r3, #0
 8002156:	d001      	beq.n	800215c <lis2duxs12_mode_get+0xf4>
 8002158:	2218      	movs	r2, #24
 800215a:	e000      	b.n	800215e <lis2duxs12_mode_get+0xf6>
 800215c:	2208      	movs	r2, #8
 800215e:	683b      	ldr	r3, [r7, #0]
 8002160:	701a      	strb	r2, [r3, #0]
      break;
 8002162:	e027      	b.n	80021b4 <lis2duxs12_mode_get+0x14c>
    case LIS2DUXS12_200Hz_LP:
      val->odr = (ctrl3.hp_en == 0x1U) ? LIS2DUXS12_200Hz_HP : LIS2DUXS12_200Hz_LP;
 8002164:	7c3b      	ldrb	r3, [r7, #16]
 8002166:	f003 0304 	and.w	r3, r3, #4
 800216a:	b2db      	uxtb	r3, r3
 800216c:	2b00      	cmp	r3, #0
 800216e:	d001      	beq.n	8002174 <lis2duxs12_mode_get+0x10c>
 8002170:	2219      	movs	r2, #25
 8002172:	e000      	b.n	8002176 <lis2duxs12_mode_get+0x10e>
 8002174:	2209      	movs	r2, #9
 8002176:	683b      	ldr	r3, [r7, #0]
 8002178:	701a      	strb	r2, [r3, #0]
      break;
 800217a:	e01b      	b.n	80021b4 <lis2duxs12_mode_get+0x14c>
    case LIS2DUXS12_400Hz_LP:
      val->odr = (ctrl3.hp_en == 0x1U) ? LIS2DUXS12_400Hz_HP : LIS2DUXS12_400Hz_LP;
 800217c:	7c3b      	ldrb	r3, [r7, #16]
 800217e:	f003 0304 	and.w	r3, r3, #4
 8002182:	b2db      	uxtb	r3, r3
 8002184:	2b00      	cmp	r3, #0
 8002186:	d001      	beq.n	800218c <lis2duxs12_mode_get+0x124>
 8002188:	221a      	movs	r2, #26
 800218a:	e000      	b.n	800218e <lis2duxs12_mode_get+0x126>
 800218c:	220a      	movs	r2, #10
 800218e:	683b      	ldr	r3, [r7, #0]
 8002190:	701a      	strb	r2, [r3, #0]
      break;
 8002192:	e00f      	b.n	80021b4 <lis2duxs12_mode_get+0x14c>
    case LIS2DUXS12_800Hz_LP:
      val->odr = (ctrl3.hp_en == 0x1U) ? LIS2DUXS12_800Hz_HP : LIS2DUXS12_800Hz_LP;
 8002194:	7c3b      	ldrb	r3, [r7, #16]
 8002196:	f003 0304 	and.w	r3, r3, #4
 800219a:	b2db      	uxtb	r3, r3
 800219c:	2b00      	cmp	r3, #0
 800219e:	d001      	beq.n	80021a4 <lis2duxs12_mode_get+0x13c>
 80021a0:	221b      	movs	r2, #27
 80021a2:	e000      	b.n	80021a6 <lis2duxs12_mode_get+0x13e>
 80021a4:	220b      	movs	r2, #11
 80021a6:	683b      	ldr	r3, [r7, #0]
 80021a8:	701a      	strb	r2, [r3, #0]
      break;
 80021aa:	e003      	b.n	80021b4 <lis2duxs12_mode_get+0x14c>
      break;
    case LIS2DUXS12_TRIG_SW:
      val->odr = LIS2DUXS12_TRIG_SW;
      break;
    default:
      val->odr = LIS2DUXS12_OFF;
 80021ac:	683b      	ldr	r3, [r7, #0]
 80021ae:	2200      	movs	r2, #0
 80021b0:	701a      	strb	r2, [r3, #0]
      break;
 80021b2:	bf00      	nop
  }

  switch (ctrl5.fs) {
 80021b4:	7b3b      	ldrb	r3, [r7, #12]
 80021b6:	f3c3 0301 	ubfx	r3, r3, #0, #2
 80021ba:	b2db      	uxtb	r3, r3
 80021bc:	2b03      	cmp	r3, #3
 80021be:	d81b      	bhi.n	80021f8 <lis2duxs12_mode_get+0x190>
 80021c0:	a201      	add	r2, pc, #4	@ (adr r2, 80021c8 <lis2duxs12_mode_get+0x160>)
 80021c2:	f852 f023 	ldr.w	pc, [r2, r3, lsl #2]
 80021c6:	bf00      	nop
 80021c8:	080021d9 	.word	0x080021d9
 80021cc:	080021e1 	.word	0x080021e1
 80021d0:	080021e9 	.word	0x080021e9
 80021d4:	080021f1 	.word	0x080021f1
    case LIS2DUXS12_2g:
      val->fs = LIS2DUXS12_2g;
 80021d8:	683b      	ldr	r3, [r7, #0]
 80021da:	2200      	movs	r2, #0
 80021dc:	705a      	strb	r2, [r3, #1]
      break;
 80021de:	e00f      	b.n	8002200 <lis2duxs12_mode_get+0x198>
    case LIS2DUXS12_4g:
      val->fs = LIS2DUXS12_4g;
 80021e0:	683b      	ldr	r3, [r7, #0]
 80021e2:	2201      	movs	r2, #1
 80021e4:	705a      	strb	r2, [r3, #1]
      break;
 80021e6:	e00b      	b.n	8002200 <lis2duxs12_mode_get+0x198>
    case LIS2DUXS12_8g:
      val->fs = LIS2DUXS12_8g;
 80021e8:	683b      	ldr	r3, [r7, #0]
 80021ea:	2202      	movs	r2, #2
 80021ec:	705a      	strb	r2, [r3, #1]
      break;
 80021ee:	e007      	b.n	8002200 <lis2duxs12_mode_get+0x198>
    case LIS2DUXS12_16g:
      val->fs = LIS2DUXS12_16g;
 80021f0:	683b      	ldr	r3, [r7, #0]
 80021f2:	2203      	movs	r2, #3
 80021f4:	705a      	strb	r2, [r3, #1]
      break;
 80021f6:	e003      	b.n	8002200 <lis2duxs12_mode_get+0x198>
    default:
      val->fs = LIS2DUXS12_2g;
 80021f8:	683b      	ldr	r3, [r7, #0]
 80021fa:	2200      	movs	r2, #0
 80021fc:	705a      	strb	r2, [r3, #1]
      break;
 80021fe:	bf00      	nop
  }

  switch (ctrl5.bw) {
 8002200:	7b3b      	ldrb	r3, [r7, #12]
 8002202:	f3c3 0381 	ubfx	r3, r3, #2, #2
 8002206:	b2db      	uxtb	r3, r3
 8002208:	2b03      	cmp	r3, #3
 800220a:	d81b      	bhi.n	8002244 <lis2duxs12_mode_get+0x1dc>
 800220c:	a201      	add	r2, pc, #4	@ (adr r2, 8002214 <lis2duxs12_mode_get+0x1ac>)
 800220e:	f852 f023 	ldr.w	pc, [r2, r3, lsl #2]
 8002212:	bf00      	nop
 8002214:	08002225 	.word	0x08002225
 8002218:	0800222d 	.word	0x0800222d
 800221c:	08002235 	.word	0x08002235
 8002220:	0800223d 	.word	0x0800223d
    case LIS2DUXS12_ODR_div_2:
      val->bw = LIS2DUXS12_ODR_div_2;
 8002224:	683b      	ldr	r3, [r7, #0]
 8002226:	2200      	movs	r2, #0
 8002228:	709a      	strb	r2, [r3, #2]
      break;
 800222a:	e00f      	b.n	800224c <lis2duxs12_mode_get+0x1e4>
    case LIS2DUXS12_ODR_div_4:
      val->bw = LIS2DUXS12_ODR_div_4;
 800222c:	683b      	ldr	r3, [r7, #0]
 800222e:	2201      	movs	r2, #1
 8002230:	709a      	strb	r2, [r3, #2]
      break;
 8002232:	e00b      	b.n	800224c <lis2duxs12_mode_get+0x1e4>
    case LIS2DUXS12_ODR_div_8:
      val->bw = LIS2DUXS12_ODR_div_8;
 8002234:	683b      	ldr	r3, [r7, #0]
 8002236:	2202      	movs	r2, #2
 8002238:	709a      	strb	r2, [r3, #2]
      break;
 800223a:	e007      	b.n	800224c <lis2duxs12_mode_get+0x1e4>
    case LIS2DUXS12_ODR_div_16:
      val->bw = LIS2DUXS12_ODR_div_16;
 800223c:	683b      	ldr	r3, [r7, #0]
 800223e:	2203      	movs	r2, #3
 8002240:	709a      	strb	r2, [r3, #2]
      break;
 8002242:	e003      	b.n	800224c <lis2duxs12_mode_get+0x1e4>
    default:
      val->bw = LIS2DUXS12_ODR_div_2;
 8002244:	683b      	ldr	r3, [r7, #0]
 8002246:	2200      	movs	r2, #0
 8002248:	709a      	strb	r2, [r3, #2]
      break;
 800224a:	bf00      	nop
  }

  return ret;
 800224c:	697b      	ldr	r3, [r7, #20]
}
 800224e:	4618      	mov	r0, r3
 8002250:	3718      	adds	r7, #24
 8002252:	46bd      	mov	sp, r7
 8002254:	bd80      	pop	{r7, pc}
 8002256:	bf00      	nop

08002258 <lis2duxs12_exit_deep_power_down>:
  * @param  val      Enter soft power down in SPI case
  * @retval          interface status (MANDATORY: return 0 -> no Error)
  *
  */
int32_t lis2duxs12_exit_deep_power_down(stmdev_ctx_t *ctx)
{
 8002258:	b580      	push	{r7, lr}
 800225a:	b084      	sub	sp, #16
 800225c:	af00      	add	r7, sp, #0
 800225e:	6078      	str	r0, [r7, #4]
  lis2duxs12_if_wake_up_t if_wake_up = {0};
 8002260:	2300      	movs	r3, #0
 8002262:	723b      	strb	r3, [r7, #8]
  int32_t ret;

  if_wake_up.soft_pd = PROPERTY_ENABLE;
 8002264:	7a3b      	ldrb	r3, [r7, #8]
 8002266:	f043 0301 	orr.w	r3, r3, #1
 800226a:	723b      	strb	r3, [r7, #8]
  ret = lis2duxs12_write_reg(ctx, LIS2DUXS12_IF_WAKE_UP, (uint8_t *)&if_wake_up, 1);
 800226c:	f107 0208 	add.w	r2, r7, #8
 8002270:	2301      	movs	r3, #1
 8002272:	213e      	movs	r1, #62	@ 0x3e
 8002274:	6878      	ldr	r0, [r7, #4]
 8002276:	f7ff fca5 	bl	8001bc4 <lis2duxs12_write_reg>
 800227a:	60f8      	str	r0, [r7, #12]

  return ret;
 800227c:	68fb      	ldr	r3, [r7, #12]
}
 800227e:	4618      	mov	r0, r3
 8002280:	3710      	adds	r7, #16
 8002282:	46bd      	mov	sp, r7
 8002284:	bd80      	pop	{r7, pc}
	...

08002288 <lis2duxs12_xl_data_get>:
  * @retval       interface status (MANDATORY: return 0 -> no Error)
  *
  */
int32_t lis2duxs12_xl_data_get(stmdev_ctx_t *ctx, lis2duxs12_md_t *md,
                          lis2duxs12_xl_data_t *data)
{
 8002288:	b590      	push	{r4, r7, lr}
 800228a:	b089      	sub	sp, #36	@ 0x24
 800228c:	af00      	add	r7, sp, #0
 800228e:	60f8      	str	r0, [r7, #12]
 8002290:	60b9      	str	r1, [r7, #8]
 8002292:	607a      	str	r2, [r7, #4]
  uint8_t buff[6];
  int32_t ret;
  uint8_t i;
  uint8_t j;

  ret = lis2duxs12_read_reg(ctx, LIS2DUXS12_OUT_X_L, buff, 6);
 8002294:	f107 0210 	add.w	r2, r7, #16
 8002298:	2306      	movs	r3, #6
 800229a:	2128      	movs	r1, #40	@ 0x28
 800229c:	68f8      	ldr	r0, [r7, #12]
 800229e:	f7ff fc79 	bl	8001b94 <lis2duxs12_read_reg>
 80022a2:	61b8      	str	r0, [r7, #24]

  /* acceleration conversion */
  j = 0U;
 80022a4:	2300      	movs	r3, #0
 80022a6:	77bb      	strb	r3, [r7, #30]
  for (i = 0U; i < 3U; i++) {
 80022a8:	2300      	movs	r3, #0
 80022aa:	77fb      	strb	r3, [r7, #31]
 80022ac:	e08f      	b.n	80023ce <lis2duxs12_xl_data_get+0x146>
    data->raw[i] = (int16_t)buff[j+1U];
 80022ae:	7fbb      	ldrb	r3, [r7, #30]
 80022b0:	3301      	adds	r3, #1
 80022b2:	3320      	adds	r3, #32
 80022b4:	443b      	add	r3, r7
 80022b6:	f813 2c10 	ldrb.w	r2, [r3, #-16]
 80022ba:	7ffb      	ldrb	r3, [r7, #31]
 80022bc:	b211      	sxth	r1, r2
 80022be:	687a      	ldr	r2, [r7, #4]
 80022c0:	3304      	adds	r3, #4
 80022c2:	005b      	lsls	r3, r3, #1
 80022c4:	4413      	add	r3, r2
 80022c6:	460a      	mov	r2, r1
 80022c8:	809a      	strh	r2, [r3, #4]
    data->raw[i] = (data->raw[i] * 256) + (int16_t) buff[j];
 80022ca:	7ffb      	ldrb	r3, [r7, #31]
 80022cc:	687a      	ldr	r2, [r7, #4]
 80022ce:	3304      	adds	r3, #4
 80022d0:	005b      	lsls	r3, r3, #1
 80022d2:	4413      	add	r3, r2
 80022d4:	f9b3 3004 	ldrsh.w	r3, [r3, #4]
 80022d8:	b29b      	uxth	r3, r3
 80022da:	021b      	lsls	r3, r3, #8
 80022dc:	b29b      	uxth	r3, r3
 80022de:	7fba      	ldrb	r2, [r7, #30]
 80022e0:	3220      	adds	r2, #32
 80022e2:	443a      	add	r2, r7
 80022e4:	f812 2c10 	ldrb.w	r2, [r2, #-16]
 80022e8:	4413      	add	r3, r2
 80022ea:	b29a      	uxth	r2, r3
 80022ec:	7ffb      	ldrb	r3, [r7, #31]
 80022ee:	b211      	sxth	r1, r2
 80022f0:	687a      	ldr	r2, [r7, #4]
 80022f2:	3304      	adds	r3, #4
 80022f4:	005b      	lsls	r3, r3, #1
 80022f6:	4413      	add	r3, r2
 80022f8:	460a      	mov	r2, r1
 80022fa:	809a      	strh	r2, [r3, #4]
    j+=2U;
 80022fc:	7fbb      	ldrb	r3, [r7, #30]
 80022fe:	3302      	adds	r3, #2
 8002300:	77bb      	strb	r3, [r7, #30]
    switch ( md->fs ) {
 8002302:	68bb      	ldr	r3, [r7, #8]
 8002304:	785b      	ldrb	r3, [r3, #1]
 8002306:	2b03      	cmp	r3, #3
 8002308:	d856      	bhi.n	80023b8 <lis2duxs12_xl_data_get+0x130>
 800230a:	a201      	add	r2, pc, #4	@ (adr r2, 8002310 <lis2duxs12_xl_data_get+0x88>)
 800230c:	f852 f023 	ldr.w	pc, [r2, r3, lsl #2]
 8002310:	08002321 	.word	0x08002321
 8002314:	08002347 	.word	0x08002347
 8002318:	0800236d 	.word	0x0800236d
 800231c:	08002393 	.word	0x08002393
      case LIS2DUXS12_2g:
        data->mg[i] =lis2duxs12_from_fs2g_to_mg(data->raw[i]);
 8002320:	7ffb      	ldrb	r3, [r7, #31]
 8002322:	687a      	ldr	r2, [r7, #4]
 8002324:	3304      	adds	r3, #4
 8002326:	005b      	lsls	r3, r3, #1
 8002328:	4413      	add	r3, r2
 800232a:	f9b3 3004 	ldrsh.w	r3, [r3, #4]
 800232e:	7ffc      	ldrb	r4, [r7, #31]
 8002330:	4618      	mov	r0, r3
 8002332:	f7ff fc5f 	bl	8001bf4 <lis2duxs12_from_fs2g_to_mg>
 8002336:	eef0 7a40 	vmov.f32	s15, s0
 800233a:	687a      	ldr	r2, [r7, #4]
 800233c:	00a3      	lsls	r3, r4, #2
 800233e:	4413      	add	r3, r2
 8002340:	edc3 7a00 	vstr	s15, [r3]
        break;
 8002344:	e040      	b.n	80023c8 <lis2duxs12_xl_data_get+0x140>
      case LIS2DUXS12_4g:
        data->mg[i] =lis2duxs12_from_fs4g_to_mg(data->raw[i]);
 8002346:	7ffb      	ldrb	r3, [r7, #31]
 8002348:	687a      	ldr	r2, [r7, #4]
 800234a:	3304      	adds	r3, #4
 800234c:	005b      	lsls	r3, r3, #1
 800234e:	4413      	add	r3, r2
 8002350:	f9b3 3004 	ldrsh.w	r3, [r3, #4]
 8002354:	7ffc      	ldrb	r4, [r7, #31]
 8002356:	4618      	mov	r0, r3
 8002358:	f7ff fc64 	bl	8001c24 <lis2duxs12_from_fs4g_to_mg>
 800235c:	eef0 7a40 	vmov.f32	s15, s0
 8002360:	687a      	ldr	r2, [r7, #4]
 8002362:	00a3      	lsls	r3, r4, #2
 8002364:	4413      	add	r3, r2
